:020000040000FA
:10000000405F00209D00010093EC01008900010089
:100010008900010089000100890001000000000042
:10002000000000000000000000000000F9010100D5
:100030008900010000000000A50101008900010005
:10004000A50301005B0C0200A5030100A50301004C
:10005000A5030100A5030100A5030100A5030100FC
:10006000A50C0200A5030100A50301008F0C0200EE
:10007000A5030100A5030100A5030100A5030100DC
:10008000A5030100A5030100A5030100A5030100CC
:10009000A5030100A5030100A5030100A5030100BC
:1000A000A5030100A5030100A5030100A5030100AC
:1000B000A5030100A5030100A5030100A50301009C
:1000C000A5030100A5030100A5030100A50301008C
:1000D000A5030100A5030100A5030100A50301007C
:1000E000A5030100A5030100A5030100A50301006C
:1000F000A5030100A5030100A5030100A50301005C
:10010000074B1B78002B4FF0000383600360054B07
:10011000436014BF02220122FF23C27103727047A1
:10012000400E0020F8000800064B074A9B7802604A
:100130004FF40A728280C371082200238271037215
:10014000704700BF400E0020F1DB0000F8B5C41D71
:10015000002824F00704054614BF2046002000F0C4
:1001600035FB071E02DA6FF00B00F8BD0DB9FC423B
:10017000F9D42E4E71893089737B327B0331033081
:1001800089B280B20BF02AFC0028ECDBB178F3785E
:1001900027440337002D194427F0030700FB01F122
:1001A00014BF3846002000F09DFC07440DB9002F15
:1001B000D9DB01203C4600F0FFFA90B1B17B81B160
:1001C000FC1D002D24F0070414BF20460020252329
:1001D000282202F067FA0028C5DB04440DB9002C80
:1001E000C1DBB37CABB1012000F0E6FA88B1B37B90
:1001F0007BB10734002D24F0070414BF20460020F3
:10020000B17C05F0ADF80028ADDB04440DB9002C3D
:10021000A9DBF36A1BB135B1F4620020A5E7002D1C
:10022000FBD12046A1E72834FBD59CE7400E0020F7
:100230001FB572B6184B1D6BE5B9BFF34F8F174949
:10024000174BCA6802F4E0621343CB60BFF34F8FD1
:1002500000BFFDE7B2FBF6F2DCB20133002AF9D1B0
:1002600004F110036B4403F80C2C0A2234B901A8E2
:10027000A847E2E7024600230A26EDE7631E04AE24
:10028000DCB256FA83F3B0FBF2F602FB1600303014
:1002900003F80C0C3046E9E7400E002000ED00E0CA
:1002A0000400FA0507B50C4B5A7B8DF801201A7B28
:1002B0008DF8002068465A891B89ADF80420ADF8F6
:1002C000023003F04DFD18B1DB210320FFF7B0FF32
:1002D00003B05DF804FB00BF400E002038B50546B2
:1002E00070B30AF0D3F910B94FF0FF3038BD07F002
:1002F0007FFCB0F5FA7FF7D8144C1548256300252C
:1003000000F0D4F92A222946A01C84F83450257024
:10031000E5620AF023FD0123A3701B23238163817F
:1003200040F20323A3810323A3730823A374EFF3F1
:10033000108472B600F046FC2CB962B62046D5E7B0
:100340006FF01500D2E72846D0E700BF400E00202E
:10035000A502000038B51446002849D1264D95F86D
:100360003430032B41D071B112B96FF0150038BD94
:10037000013906293CD8DFE801F0043B153B2A3B54
:1003800033001378AB700020FFF7E0FE0028B7BF02
:100390000123022385F834306FF00B00A8BF85F8E5
:1003A0003430E4E71379002BDFD05379002BDCD015
:1003B0001288FB2AD9D81A2A6388D6D91B3BE02B8E
:1003C000D3D82368AB600D4BA2889A80DBE701206D
:1003D00000F0F2F9237808B1012BC6D9AB73D2E74C
:1003E0001388FF2BC1D8AB74CDE74FF0FF30BEE7C9
:1003F0006FF02C00BBE700BF400E0020480E00202D
:10040000F8B50D46064630B329B311F0070422D1E2
:10041000124F97F83430012B02D16FF00B00F8BD6A
:10042000032B02D14FF0FF30F9E700F091F80028DC
:10043000F8D02846FFF78AFE0028EEDB0DF02FFCEF
:100440003046F96A03F020FDFFF72CFF032387F8FD
:1004500034302046E3E76FF01500E0E7400E00205F
:1004600010B5074C94F83430032B03D103F028FD6A
:1004700004F022FB0BF008FB002084F8340010BDD0
:10048000400E002050B1074B03F1140253F8041B37
:1004900040F8041B9342F9D1002070476FF015001B
:1004A000704700BFF747020010B5094B93F834407E
:1004B0005CB903F0CDFC0749012000F075F9204636
:1004C000054900F071F9204610BD4FF0FF30FBE701
:1004D000400E0020010100002901000010B5054B6D
:1004E00093F834401CB90CF07DFB204610BD4FF052
:1004F000FF30FBE7400E002010B5054B93F8344069
:100500001CB90CF072FB204610BD4FF0FF30FBE72A
:10051000400E002008B5064B93F83430032B03D06F
:1005200002F0C4FF002008BD4FF0FF30FBE700BF22
:10053000400E0020024B02681A600020704700BF86
:10054000780E0020014B1B68184700BF780E002072
:10055000024B1868003818BF01207047780E002041
:100560002DE9F8431C4E044600F104081A48C6F869
:10057000008004F0B9FA0228054606D11649204643
:100580000AF03BFD2846BDE8F88304281CD131461B
:1005900020460AF097FDB0F5817F03D37221082031
:1005A000FFF746FE0028E1D0277894F802903846FD
:1005B00000F028F80028D9D03E2FE3D1484600F0BB
:1005C00061F80028DED1D1E70828DBD102492046B6
:1005D0000AF042FDD6E700BF7C0E0020074B4FF02B
:1005E000FF3141F6FF72C3E9001205490022C1E95B
:1005F00000221F21C3E90212704700BFC00400207F
:10060000800F00203F280CD801380B4BC0F342125A
:1006100000F01F0053F8223023FA00F000F0010030
:100620007047FF2806D04038C0F34212034B00F059
:100630001F00EFE701207047C0040020800F00205A
:100640000146074B006849681A4603C240F48C22F1
:100650001A6041F0107242F4FF625A60704700BFA6
:10066000C00400200246024B0068516803C3704773
:10067000800F00200246024B0068516803C3704798
:10068000C8040020FD281ABF00F1FF30C0B23F208F
:10069000054B420903EB820300F01F009B6823FA1D
:1006A00000F000F001007047C0040020014B18600A
:1006B000704700BF880F002010B5FFF78FFF0CF0C8
:1006C00020F8034B1B68044603B19847204610BD31
:1006D000880F00200B880288F0B5C3F30E049EB289
:1006E00004F11803C57CC35A02352A442B4497B23F
:1006F00013FA82F3013B4288B3FBF7F313FB074382
:100700009BB29A42044A93BF22EA06033240134343
:100710009BB20B80F0BD00BF0080FFFF4A1E062A7F
:1007200008B50346084604D84FF4D1711520FFF7E9
:100730007FFD094A914202D940F2A311F6E711B9AF
:1007400003B1196008BD2BB11B680022C3E9012168
:100750001A1D1A600430F5E7FAFFFF7F10B5114B40
:1007600000EB41041A786389B3FBF2F303FB022325
:10077000013A1A44B2F5706F027928BF00231A4477
:100780008378B2FBF3F0194403FB1020091AB1FB84
:10079000F3F003FB101313446FEA43436FEA534330
:1007A000638110BD8C0F0020024B03EB8003596066
:1007B000704700BF8C0F0020034B03EB8003586889
:1007C000003818BF012070478C0F00202DE9F04F32
:1007D00010F0070A85B0054604D040F261111720D9
:1007E000FFF726FD554F07F10C06B1460446B0460B
:1007F0004FF0010B57F8043B8DF80BA03BB101A85B
:1008000098479DF80A30082B01D9E821E7E79DF8C1
:100810000B1081BB05B13160B94506F10406E9D181
:100820002DB3DFF81CE100238EF800301E460222B3
:1008300058F82200013A60B190F804A08178BAF12A
:10084000FF0F66D14FF000078E4207713CBFCEB25A
:100850000123511CECD10BB18EF80060022640F64A
:10086000FF6A58F82670002F65D1013EF9D2601B4F
:1008700005B0BDE8F08F9DF80AC0BCF1020FE64656
:1008800001F1050238BF4FF0020E0EF1FF3004EB0C
:1008900042040444CEF100002040BDF80840644406
:1008A000013CCCF1000C04EA0C04B4F5803F4FEAA3
:1008B000420301D3F82192E775B1C31A33609970EE
:1008C0001C8083F803B09DF80C201A71019A1A81DC
:1008D0004FEA124CA3F806C004FB01049CE758F849
:1008E0002C90B9F1000F06D099F804B0D34504BF9D
:1008F00099F802904F440CF1FF3CBCF1000FEEDA86
:100900003944FF29A0D90BB18EF8006040F22711BD
:1009100065E794460027F0E707EB41033846A3F864
:100920000AA0FFF71BFF09F10109BB785FFA89F103
:100930008B42F1D899E74FF00009F6E7900F0020BD
:100940008C0F0020F8B54FF6FF730380184B03EBB4
:10095000810305461869B8B186780379B3FBF6F2CE
:1009600006FB1233DBB219460A1D00EB4202B2F954
:1009700002705488002F09DB0131B1FBF6F206FB4F
:100980001211C9B28B42EFD10020F8BDFF29FBD074
:10099000C4F30E03C4782B8024B94FF4D57117200B
:1009A000FFF746FC5380BDE8F8400AF0F6BF00BFF1
:1009B0008C0F00201D4B03EB810370B51C690546AD
:1009C00044B3030404D54FF4DC711720FFF730FC67
:1009D000014620460AF0C3FFFF28014604D0204606
:1009E000BDE870400AF0D9BFA078B5FBF0F300FB7A
:1009F0001353DBB219460A1D04EB4206B6F9026036
:100A0000002E09DB0131B1FBF0F200FB1211C9B27B
:100A10008B42F0D1002070BDFF29FBD08B4204EB4C
:100A200042021CBF0023E3705580D8E78C0F0020E2
:100A3000094B03EB810310B51C69014620460AF0FF
:100A40008EFFFF28014604D02046BDE810400AF082
:100A5000A4BF002010BD00BF8C0F0020F8B5104BC4
:100A600003EB810307461C69014620460AF077FF25
:100A7000FF28054611D0E688238953EA064606D0AA
:100A8000014620460AF089FF01463846B047204615
:100A90002946FFF763FE0020F8BD0520FCE700BFF4
:100AA0008C0F002038B50E4B827903EB820304468D
:100AB000186908B9052038BD8278E1799142F9D2E8
:100AC0004B1CE37100EB41035D89B3F90A30002B45
:100AD000F3DBA5800AF061FF20600020EBE700BF98
:100AE0008C0F002070B5044610F003000E4603D0B2
:100AF0004F211820FFF79CFBFFF710FE054624B19D
:100B0000034831460460FFF709FE284670BD00BF68
:100B1000A80F00202DE9F14FDFF870B09DF828A054
:100B20009DF82C901E46DBF8003007460D46904697
:100B30001BB961211820FFF77BFB52460921404673
:100B40000AF07DFD4A4684B2092130460AF077FD5D
:100B500014FA80F1DBF800000AF0D6FE386018B90C
:100B6000286001B0BDE8F08F04442C60386853461B
:100B7000414609220AF01CFD28684B4609223146ED
:100B800001B0BDE8F04F0AF013BD00BFA80F002070
:100B900070B50E4604460AF065FD054630460AF07B
:100BA00061FD044B2A1821461868BDE870400AF020
:100BB000CFBE00BFA80F0020014B18680AF098BEF6
:100BC000A80F0020134B012200214FF0FF309A6044
:100BD000C3F80012C3F80803C3F80015C3F80425CE
:100BE0009A60C3F80803C3F80015C3F804250A493E
:100BF0000A4A03F580334FF40040C3F80825C1F8D2
:100C00008000BFF34F8FBFF36F8FC1F88001C3F82F
:100C10000825704700F0004000E100E00000F63FCA
:100C20000A461E2302F8033B0448C368C1F8033098
:100C30000369536043699360704700BFAC0F0020A5
:100C4000024B5A8C02435A845B6A1847AC0F00204F
:100C5000014B00215B6A1847AC0F002010B5154C02
:100C600006F0ACF805F056FC208DFFF7F1FF237E6F
:100C700063B12246104952F80C3BE360636853604D
:100C800004F11900A36893600CF00FFC0B4B228D4C
:100C900093E8030004F0EEFB236B188804F014FBC8
:100CA000A36B94F8341094F835009847002384F827
:100CB0003C3010BDAC0F0020210C0000D80F0020EC
:100CC000034B93F83C300BB1FFF7C8BF704700BF30
:100CD000AC0F002008B5094B93F83C20022A04D041
:100CE00040F22D212720FFF7A3FADA7A42F0010221
:100CF000DA72BDE80840FFF7B1BF00BFAC0F0020BB
:100D000010B50E4C226C137803F00303032B04D1AF
:100D1000D378022B01D1002010BD606C0AF02BFDAE
:100D20000028F9D1236C1B7803F00303032BF2D0C6
:100D300003F0C4F980F00100C0B2EDE7AC0F002071
:100D400037B5604C256B95F88C2000238DF8053065
:100D500094F848300AB10433DBB295F8681028B92A
:100D6000FF2B03D195F869308B4202D0FF2005F0AC
:100D7000D3FE95F88230032B00F29B80DFE803F06E
:100D800002337E9194F84930ADF806304E48A5F80C
:100D9000583003F06DF950B1216C4FF48070FFF7BB
:100DA0004FFF012385F87D3084F84A301DE0606CE8
:100DB0000DF105020DF106010AF07CFC206490B1F2
:100DC00095F8C7307BB99DF805302BB90380837047
:100DD000206C01210CF0BBFABDF80610206C0CF061
:100DE00017FB0123E0E7394B236495F88330216C2E
:100DF000DB0003F008020B7803F0F303134395F8CC
:100E00008420920002F00402134323F010030B70BD
:100E1000FFF776FF0028206C027814BF1023002310
:100E20001343037095F88B30002B45D04378002B8B
:100E300042D0206F06F062F8012384F88C30D5F898
:100E4000E030C4F88430216CD5F8E430206FC4F869
:100E5000883005F015FB95F86910012006F0CEF8F2
:100E6000226C1188A4F896109178194A012384F80D
:100E70009530917084F83C3003B030BDB5F85830EF
:100E8000606CADF806300DF105020DF106010AF0B7
:100E900011FC20640028A4D140F2CD212720FFF7C7
:100EA000C7F9094803F0E4F800289AD140F2D721A5
:100EB000F4E740F2E521F1E706F020F805F02AFB1F
:100EC000C9E700BFAC0F0020EC0F0020F70F002097
:100ED000421000202DE9F743504C94F83C30256B2C
:100EE000012B06460F4604D040F29D412720FFF714
:100EF0009FF995F87C302BB1002185F87C100420F7
:100F0000FFF79EFE216C0B7803F00303032B05D142
:100F100095F8823013B90220FFF792FE226C137805
:100F200003F00303032B03D05378002B65D1012377
:100F300085F8823095F88C30D3B1236BD5F8E82052
:100F400093F86900C4F884204FF00008D5F8EC202D
:100F5000C4F8882084F88C800AF098FD94F84890B2
:100F60002F49CDF8008003464A46012005F042FA99
:100F7000002E44D1002F42D0D4F89C303046984700
:100F800000283CD094F83430CBBB256BD4F8A43087
:100F9000C4F8A03095F88C3094F84800A3BBFF2823
:100FA00095F8691003D195F868308B4201D005F0AF
:100FB000B3FD95F88C3053B3206F05F09FFF0023ED
:100FC00084F88C30D5F8E830C4F88430216FD5F837
:100FD000EC30D4F8A000C4F8883005F051FA0020B5
:100FE00005F0C2FF95F86810002006F007F802230C
:100FF00084F83C3003B0BDE8F083022398E703B0E7
:10100000BDE8F043FFF72ABE0430C0B2C7E7D4F80A
:10101000A00005F073FF05F07DFAE0E7AC0F0020BB
:101020002010002010B5064B93F83C2002F0FF047E
:1010300022B91C7604F016FA204610BD0C24FBE7FA
:10104000AC0F00200B4B0C4A70B506460D461A60DB
:10105000FFF7E8FF18B1DE212720FFF7E9F8074C7A
:10106000012104F14B000CF072F9C4F8A46025676B
:1010700070BD00BF1005002064160000AC0F0020FA
:10108000024B012283F8A820704700BFAC0F00205C
:10109000F0B56D4C85B002AD85E8030094F83C10C6
:1010A0000A9F01F0FF0611B90AB103B127B940F256
:1010B0006D112720FFF7BCF895E8030004F12C0C14
:1010C0008CE80300256B6262C4F89C30A76384F847
:1010D000A86084F8346084F8A96084F8356084F8E6
:1010E000956084F84A606684268505F041FD05F028
:1010F00011FA95F9700005F0C9FD686A05F0F0FE77
:10110000E86905F0C9FD95F89C0005F0EBFD95F840
:1011100068204E4B33F8121030464FF47A7301F5C5
:10112000FA71B1FBF3F16E3105F034FE484B1868EB
:1011300005F0DCFE2B6963646B69C4F8AC3004F124
:10114000740205F1F00305F5807153F8040B42F8C1
:10115000040B8B42F9D1D5F80021C4F88D205A68D0
:101160003C4B5A60236B93F8862093F86860253ACD
:10117000012A03D993F88720252A60D193F8E23118
:101180002BB1012E03D0012B0CBF0126022605F145
:101190003007314638460CF0C5F931460BF082FF76
:1011A000AB8F95F86910834228BF0346384684F810
:1011B00049300CF0A7F995F8691095F88C70B5F8DE
:1011C0004460042908BF03210BF06CFF0FB9043001
:1011D00080B2B04228BF304695F88B30C0B284F858
:1011E000B00084F84800ABB1012384F88C30D5F806
:1011F000E03095F86800C4F88430D5F8E430C4F8DD
:1012000088300AF043FC0346002013490090FB227B
:1012100005F0F0F80120FFF793FD002323606360E1
:10122000A360B5F8803063802B88238095F89C30CC
:101230002371EB6E0BB101221A6005B0F0BD032ED5
:1012400008BF0426A3E700BFAC0F0020FC1D02006E
:1012500010050020391000202010002008B5094B8F
:1012600093F83C201AB9BDE80840FFF7F7BC93F8A3
:101270003C30012B04D040F20B212720FEF7D8FF91
:1012800008BD00BFAC0F0020014B1876704700BFAF
:10129000AC0F00202DE9F3411F4D82072C6B064651
:1012A0000F4624D5D5F8B43023B940F28E4127201B
:1012B000FEF7BEFFB5F8B820D5F8A01018460332E7
:1012C00091F8018009F0B6FD0DF1020201A9C5F8FF
:1012D000A000D5F8AC000AF001FB01980AF0E8FA8A
:1012E000012238604146D5F8AC000AF08EFAF307C7
:1012F0000ED5D4E93A32013342F10002C4E93A3260
:1013000094F88430012B0CBF0023012384F884302F
:1013100002B0BDE8F08100BFAC0F00202DE9FF470F
:10132000B14C0023CDE9023394F83C30266B022BFC
:101330008046894604D040F211512720FEF778FFFD
:10134000238D580606D44020FFF782FC238D43F0FE
:101350004003238596F88C30B8F1000F00F03481FB
:10136000ABB105F0EFF890B9D4F8A0305A7872B16B
:101370001B7896F88420C3F3C0039A4207D1012357
:1013800084F83530FFF76AFC04B0BDE8F087D4F884
:10139000A0305978A4F8B81009B3D4F8AC000AF01A
:1013A0000BFAC4F8B400238D96F8832043F400733D
:1013B0002385D4F8A0301B78C3F380039A4200F051
:1013C000C180256B95F88230A3B3022B11D1606CDC
:1013D00002A90AF092F928B940F20541ADE7C4F834
:1013E000B410E0E7D5E93832013342F10002C5E933
:1013F000383295F87D30002785F8827093B185F8F2
:101400007D7002F045FE10B940F21C4195E7394667
:101410000820FFF715FCD5E93832013342F100020C
:10142000C5E9383295F88330012B0CBF0023012326
:1014300085F88330238D43F4006323854FF0000A41
:10144000D4F8A01096F884200D78C5F3C0039A4212
:1014500040F0AC8005F00305032D276B74D0002D00
:101460007DD197F88430013B18BF012387F8843081
:10147000D4F8A0305B7833B1D7E93A32013342F186
:101480000002C7E93A3296F88B30ABB1012384F8F9
:101490008C30D6F8E03096F86800C4F88430D6F87E
:1014A000E430C4F888300AF0F1FA034600204F49CE
:1014B0000090FB2204F09EFFB9F1000F00F09A802B
:1014C00005F0BCFD4FF001091DB103A90220FFF793
:1014D000E1FEBAF1000F04D0B4F809300133A4F8EA
:1014E0000930B8F1000F00F0B780B4F805300133CF
:1014F000A4F80530002384F8A9303D4803F0D2FE5B
:10150000029830B10AF0D4F9216B0022027203F084
:101510002FFB039B33B1216B00221A720C2203981C
:1015200003F0F4FAB9F1000F7FF42CAF238D1B0602
:101530003FF52AAF8020FFF78BFB238D43F080031C
:10154000238521E7C2467BE7238D012043F48053A6
:1015500087F87C0023850025FFF772FB81E74D7833
:10156000002D3FF47EAF238D97F88C5043F48053C9
:10157000238505F087FA042894F8B03006D1002DB1
:1015800014BF1B221F22934228BF1346D4F8A02069
:1015900052789A420CD8D4F8B450002D3FF473AF6F
:1015A00094F8A83073B12020FFF752FB00256AE7BA
:1015B00094F83430012043F0100384F8343006F0FE
:1015C00079FCF3E745464CE70BB104F0F7FF94F8DC
:1015D000A930013384F8A930238D002543F48063BA
:1015E0002385AA464FE700BFAC0F00202010002043
:1015F000D80F002094F8A930012B3FF661AFD4F842
:101600009C300120984700283FF45AAF94F83430BA
:10161000002B7FF455AF94F89630D906C3F300122F
:1016200002D5FFF76DFB0246D4F8A430D4F8B4100D
:101630001B78C3F3001329B9B4F8B81013B1B1FA89
:1016400081F35B09608C00287FF43AAF13433FF4C9
:1016500037AFFFF775FB37E7B4F807300133A4F86D
:1016600007304AE7D50C00001D130000D50E00001E
:10167000C10C0000024B1B68002283F870207047E9
:101680006810002008B502F0E1FF014B187008BD9A
:10169000D0040020024B18686C3001F049B800BF3C
:1016A0006810002038B50F4CFFF7F4FF656801F0B3
:1016B00015F863682860186820B940F2F7413220B5
:1016C000FEF7B6FD0AF0D8FB10B940F2F941F6E793
:1016D00005F014FC002005F047FC636804221A7131
:1016E00038BD00BF6810002070B52B4C63680646FB
:1016F00018680AF0C1FB054620B941F29B3132203F
:10170000FEF796FD236893F8543013B941F2A131E6
:10171000F5E776B10BF0F5FD30B163681A79022A6E
:101720000ED841F22131EAE728460BF002FE0028EC
:10173000F3D163681A79022A17D841F28131DEE7C2
:101740001A79082A02D941F22231D8E71B79A26816
:1017500003F180431269033B284652F8233098472F
:101760000C2812D941F2B431C9E71A79082A02D9F2
:1017700041F28231C3E71B79A26803F180435269C9
:10178000033B52F823309847EAE7A368DB68BDE8DB
:10179000704053F8203018476810002008B5074BF8
:1017A00093F900207F2A04D140F29D313220FEF7C8
:1017B0003FFD02707F221A7008BD00BFD0040020D8
:1017C00010B504788EB004F00F04224604A90AF084
:1017D00074FBFFF757FF042C33D11B4C059A236889
:1017E000107893F8741088422BD1507893F87510C4
:1017F000884226D1907893F87610884221D1D0780B
:1018000093F8771088421CD1107993F878108842A9
:1018100017D1517993F87920914212D19DF8212066
:1018200093F87A309A420CD10DF10F00FFF7B6FF12
:101830009DF90F300093237C227B606804A90AF095
:101840002DFB03200EB010BD6810002010B50D4A0E
:1018500053681979022904D841F293413220FEF7E6
:10186000E7FC1979082902D941F29441F6E71B797E
:10187000926803F180439268033BBDE8104052F840
:10188000233018476810002010B5054C637B2BB13E
:1018900005F09AFB04F056FD0023637310BD00BFF2
:1018A0006810002010B5064CFFF7EEFF63680122B8
:1018B0001A71FFF7EFFE2068BDE810400AF072BD14
:1018C0006810002010B500B919B9BDE81040FFF745
:1018D000E9BF0D4A53681979082904D841F26341D8
:1018E0003220FEF7A5FC19790C2902D941F2644196
:1018F000F6E71B79926803F180435268093BBDE823
:10190000104052F8233018476810002038B52F4C8B
:10191000FFF7C0FE656800F0E1FE636828601868A4
:1019200020B940F254413220FEF782FC0AF0A4FABA
:10193000054610B940F25641F5E7236893F889301F
:101940006BB123681A6D93F88A10C3F8F02093F8EE
:1019500054200A4383F85420002283F889206368C6
:101960001A795AB11B79012B08D0206800210AF09E
:1019700006FC18B9BDE83840FFF794BF2368144A45
:1019800093F88830D05C05F0ADF90121252005F0F1
:10199000C3F8284605F0B2FA0121084605F0A8F977
:1019A000E81C02F01BFD607320B104F0B1FC402084
:1019B00005F0FEFA626800230821E373A373237421
:1019C000D380032351711371217338BD6810002037
:1019D000021E020070B5374C63681B79012B054667
:1019E00004D940F6EA013220FEF722FC05F0C0F8E7
:1019F00005F0EAFA04F0A6FC2F4805F077FA2F4824
:101A000005F06EFA2E4805F047F96B7A23B123688A
:101A10001B6E0BB101221A602B7A032B02D140F608
:101A20001911E0E72068B3B9032190F8882090F8F5
:101A30004A500E460132B2FBF6F303EB4303D31ACE
:101A4000DAB245FA03F3DB0703D4013911F0FF01E1
:101A5000F0D180F8882090F9580005F017F9FFF7C9
:101A600055FF256895F8483013B3D5E920126FF07B
:101A700000439A4208BFB1F1FF3F19D00CF02AFA97
:101A8000D5E92023904271EB030311D3012002F02A
:101A9000B7FC68B1256802F083FC04460CF01AFA22
:101AA000084BA4FB03341B1844EB0104C5E92034A4
:101AB00070BD00BF681000208005002055555500FE
:101AC000D6BE898E40420F002DE9F8435B4D064695
:101AD0006869D5F80080002303704370894605F0DB
:101AE00027FA074628B9032003F030F83846BDE846
:101AF000F883032E6C693CD1237823F00F0343F065
:101B0000030323700C23637008F1740168690BF000
:101B1000DAFB98F87A1068690BF0E9FB2B6893F808
:101B2000482093F8418003F1420482B193F8542095
:101B3000520771D593F84C20002A6DD093F84D00D0
:101B400002F0CCFC00281CBF04464FF00108686975
:101B500021460BF0AAFB686941460BF0BBFB384BF2
:101B6000D3F80431002B5AD040F23F613220FEF707
:101B70005FFB052EC8D12378286823F02F0343EAA2
:101B80004911222241F0050121706270036DDB6969
:101B9000C4F80F30036D5A6AE274110A120C2175F1
:101BA00062759A8D40F2E24CB2FBFCF2A275996A22
:101BB000B1FBFCF1E175C1F3072121769A69B2FB13
:101BC000FCF26276C2F30722A2761A8CE276120A3F
:101BD00022775A8C6277120AA277D3F88F20C4F842
:101BE0001F2093F8933084F82330036D93F89A30D4
:101BF00094F8242003F01F0322F01F02134384F8FB
:101C0000243002F0A5F994F8243003F01F0343EACE
:101C1000401384F8243077E76B68587990E7052EF5
:101C20007FF464AF2B6821681A6DC2F80A10A1888E
:101C3000D1811B6D83F8098058E700BF6810002030
:101C40000010004010B500210320FFF73DFF18B938
:101C5000BDE81040FFF726BE074C032120680AF0BC
:101C60008EFA0028F4D00121084605F0C7F9636810
:101C700009221A7110BD00BF6810002038B5184D38
:101C80006B6818680AF0F8F8044620B940F263510E
:101C90003220FEF7CDFA6B6828680A221A710021FB
:101CA00000F028FF2B681A6D237892F88E4004EA22
:101CB000531404F0010421460520FFF705FF18B96D
:101CC000BDE83840FFF7EEBD286804210AF057FA56
:101CD0000028F5D02B681B6D83F88E4038BD00BFFF
:101CE000681000202DE9F04F774C95B00546FFF7BE
:101CF000C9FC236893F8543013F0060F04D0012276
:101D0000962100200CF034F82E7806F00F062846B5
:101D100032460AA90AF0D1F80B9D4DB39DF839203F
:101D2000012A51D16B7903F0C003A3F140014B426A
:101D30004B41627B4AB143B165680BF056F9636869
:101D400068715B7923730123A3736368587908284A
:101D50003CD10B999DF839000BF09AFE62680B9903
:101D6000054605329DF8390002F0FEFA00283FD002
:101D7000216891F8543013F0030207D0062E91F831
:101D80004B2043D8002A0CBF2A460122606802F08B
:101D9000010213F00403827107D0062E91F84C3033
:101DA00036D8002B0CBF2B46012303F00103C3716F
:101DB0000B9BFBB19DF8392081F87A201A684A679D
:101DC0009B88A1F8783015E00023B2E708AA0DF14E
:101DD0001F0102F0EBFA20B940F693313220FEF7F2
:101DE00027FA9DF81F0008A90BF052FE0546BFE731
:101DF0006368D880062E00F2CC80DFE816F067001A
:101E0000EA000B00CA00CA00CA002A000022BDE78F
:101E10000023CAE704F0D2FF266896F854309A07E8
:101E200001D1032533E06568AB79002BF9D008A810
:101E3000FFF7B4FC9DF920300293237B0193FF232D
:101E40000093022206F142030AA928460AF016F876
:101E5000E7E76568AB79002B00F09B80266896F871
:101E60005420930719D508A8FFF798FC9DF9203056
:101E70000293237B0193FF230093284606F142033C
:101E800006220AA909F0FAFF002323740925FFF7A7
:101E9000FBFC284615B0BDE8F08FD70779D556076B
:101EA00001D504F08BFF08A8FFF778FC9DF92020EE
:101EB00023680292227B0192FF2200924233062283
:101EC00060680AA9C2E700BF68100020236893F881
:101ED0005420550738D56168CA79002A34D00B9A46
:101EE00093F85A001578854256D1557893F85B00DF
:101EF000854251D1957893F85C0085424CD1D578D4
:101F000093F85D00854247D1157993F85E008542CC
:101F100042D1507993F85F2090423DD19DF839200D
:101F200093F85900101A4242424193F85600012892
:101F30004DD0002A4BD193F84D30082B02D04A796E
:101F40009A4244D004F03AFF6568AB79002B3CD04C
:101F5000266896F85420930720D508A8FFF71EFCA2
:101F60009DF920300293237B0193FF2300932846A1
:101F700006F1420300220AA909F080FF012323741D
:101F800009256368DA79002A81D19B79002B7FF4D7
:101F90007EAF04F013FF44E70022C6E7D70714D54D
:101FA000560701D504F00AFF08A8FFF7F7FB9DF9D3
:101FB000202023680292227B0192FF220092606817
:101FC000423300220AA909F059FF0325D9E70A255F
:101FD000D7E7616822688B799DF83A00059392F8FB
:101FE000483091F807B0012883F0010A40F0AA8038
:101FF0000C98477907F0C007A7F140056F426F4181
:1020000092F85400400740F19F8092F84C0000285D
:1020100000F09A8092F84D50082D00F097802846E5
:1020200002F080F9002818BF8246002F00F090804F
:102030000C99284602F018FA0646216891F84100EA
:10204000002E00F0878040F0020991F854205307D9
:1020500052D50B9A91F85A5092F800C0AC457BD1FA
:1020600092F801C091F85B50AC4575D192F802C06E
:1020700091F85C50AC456FD192F803C091F85D5077
:10208000AC4569D192F804C091F85E50AC4563D17B
:10209000557991F85F2095425ED19DF8395091F8BD
:1020A0005920A5EB020CDCF1000545EB0C0562683C
:1020B0005279082A52D091F84D80A8EB0202D2F151
:1020C000000848EB0208002E4BD1BAF1000F4AD0AD
:1020D0000C9B9DF83A2042310AF052FFBBF1000FF1
:1020E00008D0236893F85630012B54D013B955EA21
:1020F000080350D104F062FE236893F854309B0724
:102100003FF48FAE04F05AFE059B002B3FF489AEDE
:1021100020680C9B9DF83A2000F1420190F84100A4
:102120000AF02EFF08B92568FEB108A8FFF736FBB4
:102130009DF920200292227B2368CDE90092423350
:102140000122BDE600275BE74D7965E7002674E7CD
:102150003E4672E7814678E70025A8E74FF0000881
:10216000B1E70120BAE73046B8E795F85520023AC2
:10217000012A3FF656AE002F3FF453AE08A8FFF7F2
:102180000DFB9DF920300293237B0193FE230093E6
:1021900005F14203D4E70028ACD00A2577E600BF5A
:1021A00013B53F4CFFF770FB236800225A721A6D7B
:1021B0001188598140F2E2409169B1FBF0F1198434
:1021C000118C528C9A844FF47F42DA844FF6FF725E
:1021D00059841A85694660690BF06EF8216891F898
:1021E000483001F11402E3B163691B785B0618D52E
:1021F0009DF8053003F0C003402B12D10098BDF8C4
:10220000043048619380207B082801F10E0238D009
:102210000D3102F0CBF838B941F2EA313220FEF745
:1022200007F800234B61EDE723685A7B42F0020276
:102230005A735A6FC3F81A20B3F87820DA832368E8
:1022400093F95810186D02F0D1F9206815490BF078
:1022500023F920681449036D1A88A0F8332093F8F5
:102260008E3080F835302A300BF01FF920680221BB
:1022700000F040FCFFF70EFA02B0BDE81040FFF797
:10228000F9B991F87A304B734B6FC1F80E30B1F851
:10229000783093800023C1F81A30CB83CFE700BF9A
:1022A000681000200FBB0000ADBA0000036D10B530
:1022B000044623B940F263313220FDF7B9FF022210
:1022C00042721B884381FF2380F827304FF6FF734B
:1022D000038503490BF0E0F80023236510BD00BF20
:1022E0000FBB0000F8B5174F0E46786101210020A2
:1022F000FEF760FB054620B940F687013220FDF766
:1023000097FFF822002108F029FD01210846FEF779
:1023100051FB044618B1F822002108F01FFDBB68EC
:1023200013B940F69101E9E7304609F0A4FC2846CC
:1023300009F0E6FE24B12046BDE8F84009F0E0BE11
:10234000F8BD00BF68100020014B024A9A60704738
:102350006810002068050020036810B523B940F616
:102360005E113220FDF764FF044A13606C33536042
:102370009368BDE810401B68184700BF6810002034
:1023800038B590F84030054613F0FD0F14BF01201A
:10239000002085F8410005F1420101F0B5FE95F8F5
:1023A0004030023BDBB2012B94BF0123002385F8B0
:1023B000483015D801F0F4FF04460BF08BFD094BB3
:1023C000A4FB03341B1844EB0104C5E920340020AE
:1023D00002F016F820B940F602213220FDF728FF5E
:1023E00038BD00BF40420F00014936300BF057B8EE
:1023F000CFBA000008B509F03EFB054AD2E84F3FCE
:102400000133DBB2C2E8413F0029F7D108BD00BF6C
:10241000801000202DE9F84F0D461E460021464B46
:102420000468016093461A789DF828709DF82C8006
:102430009DF930909DF834A032B95868A4F1080194
:10244000BDE8F84FFFF7D6BF1A2204F1090008F0E3
:1024500085FC0123A372BBF1060F3CD8DFE80BF02B
:102460000420263B303B2A00E37A23F0130343F099
:102470001303E37201232375FF23A375B8F1080F3B
:102480004FF07F0384F81890E37504F10E0246D0F4
:1024900004F10D01404601F089FF08BBC1211CE099
:1024A000E37A23F0150343F01503E2E7E37A43F000
:1024B0001003DEE7E37A23F0120343F01203D8E7B8
:1024C000E27A4AF01A0A22F01B020AF01B0A42EAD8
:1024D0000A02E272CEE74FF484613320FDF7A8FED2
:1024E000637B43F002036373E37A5B0720D5BA1E74
:1024F000012A8BBFAA6832681168E26188BFE16176
:1025000004F11C0394BFB28892889A80E776002376
:1025100023720A492046BDE8F84F0AF0C0BF6B7C21
:1025200063736B681968C4F80E109B889380DBE7AF
:10253000FF23E376EBE700BF801000204125000079
:102540002DE9F04305468DB00C4600200121FEF731
:102550006FFA064620B940F2C7113320FDF768FE36
:10256000903009F0CFFD4E4FA5F1080818B196F84C
:102570005430042B19D1304609F072FB0646A0B93D
:1025800078684146FFF736FF8DF8046002238DF826
:1025900005309DF80430002063F307009DF80530F6
:1025A00063F30F200DB0BDE8F08302A905F123000D
:1025B00009F0B3FCEE7A16F0100604F10D0307D013
:1025C0009DF8186005991846324608F033FC03461A
:1025D000E97AC80601D45B21BFE74907AA7A95F8D2
:1025E0000DE004F1060005F10E0C2AD595F81B90BC
:1025F000B9F1FE0F25D1112121701101E2700231D4
:1026000001226170227184F805E0D5F80E20C4F82B
:102610000620BCF80420828084F80C90EA69C4F893
:102620000D202A8C9A802B7EE37478684146FFF750
:10263000E1FE23796FF34613237104238DF80430F0
:10264000A4E706F10A0313FB02F30233032121700E
:102650006370E27084F805E0D5F80E30C4F80630F7
:10266000BCF804308380267326442B7E7373EA7A89
:1026700012F0080002D004232371D6E702F003030E
:10268000032B01D12071D0E7520701D50123F3E7D5
:10269000022BF1D00BB92171C7E7A2215DE700BF82
:1026A00080100020233270B592B205460C461E46BB
:1026B00009F0A9F925B1034A5560147256721470D5
:1026C00070BD00BF8010002010B5034C606809F099
:1026D000BCF9237A237010BD8010002038B5134D4B
:1026E000686809F0B8F9044620B940F24711332070
:1026F000FDF79EFDD5E84F3F013BDBB2C5E8413F0A
:102700000029F7D104F108052322284608F026FB0A
:102710007F23E377FF23A377637584F82330E37C7B
:10272000012262F34613E374284638BD801000206E
:10273000016810B5044631B1034B08395868FFF7FA
:1027400059FE0023236010BD801000202DE9F04FBA
:102750008FB004461F46BDF86080069289460BF094
:10276000B9FBD4F8B430039020460493059109F0E6
:10277000E8FB069B8346002F00F05181002B00F000
:10278000C1800746039B13F5FA65059B43F10006DC
:1027900000F07CFC8246514604F1C800079000F02E
:1027A0004BFCD4F8F01011B1079809F023FDBBF1F0
:1027B000000F18D0D4F8D0B0BAF1000F16D0DAE973
:1027C0000031DAF80800C01841F10001CDE90056E7
:1027D0005A4609F059FE8345824607D240F26231DB
:1027E0002120FDF725FDD4F8B0B0E5E7D4F8B030EE
:1027F00003F2CF701AEB05058244BAFBF3FA03FB30
:102800000AFA46F10006B5EB0A0366F10002C4E9D4
:102810003232B8F1000F6CD14FF0FF326FF000434D
:10282000C4E92423012004F04BFDD4E924130793C9
:10283000079A4B1B00F523404FF47A7800F1A10072
:10284000B0FBF8F000F26F2862EB0600012B70F18C
:1028500000024FF00002C0F2DB80DDF810C09C45A2
:10286000824100DB0493DDF810A0D4F8B400069B8D
:10287000824528BF8246C4F8BCA02BB1D4E93223DC
:10288000C4E92656C4E92A234FF0000BC4E92856B0
:10289000C4F8B8802A4689F809B033462046049126
:1028A00009F058FBC9F8048089F80800002F00F0EF
:1028B000B180012389F80030DDE90331059AC81A97
:1028C000079B63EB0203012873F1000206DB6649F4
:1028D00081427BEB0303ACBF83468B46ABEB080125
:1028E000C9F81010C24534BF002001200FB0BDE868
:1028F000F08F42F2107329463246E8FB0312C4E916
:1029000024128FE7002800F08D80D4E924126FF0A4
:1029100000439A4208BFB1F1FF3F75D0012004F097
:10292000CFFC069B8DF82030039B13F59A72059B14
:1029300000F5234043F10003CDE90C234FF47A75F1
:102940000223A130B0FBF5F000F26F2508A809952D
:10295000ADF8283006F0A4FD074610B940F28E41CC
:102960003EE7D4E924320C99059E5B1A0D9962EB7F
:1029700001025B1B62F10002002A049B039DB8BFA9
:10298000002304934EE701208DF820B004F098FC5A
:1029900000F523404FF47A73A130B0FBF3F000F25E
:1029A0006F200990D4E93203D4F8B050D4F8A010C5
:1029B0008DF829B00A1AB2FBF5F26A43121843F1F6
:1029C00000032046CDE90C2309F0C4FA29468DF80E
:1029D000280008A80AF035FBDDE90C5641E0D4E9EF
:1029E00026232046079109F09DFA079900FB08F875
:1029F00018EB0A0041F10001C4E932012A463346CE
:102A0000204609F08FFA0DE7039D059E074609E76A
:102A1000049228E7C9E9045689F8007062E7002BA0
:102A20007FF4B0AED4E932A1D4F8B080039BA3EB1D
:102A30000A051AEB0803B5FBF8F508FB05F541F1AB
:102A40000006ED184FF0000B46F10006002FC6D02F
:102A5000039BEB1AB3F59A7F95D218EB050546F167
:102A600000065F46DEE600BF0040420F70B5044638
:102A70000D4690F8F43003F0FF0623B140F29A219E
:102A80002120FDF7D5FB11B940F29B21F8E7014663
:102A90000C4806F0ABFC202884F8F70010D0C4F8EE
:102AA000F05095F8C83103F0FF0113B14FF42971CC
:102AB000E6E784F8F610204609F041FC012070BDDD
:102AC0003046FCE75FC2000038B504460D460146BB
:102AD000074806F08BFC202884F8F70005D0204634
:102AE000294609F02CFC012038BD0020FCE700BF7E
:102AF0005FC2000001292DE9F341044604D90229EF
:102B00004CD040F2FF7120E0D0E9266703F0C0FF0F
:102B100040F23965D4F8F080751947F100062D1898
:102B200046F10006D8F8187000F0AAFA04F1C803BC
:102B300083420DD0CDE900563A46D8E9680109F044
:102B4000A3FC874205D240F276312120FDF770FBCD
:102B50000020254B1A68D4F8F030824297BF40F22B
:102B6000E2419A69B0FBF1F201FB120294BF821AB2
:102B700080189A6241F66A029A859A6A41F669015A
:102B8000821A8A4202D940F29171DEE7401946F179
:102B90000006C3E9680602B0BDE8F081D0F8F03065
:102BA00013B940F29C71D0E7002540F2011283F87E
:102BB000C851A3F86820FF2683F86A60D0F8F000B7
:102BC0002946303001F0F2FFD4F8F00009F034FC6F
:102BD000C4F8F05084F8F66004F042F902B0BDE8A1
:102BE000F04106F0A7BA00BF8C100020F7B51E4ECA
:102BF000012333700027CDE900776846FDF752FFC7
:102C00000546C8B10023337003B0F0BD90F8C90188
:102C100007F01CFB94F8C90184F8C85106F01AFCAF
:102C200010B94FF4D7711BE0202384F8C93104F5A3
:102C3000D07000F0E5F9DEE7009B002BDDD093F8C3
:102C4000C821002AD9D018884FF6FF739842D9D0EE
:102C50002946FDF7EDFE04460028D7D140F2BF110A
:102C60003520FDF7E5FA00BF9010002038B50C4B79
:102C700090F86820054690F8690033F8124004F097
:102C80001FFB04F29D7404444FF47A712846B4FB90
:102C9000F1F1BDE8384001F5B4710AF087BC00BF1E
:102CA000061E02002DE9F843054691F886800C4681
:102CB00016461F461BB10121204603F0A7FA94F8DF
:102CC000C831032B3DD8DFE803F00239333926B988
:102CD0004FF40B713520FDF7ABFA012384F8C831AE
:102CE0002046FFF7C3FF4FF00009D4E9683219EB23
:102CF000030342F10002C4E96832C5E9043200234B
:102D00002B7094F886600B3EF3B21A2B9FBF304EA7
:102D1000DE40F64306F0010688BF0126204686F015
:102D200001060AF091FF00B176B100232B7211E089
:102D30000323D4F8D09184F8C831D6E7D4F818909A
:102D4000D3E740F26621C5E794F8C831012BDAB227
:102D50002AD12A7200236B7204F130000AF0D0FBF2
:102D6000686097B3A8F10D08B8F1010F2DD9494655
:102D700028460AF066F91FFA80F820460AF064FF38
:102D80000746D6B9804518D32E72D4E9683109FBBD
:102D900000F29B1841F10001C5E90431B9F1000FBF
:102DA00004D140F2B52195E70223BFE74946284602
:102DB0000AF047F938441FFA80F84146204603F0EC
:102DC00025FAD5E90423C4E96823BDE8F88300BFE8
:102DD000050000042DE9B841044618B9F421352056
:102DE000FDF726FA07295AD8DFE801F00442423EEF
:102DF00059484F5690F8C8310BB9FC21EFE703F062
:102E000045F900284ED0DFF8A080A56998F8013078
:102E10001BB9236B9D4228BF1D4604F130000AF008
:102E20006FFB00F16707022007F094F8ED1B25EA1D
:102E3000E575854228BF05460221284607F0DEF8E1
:102E400000B92F444FF4B172394620460AF0A2FB74
:102E5000C8F80400A06907F03FF808B9EE21BEE702
:102E6000BDE8B8410AF0B6BEBDE8B84104F0EEB81E
:102E7000BDE8B8410122002109F0B7BA012005F0F0
:102E800019F8BDE8B84108F00FBE90F8C831042B1E
:102E900008D04FF49171A2E740F227119FE740F26A
:102EA0002B119CE7BDE8B88190100020024B002256
:102EB000C3E90022FFF79ABE90100020014B587022
:102EC000704700BF9010002038B5044620B940F28A
:102ED00091113520FDF7ACF990F8C83103F0FF05EA
:102EE00013B14FF4C971F4E790F8C931202B02D027
:102EF00040F29311EDE70146044806F077FA84F8B2
:102F0000C901202814BF28460D2038BDD52D00004A
:102F100008B503F0BDFD054B5A6882422ABF1878F8
:102F2000002080F0010000F0010008BD901000209A
:102F300010B5044604293CD8DFE801F0031A161E38
:102F400037001E4B1B7803F0FF026BB9012109F01B
:102F50004CFAB4F880300133A4F8803003F080FFDD
:102F6000BDE8104006F0E6B8042384F8C831F5E760
:102F7000032384F8C83110BD8369C0F8D031D0E98B
:102F80007A238262B0F8E6218285D0F8F0210262CD
:102F900041F64B52934283618CBF0023012380F89A
:102FA0007230FFF763FE0223E3E7BDE81040FFF74E
:102FB0005DBE4FF455713520FDF73AF990100020B1
:102FC000014B00221A6070479810002008B5044B8E
:102FD000186810B9FFF7F4FF08BD0C20FCE700BF2C
:102FE00098100020C3693BB983692BB9034B1B6858
:102FF0001B1A584258417047012070479810002012
:1030000010B5D0E906436BB1D0E902211144DA686A
:103010009C610A44DA6082693AB1D3610023C0E955
:10302000063310BD034A1460F5E7002BF6D0DA60D2
:10303000F4E700BF9810002008B5C16191B90F4AAC
:103040001368836103B1D8611060C2690023C36053
:103050009AB1D3687BB181688B420AD22D21372087
:10306000FDF7E6F88B6988618361002BEDD0D861AC
:10307000EBE75B1AC3600023D36008BD9810002003
:10308000014B1868704700BF98100020034B1B6865
:10309000002003B9704718469B69FAE79810002092
:1030A0000B4B00221B6830B504464FF0FF3510462D
:1030B00023B911B9002808BF104630BDDA68A24212
:1030C00003D3AA423CBF154618461A469B69EFE750
:1030D0009810002038B5036A1BB182689C68A24230
:1030E00003D2CD213720FDF7A3F8C1698569D961E5
:1030F0009D6141B18B61996941B1CB61C1680A445D
:10310000121BDA6038BD02490B60F4E7D960F9E7B9
:1031100098100020F8B5264B0446084600211D688B
:103120000B466DB95BB1984225D3B0FBF3F1013C7E
:1031300003FB01F51C44B4FBF3F48C420ED9F8BD3B
:103140002E690BB19E4207D226B94FF496713720F3
:10315000FDF76EF8A98A3346AD69E2E7B5FBF3F6F1
:1031600003FB165626B9B5FBF2F602FB1656DEB186
:103170000139ED1AE1E7451E1D44B3FBF4F4B5FB3C
:10318000F0F5AC42DBD3B3FBF5F605FB16374FB9D0
:10319000B6FBF2F702FB176727B9B6FBF1F701FBA5
:1031A00017671FB10135ECE72846C8E73046C6E788
:1031B0009810002010B5044609F081F908B90020E4
:1031C00010BDE04309F07BF90028F8D0E31683EA4C
:1031D000A4635A1E1A42F2D020460AF026FA182892
:1031E000EDD8A3B2B3EB144F04D184EA142313F047
:1031F000FF1FE4D0034B63405A1E1A4214BF012044
:103200000020DDE7D6BE898EF0B5070CA7F5AA42EF
:10321000144B543A012A03EA90231FD927F40040A3
:1032200042F6AA22801A18BF012000221621164653
:103230001F2487EA060562EA0505013510D0DD0383
:10324000ADB245EA5606E503ADB2013945EA520290
:103250004FEA53034FEA5404EBD1F0BD0020E4E7FA
:103260000020FAE7E0FF3F0010B50446084808F0E8
:10327000EAFD2046074908F04BFF204608F037FDDD
:1032800020B12046FFF77CF8002010BD1220FCE79B
:10329000A0100020A81000202DE9FF410678012E83
:1032A000074640F0878031460020FDF7C1FB054608
:1032B00020B940F626613920FCF7BAFFBB88002B05
:1032C00072D108F0CDFC002870D195F8F430002BB5
:1032D0006ED12846FFF7C8FF0446002860D131466A
:1032E0003046DFF83C81FDF7A3FB98F8183006461E
:1032F0001BB110B940F64261DDE7D8F81420039203
:10330000002B45D096F8F430002B41D07B88002B61
:103310003ED198F804300093D8F8102098F80610A1
:1033200003AB304608F05BFD90B3304608F01AFF5F
:1033300006F14003074605F14002643653F8041BCA
:1033400042F8041BB342F9D12846FFF78DFF02462D
:1033500010B140F66461AEE70C2F07D10146284654
:10336000FFF7B2FBE0B940F66861A4E717B140F699
:103370006D61A0E798F80530296D43F0040385F8E6
:1033800054302846FFF772FB50B940F66F6192E760
:10339000BA8879882846FFF797FB002808BF0724DA
:1033A000204604B0BDE8F0811124F9E73A24F7E79C
:1033B0000C24F5E701210020FDF73AFB054610B982
:1033C00040F6826177E708F047FE04460028E7D11F
:1033D00095F8543095F8892022B195F88A20134346
:1033E00085F88900053B012BDAD82B6D13B940F61F
:1033F000926160E701210846FDF71AFB294606465F
:10340000F82207F017FD0423316D86F8543030465A
:10341000FFF72CFB0028C3D140F697614BE700BFB4
:103420009C10002038B5164C09F0A9FD00F086FF6D
:1034300000F076FD0AF011F801F02AF901F0A2FF80
:1034400001F04EF921460F4A41F8042B0E4A0F486D
:10345000106000231B2090805374538293829375D5
:103460000B4AA37710686060083212F8040C0871E8
:1034700007CA04F10C0585E80700A383E37738BD8C
:103480009C1000201B004801EC14002003021B00CC
:103490000C1E0200044B41F64C52C3E902221B22CF
:1034A0001A74FFF7BFBF00BFEC14002008B501F08D
:1034B000B9F809F06CF8024B83F8250008BD00BF8D
:1034C0009C100020014B93F9250070479C100020B0
:1034D000034B5A8802801B7883700020704700BF1E
:1034E000EC14002013B583781A2B044609D8042B5A
:1034F00005D9012202FA03F3114A134205D1122021
:1035000017E0292B01D03B2BF9D12088B0F5706F43
:10351000F5D2694609F073FD68B9019B93F818214B
:1035200002F0FF004AB9A27883F81921FF2283F83C
:10353000182102B010BD0220FBE70C20F9E700BF04
:103540002000380438B504784278857804F0010307
:1035500052EA030104F0020401D1112038BDBCB9C4
:10356000002DFAD0002B08BF144601E000242546A8
:10357000204609F016F80028EFD0284609F011F887
:103580000028EAD0054B00209C74DD749882E5E7A2
:10359000002BEBD114461D46EAE700BFEC140020D7
:1035A00013B50088694609F02AFD18B102242046A7
:1035B00002B010BD019808F0B8FF0028F6D00198BD
:1035C00090F82A310BB13A24F1E790F8D23003F0A9
:1035D000FF04002BF7D190F8C9309B0703D1FF23DC
:1035E00080F82A31E3E70249CA3009F05EFFDEE7DE
:1035F0001FDA0000F8B50378032B044602D9122520
:103600002846F8BD4378032BF9D8467E0EB1112524
:10361000F6E78378012BF2D100F078FCC307F6D5EA
:10362000A27812F0010514D0E178A5682369012978
:103630004AD83D49A3F25370884247D86FF41C7CA6
:10364000A5F6C4106144884240D89D4234BF12257B
:103650000025900712D5E078A3682169012837D8A2
:103660003248814236D8A3F6C41CA0F6C410844563
:1036700030D88B4234BF122300231D43510712D58B
:10368000E178A2682369012926D82949A3F6C41044
:10369000884223D8A2F6C41088421FD89A4238BF65
:1036A00012263543EDB2002DAAD1237E013B062B15
:1036B000A5D801212846FDF7BBF9064680B940F69A
:1036C00027513920FCF7B4FD1225C2E73025C0E7A9
:1036D0001223D2E73023D0E71226E2E73026E0E7D4
:1036E000903008F00FFD18B196F854309A0718D1B1
:1036F000E278A178A068B4F800C0267E012A1ABF3B
:10370000B2FA82F252090222CB0748BF2769094B5D
:10371000C3E9040719715A71A3F806C01E72197320
:103720006EE70C256CE700BF3CF670028FFD70025F
:10373000CBF370029C10002000B589B043798DF85E
:10374000043083798DF8053001238DF80630037835
:103750008DF80730B0F8013040F271214B430393EC
:10376000B0F803204A430C490592097A8DF81C10E1
:1037700000218DF81D100949A2F6C4128A4209D809
:10378000A3F6C4138B4205D801A8FFF733FF09B095
:103790005DF804FB3020FAE79C1000203C369C00CA
:1037A0002DE9F04F437A990744BF43F00103437278
:1037B000447A62078BB0054604D1122738460BB015
:1037C000BDE8F08F14F0F80FF7D1022CF5D000F01F
:1037D0009DFB34EA000340F0BD8195F84870002F4E
:1037E00040F0B881012CE8D1AB69B24AA3F2537121
:1037F000914200F2AD81EA689342DED8B5F84230DA
:103800000193AB8F00932A8EEB8E698DA88C08F004
:10381000D5FE002800F09C812B789A1E022A40F2E7
:103820009981012BC9D813B9AB78012BC5D86B7816
:10383000032BC2D895F84930013B062BBDD8DFF8E1
:1038400078A201210020FDF7F3F89AF81830064617
:1038500073B901210846FDF7EBF8002818BF0646AA
:1038600006F1900008F04EFC8046D8B10C27A5E781
:10387000903008F047FC0028EBD0D6E924126FF016
:1038800000439A4208BFB1F1FF3FE2D16B7A009347
:10389000EA68697805F11803304608F0A0FA804616
:1038A0000028D6D0304608F0E1F908B13A2785E77C
:1038B000304608F0D5F981460028F7D101460DF1D0
:1038C0001600FDF73FF80446002800F03F817B4BCF
:1038D000BDF816B01868079049461B79DFF8E091EB
:1038E0008DF82030204600F033FE764BC4F8D831F6
:1038F0002046D9F80830A4F800B040F8303F08F06E
:103900008FFD039000F0FCFA039B63876E4B99F8E0
:1039100010201B6884F8382010F0200F0FBF1B21E7
:10392000B9F80410B9F80200A4F85A0008BFA4F8C6
:103930005A10A4F85C101BB194F9701058469847BF
:10394000B9F80430B9F8022099F801104FF0010BD2
:10395000A4F82EB0019199F80010009103330332BE
:103960009BB292B204F1140104F11000FDF7D2F8F9
:10397000236923B941F2AF013920FCF759FC63698F
:1039800013B941F2B001F7E708F0A9FDE06101F0D9
:1039900071F920F07F40606295F84A3005EB4303EF
:1039A00040F2E242988C598D002384F872305143E2
:1039B0005043FFF7AFFB40F2E242A061C4F8B00110
:1039C000A4F8B42195F84A30D9F80C1005EB43035C
:1039D00020461A8EDB8E2284638408F01EFD07A920
:1039E00004F18E0009F0B9FBFF2384F8DC31DAF82A
:1039F000283023B15A4604F58D712046984799F82E
:103A000012A099F813B0B9F81490BAF1000F40F071
:103A1000EF8000F07BFA8246BBF1000F40F0E480BB
:103A200000F074FA8346BAF1000F21D1092701F0A2
:103A300021F90C23B0FBF3F202FB1300C0B2431DCB
:103A4000DBB2082B9ABF0D3084F89A0084F89A30C4
:103A50000121204600F07CFD002F40F0C38020466D
:103A6000FFF732FAB8F1000F0FD0A0B10746ACE073
:103A70000028DBD006A920468DF818A08DF819B0D3
:103A8000ADF81A9009F032FBD1E70028EED1697841
:103A9000304608F05EF905F1030AAA782978534602
:103AA000304608F003F9002856D1B8F1000F4BD189
:103AB0001220DBE73CF670029C1000200C4802004C
:103AC000EC140020BB10002090050020DDF81C90B5
:103AD0004C4566D0BBF1000018BF012099F80220C8
:103AE00009F10303514609F04BFA002859D099F81F
:103AF0000920607A09F10A0304F10A0109F040FA89
:103B000000284ED00B2760E0EB6808936B7A8DF8A5
:103B10001C80DB0744BFAB69099307A948BF012399
:103B2000304648BF8DF81C3008F0F2FA95F849107D
:103B3000304608F0B8F821463046FEF797FF0028D7
:103B40007FF43CAE072740E012273EE00D2735E624
:103B5000302733E6112731E6B8F1000F02D13046A5
:103B6000FEF70EFCAA7829785346304608F0FEF896
:103B7000B8F1000F02D1042386F854303465AB78D5
:103B800013F0FD0F524614BF01210021304608F00A
:103B900008F92B7853B995F802B0CDE907330BF04B
:103BA000FD0B07A8FCF77EFF00288FD001213046CF
:103BB00008F012F9B8F1000FA6D00421304608F041
:103BC0009FF800287FF4FAAD0C27208800F010FA47
:103BD00020880021FCF742FF00283FF4EFAD41F2BE
:103BE0007D31C9E6384641E700283FF41FAF41E781
:103BF000BBF1000F7FF43EAF12E700BF10B5437971
:103C0000032B94B056D823F002038DF80630D0F879
:103C10000630CDF807304389ADF80B3002798DF8C6
:103C2000042001238DF80D30027B03888DF80520D8
:103C300040F271225343049341884A430792847BA4
:103C4000417B41EA0421ADF82810047CC17B41EAA4
:103C50000421ADF82E10847C417C41EA0421ADF8AA
:103C60003410047DC17C41EA0421ADF83A10417D55
:103C7000847D41EA0421ADF84010C17D007E41EA17
:103C80000021ADF8461000218DF84C100B488DF83E
:103C90004E100B49007A8DF84D00A2F6C4128A42EC
:103CA0000AD8A3F6C4138B4206D801A8FFF778FD03
:103CB00014B010BD1220FBE73020F9E79C10002063
:103CC0003C369C0038B501210020FCF7B1FE0546CA
:103CD00020B941F2B0313920FCF7AAFA903008F04F
:103CE00011FA1E4B1B7E5BB3F0B195F85430053BC7
:103CF000012B19D8284608F035FA044610B141F2D4
:103D0000BB31E8E72846FEF7D1FA95F8543023F0A6
:103D1000040385F85430224621462846FEF7D4FE97
:103D200080B94FF49E51D6E701210846FCF780FE8A
:103D3000054610B941F2C731CDE7903008F0E2F9FD
:103D400010B90C24204638BD284608F00BFA04466A
:103D50000028F7D12846FEF7A9FAF3E79C100020C7
:103D60000278034672B1427862B142881A2A09D9B0
:103D700082881A2A06D9044A006810609B889380BA
:103D80000020704712207047EC140020024B02689C
:103D90009A600020704700BFEC140020024B0268BC
:103DA000DA600020704700BFEC1400200378A3F114
:103DB0000A02112A9DBF024A002013741220704784
:103DC000EC1400200378FF2B15D14378FF2B12D180
:103DD0008378FF2B0FD1C378FF2B0CD1037923F00D
:103DE000E0021F2A07D113F0E00F04D0034A5B0959
:103DF0001372002070471220704700BF9C100020F3
:103E000008B5FFF7DDF8FFF751F8FFF75BFBBDE8FA
:103E1000084001460148FEF765BA00BFC8100020FF
:103E200008B5FEF791FAFFF7EBFF09F0A6F807488F
:103E300000F58471FDF706F9002007F0B6FD09F0E2
:103E4000FFFEBDE8084000F047BE00BFC8100020DC
:103E500010B5094C094904F5037008F0D2FE04F5C9
:103E60000470074908F0CDFE04F505700549BDE86A
:103E7000104008F0C6BE00BFC81000209C050020FE
:103E8000A40500209405002038B5094C0D4600F02B
:103E9000FFFDD4F80C02C4F8045108F0AAFEFFF7A5
:103EA000F9FA00F0FFFE012384F8183238BD00BF94
:103EB000C8100020014B93F818027047C81000206A
:103EC00010B5074CD4F8100208F093FED4F8140291
:103ED00008F08FFEFFF7A6FA002384F8183210BD11
:103EE000C8100020C2080549012300F0070003FAAA
:103EF00000F08B5C18438854704700BFD804002042
:103F0000014BD3E900017047D8040020034B186827
:103F1000C0F30020400040F001007047D8040020AA
:103F200008B503F065FE084A002332F823108142E9
:103F300005D302EB83039B78044A137008BD013359
:103F40000C2BF2D10023F7E7201E0200E112002023
:103F5000024B1878072828BF07207047E11200207D
:103F600010B544682388A4F8683194F8683084F860
:103F70006711012B06D0022B04D04FF4507106209C
:103F8000FCF756F984F86A3194F86930012B01D0B6
:103F9000022BF2D184F86B31044904F5AF7009F0BB
:103FA00084FA002384F8243110BD00BF6FCC0000D8
:103FB000406808490388A0F85A3190F8603080F8CA
:103FC0005C3190F8613080F85D3100F2511009F0F9
:103FD00066BA00BF85CC0000044B002283F8222083
:103FE0004FF6FF729A84DA841A857047E212002035
:103FF000054B9A8C824201BF002283F822204FF6A3
:10400000FF729A84704700BFE2120020014BD884EF
:10401000704700BFE2120020094A0346908C4FF619
:10402000FF71884206D192F82210012905D01A604A
:10403000012070470020186070470020704700BFC3
:10404000E2120020064B93F82220012A1FBF012014
:10405000DA8C83F822009A8408BF0020704700BFE2
:10406000E2120020014B1885704700BFE2120020C9
:10407000064B0246198D988C884205D193F8220090
:1040800018B113600120704700207047E212002031
:10409000094B998C1A8D914201D0002070474FF640
:1040A000FF729A8493F82220002AF6D0002283F827
:1040B00022200120704700BFE2120020054B998C9E
:1040C0001A8D914203BF93F82200B0FA80F04009A4
:1040D00001207047E212002050B90A4A134601201D
:1040E00003F8010B0868C2F801008A889A807047BB
:1040F000012805D1034B0A689A608A88D8719A8191
:10410000704700BF0C13002048B90A4B187880B1E3
:10411000D3F80120B3F805300A608B80704701287E
:1041200006D1044BD87920B19A680A609B89F4E7DC
:10413000002070470C13002020B9054B187800F0C0
:104140000100704701280ABF014B0020D879F6E72B
:104150000C130020F7B500228B888DF80600ADF80F
:10416000043008680C4B8DF80720019D1C7801462F
:1041700003F5AC73D0B2844201D8082009E0D3E93A
:104180000076AE4208BF8F4203F1080302F101023C
:10419000F0D103B0F0BD00BF2013002030B5094BB3
:1041A00001465C78002203F58173D0B2844201D8C5
:1041B000082005E013F8015B8D4202F10102F4D101
:1041C00030BD00BF20130020F0B5254D95F8984173
:1041D00089B0224605F29911684606F02BFE214669
:1041E000684608F0EBFE0446B8B300EB4001C9B2E4
:1041F00002A8FCF7A7F9601E95F8A161C0B20124DE
:1042000095F8982105E0731CB3FBF2F102FB113322
:10421000DEB206F120030DEB030111F8203C002B68
:10422000F1D100EB400220326A4406EB46032B44F6
:1042300012F8187C83F8A27112F8177C12F8162C69
:1042400083F8A37183F8A42101F8204C0138AB193D
:10425000C0B2FF2883F89941D2D109B0F0BD00BFA8
:104260002013002070B5064688B00C46002A4FD0B7
:104270002A4A92F8A131D01890F8991121B94FF437
:1042800080712820FBF7D4FF03EB43011144013375
:1042900091F8A251E57091F8A35191F8A4116171C0
:1042A0000021257180F8991192F89811B3FBF1F073
:1042B00001FB103382F8A13192F8C23123B91849B9
:1042C00002F5DD7009F0EEF8657905F03F0545F07F
:1042D000400565710D220021684606F03FFDE37838
:1042E0008DF80F3023798DF80E3004AA0423694627
:1042F00030468DF80D5006F0FFFA9DF81F30237000
:104300009DF81E3063709DF81D30A37008B070BD1D
:1043100003216018FCF716F9D6E700BF2013002030
:10432000C9410000044B5A78824286BF1B1893F89B
:1043300042010020704700BF20130020064B0022DE
:104340004FF461711A8083F8C32183F8C421A3F864
:10435000C61183F8C221704720130020014B83F857
:10436000C40170472013002010B51446FFF7F2FE79
:10437000082803D1012000F0010010BDFFF70EFF57
:10438000064B5A788242F5D904B12070184490F84F
:104390003A31012BEED090F84A01ECE720130020CF
:1043A000014BB3F8C60170472013002030B50A4B0B
:1043B0005C7884420ED9184490F802012B3003EB4C
:1043C000C004A5790D7053F830001060A388938065
:1043D000012030BD0020FCE72013002002460748E2
:1043E00010B590F8C34124B1417821B1023001F0F9
:1043F00077FF204610BD0C46FBE700BF20130020CE
:10440000F8B5184C064648B3617804F5A17008F079
:10441000D5FD94F898510746294604F2991008F002
:10442000CDFD2D1AEDB2AF421AD8002506270FE0B8
:10443000E21892F8422152B907FB034104EB03133F
:10444000324601F5857103F18200FFF70BFF01355C
:104450006278EBB29A42EBD80120F8BD0546E5E759
:104460000020FAE720130020F0B51B4E737883423A
:1044700089B007460D462CD9331893F8424144BB06
:104480000D222146684606F069FCEB788DF80F3066
:104490002B798DF80E3006EB07106B798DF80D3007
:1044A00004AA04236946823006F026FA2A789DF889
:1044B0001F309A420AD16A789DF81E309A4205D17F
:1044C000AC789DF81D00231A5C425C41204609B07F
:1044D000F0BD0020FBE700BF20130020074B5A78F7
:1044E000824209D91A1892F842212AB9062202FBFF
:1044F000003000F5857070470020704720130020C1
:1045000030B50024A0F84040B0F8444042F21075A5
:104510004C43B4FBF2F4A0F84440541E05FB0343A3
:10452000B3FBF2F3A0F84230084BB3FBF2F30133D4
:10453000A0F84830838F05FB0344436BB4FBF2F4CF
:1045400059438463B1FBF2F2426330BD005A620208
:1045500070B504460D4651BB4FF40A7206F0FEFBDF
:10456000012384F88E306FF0360384F8D9300423A9
:1045700084F8DA306FF03B0384F8DB306F2384F883
:10458000DC306FF03C0384F8DD30062384F8DF3044
:104590002B2384F8D830FE2384F80E317F2384F84F
:1045A0008530202384F8DE5084F8C93170BD01299C
:1045B00012D182690C4B1344B3FBF2F3C0F8B03054
:1045C00040F6B833A0F8B430438C114604F17800BB
:1045D000BDE87040FFF794BF0229E7D1B0F8F2318F
:1045E000D0F8EC218169F1E77FC3C901034B80F862
:1045F00070101B680BB1008818477047AC0500208D
:10460000074B93F900301844142804DC10F17F0F95
:1046100003DB40B27047142070476FF07E00704794
:10462000E8140020084B1B785B4240FA83F0142802
:1046300004DC10F17F0F03DB40B270471420704799
:104640006FF07E00704700BFE814002007B57F239D
:104650000DF107008DF8073002F0C4FC9DF907301A
:1046600068B10A4A5078404243FA80F0142808DCC6
:1046700010F17F0F07DB40B203B05DF804FB184672
:10468000FAE71420F8E76FF07E00F5E7E814002061
:10469000024B00221A705A70704700BFE8140020C5
:1046A000054B1B7833B9054B1A681B7902600371FF
:1046B0000120704700207047EA140020E004002029
:1046C000054BFF221A70054A0168116001791171CA
:1046D00000221A70704700BFEA140020E004002096
:1046E00007B5064B186800901B798DF804306846B2
:1046F000FFF7E6FF03B05DF804FB00BF0C480200C3
:104700000346407898B1DB783C2B05D8084AD35C47
:104710001B1A58425841704703F11602D2B2042ABC
:1047200004D8034A134413F8AD3CF1E70120704765
:10473000541E02003C2908B5C17003D80B4B5B5CCA
:10474000437008BD01F11603DBB2042B04D8074BFC
:10475000194411F8AD3CF3E7FF2904D040F2594168
:104760002A20FBF765FD0123EAE700BF541E020083
:104770002DE9F04385B0894602A91446984608F011
:104780003EFC054690BB039E2CB9012086F88D00A7
:1047900005B0BDE8F08337692146384606F029FFA9
:1047A00001460028F4D0134B5B88A34220D301AA12
:1047B000384607F077F896F88D300198002B0CBF3B
:1047C0004946022108F0C3FD0198414622460330C4
:1047D00006F030FB2146384606F050FF18B97D211F
:1047E0002B20FBF725FD86F88D50D1E70120CFE780
:1047F0002846CDE7EC140020024B987DC04300F022
:1048000001007047EC14002083230B70014B1B78D0
:10481000CB707047041500202DE9F74347698146A6
:1048200038460D4607F030F8014618B9FC21102033
:10483000FBF7FEFC01AA384607F034F8064610B92B
:104840004FF48071F3E7019BB9F8000003F103080E
:104850001D4B1B687BB9B9F80030AB800023019871
:104860006B72EE8008F07BFD01280ED002280CD080
:104870004FF48D71DBE732464146984704460028E5
:10488000E9D1204603B0BDE8F0832872384607F02E
:1048900011F8044610B940F22311C8E7FB2E02D9E3
:1048A0004FF49671C3E7286810B940F22D11BEE7A6
:1048B0003246414606F0BEFA384606F043FF00286D
:1048C000DFD140F23111B2E7B40500202DE9F34702
:1048D000DFF85C818246894605270025D9F810302B
:1048E00053B11B7A1BB97E211020FBF7A1FCD9F82C
:1048F0001040B4B9002070E0D9F80440237A012BAD
:10490000F8D0EFF3108372B6D9F804201268C9F812
:10491000042003B962B6C9F81040237A0BB9A42168
:10492000E2E7267AF6B22772731E0B2B6DD8DFE80A
:1049300003F069061C33666C3C6C6C6C6C576368E6
:1049400013B94FF4D471CFE720465146984704205D
:10495000EFF3108372B6227A052AD1B25FD12572A5
:10496000C9F81050ABB962B613E0636813B940F2EE
:10497000B111B9E75146204698470346C3F30723D0
:10498000012BADF80400C0B242D0022BE0D1C9F82F
:1049900010500028A2D020E0636813B940F2B9118A
:1049A000A2E7204698470020D2E763680BB9B321FD
:1049B0009AE70D228AF8002019881869AAF80310CE
:1049C000012200248AF802208AF805208AF806408D
:1049D00006F0B8FEC9F81040042002B0BDE8F08728
:1049E000606810B940F2E1117EE7D8F80030514616
:1049F0009847034660B1C9F810500220EDE74FF424
:104A0000F97171E740F2F5116EE74FF4FC716BE755
:104A100026720028E1D1002B7FF460AF6AE711B95C
:104A200040F2192160E7002B7FF458AF62B655E7DA
:104A3000B005002070B5144C1426231D3246002109
:104A4000184606F08BF9034601252574002104332E
:104A5000324604F11800C4E9013306F07FF984F806
:104A600024500A4A04F11C03C4E906330023E3621C
:104A7000236384F83430C4F83530C4F8393084F80E
:104A80003D30136070BD00BF04150020B405002048
:104A900010B5084C2378FF2B04D04FF49D711020E3
:104AA000FBF7C6FB05F070FF2070BDE81040FFF774
:104AB000C1BF00BFE504002010B5034C207805F00D
:104AC0007FFFFF23237010BDE5040020014B187801
:104AD00005F086BFE5040020014B024A1A607047CA
:104AE000B00500201948000010B506490446FFF73C
:104AF000EDFE28B920460449BDE81040FFF7E6BEA8
:104B000010BD00BF1C1500200815002010B513466D
:104B1000027A22B140F295211020FBF789FB0A4668
:104B2000BDE810400146014808F099BC0815002076
:104B3000044890F834301BB903492C3008F0ACBC61
:104B4000704700BF0415002051D4000003460648FA
:104B500090F83E203AB190F83D2022B900F8353B5C
:104B6000024908F099BC704704150020094800006C
:104B700010B50A46037A23B140F29D211020FBF7BD
:104B800057FB0146BDE810400148072308F067BC09
:104B90001C1500201346027A0AB1037270470A46B8
:104BA0000146014808F05BBC081500201B234FF0AC
:104BB0001B128384038482618382C260038539B9B6
:104BC0004FF4A473034AC3844384C261C382026165
:104BD000704700BF480148010346F0B4B3F85420C1
:104BE000B3F84840B3F84460DF8FB3F842509442C2
:104BF00028BF14460846B3F84C20B3F85610DC879B
:104C00008A4228BF0A46B3F84610A3F842209142D0
:104C100038BF1146A64238BF2646A742A3F84460D3
:104C2000A3F846101FD1AA1A18BF0122B3F84A50A0
:104C3000B3F85040B3F852709E8FB3F84010A542BD
:104C400028BF2546B3F84E409D87BC4228BF3C464E
:104C5000AE42A3F8404002D1A14200D12AB1F0BC3B
:104C6000034908F022BC0122E0E7F0BC704700BF16
:104C7000B1D40000094AD2E90003434083EAB011ED
:104C800081EA43214FEAF3435360054B11605843D7
:104C90004FEAF06000EB8000704700BFE80400209E
:104CA000BB79379E10B50A4C09480821FBF74AFC2E
:104CB000D4E900231343F7D0064CFFF7DBFF206055
:104CC000FFF7D8FF236860600343F6D010BD00BF34
:104CD000E804002044150020A0F10B03DBB2392BBF
:104CE00010B50C4696BF0B49FE21C95C104608F072
:104CF000AEFC68B964B12178272907D0EB2908BF39
:104D0000EA21BDE81040104608F0A1BC2621F8E7D2
:104D100010BD00BF961E0200174B184A9A60184A31
:104D2000DA62184A1A61184A5A61184A9A61184A8E
:104D30001A63184A5A62184ADA64184A9A64184A76
:104D40009A63184B184A9A60184A1A62184A5A60AD
:104D5000184A1A60184A9A62184ADA62184ADA60DF
:104D6000184A9A61184A1A63184A9A64184ADA6407
:104D7000184A5A62704700BFB80500207FD700006C
:104D80009DD8000067D800002BD8000051500000CB
:104D900005520000F9500000A9D90000C5D9000053
:104DA000B5500000C0060020A1D7000067D9000060
:104DB000B5D70000EFD70000FBD80000B9D800003D
:104DC0001DD90000DDD800003DDA0000E5D9000063
:104DD000E1D9000081D90000054B064A9A65064AD0
:104DE000DA65064B064A9A65064A1A66704700BF9E
:104DF000B8050020C1CD0000ADCE0000C0060020E7
:104E000009CD00000FCF000070B50C46252A00F236
:104E1000CC80DFE802F01337404BCACA4A626469AB
:104E20004A4A6DCACACACA784A4A929298CAA0CA5D
:104E3000CACACACACACACACACAB3BCC3416840F24B
:104E4000E240D1F8EC31B1F8E621B2FBF0F2227188
:104E5000D1F8E821B3FBF0F3B2FBF0F2E371627139
:104E6000C3F30723C2F30722A2712372B1F8F03112
:104E700063721B0AA3722046B1F8F211BDE87040BC
:104E800008F071BA4368D3F8D81120460131BDE863
:104E9000704008F06CBA02784368012A02D193F896
:104EA000103101E093F81931237170BD4568204637
:104EB00005F5077108F062FA05F50971204608F05A
:104EC00067FA05F5FE71204608F065FAD5F800117D
:104ED0002046BDE8704008F065BA4368DFE7BDE8EA
:104EE0007040084600F048B9BDE8704000F054B981
:104EF0000E230B7159234B7100238B71E823CB7167
:104F000010230B72D1E70378456873B995F8103117
:104F10005BB195F80D11204608F072FA95F80C1166
:104F20002046BDE8704008F06FBA95F80B11204696
:104F300008F066FA95F80A11F2E741682046BDE8E4
:104F4000704008F0D2BB436893F826210A7193F8A9
:104F500027314B71A9E7456895F8E30107F00DFF8C
:104F60000146204608F046FA95F8E20107F005FFF1
:104F700001462046BDE8704008F03ABA0D4B1B6868
:104F8000002B92D002462320BDE870401847094B01
:104F90001B68002B89D002462420F5E7054B1B68CF
:104FA000002B82D002462520EEE740F266415120D8
:104FB000FBF73EF9C80700203C2803D8064B53F8FE
:104FC0002000704700F11603DBB2042B01D8AD3886
:104FD000F4E70020704700BFB80500203C2803D844
:104FE000064B53F82000704700F11603DBB2042B88
:104FF00001D8AD38F4E70020704700BFC00600209C
:10500000F7B545682E6904464FF6FF770DF10201AA
:105010000DF101023046ADF8027006F04BFB01A91C
:10502000304606F06AFB40B1019806F041FC616829
:1050300000220272FFF79CFDE8E7044905F1A00099
:1050400003B0BDE8F04008F02ABA00BF1BD700004B
:1050500038B5436893F886201B2A044624D10022E1
:1050600083F8C72083F8C22083F82622436893F888
:10507000C8101D8803F5C97069B10C4983F8C820B0
:10508000A3F89C5183F89B2108F006FA636800207E
:1050900083F8860038BD012283F89B11A3F89C5148
:1050A000034983F89E21EFE70220F3E717D80000B9
:1050B00009D8000038B5446894F88750B5B94A68F3
:1050C0000B4B896813400B4AC4F8D830C3F307630D
:1050D00043F008030A4084F8DB30C4F8DC2008F011
:1050E000CDFA042384F88730284638BD0125FBE734
:1050F0002FC904F76FDB000638B5436893F88620A4
:10510000042A2ED14C68194A8D682240C3F8D82051
:10511000C2F3076242F00802154C83F8DB2000223C
:105120002C4083F886204068C3F8DC4083F8C22016
:1051300080F82B2193F8740100F0FF0498B91A88C5
:10514000A3F8762183F875414A68C3F878218A6804
:10515000C3F87C21074903F5B67008F09DF9204695
:1051600038BD0124FBE71446F9E700BF2FC904F757
:105170006FDB000645D9000010B50446FEF7C0FEFF
:10518000034A044B02400B406260A36010BD00BFA5
:105190002FC904F76FDB000637B50C464568FEF7EC
:1051A000AFFE084A084B0A4095F8D8100192034018
:1051B00000930B408DF800306B4603CB6060A1601C
:1051C00003B030BD6FDB00062FC904F7DB0410B558
:1051D000144604D5037D13B10023436310BD436B14
:1051E0000133436308F00BFCD0E90D239A42F5D359
:1051F0000023436302492046BDE8104008F055B93A
:105200009BD9000070B5446894F88630012B06469F
:105210000D4603D094F88730002B3ED194F8C93066
:10522000990719D4284608F0C4F884F8D300B5F8D3
:105230000530A4F8D430B5F80730A4F8D63094F887
:10524000C93043F0020284F8C920DA070FD51449A7
:1052500004F1CA0008F029F994F8C930DB0711D429
:1052600094F8873043B150214020FAF7E1FF94F8D9
:105270002A31002BEBD1EFE7012384F88730304649
:1052800008F0FCF994F88630012B4FF0000003D1B0
:1052900084F8860084F8C20070BD0120FCE700BFDE
:1052A0001FDA000070B545680446FFF7CFF9054BDB
:1052B00085F885001B6801461BB12046BDE870409B
:1052C000184770BDD0070020024B1B6803B1184778
:1052D000704700BFCC070020F0B5204E054630785F
:1052E0000024147080B1431E7768DBB2181B0128BC
:1052F0000BDC07EBC40057F834604068884208BFF5
:10530000AE4212D114700120F0BD1819461007EBFF
:10531000C60E57F836C0DEF80460AC45C0F347004F
:105320008E412CBF03460446E0E7B54271EB000016
:1053300002D214700020E7E707EBC30057F83340B0
:105340004068884208BFAC4201D11370DBE7A54238
:10535000814128BF01331370ECE700BF5C150020CA
:1053600010F0070208B503D063214820FAF760FF68
:1053700018B1034B197258601A70C80008BD00BFFD
:105380005C150020014B00221A7070475C1500204C
:10539000014B187A704700BF5C1500202DE9D343FC
:1053A00008F06AFB0DF1070207460E46FFF794FF6F
:1053B00098B9114C2278237A93420ED06168134633
:1053C0006FF0604E9DF80700984209D301EBC003CF
:1053D000C3E9007601322270012002B0BDE8D0831B
:1053E00003EB0E0001EBC000D0E90089013BC0E9EE
:1053F0000289DBB2E6E700BF5C15002037B508F094
:105400003BFB0DF10702FFF767FF0446A0B10C4A12
:105410009DF8070013785568013BDBB213701A1A28
:10542000D2B2411CD200834238BF002205EBC10139
:1054300005EBC00005F04CFC204603B030BD00BFBA
:105440005C1500200A46822302F8033B04480368E7
:10545000C1F803304368536083689360704700BFAE
:105460006515002002481622002105F077BC00BF18
:105470006515002017B402AB03E903001348437D10
:1054800003B391F86820124B33F812304FF47A725C
:1054900003F23F63B3FBF2F3D1E968246E3244F1C7
:1054A00000049B1844F100040A884360B1F880307E
:1054B000084902808460438002220C3003B010BC93
:1054C000FFF768BB03B010BC704700BF6515002034
:1054D000D01E020045540000154B5B6893F8C200D3
:1054E00028B1B3F8BE10B3F8C02091421ED293F990
:1054F000C6202AB1B3F8C410B3F8C020914214D228
:10550000B3F8BA20B3F8BC1091420ED2B3F8B80089
:1055100093F88A3023B9052894BF002001207047F2
:1055200082428CBF0020012070470120704700BFDD
:105530007C150020134B5B68182883F80E0116D8E1
:10554000114AC240D2071CD4112806D193F8102169
:1055500052B10022A3F8BE207047072811D00928B5
:105560000FD0152805D10022A3F8C42070472428A5
:1055700007D0022881BF0022A3F8BE20012283F8B1
:10558000C22070477C1500200010080170B5204D26
:105590006B6893F8E21109B993F8681093F8E32166
:1055A0000AB993F8692083F8681083F86920FF220C
:1055B00083F86A20174B1B680BB168689847002175
:1055C0001348FEF7CDFC6868303007F099FF0646B7
:1055D000686800F23511FFF7FFFA68680421FDF7EB
:1055E000A7FC6868303007F08BFF864204460CD277
:1055F00002F070FC0146A01B322838BF322004F0B4
:10560000FDFCB0FA80F0400970BD0120FCE700BF4E
:105610007C150020D80700200D4B0246187A98B957
:10562000012A07D15B68B3F858209B8F9A420ED8A5
:10563000FDF76EBC5A89520708D55B6893F888005D
:10564000063818BF012070470020704701207047BE
:105650007C150020C278012A07D10D4A5268B2F8A1
:10566000DE214272120A827270473AB9084A5268C1
:10567000B2F8E4214273120A82737047182A05D1E6
:10568000034B5B68B3F8E01107F0B6BE704700BF8C
:105690007C15002038B590F886300D3B012B044670
:1056A0002ED8B0F88030B0F8E42101339BB29A4292
:1056B00026D10388A0F88A3140F2E242D0F8EC31DA
:1056C000B3FBF2F3A0F88C31B0F8F031A0F88E31D2
:1056D0000025B0F8F231A0F8903180F889510949DD
:1056E00000F5C07007F0E1FE84F8F4510221204675
:1056F000FEF72EFF03212046FDF71AFC84F88650A2
:1057000038BD00BFCFD700002A4A38B50346084647
:1057100051891943518103F00301032904D140F653
:10572000DD113620FAF784FD13F0020118BFD060B6
:10573000DC0748BF106121B1C178062917D00B29B9
:1057400022D0990644BF08211172DB0531D5526879
:10575000C178B2F88030148C2344063301299BB2FF
:1057600019D1A2F8DE31BDE83840FFF773BF5168A8
:1057700091F88640192CE4D100240025C1E93A456E
:10578000012481F88C40DCE7516891F88640132CA5
:10579000D7D10024F5E711B9A2F8E431E3E71829DD
:1057A000E1D1B2F8E211002918BF1946A2F8E011C0
:1057B000D9E738BD7C15002008B50B79232B0246AC
:1057C0000CD014D8142B03D003F0FB0112290ED1F6
:1057D00018460121BDE8084008F0A3B9436893F8D2
:1057E0008630282B03D1034B1B6803B19847002058
:1057F00008BD00BFDC070020002908BF1F211628B4
:1058000070B503461BD009D803281ED0022803D93F
:10581000122814D0142812D000240EE0252808D80D
:105820002228F9D9204B1C683CB12346BDE87040C2
:105830001847FE2814BF00240224204670BDBDE88E
:1058400070400021184608F06CB9184D6B6893F849
:105850008620172A01D0142A24D193F8C8200ABB25
:1058600083F8C72083F8C22093F89A3103F0FF042D
:1058700023B140F2A7313620FAF7DAFC6B681A88B8
:10588000A3F89C2183F89B1183F89E4183F826425C
:105890006868074900F5C97007F0FEFD6B6883F87A
:1058A0008640CAE70224C8E7D40700207C15002000
:1058B00009D800000E4B09795B6893F886300246E0
:1058C000A3F110000C280BD9282B0BD01D2B0BD0CB
:1058D000052B0BD0202B14BFFE201620FFF78CBF0A
:1058E0000320FBE72320F9E71420F7E71220F5E770
:1058F0007C1500202DE9F341674CB4F80A800E4670
:10590000616818F4007F0ABFB1F8B82000230132A3
:1059100001F17805074614BFA1F8B830A1F8B82006
:10592000284608F0DAF828B1434601F59672284671
:10593000FFF74CFC638903F4C06343B1606890F8DF
:105940008A3023B9012180F88A10FDF7F1FA002F7F
:1059500040F0EC80002E40F0E98063895A0708D5BA
:10596000626892F88810062902BF0121217582F829
:1059700088609B0711D5E368D87807280AD01128DA
:1059800020D0FFF72BFB034628B940F27A5136208E
:10599000FAF74EFC414B4048984763891D0752D5A2
:1059A000636893F80E21012A0ED0032A27D0F2B99A
:1059B000B3F8E401B3F88010091A080417D483F887
:1059C000F42114E0364BE6E7B3F8DE11B3F880209B
:1059D000521A11040BD4D3F8D8110A7812B940F234
:1059E0007221D4E7013A0A70002283F886206368A6
:1059F00093F80E21FE2A0FD140F28651C7E793F8A3
:105A00008610192904D84FF02472CA40D207EED468
:105A1000002283F82622D4E7FE2283F80E2193F891
:105A200086200D2A2AD0252A2AD00B2A02D10C2220
:105A300083F8862093F88820072A01BF0222227566
:105A4000002283F888206389DB073BD563682569DA
:105A500093F8861093F8C80008F050F890B1EB78EE
:105A6000023B0F2B00F29B80DFE803F00C990C0C3B
:105A70000C999999990C990C9999990C0E22D7E740
:105A80002622D5E72846FEF73BFE58B929460248AC
:105A900007F01AFE15E000BF7C150020C1DA0000F7
:105AA000A5DA0000E8780D2873D0112873D00728F4
:105AB00073D0FFF781FA03460028E7D0B3482946A0
:105AC00098470646237A1D0716D5636893F8861013
:105AD00093F8C80008F012F80546002861D100903C
