:10000000801E0020650A00007D500000510A00009B
:10001000510A0000510A0000510A000000000000CF
:10002000000000000000000000000000C10B000004
:10003000510A0000000000006D0B0000510A000092
:10004000410D0000410D0000410D0000410D000078
:10005000410D0000410D0000410D0000410D000068
:10006000410D0000410D0000410D0000410D000058
:10007000410D0000410D0000410D0000410D000048
:10008000410D0000410D0000410D0000410D000038
:10009000410D0000410D0000410D0000410D000028
:1000A000410D0000410D0000410D0000410D000018
:1000B000410D0000410D0000410D0000410D000008
:1000C000410D0000410D0000410D0000410D0000F8
:1000D000410D0000410D0000410D0000410D0000E8
:1000E000410D0000410D0000410D0000410D0000D8
:1000F000410D0000410D0000410D0000410D0000C8
:1001000038B5054D441E14F8011F01B938BD2868E3
:1001100083685B689847F6E7540800201FB50D4BCD
:100120008DF8000018688DF801100223CDF804D076
:1001300002938DF80C309DF80C30826843F0020376
:100140008DF80C3094682023012201A9A04704B047
:1001500010BD00BF580800202DE9F041624B634AF2
:10016000634C644DA2B01A60634B23600021634B63
:100170002B6040F6CD4004F0BAFD6148FFF7C0FFA8
:100180006048FFF7BDFF206805F07CFB38B95E488A
:10019000FFF7B6FF4FF0FF3022B0BDE8F0812868CE
:1001A00005F070FB044608B95848F1E72868026971
:1001B0008168136823F4806313600B684FF4803206
:1001C0000A219847064608B15148E1E75148FFF730
:1001D00097FF31463046FFF7A1FF064608B14E486B
:1001E000D6E74E48FFF78CFF31461220FFF796FF07
:1001F000064608B14A48CBE74A484B4FFFF780FF15
:100200004A48FFF77DFF31461220FFF787FF0021A4
:1002100040F6CD4004F06BFD286804F05AFD444BD5
:10022000444A002818BF3B46802102A804F0F8F990
:1002300002A8FFF765FF00214FF4803004F057FD5E
:100240003D48FFF75DFF02211220FFF767FF002105
:100250004FF4804004F04BFD286804F03AFD061E80
:10026000334B344A18BF3B46802102A804F0D8F92A
:1002700002A8FFF745FF002E34D130482A4FFFF780
:100280003FFF2F48FFF73CFF002684F00104E4B253
:10029000610001F0FE011220FFF740FF002140F64F
:1002A000CD4004F024FD286804F013FD204B204AC3
:1002B000002C18BF3B46002818BF3A46CDE9003253
:1002C000802133461F4A02A804F0AAF902A8FFF7CA
:1002D00017FF06F101084FF4C030002104F007FDBC
:1002E0004646D2E71848C9E7540800201C5D0000C4
:1002F0005808002050080020305D0000085D000014
:100300002D61000045610000666100007D61000014
:1003100096610000B9610000D5610000F361000042
:100320000E6200002D6200002461000046620000A1
:1003300029610000596200007262000088620000BA
:10034000EF62000018630000C2620000014B1B68EE
:10035000184700BFC0040020014B1860704700BF61
:10036000C004002030B585B004460D46102200219F
:10037000684605F005FC02238DF802302A46044B3E
:1003800001932146684604F007FA05B030BD00BF6E
:100390004D0300002DE9F047058B0446280717465A
:1003A0000CD501290CBF45F0100545F0200525832B
:1003B00087F31188BFF36F8FBDE8F087022905F03E
:1003C000070540F09480204604F081FD052864D89C
:1003D00001A353F820F000BFB1030000EF040000B8
:1003E0009B0400005D040000770400008904000005
:1003F00001F007035A1F012A1FD8002221F007012C
:10040000062BD4F8008089B2C4E9002209D1434602
:1004100003E0628B013262831B68002BF9D141F04B
:1004200002012183204604F052FD4FF0000900280C
:100430006DD041F02001218369E0042B0AD121F025
:10044000070189B22183204604F041FD10B141F03B
:10045000200121834FF00008C14658E02369D3F8FA
:100460000090238B23F0070343F0060323834FF010
:10047000000846464BE02369D3F80490238B23F011
:10048000070343F00403F1E72369D3F80890238BB3
:1004900023F0070343F00503E8E74FF00008C146E7
:1004A000E7E7012243F00803238387F31188BFF3B2
:1004B0006F8F002A3BD1B8F1000F4AD1B9F1000F7C
:1004C00002D02D492046C847EFF31187202383F33C
:1004D0001288BFF36F8F238B23F008039BB2238313
:1004E000D9063FD523F01002228303F00705666981
:1004F000218B002EBFF67CAF0023D4F8008021F0C2
:100500000701C4E9003341F0010121839946238B9F
:1005100003F0070AAA4502D0A268002AC1D1B8F1A7
:10052000000F02D1B9F1000FDAD00022BAE7A168BA
:100530000029C0D00D680029BDD04F68334652460F
:100540002046B8471DB12B6829461D46F3E72B46C8
:10055000FAE74146334652462046D8F8008004F078
:10056000E2FCA8E79A067FF523AF23F0200222835E
:1005700003F0070527E700BF534F0000014B03605E
:1005800000207047685F000008B5044804F088FC4C
:10059000BDE80840024804F083BC00BF336300009C
:1005A00068630000014803F093BE00BF685F00006D
:1005B00038B5044618B90F4B0F485B689847616817
:1005C000B1F5683F10D0B1F5680F0DD00B4DA942C1
:1005D0000AD011F46861206807D00146084805F088
:1005E000ABF900232360656038BD142205F0C8FA1A
:1005F000F9E700BFD0050020966300002C5F5CA9DE
:100600005C0D002008B520B34368B3F5683F10D1F6
:1006100001220368BFF35B8F53E8001F002903D159
:1006200043E800200028F7D1BFF35B8F0DD10020F5
:1006300008BD094A93420AD000684FF0FF324FF0DC
:10064000FF3302F0F9FF0028F1D00448F0E7044836
:10065000EEE76FF4E040EBE72C5F5CA9E98FFFFF6A
:10066000EA8FFFFF08B5D8B14368B3F5683F10D1F2
:1006700000220368BFF35B8F53E8001F012903D1F9
:1006800043E800200028F7D1BFF35B8F0BD1002097
:1006900008BD074A934208D0006803F043F8F6E724
:1006A0006FF4E040F4E70348F2E70348F0E700BFE7
:1006B0002C5F5CA9E98FFFFFEA8FFFFF10B50446AE
:1006C00018B91D4B1D485B6898476368B3F5683FD0
:1006D0002FD0B3F5680F2CD0194A934219D1236853
:1006E00003BB18484FF0FF324FF0FF33214602F0B2
:1006F00075FF08B923681BB90F4B13485B6898470F
:1007000020681422002105F03BFA4FF4686363600F
:1007100008E0B3F5680F0DD83A2B03D040F6BA6263
:100720009342DED1206805F051F9636843F03A0343
:10073000636010BD054AF3E7D00500209663000012
:100740002C5F5CA95C0D0020BC6300003A00003AFD
:1007500008B5064906484023142205F0E0F8BDE834
:1007600008400449044803F025BE00BF5C0800208F
:100770005C0D0020705F0000845F000030BFFFF759
:10078000FDBF00BF074A936893F90E10002907DBED
:10079000526993421FBF044A536843F08053536029
:1007A000704700BF640E002000ED00E070B5264BDE
:1007B00015469A6A12F0100F9A6A14BF1124102479
:1007C00012F0080F9A6A18BF1224920706460AD53B
:1007D000586B9A6A140634D519B19A6A22F08002CD
:1007E0009A62132401E06FF01500174B9A6A12F019
:1007F000010F9A6A18BF142412F0200F9A6A18BFCA
:100800001524D20602D49B6A9B070AD50E4B5B685F
:10081000190506D5314600F051FA10B180F3098868
:100820000224094B9A6A920642BF5A6A22F4005285
:100830005A629A6A42F0FF029A6200232B702046A5
:1008400070BD6FF01500CCE700ED00E0134B9A6A25
:1008500012F0007F9A6A14BF1E201D2012F0807FC4
:100860009A6A18BF1F2012F4002F9A6A18BF21201D
:1008700012F4802F9A6A18BF222012F4003F9A6A5D
:1008800018BF232012F4803F9A6A6FEA02426FEA8F
:1008900012429A6218BF2420704700BF00ED00E0AA
:1008A00010B5194B0246986A9C6A10F4805F14BF19
:1008B0001720162014F4006F9C6A18BF1820A40596
:1008C00009D5986B986A000404D51AB19A6A22F483
:1008D00000429A6219200C4B9A6A12F4806F9A6A4D
:1008E00018BF1A20D2050CD49B6A13F4005F18BFFE
:1008F0001C20054A936A43F47F43936200230B70E4
:1009000010BD1B20F5E700BF00ED00E0F0B5494B3E
:100910005B688BB00446C3F30803002585F3118898
:10092000BFF36F8F02F07F40B0F17F4F11D102F023
:100930000C0008280DD010074CBF0C4601250022E2
:10094000033B8DF80720032B05D8DFE803F024686C
:100950006C652C46F3E700239DF80720CAB902AE68
:1009600004F1200720686168324603C20834BC42A3
:100970001646F7D1099A002D59D0C2F3080121B9C2
:100980006FEA52226FEA4222099202A9184604F045
:100990006BFB0BB0F0BD274BDA6A9107DBD4DA6A48
:1009A000002AD8DBDA6A5200D5D55A69A16942F427
:1009B00080725A61BFF34F8FBFF36F8F31F8022CF3
:1009C000596921F480715961BFF34F8FBFF36F8F65
:1009D00002F47F43B3F55F4F04D1D2B2022A01D1B2
:1009E0002368B9E7134B9A6AD2B23AB10DF1070204
:1009F00001212046FFF7DAFE0346ADE79A6A12F4BA
:100A00007F4F05D00DF107010120FFF749FFF3E704
:100A10009B6AB3F5803F9ED3FFF718FFECE70DF11B
:100A200007020021E5E70DF107010020EDE76FF374
:100A30000802A9E700ED00E0044B5A6942F01002F9
:100A40005A615A6922F008025A61704700ED00E0CD
:100A5000EFF30880EFF3098101B57246FFF756FF07
:100A600001BD00BF002080F31488BFF36F8F0F48D3
:100A700080F3088801F008FB00200D490860BFF3EF
:100A80004F8F00F02BF8202080F3118809484FF495
:100A90000461401880F30988EFF3148002210843B1
:100AA00080F31488BFF36F8F00F0D0F8801E002011
:100AB00094ED00E0C01000200749D1F890200023F9
:100AC000C2F307221846934200DB7047C1F8983002
:100AD000C1F8A0000133F6E700ED00E008B572B6FA
:100AE000002383F31388FFF7E7FF144B4FF0FF3227
:100AF000C3F88020C3F88420C3F88820C3F88C2072
:100B0000C3F89020C3F89420C3F89820C3F89C2021
:100B1000C3F88021C3F88421C3F88821C3F88C214D
:100B2000C3F89021C3F89421C3F89821C3F89C21FD
:100B300062B6BFF34F8FBFF36F8F08BD00E100E0D7
:100B4000084B9B6883420BD1EFF3058343B1064BFF
:100B50005A6842F080525A605A6A22F400425A623D
:100B600003F02CB9640E002000ED00E012498A6801
:100B70004FF030001044EFF3098C80E8F01F202084
:100B800080F31288BFF36F8F0C4F4FF000664A69F5
:100B90008A603E60506F0023536780F3118804B56C
:100BA000104600F0EBF8BDE8044002F1300090E898
:100BB000F01F8CF309887047640E002004ED00E0FC
:100BC0001EF0040F0CBFEFF30880EFF3098081697A
:100BD00011F8021C0229FFD001B5724604F04AFA4E
:100BE00001BD00BF40B2002807DB044A41090123D0
:100BF00000F01F00834042F82130704700E100E020
:100C0000054B420900F01F0053F82220012303FA8C
:100C100000F01040704700BF00E100E040B2002843
:100C2000A8BF00F1604001F10101B8BF064B4FEAD7
:100C30004111ACBF00F5614000F00F00C9B2B4BF74
:100C4000195480F80013704714ED00E00B4A08B502
:100C50000B4B22F07F029A60BFF34F8FBFF36F8F71
:100C6000D3F8882022F47002C3F8882002F0F2FB47
:100C700003F0B2F900F058F802F030FC0000000078
:100C800000ED00E042F8203C009B42F81C3C0A4981
:100C9000019B42F8183C029B42F8143C21F00101F0
:100CA0004FF0807342F8043C42F8081C0023203ABD
:100CB00002654367704700BFBB4E0000094A034608
:100CC000906870B113F1160F406E05D0A0F140028C
:100CD0009A4205D8834203D2814228BF0020704740
:100CE00000207047640E002008B5094B0E461546DB
:100CF000986000F043F82C4686F309880020054BE5
:100D000098472046002100220023034C204700BFC3
:100D1000640E002093500000BB4E0000014B1022D7
:100D20001A61704700ED00E0044800232021C2183A
:100D30000133302B82F80013F9D1704700E100E055
:100D400008B5EFF30583064A103B02EBC30152F8E6
:100D5000330049688847BDE80840FFF713BD00BF6E
:100D6000445D0000024B034A0348012100F076B8BD
:100D70000000042000000020945F0000436E054A3C
:100D8000403B1360044B4021C2E90113104601218E
:100D900000F06EB8780D002000000B15084AC2F86C
:100DA00098000B6823F01F03034343F01003C2F8BD
:100DB0009C308B6843F00103C2F8A030704700BF3D
:100DC00000ED00E02DE9F043DFF8608085B00E46CD
:100DD0001F4604464FF00009B14523DA6068D8B1D8
:100DE0003FB1411E08421BD11F2819D9236819425F
:100DF00016D12368019304F06FF9A36803430393AA
:100E0000D8F89050C5F30725D0B2013DA84207D8C5
:100E100001A9FFF7C3FF421C09F101090C34DBE70C
:100E20006FF01502104605B0BDE8F08300ED00E05C
:100E3000044B0522C3F89420BFF34F8FBFF36F8F8D
:100E4000704700BF00ED00E0BFF35F8F024B002250
:100E5000C3F89420704700BF00ED00E010B5034CCC
:100E600001232278FFF7AEFF207010BD6C10002028
:100E700008B50B4A00231278FFF7A4FF10F1160FF4
:100E800007D0084A0021D2F89030C3F307239842D4
:100E900000DB08BDC2F89800C2F8A0100130F2E7EC
:100EA0006C10002000ED00E02DE9F043524B534D53
:100EB000D3F890302C68C3F307239C4285B000F22E
:100EC0009880FFF7C1FF00200C26844219D14C4EB8
:100ED000DFF8249134706846FFF750FB494C4A4DC7
:100EE00080460027B84513D1337843490020D1F814
:100EF0009020C2F30722934275DBFFF799FF002091
:100F000042E0696806FB0011FFF748FF0130DCE7AB
:100F1000009800EB07114FEA071CCB682340B3F59C
:100F2000000F47D00AD8B3F5001F30D0B3F5800FBB
:100F300035D0B3F5801F10D00137D3E7B3F1807FF0
:100F400041D0B3F1007FF7D150F80C3088684A687F
:100F500004F0C2F840F4802009E050F80C308868B2
:100F60004A6804F0B9F840F0885040F43020CDE9E8
:100F700001230390D9F890303078C3F30723013B65
:100F8000984229D96FF0150005B0BDE8F08350F8FC
:100F90000C3088684A6804F09FF82843E7E750F867
:100FA0000C3088684A6804F097F840F0E06040F43C
:100FB0000030DCE750F80C3088684A6804F08CF8A0
:100FC00040F08270D3E750F80C3088684A6804F02B
:100FD00083F840F08870CAE701A9FFF7DFFE337895
:100FE00001333370A8E7C1F89830C1F8A00001338D
:100FF0007DE74FF0FF30C7E700ED00E0A05F0000A5
:101000006C1000200000F0FF0000081108B5024B32
:101010001B689847002008BD840D0020034B044A3C
:101020001860937843F0020393707047840D00209A
:10103000E404002008B50649064821F00701C1F183
:10104000005202F5802203F0D7FE002008BD00BF49
:10105000C71E0020880D00200C4B0122C3F840253C
:101060004FF080434FF08051C3F87825D1F830011C
:10107000082805D1D1F83411022908BFC3F8382651
:101080000122C3F880250020704700BF00E0014026
:1010900020B1034B800143F001031847704700BFA4
:1010A000605F0000084B70B5C31A0D4607499B10DE
:1010B000044659430648402204F02CF82B460146CA
:1010C0002046BDE870401847A80D0020B76DDBB67C
:1010D000E05C000073B50C4C0C4A4023041B0093E9
:1010E0000D460B460A49A41061430646094804F020
:1010F0003CF8014628B130462B4602B0BDE87040AE
:10110000184702B070BD00BFA80D0020D9510000E3
:10111000B76DDBB6E05C0000002270B5012104462B
:101120001046FFF77BFD0F4801F01EF90E4B984269
:1011300015D101F029F926690C49304603F016FF54
:1011400000280BDB012535642469084904F11C00E3
:1011500003F00CFF002801DBE564002070BD6FF098
:101160000400FBE7991200000000AD0BC05F000017
:101170001FB500220123CDE902236C46074A6B46C6
:10118000CDE9004404F021F828B94FF4804200234F
:10119000684602F04BFB04B010BD00BFF7510000E1
:1011A00010B5EFF31184202383F31288BFF36F8F00
:1011B000074A136823F00201DB07116002D4012003
:1011C00004F030FA84F31188BFF36F8F10BD00BFB5
:1011D000F80D002030B4104B0C2202FB0033014606
:1011E0000020D3E90E529863EFF31180202484F39A
:1011F0001288BFF36F8F1C6C04F0C00444F002042B
:101200001C6480F31188BFF36F8F1DB12B46034818
:1012100030BC184730BC7047A80D0020E05C0000CF
:1012200010B4EFF31180202282F31288BFF36F8F86
:1012300017490B6843F0020413F001030C601AD045
:101240004FF08043D3F80C14D3F80C3413F001039F
:1012500011D0EFF3118182F31288BFF36F8F0D4A23
:10126000136C03F0C00343F00203136481F311888D
:10127000BFF36F8F012380F31188BFF36F8F1BB112
:1012800010BC0020FFF7A6BF10BC012001F08EB8F3
:10129000F80D0020A80D002010B1012804D07047DF
:1012A000034B1B6C5B0701D1FFF794BF704700BF76
:1012B000A80D00202DE9F0413849BFF35B8F80462F
:1012C000012251E8003F41E800200028F9D1BFF396
:1012D0005B8F33B9324933484B60CB608A6003F08F
:1012E00058FE08F1FF33012B56D8B8F1010F07D192
:1012F0004FF08043D3F81C3403F00303012B4BD091
:1013000004F06BFB054610B9274B1B785BB9EFF374
:101310001186202383F31288BFF36F8F0125234F9B
:101320004FF0804423E04FF080430222C3F80823AB
:101330000646F4E70021212004F0BDFB07E0B8F1E8
:10134000010F1ED0002DF5D0304603F0B6FED4F8C4
:10135000183563B9D4F804214AB1C4F80431D4F87B
:1013600004310123C4F81835C7F88031A360D4F8DC
:101370001824D4F81834D203E4D503F00303012B66
:10138000DDD12DB94FF080430222C3F8042303E0DE
:1013900086F31188BFF36F8FBDE8F081A40D0020A4
:1013A000940D0020C40D00208F10002000E100E00B
:1013B00008B5074804F066FA38B10648FFF72EFE74
:1013C0000448FEF7C9FF002008BD6FF01200FBE7DC
:1013D0001C5D0000D91300000A2838B5074D0446EB
:1013E00004D1AB680D215B6828469847AB68034879
:1013F0005B68E1B29847204638BD00BF1C5D000025
:1014000038B545682B69B3B11035284601F006FBA5
:10141000044680B90146284601F0CCFA084B9842B0
:101420000BD108492246284601F0A4FA224605219C
:101430000620FFF7F3FB002038BD6FF00400FBE748
:101440000000AD0BD91500002DE9F043466840F2CD
:101450000635D006337B87B002EA050554BFC2F3D8
:101460004010032001F01F07B5F5837F144647EABB
:1014700043178DF8030044D00DD8062D16D005D89B
:10148000A5B1022D3FD06FF0150037E0B5F5807F94
:10149000F9D101250AE040F20222954235D0B5F596
:1014A000407F34D0B5F5007FEDD10225220330D541
:1014B000726801238B40C2F808353269A2BB07F07D
:1014C0001F037F092DD0012F7CD1414A02EB8302FB
:1014D000C4F30043D2F8001783F00103C4F340447F
:1014E00044EA430421F4E16144EA800421F0070165
:1014F00044EA05230B43C2F80037002007B0BDE8DB
:10150000F0830725D2E70425D0E70525CEE703259C
:10151000CCE7630341BF012372688B40C2F80C35EE
:10152000CBE74FF0A042D1E710360DF10202394669
:10153000304601F025FA14F4403F80460CD139467C
:10154000304604F0ECF8234B9845D6D19DF80210B4
:10155000304601F06DFAD0E701AB4FF0000903AA65
:1015600039463046CDE90439CDE90199CDF80C90E2
:1015700001F0CCF8174B984285D114F4003316D003
:101580009DF803308DF80E30C4F3004484F001045C
:101590004B4603AA394630468DF80C508DF80D4065
:1015A00001F06AF90B4B98427FF46DAFCBE7CDE9C0
:1015B000043303AA0DF1030339463046039301F0C7
:1015C000A5F8EFE703F5E07352F82330FFDE00BF24
:1015D000000300500000AD0B420970B5034602D075
:1015E000012A17D070BD0D4E326951680029F9D01B
:1015F00003F01F0301250C689D400029F2D08A6882
:101600002A4002D04B68304698472CB123682146C7
:101610001C46F2E7024EE7E72346F8E7085D0000C4
:10162000F45C0000F0B54068057B01F01F0444EA5B
:101630004514056987B0002D64D0B2F5001F00F194
:10164000100506D12146284604F06BF8002007B0AB
:10165000F0BD01AE0027B2F5800F0197776039D158
:10166000B3F1007F14BF052304238DF80430002359
:10167000CDE904630393836823FA01F111F00101BA
:101680001AD1B2F1A07F17D104F01F03620903F54C
:10169000E0732AD0012A3BD11F4A52F82330DB07DE
:1016A0000AD40DF1030632462146284601F068F9B6
:1016B0001A4B98421CD0029603AA2146284601F0F4
:1016C00025F8174B984220D101222146284601F0E7
:1016D000BBF9BBE7B3F1C06F05D0B3F1007F14BF16
:1016E00001230223C1E70323BFE74FF0A042D4E761
:1016F0003146284601F0A2F9094B9842DBD06FF041
:101700000B00A4E76FF08500A1E76FF015009EE7DE
:1017100051F82330FFDE00BF000300500400AD0B82
:101720000000AD0B02780B69012A08D0022A08D00C
:101730004AB9064A5A6203F1140002F043B8044A57
:10174000F8E7044AF6E7044AF4E700BF0000AD0BEF
:101750000100AE0B0200AE0B0100AD0B2DE9F04F06
:10176000D0F81090D0F8048085B005460C46174696
:10177000029309F1040A4FF0FF324FF0FF33504655
:1017800002F054F809F1140B00230022584602F02D
:101790004DF8404601F008FC7B1E00260393B7423B
:1017A00001D8002324E0039BB34281BF237DC3F310
:1017B000800383F00103DBB298BF00230193029BF7
:1017C0000093D4E90023217A284600F04DF803461F
:1017D00070B94FF480420023584602F027F898B1C0
:1017E000404601F0F1FB284600F02CF86FF00403AE
:1017F0004046029301F0E8FB504601F0E3FF029BF4
:10180000184605B0BDE8F08FD9F82430034A93425A
:1018100004F10C04EAD10136C1E700BF0000AD0BB2
:1018200008B503464068826900F1080101F04EFBEB
:10183000034B984214BF6FF00F00002008BD00BF9B
:101840000000AD0B08B543681B68D3F80805D3F852
:101850000C1501F0AFFC034B984214BF6FF00F0062
:10186000002008BD0000AD0B2DE9F04186B00C460C
:1018700047689DF834801546002112220DF10600BC
:101880001E4604F07DF9BDF830208DF8052004F0E7
:10189000010314F008028DF804300296049519D162
:1018A000A10704D4B8F1000F12D19BB9202201A9DD
:1018B000384601F0A5FB0A4B98420ED00B339842F4
:1018C0000CBF6FF00F006FF0040006B0BDE8F081B0
:1018D0004022ECE76FF08500F7E70020F5E700BF56
:1018E0000000AD0B036803F01F025B09026004D027
:1018F000012B034818BF002070474FF0A0407047ED
:10190000000300502DE9F04F00EB8109614985B0DB
:101910001546834640F2FF1AD94503D1002005B091
:10192000BDE8F08FDBF80020C2F3C72818F00808E4
:10193000C2F3C320C2F3080440F0A680564B120E37
:101940001E5C544508BF4FF0FF34222A00F29F80EE
:10195000DFE802F012222633292F339D9D9D9D360C
:10196000409D9D9D9D9D9D9D9D9D437E81849D9DB2
:101970009D878B8E91949700C5F80C45621C64D0AE
:1019800003A80394FFF7AEFF039A012707FA02F2B8
:10199000C0F80825384636E0C5F81445002715E09C
:1019A000C5F80845EAE7C5F808450027601C1FD1BF
:1019B0004BE0C5F80C450127F8E7C5F81045EDE701
:1019C000C5F80845002EE9D100270626631C3CD047
:1019D000002018E0C5F80C45F4E7C5F86045BBF8F1
:1019E0000220671C02F001022FD0002AC8D1012773
:1019F00003A80394FFF776FF039A8446012000FAB8
:101A000002F2CCF80C25DBF80020019202F4004C25
:101A1000BCF1000F08BF804603A818BF012703943C
:101A2000FFF760FF039C019A00EB8400C2F3412C96
:101A3000D0F80047320242EA8C0242EA08020C4027
:101A4000224342EA4702C0F800270BF1040B63E788
:101A5000C5F86445C3E7C5F86845C0E7C5F86C45F7
:101A6000BDE7C5F824450127B0E7C5F8284585E757
:101A7000C5F83045F7E7C5F83445F4E7C5F838450B
:101A8000F1E7C5F83C4579E76FF0150047E76FF0DF
:101A9000850044E7F0F8FCFF5B6400002DE9F041AD
:101AA000044647680D4603F098FF4FF02008B0B990
:101AB000264B1B789BB16426606803F0E3FCF0B909
:101AC000012003F0A1FD013EF6D10021212003F009
:101AD000F2FFF0E786F31188BFF36F8FF5E7EFF3BE
:101AE0001186314688F31288BFF36F8F606803F068
:101AF000C9FC80B986F31188BFF36F8FEFE7EFF36E
:101B00001186314688F31288BFF36F8F606803F047
:101B1000B9FC0028DED0BB691D706368BA691B6818
:101B20000020C3F844250122C3F84825C3F820014A
:101B3000D3F82041C3F85801D3F858019A6081F3D3
:101B40001188BFF36F8FBDE8F08100BF8F100020B8
:101B5000F7B50646002201210220FFF75FF80220B8
:101B6000FFF740F8726811681369C1F82435137DD6
:101B7000507D927D03431343C1F86C357768D7E9F4
:101B8000004313F0010514D0356905F10C0003F092
:101B900047FD2B4B984250D1287B04F10C0204F5F1
:101BA000907103F033FD287B012505FA00F000F069
:101BB00085FB0823C4F80035BB69C4F8443501220D
:101BC0000023C4F84835A2606DB9D4F82021002A5A
:101BD000FBD0C4F82031D4F820310123E3604FF466
:101BE0008073C4F80433D4F85831002BFBD00021A3
:101BF000C4F800157368DC6801AA204603F08DFB69
:101C0000002805DB019B226819791868FFF77AFE26
:101C1000726813680821C3F80015117A51B9D269A6
:101C2000C3F834250122C3F83825C3F81011D3F8BE
:101C300010111A60002003B0F0BD6FF00400FAE745
:101C40000000AD0B70B5012383400F4ABFF35B8FDB
:101C5000DC4352E8001F01EA040542E80056002E6A
:101C6000F7D1BFF35B8F4FF4803282400748C0F852
:101C70000823BFF35F8FBFF36F8F03EA01000038C3
:101C800018BF012070BD00BF180E002000100140D9
:101C900070B40E49D1E90034D01AC31844F10004DD
:101CA00022F07F46C1E90034A6F50013B3F5400FDA
:101CB00009D2074B1B681A0A1B069C19054B42F1F7
:101CC0000005C3E9004570BC02F046BAA00600203A
:101CD0001C0E0020A806002011B3BFF35B8F012368
:101CE000104A834052E800CF4CEA030C42E800C19E
:101CF0000029F7D1BFF35B8F0B4A4FF48033834049
:101D0000C2F80433094BBFF35B8F1B68BFF35B8FD3
:101D1000C340DB0742BF064B4FF40032C3F800213B
:101D2000704700BF180E002000100140140E002064
:101D300000E100E00D4B1868010A0006BFF35F8F59
:101D40000B4BD3F80435181841F10001B3F5801F8F
:101D50000AD2084BD3E90023904271EB030303D26C
:101D600010F1807041F10001704700BF1C0E00208F
:101D700000100140A80600202DE9F04F85B016465E
:101D80001F469DF840A00446FFF75CFF0190FFF757
:101D9000D1FFB04271EB07035ED23E4B301A67EBC6
:101DA0000101984271F1000109D36FF01505204639
:101DB0000199FFF791FF284605B0BDE8F08F364B3B
:101DC00003EB0413D3E902239F4208BF964254D089
:101DD00032494FF4803804F1500508FA04F8AD0098
:101DE000C1F848832046ADB203F0E9FB26F07F4BF3
:101DF00005F1804504F5A87305F58835DC464FF0FC
:101E000003090293029A2CF07F4341F82230C1F873
:101E10004483D1F80435224A6FF00200C01A6044AE
:101E200020F07F40904228D9286868B1D1F8043565
:101E30000393A3EB0B0020F07F40B0F5000F1CD9FB
:101E4000204603F0BCFB039BBAF1000FADD109EBB8
:101E5000030C09F10109D5E7BAF1000FA5D101235F
:101E6000104ABFF35B8FA34052E8000F184342E8CB
:101E700000010029F8D1BFF35B8F07490E982301B9
:101E800001EB0412C8500F9B5360C2E902670025A2
:101E90008DE700BF01008000900600200010014087
:101EA000FDFF7F00140E00207FB51C4C1C4BC4F8B6
:101EB0000833C4F848331B4B00254FF0FF304FF078
:101EC000FF31C4F80855C3E902014FF48033C4F868
:101ED0000433154B02264FF400320121C4F8046389
:101EE0001120C3F880212A46FEF798FE1120FEF744
:101EF00079FE0E4A0123A360236013600C4B0D4A48
:101F00000093CDE9015500232846FFF735FF304601
:101F1000FFF7D0F9284604B070BD00BF00100140A3
:101F200003000F009006002000E100E0180E0020E2
:101F3000911C0000FFFF7F002DE9F7432E4CD4F8E1
:101F4000043399070BD5D4F8043143B12B4A00234D
:101F5000C4F80431D4F80431136801331360D4F8A1
:101F60000433DA0343D5BFF35B8F254B53E8002FCF
:101F700022F0010143E800100028F7D1BFF35B8F86
:101F8000D30702D4D4F840318BB30025C4F84051B4
:101F9000D4F84031FFF7CEFEEFF31182202383F314
:101FA0001288BFF36F8F174BD3E90267B042B94174
:101FB00020D34FF0FF304FF0FF31C3E90201D3E9E6
:101FC00000981D604FF48033C4F84833C4F8405182
:101FD000D4F8403182F31188BFF36F8FB9F1000F4D
:101FE00005D0CDF8008032463B460020C84703B0FC
:101FF000BDE8F083A946EDE7001001401C0E00206B
:10200000140E00209006002030B5431C124C85B001
:1020100005D08442A8BF0446012CB8BF0124FFF7B5
:1020200089FE0E4B0C4DD3E90013401AB0F5000F9A
:1020300010D22218AA4228BF2A4652184FF0000098
:1020400007490091CDE9010043F10003FFF794FE39
:1020500005B030BD2A46F0E7FFFF7F00A006002054
:10206000911C000008B5FFF765FE024B1B68C01A03
:1020700008BD00BFA0060020024AD2F80034002BA1
:10208000FBD0704700E0014010B54FF08053D3F80B
:102090003021082A4ED14FF080420021C2F80C11A5
:1020A000C2F81011C2F8381502F54042D3F80414F2
:1020B000C2F82015D3F80814C2F82415D3F80C146C
:1020C000C2F82815D3F81014C2F82C15D3F814143C
:1020D000C2F83015D3F81814C2F83415D3F81C140C
:1020E000C2F84015D3F82014C2F84415D3F82414CC
:1020F000C2F84815D3F82814C2F84C15D3F82C149C
:10210000C2F85015D3F83014C2F85415D3F834146B
:10211000C2F86015D3F83814C2F86415D3F83C142B
:10212000C2F86815D3F84014C2F86C15D3F84434DB
:10213000C2F8703503F05AFA18B1374B374AC3F872
:102140008C2603F053FA18B1354BFB22C3F818253F
:1021500003F04CFA58B14FF080424FF08051D2F862
:10216000E43ED1F8581261F30303C2F8E43E03F0F1
:102170003DFA20B12B4B4FF40072C3F840264FF0CC
:102180008053D3F83031082B17D14FF08043D3F868
:102190000024D20744BF6FF00102C3F800244FF0BF
:1021A0008053D3F83431042B81BF4FF01023D3F880
:1021B00008224FF08043C3F858254FF01023D3F87E
:1021C0000022002A03DBD3F80432002B22DA16495E
:1021D00001234FF01020C1F804351224FFF74CFF03
:1021E000C0F80042FFF748FFC0F80442FFF744FF81
:1021F0000023C1F80435FFF73FFFBFF34F8F0B49B2
:102200000B4BCA6802F4E0621343CB60BFF34F8FFD
:1022100000BFFDE710BD00BF005000404881030033
:1022200000F000400090024000E0014000ED00E0BE
:102230000400FA0530B50468CCB1BFF35B8FB4FA83
:1022400084F3C3F11F03DBB201229A4024EA0202A5
:1022500050E8005FA54204D140E8002CBCF1000F1B
:10226000F6D1BFF35B8FE6D102480B7030BD024858
:10227000FCE700BF0000AD0B0200AD0B10B503681A
:10228000CB40DB0714D401238B400268BFF35B8F84
:1022900043EA020150E8004F944204D140E8001C98
:1022A000BCF1000FF6D1BFF35B8FEED1014810BD3A
:1022B0000148FCE70000AD0B0400AD0B014BC3F877
:1022C0000405704700F00140F7B50446B8B3012893
:1022D00033D104224FF4807301464FF08040034411
:1022E0000244C0F808130025012111601D608C42D2
:1022F0001B688DF8071008BF0DF1070542F2107733
:102300004FF08046012C1FD0D6F81834C3F3004399
:102310002DB3D6F8182402F003022A6043B19DF8C9
:102320000730012B04D1012003F06EF9013FE9D100
:10233000012C02D10B4B00225A7103B0F0BD0C22CC
:102340004FF482730221C8E7D6F80C34C3F300437C
:102350002DB1D6F80C2402F001022A70DEE7002B22
:10236000E1D1E5E7200E0020044B1A7922B90122C1
:1023700018609A800248704702487047200E00207B
:102380000000AD0B0C00AD0B08B5074B1B682BB163
:102390000020FEF735FC08B9FEF724FC4FF080431F
:1023A0000022C3F8182508BD200E002010B510B17A
:1023B000012844D010BD4FF08043D3F81814D3F84F
:1023C0001824C80322D502F00303012B01D0CBB996
:1023D00000234FF080420220C2F8183508224FF443
:1023E000827303F180430021196002F180421C686E
:1023F00001241460174A12682AB34FF08043C3F8CF
:102400000403D7E70020FFF75FFFE1E7D3F81424C8
:10241000D107DDD5D3F81C249207F3D40D4A1268F6
:102420001AB10222C3F80423C4E7D3F80421002A16
:10243000FBD00022C3F80421D3F80431BAE700220C
:102440004FF48073CDE71A68002AFCD019601B682E
:10245000B0E700BF200E0020F8B54FF080431C4EBF
:10246000D3F804430125002704B9F8BDB4FA84F079
:10247000C0F11F00830003F580739BB203F180431A
:1024800005FA00F2196892B224EA02040029EBD09E
:102490001F601B684FF08043012AC3F8082305D052
:1024A000022A08D03368C0B29847DDE77379002B61
:1024B000DAD17271F6E7D3F81814D3F81814890733
:1024C000F0D1C3F81855C3F804239D60CCE700BFD2
:1024D000200E0020036803F01F025B09026004D095
:1024E000012B034818BF002070474FF0A0407047F1
:1024F00000030050034A430900F01F00D35C184456
:10250000C0B270476364000070B50546FFF7F2FF84
:102510000C4C08300E4634F81030DA0508D5C3F3F9
:10252000432304EBC302284654F8333052689847DB
:10253000A3682BB1E26831462846BDE870401847D1
:1025400070BD00BF40050020024611F0010010B52B
:102550000DD18B07C1F3400012D50A49D1F82005EF
:102560005060C1F82005003818BF012008E04FF086
:10257000A044D4F820351360C4F82035002BE8D0EF
:1025800010BD00BF0003005010B5FFF7B3FF124AA3
:10259000083032F81030D9051CD5C3F3432123F499
:1025A000F85322F8103002F10E04002034F8023FF4
:1025B00013F4807F03D0C3F3432399420AD0013040
:1025C0003028F3D1002342F831300448BDE81040F0
:1025D000FFF754BE10BD00BF40050020B805002025
:1025E00008B5FFF787FF034B083033F81000400BA6
:1025F00008BD00BF4005002008B5FFF77BFF034B77
:10260000083013F81000C0F3401008BD400500204A
:10261000F0B5054600200446012607468C420BD142
:10262000114BD3F87C2132B10022C3F87C21D3F8BE
:102630007C3140F00040F0BDE3B29B0003F58072B6
:102640009B0806FA03F31D420BD002F1804202F50B
:10265000C042D2F800C0BCF1000F02D0176012686F
:1026600018430134DAE700BF0060004008B5FFF707
:1026700041FF054B083013F81000C0F3400080F014
:10268000010000F0010008BD40050020F7B5064636
:102690000846FFF72FFF194F00F108050C4637F8E1
:1026A0001530DB0727D5304603F016F82046FFF734
:1026B000A3FF40B12046FFF793FF316800F5A270F9
:1026C000002341F820302046FFF75EFF002301A8D9
:1026D00027F815300194FFF7FDFE019B00EB830006
:1026E000074BD0F80027134043F00203C0F800372F
:1026F000044803B0F0BD0448FBE700BF40050020DC
:10270000F0F8FCFF0000AD0B0400AD0B2DE9F04329
:10271000164685B080460846FFF7ECFE0D46316848
:10272000044609B3504F00F1080937F819309B07E8
:1027300003D52846FFF760FF18BB00220B46CDE902
:1027400000228DF80E208DF80F200DF10E010DF1F5
:102750000F02284602F068FF37F8193023F0020311
:1027600043F0010327F81930736843B33E4A1878E1
:10277000596804F1080732F8173013F0020F02D03D
:10278000A9B13A481EE023F02003DB04DB0C22F859
:10279000173061B10328F4D87168496891F800C016
:1027A000D8F8001088B90CF5A27C41F82C0032F85A
:1027B000173023F01C0343EA800322F81730B36874
:1027C0004BBB2B4805B0BDE8F08301EB8C0143EA1D
:1027D0004C33D1F810E52EF0030EC1F810E5D8F80F
:1027E000001001EB8C0E43F02003DEF8101522F8E8
:1027F000173021F44F3121F44071CEF81015290221
:10280000DEF8108501F47C5141EA004141EA0801FB
:10281000CEF81015CBE7D3E900672846FFF7B4FEE2
:10282000002ECED0104DD5E90023964203D19F4211
:1028300001D1002209E00F480DF10F01FFF7FAFC6A
:102840000B4B9842BED19DF80F2045F8326005EB46
:10285000C20308345F6035F8143043EA422343F47E
:10286000807325F81430ACE7400500200400AD0B60
:102870000000AD0BB80500202DE9F0430C4685B0F3
:102880008046204611461E46FFF734FE054629B312
:102890002046FFF7EBFE18B12046FFF7ADFE18BB50
:1028A000314F05F1080937F8193003F01C0313B153
:1028B0004B78012B18D001238DF80F300023CDE980
:1028C00000134A1C8B1C20460DF10F0102F0ACFED8
:1028D00037F8193043F0030327F81930002E40D0A1
:1028E0002046FFF7C3FE18B1204805B0BDE8F083CD
:1028F00096F800C0D8F800301B4F0CF5A27243F8D0
:10290000220005F1080237F8121021F02001C90455
:10291000C90C27F8121075781DB3D8F80000B678E6
:1029200000EB8C002D04D0F8103523F4991323F418
:10293000F853C0F81035230203F47C5305F44035F6
:102940003605D0F810E52B4306F4801641EA4C31E9
:10295000334341F0200143EA0E0327F81210C0F878
:1029600010350348C1E700BF400500200400AD0B4F
:102970000000AD0B014BC3E9021270474005002077
:1029800010B508461446FFF737FE50B10846FFF76A
:10299000B1FD054B083033F8103004485B0B237051
:1029A00010BD0348FCE700BF400500200000AD0B50
:1029B0000400AD0B70B5164D95F8804006462CBB53
:1029C0002146602205F1100003F0DAF830682E6F1E
:1029D00021468E420ED10023C0F87C31D0F87C31E4
:1029E00040F30730FEF7FEF801230A4885F88030EF
:1029F000AB6770BDCBB29B0003F580727C2B08BF28
:102A0000845001F1010108BF8358E2E70248F0E772
:102A1000400500200000AD0B0C00AD0B034B93F8FC
:102A20008000003818BF0120704700BF400500201B
:102A30000148FFF723BC00BFB40500200148FFF7A1
:102A4000F9BB00BFB405002073B503680C461146FE
:102A5000D3F80423002AA8BF4FF000420546A8BFC0
:102A6000C3F804232046FFF7C7FDE8B12046FFF76F
:102A7000FDFDC8B12046FFF7B3FD82002C6802F5CA
:102A800080730026E650E3582B681344D3F81025D2
:102A900042F00102C3F8102521B12A6801238340C6
:102AA000C2F8043302B070BD2046FFF723FD0F4B80
:102AB000083033F81030C3F38203042B12D0052BF7
:102AC00012D001A80194FFF705FD019AD0F8103546
:102AD000D34003F00103991C204602B0BDE87040CA
:102AE00002F0EBBD0321F7E70221F5E740050020E6
:102AF0002DE9F04F654B664FD3F80403396FC0B230
:102B000089B040F00040FFF783FD051E30DAB9467A
:102B1000002359F87C1F06A8CDE90633FFF714FD02
:102B20005C4B02930DF118084FF0000A029A12F85C
:102B3000013B0292DA0803F0070319F8022022FA97
:102B400003F3DA071AD40AF10103022B08F104088F
:102B50004FF0010AEAD1396F4FF00040FFF758FDFE
:102B6000F96F06A8FFF7F0FC0028D9D125F0004541
:102B70000124002D72D109B0BDE8F08F464B5344BB
:102B80000393D8F80060002EDDD0039B96FAA6F6DA
:102B90001C78B6FA86F646EA44142046FFF7AAFCEB
:102BA000F2080830012337F8101018F802000594D5
:102BB00006F0070603FA06F620EA060008F8020007
:102BC000C1F3820B05A8CDF804B0FFF783FC059A8A
:102BD00002F5E072CB0650F82260C6F3014624D518
:102BE00020460199FFF790FC05A80594FFF772FCB9
:102BF000059B03F5E073F6B250F82330C3F30143AD
:102C00009E4207D10021204602F057FD3146204662
:102C100002F053FD05A80594FFF75CFC059B01221B
:102C200002FA03F3C0F82035ABE7022E14BF0221ED
:102C30000321204602F041FDBBF1030F04D0022E18
:102C400007D1BBF1010FE5D101992046FFF75CFCEC
:102C5000E0E7032EDED1BBF1020FF4E795FAA5F30E
:102C6000B3FA83F304FA03F29B0003F1804303F504
:102C7000C04325EA0205D3F81005D3F81015C0F3B8
:102C80000520C1F30141FFF73FFC72E700600040FF
:102C90004005002073640000736400000146014891
:102CA000FFF7C8BAC4050020CB7B10B433B9D1E913
:102CB00000420368C3F80845C3F80C2503688A6816
:102CC000C3F8242503793C225343054AD3582BB13A
:102CD000006810BC40F30730FDF784BF10BC70479C
:102CE000280E002013B53B4B01930023C0F804319C
:102CF000D0F80421C0F82431D0F82421C0F81C31C8
:102D0000D0F81C21C0F80831D0F80821C0F80032F2
:102D10004B6381F82F300123036291F82D209A42F2
:102D200018BF83604B6B8A6A934204460ED24A6A8C
:102D3000D35CC0F81C350B6803B340F286238B606C
:102D40008B682548C4F8043302B010BD91F82C30CC
:102D500013B10123C361EEE70B6A13F0400F4FF08C
:102D6000010316BFC361436181F82D30E3E72046BC
:102D700002F0D9FC28B1019B013B0193019B002B80
:102D8000F5DC91F82F305BB91348019B002BDBDC9D
:102D90000023C4F8003505231048C4F80035D3E7F4
:102DA000D4F8C434C4F8C4348BB10C4A0C4813F0C2
:102DB000010F08BF104613F0020F02F5803218BF52
:102DC000104613F0040F074B18BF1846DDE7034801
:102DD000DBE700BFA08601000000AD0B0100AD0BDA
:102DE0000000AE0B0200AE0B13B5334B0193002372
:102DF000C0F80431D0F80421C0F82431D0F82421DF
:102E0000C0F81C31D0F81C21C0F80831D0F80821D6
:102E10004B6381F82F308B6A012B044617D10B6A64
:102E20005B0614D40223C4F800320123236291F814
:102E30002D20022A18BF23600B688BB140F2862335
:102E40008B608B681D48C4F8043302B010BD0123A9
:102E5000E9E7204602F067FC28B1019B013B0193A2
:102E6000019B002BF5DC91F82F305BB91348019BD7
:102E7000002BEADC0023C4F8003505231048C4F811
:102E80000035E2E7D4F8C434C4F8C4348BB10C4A3A
:102E90000C4813F0010F08BF104613F0020F02F5A3
:102EA000803218BF104613F0040F074B18BF1846A6
:102EB000DDE70348DBE700BFA08601000000AD0BA3
:102EC0000100AD0B0000AE0B0200AE0BF8B50679A9
:102ED000304D4FF03C0C0CFB06FC05EB0C0494F859
:102EE0002E70002F48D1A76045F80C20636084F84D
:102EF0002D7084F8317084F8307079B34B7B84F88E
:102F000038308F7B84F8397037BB0B6803F01F02B1
:102F10005B092BD0012B31D11F4C04EB82041F4ADB
:102F2000D4F80037134043F4C16343F00403C4F8FA
:102F300000374B6803F01F075B091AD0012B22D121
:102F4000154C04EB8704D4F80037134043F4C163F5
:102F500043F00403C4F80037FFF7A6FE3C2303FB4D
:102F600006550F48012385F82E30F8BD4FF0A044D8
:102F7000D3E74FF0A044E4E70A48F6E702F5E07231
:102F800057F82230FFDE07F5E077002353F82730AB
:102F9000F8E700BF280E002000030050F0F8FCFF07
:102FA0000000AD0B0C00AD0B036802790521C3F8DE
:102FB0000015044B3C2101FB0233022283F82E2032
:102FC000704700BF280E002003680B4A0179C3F840
:102FD0000823D3F8002222F00302C3F800220022C3
:102FE000C3F80025054B3C2000FB0133012183F889
:102FF0002E1083F83020704786420400280E0020EF
:103000002DE9F843DFF8C0800779D0F800903C2321
:1030100003FB07830D4693F82D30012B164604D190
:103020000B78012B06D1294811E0022B02D10B7835
:10303000012BF8D13C24264BC9F8083304FB078444
:1030400094F830302BB1A3682248C9F80433BDE8A6
:10305000F883C6F3800383F00103DBB284F83030D9
:103060002662AE46BEE80F0004F10C0CACE80F007F
:10307000DEF80030CCF800306B68A362EB68636266
:103080006B78C9F888352B78012B18D0ABB9C6F30B
:1030900040163C2303FB07832146484683F82C60F7
:1030A000FFF720FE3C235F4308EB070258F8073088
:1030B000002BCCD182F83030C9E70126E9E7214660
:1030C0004846FFF791FEEDE7280E00200500AD0B06
:1030D000864204000B00AD0BF0B52B4C2B4887B09B
:1030E000214602F020FB002846D194F82F70D4F836
:1030F00020C0F7B9237B9A1E012A1AD8606AA269F8
:10310000904216D1E2696262CCF3401C62691F48AA
:10311000A262032B84F82CC084F82D7004D107B070
:10312000BDE8F040FFF7DEBD07B0BDE8F040FFF7B7
:103130005BBE174E0FCE01AD0FC533682B60EFB1EC
:10314000124AD2F8C434C2F8C434990718D45A07C2
:1031500018D403F00103C3F10403DBB28DF800308F
:103160001CF0040F4FF0000384F8303000D01FB182
:10317000D4E900316846984707B0F0BD3B46EDE71B
:103180000123EBE70223E9E7280E0020003000408E
:10319000340E0020036803F01F025B09026004D0B4
:1031A000012B034818BF002070474FF0A040704724
:1031B00000030050F7B5064602F04DFB084602F04A
:1031C0004AFB01A80196FFF7E5FF019B00EB830096
:1031D0000C46D0F800372C49019440F20D650B40A5
:1031E0002B43C0F8003701A8FFF7D4FF019B00EB89
:1031F00083000127D0F800370B402B43C0F800377D
:10320000042002F001FA092501A80194FFF7C2FF8A
:10321000019AD0F81035D340DB0715D401A80196E8
:10322000FFF7B8FF019B07FA03F3C0F80C35042041
:1032300002F0EAF9304602F00EFB013D042002F0F4
:10324000E3F915F0FF05DFD101A80194FFF7A2FF14
:10325000019A01239340C0F80C35042002F0D4F900
:10326000204602F0F8FA042002F0CEF901A80194F9
:10327000FFF790FF019AD0F810350448D34003F0CF
:103280000103C01A03B0F0BDF0F8FCFF0100AD0B64
:1032900008B5144BA8220021184602F071FC032245
:1032A000026111494261114A8161C2614FF4806239
:1032B0000262002282624262C26201660C49416679
:1032C0001021816603460267C2664267BFF35F8FC3
:1032D000084911F8010D98540132102AF9D1BFF3B1
:1032E0005F8F08BD100400203E6400001000002025
:1032F000000000208564000010B4BFF35F8F0B4A0C
:103300000B490023C85C12F8014D844209D10133F6
:10331000102BF7D10023BFF35F8F23B110BCFFF751
:10332000B7BF0123F7E710BC704700BF85640000FA
:103330001004002038B5EFF31185202383F31288A1
:10334000BFF36F8F064B9C6802F0AFFA85F31188CC
:10335000BFF36F8F2046BDE83840FDF7F1BB00BFDB
:10336000640E002038B5094B53F82040013053F863
:103370002050A54200D838BD636823B1204602F032
:1033800097FA0834F5E723689847FAE78460000065
:1033900070B52B4B2B4C2C4D86B0012203201A709C
:1033A000FFF7E0FFFDF7F0F802F09EFA0420FFF7C8
:1033B000D9FF2646AE4204F130040FD300F000FCE2
:1033C000204CAC4226D300F00FFCFCF7C5FE1F4A90
:1033D000137B23F00103137306B070BD54F80C3C4B
:1033E000059354F8103C049354F8143C039354F898
:1033F000183C029354F81C3C019354F8203C009371
:1034000054E90A2354E90C0100F036FA54F8303C30
:103410005E65CEE7D4E90A23B3F1FF3F08BFB2F1FE
:10342000FF3F05D052EA0301206803D100F09AFC67
:103430003034C6E70649183000F018FEF8E700BF40
:103440008F100020C45E0000C45E00003007002022
:10345000AF5A000008B50348034A0021121A02F0CF
:103460003FFA08BD900600209410002070B500239C
:1034700086B00122CDE90423134E144D01930F228F
:10348000CDE902321249142303FB005506EBC016A6
:1034900004464FF4C07000FB04110E4B00954FF42E
:1034A000A072304600F0E8F9737B0B4AEE6023F01F
:1034B000040373734FF4046304FB033313442C7449
:1034C0006B6006B070BD00BFB0060020640E002027
:1034D00000190020A7590000C01000207FB500206F
:1034E000FFF740FF2B4B83F308882B4D2B4E6B6966
:1034F00043F400736B610024E02385F82230EC77FD
:103500002C766C76AC7685F820406B6A43F4E02329
:103510006B6285F82340FDF78FFAFDF7FFFB4FF054
:10352000FF33AB62EB62FDF7BFFCFDF71BFC1C4BEE
:10353000B36040F201129A81C3E919441C6702F09A
:10354000A0F90120FFF70EFF0220164DFFF70AFF3A
:1035500000F07EFB144B7561059301231349009421
:103560004FF48062CDE90343CDE90144104B284676
:1035700000F082F96B7B064623F0040328466B7348
:1035800002F069FA2046FFF771FF094A31462846E2
:10359000FDF7AAFB0019002000ED00E0640E0020FA
:1035A000B00700203007002047640000801A002088
:1035B0009133000038B5074C074DAC4201D30020D1
:1035C00038BD204602F091F908B91C34F5E76FF0D8
:1035D0001500F5E73A0600203A06002073B50C46C0
:1035E000EFF31181202585F31288BFF36F8FC56833
:1035F0005DB125602B68C36083690133836100205E
:1036000081F31188BFF36F8F11E052EA030603D1F3
:1036100025606FF00B00F3E7CDE900230246083088
:1036200000F032FA18B9034B9B685B69236002B063
:1036300070BD00BF640E00202DE9F341044617461B
:103640001E46EFF31188202383F31288BFF36F8F98
:10365000324BC2689B6872B18068984217D057EAB3
:10366000060216D188F31188BFF36F8F6FF00F0039
:1036700002B0BDE8F08193F90E1021610132C4E976
:10368000023288F31188BFF36F8F0020F0E72169C1
:10369000F3E793F90E1090F90E209142A8BF11465E
:1036A0006FF07E039942B8BF19468A422DDD02F0C1
:1036B00085F90546CDE9007619482246414600F0D5
:1036C000E3F90028E1D0EFF31186202383F3128879
:1036D000BFF36F8FA068D0B1236821699C420AD0E4
:1036E0004BB193F90E309942A8BF19466FF07E0393
:1036F0009942B8BF194602F061F940B10848314615
:1037000000F038FA6FF00A00B2E70025D2E7002D8A
:10371000F4D186F31188BFF36F8FF3E7640E0020B6
:1037200090100020F8B583680546002B3FD0234A4F
:10373000926893423ED1C368012B03D9013BC36019
:103740000020F8BDEFF31187202383F31288BFF325
:103750006F8F0169806802F031F92C68A54207D1AA
:103760000023C5E9023387F31188BFF36F8FE7E7C2
:10377000002CF5D0D4E9003213605A60637B002638
:1037800023F002036373C4E90066A66004F1180025
:1037900002F0C3F9AC6094F90E302B612046A667A5
:1037A00002F059F90648394600F0E4F9C8E76FF02D
:1037B0001500C6E74FF0FF30C3E700BF640E0020DE
:1037C0009010002070B5EFF31186202383F3128848
:1037D000BFF36F8F0468A0421AD0CCB1D4E9003295
:1037E00013605A60637B002523F002036373C4E90E
:1037F0000055A56004F1180002F08FF92046A56776
:1038000002F029F931460848BDE8704000F0B2B92D
:10381000D0E902329A4218BF0133836086F31188DF
:10382000BFF36F8F70BD00BF9010002013B5EFF392
:103830001181202484F31288BFF36F8F846844B110
:10384000013C846081F31188BFF36F8F002002B0C8
:1038500010BD52EA030406D181F31188BFF36F8FC4
:103860006FF00F00F3E7CDE900230246014800F0B6
:103870000BF9ECE790100020F0B5073285B022F08C
:10388000070204467F320E9D0D9E2573583022F0AC
:103890003F02C4E91600042500203F2AA673C4E9AC
:1038A0000600A0606573E07301F14007A2F14006D5
:1038B00005D880F31188BFF36F8F284602DFC4E973
:1038C00019768D1800260C9AE66602920B9A0192E0
:1038D0000A9A009220462A46FDF7D4F9044B666501
:1038E0009B6803B11B6F2367284605B0F0BD00BF7E
:1038F000640E0020094A93686FF00A01996708492D
:1039000058674B6843F080534B60002383F3118862
:10391000BFF36F8F9368986F704700BF640E0020ED
:1039200000ED00E070B590F90D20437B002A31DBFB
:10393000D9062FD182696ABB1A4C63F07F032246F5
:10394000437352F8183FE169934207D1C0E900215F
:103950000860E0610FE08B42F8D01B68002BF5D0C7
:1039600093F90E6090F90E50AE42F4DD5968C0E94B
:10397000003108605860A569954200D005B9E56836
:10398000A3685A7BD20606D1DA897F2A03D9AA69AD
:103990000AB9636170BDAB4202D0284600F0C4FA98
:1039A0006561F7E7640E002038B590F90D20437B80
:1039B000002A014604DA03F07F03437302F013F890
:1039C0000D4D2A46AB6852F8184F944200D004B906
:1039D000EC688B4207D05A7BD20604D1DA897F2A61
:1039E00001D9A2692AB1A34202D0204600F09CFA74
:1039F00023466B6138BD00BF640E002070B590F99E
:103A00000D20437B002A014604DA03F07F03437351
:103A100001F0E9FF4B7B1B4C63F07F0322464B73A5
:103A200052F8183FE069934207D1C1E900200160D4
:103A3000E1610FE09842F8D01B68002BF5D093F9B4
:103A40000E6091F90E50AE42F4DD5868C1E90030C5
:103A500001605960A569A368954200D005B9E56881
:103A60008B4207D05A7BD20604D1DA897F2A01D94A
:103A7000AA692AB1AB4202D0284600F055FA2B467B
:103A8000636170BD640E0020F8B5124B0C46114600
:103A9000114A98681060DDE90676EFF31182202262
:103AA00082F31288BFF36F8F9D68284601F0ADFF47
:103AB000B6F1FF3F08BFB7F1FF3F06D007493A46CE
:103AC000334605F1180000F0D1FA2046BDE8F84071
:103AD000FFF710BF640E0020840E0020AF5A0000D4
:103AE000F8B50446EFF31186202383F31288BFF361
:103AF0006F8F437BDA0649B217D18269AAB903F006
:103B00007F03437301F06FFF194D437B817363F0B3
:103B10007F032A46437352F8183FE86993420ED157
:103B2000C4E900200460EC6114E0A173002086F376
:103B30001188BFF36F8FF8BD9842F1D01B68002B3E
:103B4000EED093F90E708F42F6DD5968C4E900316A
:103B50000C605C60AC69944200D004B9EC68AB685E
:103B60009C4202D0204600F0DFF96C610120DEE7C4
:103B7000640E002049B9EFF3058030B9054B5A694E
:103B80009B689A4201D0FFF7B5BE81F31188BFF35D
:103B90006F8F7047640E0020034648B9EFF305822B
:103BA00032B9064A51699268914201D0FFF7A2BE2C
:103BB00083F31188BFF36F8F704700BF640E00203E
:103BC000EFF31181202383F31288BFF36F8F054B2E
:103BD0009A68D37B013BD37381F31188BFF36F8F56
:103BE000704700BF640E002070B5EFF311862023EC
:103BF00083F31288BFF36F8F144DAB68DA7B013209
:103C0000DA732A4652F8184F944200D004B9EC688F
:103C10005A7BD20604D1DA897F2A01D9A2692AB156
:103C2000A34202D0204600F07FF923466B6186F361
:103C30001188BFF36F8FEFF31180202383F3128875
:103C4000BFF36F8FBDE87040FFF7A6BF640E002082
:103C5000024B03F11802C3E906227047640E0020EC
:103C600070B5EFF31186202383F31288BFF36F8FB3
:103C70001A4CA168E0690B68814214BF1A46002201
:103C800049680B605960A368E1692AB9144AC3E91D
:103C900000210B60E3610AE092F90E5093F90E00E7
:103CA000854216DD5168C3E900210B605360A569A8
:103CB0000B4B9D4200D005B9E568A3689D4202D038
:103CC000284600F031F965613046BDE87040FFF7E5
:103CD00011BE8A42DAD01268D7E700BF640E002016
:103CE0007C0E002050EA01032DE9F04105460E4606
:103CF00004D1FFF7B5FF0020BDE8F081831C71F10E
:103D0000FF3324DB01F02AFF4419EFF3118820234D
:103D100083F31288BFF36F8F0F4F104BB868186092
:103D2000FFF742FEB8680E492A463346183000F0C5
:103D30009DF9BA68537B43F0040353734046FFF781
:103D4000D9FD01F00BFF201A20EAE070D4E76FF0F4
:103D50000104241AD9E700BF640E0020840E00205D
:103D6000AF5A000038B50446183001F0D6FEEFF324
:103D70001185202383F31288BFF36F8F637B5A076B
:103D800004D485F31188BFF36F8F38BD23F004038B
:103D900063732046FFF7C6FDEFF30583002BF0D1D8
:103DA00029460248BDE83840FFF7E4BE90100020E5
:103DB000014B9868704700BF640E00202DE9F8435E
:103DC0000446EFF31187202383F31288BFF36F8F2C
:103DD000067B16F001060DD087F31188BFF36F8FB5
:103DE000002383F31188BFF36F8F0423184602DF8B
:103DF000BDE8F883437B1A0704D587F31188BFF326
:103E00006F8FF5E7D90943F0080250D14273A368D8
:103E100013B1204601F0EFFD04F1180001F07DFE22
:103E2000A56D04F15808A84511D04FF0000975B1EF
:103E3000284601F0E0FD05F1180001F06EFEC5F81E
:103E400078902846FFF76EFDA56DA845EFD11C4D73
:103E5000AB689C4204D1EFF30586003E18BF0126F3
:103E6000D5F81880174A904502D0B8F1000F01D15B
:103E7000D5F80C80434502D0404600F055F8C5F80F
:103E8000148046B1104BAB6040F201129A810022BF
:103E9000C3E919221A67AB689C42AED1EFF30583E0
:103EA000002BAAD13846BDE8F843FFF723BD03F045
:103EB0007F0343F00803437301F095FDA7E700BFBC
:103EC000640E00207C0E0020B0070020044BC01AB6
:103ED000044BC0105843044B01221A54704700BFD2
:103EE00030080020ABAAAAAA90100020C3897F2B1B
:103EF00012D80A4B1B6863B1094B90F90E201B685E
:103F00009A4209DB437BDB0606D1064BC31A18BF76
:103F1000012303F0010070470023FAE78C0E002014
:103F2000880E0020B006002070B50E4B0E4C1E7C93
:103F3000182303FB06440546204601F0EEFD0B4B1B
:103F4000002228469A55FFF7D1FF48B1084B09498E
:103F50001A68013A2046D317BDE8704000F086B8D1
:103F600070BD00BF640E00203008002090100020BB
:103F70008C0E0020CD3E000038B5EFF311852023D4
:103F800083F31288BFF36F8F104B114A9C6810683F
:103F9000A04206D1FFF7C8FF85F31188BFF36F8FEA
:103FA00038BD00211B7C11600A4AD35C002BF3D082
:103FB0002046FFF79BFF0028EED0637BDB0602D193
:103FC0002046FFF71BFD2046E4E700BF640E0020FB
:103FD000840E0020901000200748084A084908B5C0
:103FE000121A01F07FFC0748074A0849BDE808405B
:103FF000121A01F077BC00BFC00400208C0600201C
:1040000090640000B8040020C00400208864000010
:10401000024B1868984208BF00207047C80500206E
:10402000034B1B680BB9FEF71DB80020704700BF9B
:10403000900E002030B570B10B4B5B6898420AD0EF
:10404000036843B1D3E90421D0E90445121941EBD7
:104050000501C3E90421D0E9003213605A6000234E
:10406000C0E9003330BD00BFC8050020B3F1FF3FF9
:1040700008BFB2F1FF3FF8B504461D4616465AD0B8
:104080008160EFF31187202383F31288BFF36F8FD2
:10409000013275F1FF3321DA2C49D1E900206FF0AC
:1040A00001039B1A4FF0FF3262EB00009E1B60EB96
:1040B0000500012E70F1000301DA01260020C4E999
:1040C0000460FFF7A5FF224E84467068BCF1000F24
:1040D0000DD1C4E90060046074601CE0FFF7A0FF2C
:1040E000013645F10005361845EBE070E7E7DCE9FD
:1040F0000425D4E90431934271EB050E1CDAD21A7F
:10410000DCF8043065EB0105CCE90425C4E900C303
:104110001C60CCF80440FFF77BFF844207D10D4BB5
:104120001C6824B901F0E0FC2146FDF76DFF87F320
:104130001188BFF36F8FF8BD9B1A61EB05018445B1
:10414000C4E90431C5D0DCF800C0BFE7480800204E
:10415000C8050020900E00202DE9F0470246EFF33D
:104160001185202383F31288BFF36F8FDFF89890B7
:10417000DFF89880C9F80000FFF74AFF0026002703
:10418000D8E900134FEAE27E50B1D0E9044CA242D4
:104190007EEB0C0A19DAA41A6CEB0E06C0E9044691
:1041A000521843EB0E030024C8E90023C9F800406D
:1041B00001F09AFC2146FDF727FF85F31188BFF334
:1041C0006F8FBDE8F047FFF7D7BE611843EBE4738C
:1041D000C0E90467C8E90013FFF72CFF85F31188D5
:1041E000BFF36F8F83689847EFF31185202383F324
:1041F0001288BFF36F8FD9F80020121BC9F8002076
:10420000FFF706FFBCE700BF900E00204808002023
:1042100010B5EFF31184202383F31288BFF36F8F5F
:10422000FFF7FEFE054A0346D2E90001181841EBEC
:10423000E37184F31188BFF36F8F10BD480800202D
:1042400010B50A4C23681BB101232360002010BD68
:1042500000F0EAF80028F7D00138062803D8044B0C
:1042600053F8200010BD034810BD00BF940E00207D
:104270009C600000FE8FFFFFBFF34F8F0549064B88
:10428000CA6802F4E0621343CB60BFF34F8F00BFF4
:10429000FDE700BF00ED00E00400FA0510B4094B93
:1042A00009490A4C4FF0FE32C3F800244968C3F8AC
:1042B0000424C3F80824C3F80C240023C4F80035F0
:1042C00010BC084700B00250D005002000A00250EA
:1042D000D0E90012014BC3E900127047D00500205D
:1042E00010B5044650B1636813F0685F05D0064A04
:1042F000934202D000232360626010BD034B044848
:104300005B689847EFE700BF2C5F5CA9D0050020F1
:10431000B8600000C8B143680D4A934213D013F04F
:10432000685F0ED0012350E8002F194640E8001CBA
:104330009CF0000FF7D1012AF5D0BFF35F8F00206A
:10434000704704487047044870476FF4E040704776
:104350002C5F5CA9E98FFFFFEA8FFFFF80B1436804
:10436000094A93420AD013F0685F05D0BFF35F8F0C
:10437000002303601846704704487047044870479C
:104380006FF4E040704700BF2C5F5CA9E98FFFFF2E
:10439000EA8FFFFF10B5044620B1044B6360002292
:1043A000226010BD0248FFF779FFF6E73A00003AB5
:1043B000E060000070B5D0E90023174C174D636032
:1043C000D0E90230C4E9023022604868D1F800C068
:1043D000134BC3E900C0D5F81801D1F808C0C3F8E1
:1043E00008C010F0685FD1F80CC00969C3F80CC0B0
:1043F000196110D00B49C5F8BC110023C5E945313E
:1044000005F58A70C5F8B8319047236805F5DC706A
:10441000BDE87040184770BDEC050020AC0E0020D0
:10442000D80500202C5F5CA938B500F02FF820B12A
:10443000032400F063F8204638BD00F031F898B945
:1044400000F0ACF898B90F4DD5F828391B0EF02BB9
:1044500008D1D5F8242A0C4B9A420AD0072400F040
:1044600017F8E6E70624FAE70424204638BD0024BE
:10447000F5E7012000F092F804460028F7D1C5F8CE
:104480000C0AD8E700B002500000E020002070477E
:1044900000207047014BC3F8040A704700B0025077
:1044A00010B5114800F048F800B110BD0F4800F0F9
:1044B00043F80028F9D10E4C204600F03DF80028C2
:1044C000F3D10C4B0C481C6000F036F80146002874
:1044D000EBD100F02DF8044608B1204610BD00F0E5
:1044E0003FF82046FAE700BF2C06002028060020EF
:1044F000240600201C0600202006002008B50848DD
:1045000000F024F8074800F021F8074800F01EF8F2
:10451000064800F01BF8BDE8084000F00BB800BFEB
:104520002C0600202806002024060020200600205B
:1045300000207047704700BF08B5034B02681B6836
:1045400010689847002008BDEC05002008B5034B13
:1045500002685B6810689847002008BDEC050020E1
:1045600070B5094C094D2069AB68984718B1084BE4
:1045700008485B689847084AEB6820690021116089
:10458000BDE87040184700BFD8050020EC050020AA
:10459000D005002004610000A80E0020F8B51A4DD7
:1045A0001A4E0446B26828699047E8B9184F3B682C
:1045B0004CB1A3B1012B19D0013B3B602869F368D2
:1045C00098470020F8BD43B9124A0121C2F80015EE
:1045D0001149D1F81029002AFBD101333B60F3685F
:1045E000286998470020F8BD0C48F8BD0A4AD2F85F
:1045F0001039002BFBD1074A6FF07E40C2F800351E
:10460000FFF748FF3B68D7E7D8050020EC050020FE
:10461000A80E002000A0025000B00250E98FFFFF5A
:104620000CB430B589B005460C461C22002101A807
:1046300001F0A6FA02238DF806300E4B0293059581
:1046400023462CB1B4F1004F28BF4FF00043013B8B
:104650001D440DAA0C99069501A8009200F09CF843
:1046600014B1059B00221A7009B0BDE8304002B0B9
:10467000704700BF695C00002DE9F0410126B2429D
:1046800001DCBDE8F08107463B461F4613F8014BAD
:10469000002CF6D0252CF8D11D78252D07F1020726
:1046A000F2D00023DFF8EC809C461C461F2C27D854
:1046B000A5F1200EBEF1100F06D828FA0EFE1EF04E
:1046C000010F53D12E2D3CD02E2D27D8242D33D0A1
:1046D0002A2D36D0BCF1000FD3D0B445D4D145F04B
:1046E0002007A7F1650CBCF1020F0B6801D9612FFF
:1046F00042D1073323F0070308330B600136BEE7CE
:104700007F2CDFD96C2D23D01DD8682D27D06A2DA2
:1047100001D04C2DDED144F4207408E0A5F1300E18
:10472000BEF1090FEED80A2404FB03E3202417F896
:10473000015B002DBAD1CDE7BCF1000F18D0B34218
:1047400018D00023F3E7742DF1D07A2DEFD0C1E714
:10475000250648BF44F4007444F08004E7E7E5050B
:1047600048BF44F4007444F48074E0E70024DEE7BA
:104770009C46E6E76325B2E7692D02D007D8632D92
:1047800003D0250601D5A405B3D40433B5E7732DB2
:10479000F6E700BF892801002DE9F04F99B0436882
:1047A0000193837881469807CDE9031216D50792C5
:1047B0000B460025187898B1252815D001330293AF
:1047C000019B49469847002805F1010580F2E581E3
:1047D00099F8023043F0040389F802304FF0FF35B6
:1047E000284619B0BDE8F08F93F801809A1CB8F103
:1047F000250F0292E4D04FF0000B5E465F465C4608
:104800001F2C23D8A8F12003102B21D8DFE803F0B8
:104810001520201B2020200B2020201320182020D2
:10482000090044F00104029B13F8018B0293B8F1D4
:10483000000FE5D116E044F0020444F00404F2E76E
:1048400044F00804EFE744F01004ECE77F2C7AD83A
:10485000B8F12E0F5BD037D8B8F1240F5DD0B8F186
:104860002A0F42D0BBF1000F06D0049B0398079398
:104870005A4607A9FFF700FF002E48F02003B8BFF3
:1048800024F04004A3F16502BCBFA4B20026022AB2
:1048900002D9612B40F08380079BDFF854820733F5
:1048A00023F00703083307930726200740F1BE8053
:1048B00008EB060B44465C4540F0BA80A5EB0808BF
:1048C00004EB0802BF1BBFE1A8F13003092B3AD863
:1048D00014F0400F4FF00A0202D002FB0636A2E7A6
:1048E00002FB073744F020049DE7BBF1000F9AD18B
:1048F000079B610603F10402079201D51E6892E747
:104900001F68002FEEDA7F4244F028048BE7600630
:104910003FF566AF44F0400485E7BBF1000F39D0A6
:1049200014F04008049B039807930CBF3A463246A4
:1049300007A9FFF7A1FE079B1A1D0792B8F1000F08
:10494000DCD11F686FE7B8F16C0F15D00BD8B8F148
:10495000680F18D0B8F16A0F02D0B8F14C0F81D1AE
:1049600044F420745FE7B8F1740F3FF45CAFB8F122
:104970007A0F3FF458AF75E7210648BF44F400743E
:1049800044F080044FE7E30548BF44F4007444F466
:10499000807448E75E463446BB46374643E7A8F195
:1049A0006302122A00F2E180DFE812F013004B00EC
:1049B000DF00DF00DF00DF004B00DF00DF00DF0093
:1049C000DF00DF00F900D900DF00DF001D00DF009D
:1049D000A600079B1A1D07921B688DF82030012640
:1049E0000DF1200861E7079B1A1D0792D3F800809C
:1049F000404BB8F1000F08BF984614F0400F14BFA9
:104A000031464FF0FF31404601F0C2F806464CE710
:104A1000019B4946202098470028FFF6D9AE013C6B
:104A2000B442F5D83D442D1B274641E73C46F7E705
:104A300014F8010B019B494698470028BFF63BAF8D
:104A4000C6E62106079B32D5A2052BD5073323F0F6
:104A5000070303F108020792D3E9000124F0100BC9
:104A600000291FFA8BFB32DA404261EB41014BF423
:104A7000806B08AC0A23224601F096F81BF0400F29
:104A8000A0EB040200F0A4802BF001049642A4B233
:104A900040F3A880B8F1000F40F0A6802BF011047D
:104AA000A4B21FE01A1D07921868C117D6E71A1D95
:104AB0000792E005196801D40846F6E7A2054BBF46
:104AC00048B208B241F3C01141F3C031C6E750EA21
:104AD0000103CED16306CCD5002ECAD124F0110437
:104AE000A4B23246B24640F206410C4277D12AE0E7
:104AF000536400004C64000024F01004A4B20A23A4
:104B000014F0800C079A50D014F400711DBF0732C6
:104B100022F0070202F10801101D15BF079107904E
:104B2000D2E90001106850EA01024BD124F0160BC3
:104B300062061FFA8BFB49D5002E47D124F01704DB
:104B4000A4B23246B246230765D4E10705D55745DE
:104B50007DDDA7EB0A039E18BA46D34654E044F025
:104B6000100410234FF07808CAE7782B04D1C8F15D
:104B7000780343F01003C3E7622B14D0019B49462E
:104B8000252098470028FFF623AE019B4946404662
:104B900098470028FFF61CAE0235029B0AE6082360
:104BA0004FF00008ACE70223AAE7111D079114F4A7
:104BB00080711068B7D014F400711ABFC0B261469A
:104BC00080B2B0E724F006041FFA84FB08AC52E779
:104BD00092465C46E10686D5B8F1000F06D10AF18F
:104BE000010AB0E79246F5E7B246F3E70AF1020A96
:104BF000A9E7019B05924946202098470028FFF627
:104C0000E7AD059A0BF1010B5F45F2DCA5EB0A035A
:104C100003EB0B05DA46E30625D5019B05924946D1
:104C2000302098470028FFF6D3AD059AB8F1000F61
:104C30000FD101352E44711B914226DC144608AE7B
:104C400074BB2A44A7EB0A07154617443BE01646F7
:104C500083E70592023549464046019B9847002864
:104C6000059AE7DAB4E540F206410C42E2D014F0CE
:104C7000020F14BF2B20202014F4806F059205F141
:104C80000105494618BF2D20E7E7019B05924946DB
:104C9000302098470028059A05F10105CBDA97E501
:104CA000013C019B305D0592494698470028059AD2
:104CB000C6DA8DE5019B494620209847002805F17A
:104CC0000105FFF685AD7B1B002BF3DC65E700BF1C
:104CD000704713B50469836801A95B68984720B9D8
:104CE000236801985840C0F3802002B010BD00F046
:104CF000E2BE836800EBC101B3F5004F2CBF51F851
:104D0000220031F81200704700EBC1018068B0F555
:104D1000004F2CBF41F8223021F81230704708B5FF
:104D20000122FFF7E6FFD04008BD8368B3F5004FCE
:104D300000EBC10108D34B681AB143F001034B608B
:104D4000704723F00103FAE74B881AB143F00103DF
:104D50004B80704723F00103FAE753000122FFF76D
:104D6000D3BFB0F5004F28BF0139B1FA81F1C1F1CD
:104D70001F0070472DE9F0410D4686680446FFF795
:104D8000CEFFB6F5004F014601D3012832D03046A0
:104D9000FFF7E7FF04EB80010E6996B9E368012293
:104DA00082401343E36002220D612B4629462046D0
:104DB000FFF7AAFF032229462046BDE8F041FFF78E
:104DC000A3BF022231462046FFF793FF2946034640
:104DD00007462046FFF798FF032233462946204620
:104DE000FFF792FF39462B462046FFF78DFF022240
:104DF0003146E1E7BDE8F081B2F5802F34BF0423EE
:104E00000823D21A2DE9F0418C18CD1D25F0070595
:104E100024F00704641B0026E40805602146AC600A
:104E2000EE602046FFF79DFF820002F11B07FF089E
:104E30003146043205F1100000F0A2FE3A46314638
:104E40002846FFF78AFF3346324631462846FFF7A9
:104E50005BFFA4EB0708284631460122FFF765FFF8
:104E600042463946FFF779FF3B46324639462846E7
:104E7000FFF74AFF21462846FFF76FFF43463246B9
:104E800021462846FFF740FF214628460122FFF72A
:104E90004CFF3946BDE8F041FFF76CBF002070477A
:104EA0000FB407B504A951F8040B0191FBF75AFAA6
:104EB00003B05DF804EB04B07047044608B508463B
:104EC00011461A46A047FEF773FFFBF739FE038B26
:104ED00013F0070306D10368002B18BF032008BF97
:104EE00000207047022B05D1408BB0FA80F04009BA
:104EF00080007047012B04D10368002B18BF0520E8
:104F0000EDE70020704710B50C4600B111B96FF005
:104F1000150010BD081D00F087F80028F9D1A3681E
:104F2000032BF6D9F3E72DE9F0410D460746194664
:104F3000281D90461E4600F088F8044638B13346D6
:104F4000424629463846A446BDE8F0416047BDE8E0
:104F5000F08110B4EFF31182202484F31288BFF3A0
:104F60006F8F416110BC0121FBF714BA38B50C46B4
:104F7000054658B151B10B6843B14B6833B11C229F
:104F8000002100F0FDFD2C61002038BD6FF0150000
:104F9000FBE7F8B504460E46FFF7B5FF051E3BDB01
:104FA000EFF31182202383F31288BFF36F8F638B9B
:104FB000278B4FF6FF718B4207F007072ED0062F85
:104FC0002FD8DFE807F0182E082E180418006FF00D
:104FD0008505002303E0013363830225012382F367
:104FE0001188BFF36F8FBBB100233A46314620468C
:104FF000FFF799FF10E000233360636823B9C4E929
:10500000006627B13D46E4E71E606660F9E70221CD
:105010002046FBF7BFF93D462846F8BD6FF00A056C
:10502000D7E76FF00405D4E7034658B1426802F0B1
:105030000302012A03D0032A04D1026812B100201E
:10504000986070476FF0150070474268816002F009
:105050000302032A4FF0000203460CBF006810460B
:105060005A6070477047FEE7012801D1EFF30583CE
:10507000FEF760B901460068FFF7F6BF08B5FBF719
:105080007DFBBDE80840FBF77DBB00210120FFF759
:10509000EBBF61B662B680F31188BFF36F8F7047C4
:1050A00072B6002383F31188BFF36F8FBFF34F8F66
:1050B00030BF62B6BFF36F8F704772B6002383F3C1
:1050C0001188BFF36F8FBFF34F8F20BF80F311881C
:1050D000BFF36F8F62B67047202809D9B0F1004F37
:1050E00008D80138B0FA80F0C0F11F0040007047C6
:1050F000082070473E20704708B5FBF787FF002067
:1051000008BD0369C9B20C2202FB0133186C00F020
:105110000700704770B50346C9B20069EFF3118606
:10512000202484F31288BFF36F8F0C2505FB010444
:10513000246C14F0C00401D0A24210D105FB010080
:1051400001220264002086F31188BFF36F8F28B913
:105150005B6803EBC1035B689847002070BD4FF0AC
:10516000FF30F0E78022FFF7D5BFF8B5069F04694E
:105170000546C9B2EFF3118C202080F31288BFF3EB
:105180006F8F0C2606FB0146306C00F0070EBEF157
:10519000010F11D1376400268CF31188BFF36F8F94
:1051A00046B90C2000FB0144C4E90E236B6853F898
:1051B000313098473046F8BD00F0C00087420CBF40
:1051C0006FF077064FF0FF36E6E713B580240094C2
:1051D000FFF7CBFF02B010BD10B40069CBB21C24A6
:1051E00004FB0300002110BC10470020FDF7DEB8CF
:1051F000002000F017BA1046FEF7E4BA43685B6877
:10520000D3F810350B600020704743685B6802EAF2
:10521000010021EA0201C3F80805C3F80C150020BB
:10522000704743685B680020C3F8081570474368FF
:105230005B680020C3F80C15704743685B68D3F8BF
:10524000042521EA02001140C3F80805C3F80C1533
:105250000020704730B50369586800B300248842C5
:1052600019D108688CB99C685860A14200D1986037
:10527000002008602AB15A680A609A68596002B929
:10528000996000200FE02846E9E720609868814295
:1052900008BF9C60ECE705680446002DF3D1002AA6
:1052A000E9D16FF0150030BD37B504460022012169
:1052B0000320FBF7B3FC6368DD6901AA00212846DF
:1052C00000F02BF800280DDB019B2A68197918687B
:1052D000FCF718FB002805DB204603B0BDE8304092
:1052E000FCF79EBA03B030BDCA074368006905D415
:1052F000C1F34202012A04D0022A0AD06FF015003D
:1053000070471B684FF0CC72C3F824250160002061
:1053100070471B684FF0CD62F6E730B54368136005
:10532000057A446804EBC504A34202D36FF0010080
:1053300030BD5C798C4203F10803F0D10020F7E71F
:1053400043681B68D3F88004C3F880047047426840
:105350001368D3F8100150B1D269002012780A7096
:10536000C3F81001D3F8102101221A6070474FF0E2
:10537000FF307047002A0FDD42681368D3F8100130
:1053800058B10020C3F81001D269D3F81001127887
:105390000A700120186070470020704710B54368FC
:1053A00019680369EFF31182202080F31288BFF39C
:1053B0006F8F1868002484731B680120D8734FF422
:1053C0008003C1F8043382F31188BFF36F8F10BDDF
:1053D00003691A68012191731B680022DA73704710
:1053E000026911680346C87B40B15B681B68D3F84B
:1053F000580118B100230B611368988970474368FE
:105400001B68D3F81001003818BF012070474368AB
:105410001B681022C3F80423704743681B681022DE
:10542000C3F80823704743681B684FF40072C3F841
:105430000423704743681B684FF40072C3F80823C5
:10544000704738B543681D68D5F804335B020446DD
:1054500005D4D5F8040310F0100006D138BDFFF7CD
:10546000BFFF0028F5D00120F8E72046BDE838400E
:10547000FFF7C5BF012070470369186801601B680A
:105480005A60704702680346D2F8580140B95B6819
:10549000DB0706D4D2F82001003818BF012070477E
:1054A0000120704710B4436802691B68D3F80413E5
:1054B000C90517D5D3F82011A1B1EFF3118120242C
:1054C00084F31288BFF36F8FD3F8204134B10024E6
:1054D000C3F82041D3F820410124DC6081F3118816
:1054E000BFF36F8F1168D3F8584171B17CB10024BC
:1054F0000C611168C97B19B94FF48001C3F8081316
:1055000011688C7B1CB100238B7310BC7047D3F8DF
:10551000241121B10021C3F82411D3F824311268D9
:105520001368002BF1D0516810BC18472DE9F041E9
:10553000066933689C89BFF35B8F94420546A8BF18
:1055400014461033012753E8002F002A03D143E803
:1055500000700028F7D1BFF35B8F0CBF3B460023E0
:105560002BD133682246986800F0FCFAEFF31188DB
:10557000202383F31288BFF36F8F69680846FFF713
:1055800081FF326840B91061044688F31188BFF387
:105590006F8F2046BDE8F0810B689268C3F8442500
:1055A0000022C3F84845C3F82021D3F82011C3F8DE
:1055B0005821D3F858219F60E7E71C46E9E700F13E
:1055C00050039B009BB203F1804303F58833002214
:1055D0001A601B687047FEF733BE08B5FAF7E2FFA2
:1055E000FBF7B6F8BDE80840FEF72ABE4FF080533F
:1055F000D3F83021082A03BFD3F83401B0FA80F081
:10560000400900207047004700F037B9C00000F1A2
:10561000804000F5F830C0F81015C0F81425704728
:10562000FDF73CBBFCF750BEF7B5019001A8DDE9E2
:10563000084716461D46FCF74DFF019BB6F1000CCE
:1056400018BF4FF0010C00EB83000B1E18BF0123A5
:10565000002D43EA4C030CBF4FF0000C4FF00C0C34
:10566000002C43EA0C030CBF4FF0000C4FF4E06C2D
:10567000002F43EA0C03D0F800270CBF4FF0000CBA
:105680004FF4403C43EA0C0322EA030301B10978DA
:105690000EB13678760019430DB12D78AD00314347
:1056A0000CB12478240229430FB13F783F040C4306
:1056B0003C43C0F8004703B0F0BD1FB50DF10F0328
:1056C000019300238DF80F1000931A461946FFF737
:1056D000ABFF05B05DF804FB38B5054608460C463F
:1056E000FCF78AFFA8B10846FCF7C0FF88B108465E
:1056F000FCF776FF2A6801238340C2F808332B6841
:1057000003EB8000D0F8103523F00303C0F8103508
:1057100038BD20460021BDE83840FFF7CEBFFCF77A
:10572000B5BFFFF7D9BF30B5D0F804312BB1002396
:10573000C0F80431D0F80431012391F82F2022B3AE
:105740000022C0F82421D0F82441C0F81C21D0F850
:105750001C41C0F80821D0F80821002B79D0002284
:1057600081F82D2091F82F20002A37D14D6B8C6ABB
:10577000A5421FBF0523C0F80025C0F80035134619
:1057800083F0010381F82F3028E0D0F8244114B1D0
:10579000C0F824210EE0D0F81C216AB3C0F81C41E7
:1057A000D0F81C214A6B01324A63D0F8245145B12C
:1057B000C0F82441D0F824210122426181F82F2031
:1057C000CBE78C6AA24204D24C6AA25CC0F81C25CA
:1057D000C3E791F82C201AB10123C361002030BD2A
:1057E0000A6A12F0400F4FF0010203D0C26181F843
:1057F0002D20F3E74261B0E7D0F80841002CACD08F
:10580000C0F80821D0F80841D0F82441002CBFD1BD
:105810004A6B8C6AA242A0D24C6AD0F81855A554A3
:105820004A6B8C6A0132651EAA424A6308D10A6A31
:10583000540602D40222C0F80022012202628CE740
:10584000A242FAD10A6A520687D5022381F82D3086
:10585000C4E70120C3E707B5019001A8FDF79AFC52
:10586000019A01239340C0F8083503B05DF804FBAA
:1058700008B5FDF741FD002008BD08B1FBF708BCE5
:105880007047704740B1C368587810F001001EBFE0
:105890001878B0FA80F040097047EFF311832023A5
:1058A00083F31288BFF36F8FFEE708B5FFF7F5FFAC
:1058B00010B5D0E9003433B90020E268537843F0E2
:1058C0000103537010BD204698470028F4D00028EB
:1058D000B8BF4042E368FF28A8BFFF201870ECE77C
:1058E00000F04EB900F03EB970474169836843EA61
:1058F000010212F003020FD1C2600269013A01FBFA
:10590000023382689A4201D900207047C2681A6047
:105910004269C3609B1AF4E76FF01500704710B539
:10592000C0E904320023816083610446FFF7DDFF94
:1059300008B9C4E9004410BD2DE9F04105460F4601
:10594000EFF31188202383F31288BFF36F8FC668AB
:10595000F6B90468A0421BD0D4B1D4E90032136078
:105960005A60637BA66023F002036373C4E9006698
:1059700004F1180000F0D1F82046A667676100F036
:105980006AF8414605F10800BDE8F041FEF7F2B8BB
:105990003E60AB69EF60013BAB6188F31188BFF3F8
:1059A0006F8FBDE8F08108B52024EFF3118384F3F5
:1059B0001288BFF36F8FFFF773FBF6E790F90E3095
:1059C0008B4201D0FEF78CB80020704703460020C0
:1059D000C3E90200C3E900337047EFF305800038E4
:1059E00018BF01207047D0E9003213605A600023CD
:1059F000C0E90033704708B5FFF7F5FF437B23F09C
:105A0000020343730023836008BD38B504460D4686
:105A1000FDF7CAFF637B43F002036373D5B1A56052
:105A20002B689D4209D16B68C4E900531C606C600F
:105A300010E06A689A42F6D01B68002BF3D093F905
:105A40000E1094F90E209142F3DD5A68C4E9003239
:105A500014605C6038BD10B5EFF31184202383F32C
:105A60001288BFF36F8FFDF75DFF84F31188BFF3DA
:105A70006F8F10BD10B50146EFF31184202383F31F
:105A80001288BFF36F8F437B13F0280F0AD183680E
:105A90000BB1FFF7B0FF4B7B23F004034B730846B9
:105AA000FDF740FF84F31188BFF36F8F10BD012114
:105AB0001838FFF7DFBF38B50C460546FEF712F978
:105AC000B4F1FF3F08BFB5F1FF3F1FBF47F6FF73BB
:105AD00000224FF47A71E0FB01321ABFD80B40EA82
