:1000000000720020F5FD0000A5010200E1FD0000E6
:10001000E1FD0000E1FD0000E1FD00000000000046
:1000200000000000000000000000000051FF000080
:10003000E1FD000000000000FDFE0000E1FD000009
:10004000FD00010075250200FD000100FD0001001A
:10005000FD000100FD000100FD000100FD000100A8
:10006000BF250200FD000100FD000100A9250200DE
:10007000FD000100FD000100FD000100FD00010088
:10008000FD000100FD000100FD000100FD00010078
:10009000FD000100FD000100FD000100FD00010068
:1000A000FD000100FD000100FD000100FD00010058
:1000B000FD000100FD000100FD000100FD00010048
:1000C000FD000100FD000100FD000100FD00010038
:1000D000FD000100FD000100FD000100FD00010028
:1000E000FD000100FD000100FD000100FD00010018
:1000F000FD000100FD000100FD000100FD00010008
:10010000064B074A5B7802604FF41C728280C37111
:100110000822002382710372704700BFE00E0020A6
:1001200059DB0000064B074A9B7802604FF490723F
:100130008280C3710822FF2382710372704700BF5F
:10014000E00E0020CFD60000F8B5C41D002824F032
:100150000704054614BF2046002000F041FB071E9F
:1001600002DA6FF00B00F8BD0DB9FC42F9D4294E4C
:100170003189F088F37AB27A0331033089B280B2E0
:100180000BF02EFA0028ECDB317873783C44033412
:10019000002D194424F0030400FB01F114BF204694
:1001A000002000F0A9FC20440DB90028D9DBB2786A
:1001B0000346B2B1F17CF37811441944FF29D0DC35
:1001C0000330002D20F0030414BF20460020F289E4
:1001D000C9B200F001FD031EC3DB23440DB9002B9F
:1001E000BFDB317C81B1B27872B10733002D23F0CF
:1001F000070414BF2046002003F0C4FF031EB0DB39
:1002000023440DB9002BACDB002D0CBF1846002099
:10021000A9E700BFE00E00201FB572B6184BDD6ADB
:10022000E5B9BFF34F8F1749174BCA6802F4E06274
:100230001343CB60BFF34F8F00BFFDE7B2FBF6F275
:10024000DCB20133002AF9D104F110036B4403F846
:100250000C2C0A2234B901A8A847E2E70246002381
:100260000A26EDE7631E04AEDCB256FA83F3B0FB58
:10027000F2F602FB1600303003F80C0C3046E9E7CA
:10028000E00E002000ED00E00400FA0507B50C4B7D
:10029000DA7A8DF801209A7A8DF8002068461A895A
:1002A000DB88ADF80420ADF8023002F007FB18B18E
:1002B000DB210320FFF7B0FF03B05DF804FB00BFB4
:1002C000E00E002038B5054668B30AF007F810B90B
:1002D0004FF0FF3038BD07F05BFAB0F5FA7FF7D882
:1002E000134C1448E562002500F0F4F92A2229464F
:1002F000204684F830500AF085FB01236370A37018
:100300001B23E380238140F2032363811F23E381C6
:1003100008232374EFF3108472B600F033FD2CB978
:1003200062B62046D6E76FF01500D3E72846D1E73E
:10033000E00E00208D02000010B5002842D1244CB0
:1003400094F83030032B3AD059B1002A3DD002390D
:10035000052937D8DFE801F0031428362B2E13784F
:1003600063700020FFF7F0FE0028B7BF01230223CF
:1003700084F830306FF00B00A8BF84F8303010BD27
:10038000137913B3537903B31188FB291DD81A29A4
:1003900053881AD91B3BE02B17D81368C4F80630D2
:1003A0000C4B92889A80DCE71378A370D9E7138806
:1003B000E381D6E71388FF2B07D82374D1E74FF0EA
:1003C000FF30DCE76FF02C00D9E76FF01500D6E7BF
:1003D000E00E0020E60E0020F8B50D46064630B3CC
:1003E00029B311F0070422D1124F97F83030012BB6
:1003F00002D16FF00B00F8BD032B02D14FF0FF309C
:10040000F9E700F09FF80028F8D02846FFF79CFE97
:100410000028EEDB0DF001FC3046214602F0D4FA54
:10042000FFF734FF032387F830302046E3E76FF00F
:100430001500E0E7E00E002010B5074C94F83030CE
:10044000032B03D102F0D8FA03F0BEF90BF0BEF98A
:10045000002084F8300010BDE00E002050B1074BA2
:1004600003F1140253F8041B40F8041B9342F9D122
:10047000002070476FF01500704700BF9D670200B5
:1004800010B5074B93F830403CB902F067FA0120F1
:10049000044900F09DF9204610BD4FF0FF30FBE706
:1004A000E00E00202501000010B5074B93F8304006
:1004B0003CB902F067FA2046044900F089F9204669
:1004C00010BD4FF0FF30FBE7E00E002001010000FF
:1004D00010B5054B93F830401CB90CF0E9F82046F4
:1004E00010BD4FF0FF30FBE7E00E002010B5054BCC
:1004F00093F830401CB90CF0DEF8204610BD4FF0E8
:10050000FF30FBE7E00E002008B5064B93F83030D3
:10051000032B03D001F0F0FF002008BD4FF0FF30A7
:10052000FBE700BFE00E0020024B02681A600020CB
:10053000704700BF140F0020014B1B68184700BF15
:10054000140F0020024B1868003818BF01207047B4
:10055000140F00202DE9F743294E0446071D2848B3
:10056000376003F049F90228054607D1244920469F
:100570000AF097FB284603B0BDE8F083042838D181
:100580003378072B18D13E2000F050F878B9F37873
:10059000327901A943EA02236846ADF800300AF037
:1005A000F7FD0028DBD053210820FFF735FE05209A
:1005B00000F07CF80028EAD0314620460AF0D6FB4D
:1005C000B0F5817F01D37221EEE70028C7D094F8FF
:1005D000008094F80290404600F028F80028BED031
:1005E000B8F13E0FC6D1484600F060F80028C1D1EE
:1005F000B5E70828BED1024920460AF081FBB9E7D9
:10060000180F0020074B4FF0FF3141F6FF72C3E98E
:10061000001205490022C1E900221F21C3E902128C
:10062000704700BFC00400205C0F00203F280CD89A
:1006300001380B4BC0F3421200F01F0053F8223078
:1006400023FA00F000F001007047FF2806D0403880
:10065000C0F34212034B00F01F00EFE70120704788
:10066000C00400205C0F00200146074B0068496869
:100670001A4603C240F48C221A6041F0107242F410
:10068000FF625A60704700BFC00400200246024B60
:100690000068516803C370475C0F00200246024B9C
:1006A0000068516803C37047C8040020FD281ABFC2
:1006B00000F1FF30C0B23F20054B420903EB82033B
:1006C00000F01F009B6823FA00F000F00100704763
:1006D000C0040020014B1860704700BF640F002069
:1006E00010B5FFF78FFF0BF072FC034B1B6804463D
:1006F00003B19847204610BD640F00200B88028884
:10070000F0B5C3F30E049EB204F11803C57CC35ABE
:1007100002352A442B4497B213FA82F3013B4288F4
:10072000B3FBF7F313FB07439BB29A42044A93BF10
:1007300022EA0603324013439BB20B80F0BD00BF98
:100740000080FFFF4A1E062A08B50346084604D863
:100750004FF4D1711520FFF75FFD094A914202D98C
:1007600040F2A311F6E711B903B1196008BD2BB12E
:100770001B680022C3E901211A1D1A600430F5E745
:10078000FAFFFF7F10B5114B00EB41041A78638923
:10079000B3FBF2F303FB0223013A1A44B2F5706F84
:1007A000027928BF00231A448378B2FBF3F019447E
:1007B00003FB1020091AB1FBF3F003FB10131344E1
:1007C0006FEA43436FEA5343638110BD680F002013
:1007D000024B03EB80035960704700BF680F002095
:1007E0002DE9F04F10F0070A85B0054604D040F21D
:1007F00061111720FFF710FD554F07F10C06B146A8
:100800000446B0464FF0010B57F8043B8DF80BA09F
:100810003BB101A898479DF80A30082B01D9E8217F
:10082000E7E79DF80B1081BB05B13160B94506F1D2
:100830000406E9D12DB3DFF81CE100238EF8003067
:100840001E46022258F82200013A60B190F804A036
:100850008178BAF1FF0F66D14FF000078E42077121
:100860003CBFCEB20123511CECD10BB18EF800601D
:10087000022640F6FF6A58F82670002F65D1013E27
:10088000F9D2601B05B0BDE8F08F9DF80AC0BCF13D
:10089000020FE64601F1050238BF4FF0020E0EF1DD
:1008A000FF3004EB42040444CEF100002040BDF8C8
:1008B00008406444013CCCF1000C04EA0C04B4F59B
:1008C000803F4FEA420301D3F82192E775B1C31A82
:1008D000336099701C8083F803B09DF80C201A7166
:1008E000019A1A814FEA124CA3F806C004FB0104D6
:1008F0009CE758F82C90B9F1000F06D099F804B095
:10090000D34504BF99F802904F440CF1FF3CBCF171
:10091000000FEEDA3944FF29A0D90BB18EF8006040
:1009200040F2271165E794460027F0E707EB410303
:100930003846A3F80AA0FFF725FF09F10109BB78A3
:100940005FFA89F18B42F1D899E74FF00009F6E799
:100950006C0F0020680F0020F8B54FF6FF7303807E
:10096000184B03EB810305461869B8B18678037903
:10097000B3FBF6F206FB1233DBB219460A1D00EB9D
:100980004202B2F902705488002F09DB0131B1FB39
:10099000F6F206FB1211C9B28B42EFD10020F8BD6E
:1009A000FF29FBD0C4F30E03C4782B8024B94FF485
:1009B000D5711720FFF730FC5380BDE8F8400AF0EE
:1009C000EEBD00BF680F00201D4B03EB810370B527
:1009D0001C69054644B3030404D54FF4DC711720A9
:1009E000FFF71AFC014620460AF0BBFDFF2801462E
:1009F00004D02046BDE870400AF0D1BDA078B5FB18
:100A0000F0F300FB1353DBB219460A1D04EB420658
:100A1000B6F90260002E09DB0131B1FBF0F200FBF8
:100A20001211C9B28B42F0D1002070BDFF29FBD05A
:100A30008B4204EB42021CBF0023E3705580D8E7D1
:100A4000680F0020094B03EB810310B51C690146B8
:100A500020460AF086FDFF28014604D02046BDE866
:100A600010400AF09CBD002010BD00BF680F0020A0
:100A7000F8B5104B03EB810307461C69014620467D
:100A80000AF06FFDFF28054611D0E688238953EA56
:100A9000064606D0014620460AF081FD014638464A
:100AA000B04720462946FFF76DFE0020F8BD05201F
:100AB000FCE700BF680F002038B50E4B827903EBCE
:100AC00082030446186908B9052038BD8278E179A7
:100AD0009142F9D24B1CE37100EB41035D89B3F9FC
:100AE0000A30002BF3DBA5800AF059FD20600020BE
:100AF000EBE700BF680F002070B5044610F003005C
:100B00000E4603D04F211820FFF786FBFFF71AFE91
:100B1000054624B1034831460460FFF713FE28461A
:100B200070BD00BF840F00202DE9F14FDFF870B0D9
:100B30009DF828A09DF82C901E46DBF80030074653
:100B40000D4690461BB961211820FFF765FB524600
:100B5000092140460AF075FB4A4684B20921304615
:100B60000AF06FFB14FA80F1DBF800000AF0CEFC0B
:100B7000386018B9286001B0BDE8F08F04442C60DB
:100B800038685346414609220AF014FB28684B4650
:100B90000922314601B0BDE8F04F0AF00BBB00BF9F
:100BA000840F002070B50E4604460AF05DFB054632
:100BB00030460AF059FB044B2A1821461868BDE854
:100BC00070400AF0C7BC00BF840F0020014B1868BA
:100BD0000AF090BC840F00201F2AF8B50446134683
:100BE0000ED89200033222F00303B3F5803F2DD2DA
:100BF000184DACB1A00710D05F210920FFF70CFB06
:100C0000FF2B4FEA420204D9FF339A42A8BF1A468B
:100C1000E8E77C2AB8BF7C22E4E729706C602B816E
:100C200022F0030201EB81031204D80001276B6854
:100C3000120C0025EEB28E4200D3F8BD14B1261876
:100C40001F705E60104401352833F3E74FF0FF302A
:100C5000F3E700BF880F002038B5144A14785368B2
:100C60000021C8B2844203D8AB210920FFF7D4FA8F
:100C70001846013105782833002DF2D0002181700B
:100C800001241289447044688161C161920800F1B5
:100C90002001051D21F8022B994245F8044B14440C
:100CA000F8D100234361037038BD00BF880F0020D6
:100CB0002DE9F8434B7880460C4602F0040602F01A
:100CC000FB07D3B1DFB12E4BD4F804901D89B7BB1D
:100CD00001236370AD08A761E76104F120034A4670
:100CE000211D04F1280023F8025B984241F8042BEF
:100CF0002A44F8D10023636101E0002FE3D0FF23F1
:100D0000A370002E18BF0226A3191B7D032B03D14D
:100D1000022F1CBF0136F6B2A31901221A7506F183
:100D20000C0204EB8606002324F812307268A370CC
:100D3000C8F80020A8F804304046BDE8F883002138
:100D400014226170A01809F05DFEB5F5FF7F0FD287
:100D50006B08ED1AADB209EB0502C4F804902584C6
:100D6000A2606384C4F80C90A5842261E384C6E782
:100D7000B5F5EE6F4FF0FF03EBD940F27265EAE78D
:100D8000880F0020134B012200214FF0FF309A60A2
:100D9000C3F80012C3F80803C3F80015C3F804250C
:100DA0009A60C3F80803C3F80015C3F804250A497C
:100DB0000A4A03F580334FF40040C3F80825C1F810
:100DC0008000BFF34F8FBFF36F8FC1F88001C3F86E
:100DD0000825704700F0004000E100E00000F63F09
:100DE0000A46192302F8033B0448C368C1F80330DC
:100DF0000369536043699360704700BF940F0020FC
:100E0000024B5A8C02435A845B6A1847940F0020A5
:100E1000014B00215B6A1847940F002010B5154C58
:100E200005F042FD05F0DAF8208DFFF7F1FF237E93
:100E300063B12246104952F80C3BE360636853608B
:100E400004F11900A36893600CF0B0F80B4B228DED
:100E500093E8030003F020FA236B188803F046F9A7
:100E6000A36B94F8341094F835009847002384F865
:100E70003C3010BD940F0020E10D0000C00F002099
:100E8000034B93F83C300BB1FFF7C8BF704700BF6E
:100E9000940F002070B51E4C256B636C236495F88D
:100EA0008C30064694F848000BB10430C0B295F877
:100EB00069102EB9FF2803D195F868308B4201D014
:100EC00005F08EFB95F88C30E3B1E06C05F08CFDFD
:100ED000012384F86830D5F8E8302366E16CD5F852
:100EE000EC30206C636605F02FF816B9304605F03B
:100EF000C3FD95F86810002005F008FE022384F871
:100F00003C3070BD206C05F06FFD05F067F8ECE734
:100F1000940F002008B5094B93F83C20022A04D016
:100F200040F22D212720FFF777F9DA7A42F001020B
:100F3000DA72BDE80840FFF771BF00BF940F0020D0
:100F400010B50E4C626F137803F00303032B04D12A
:100F5000D378022B01D1002010BDA06F0AF00DFA4A
:100F60000028F9D1636F1B7803F00303032BF2D041
:100F700001F028FF80F00100C0B2EDE7940F0020DF
:100F80002DE9F743434C94F83C30256B012B064682
:100F90000F465FFA83F804D040F29D412720FFF707
:100FA0003BF995F87C303BB1002185F87C1004209A
:100FB000FFF726FF85F87E80616F0B7803F003034F
:100FC000032B05D195F8823013B90220FFF718FFE3
:100FD000626F137803F00303032B02D0537823BB13
:100FE000012385F8823095F88C30C3B1236BD5F896
:100FF000E82093F8690022664FF00108D5F8EC204C
:10100000626684F868800AF0E3FB94F8489022490D
:1010100000220346009240464A4604F04FFF36B194
:1010200003B0BDE8F043FFF7F9BE0223D9E7002F74
:10103000F6D0E36F304698470028F1D094F834306A
:10104000002BEDD194F88030DD06C3F3001001D5FC
:10105000FFF776FF636CD4F884201B78C3F300138A
:101060002AB9B4F8882013B1B2FA82F35B09628C12
:10107000910709D5636FDB78022BD1D1002003B033
:10108000BDE8F043FFF706BF002AC9D10343F5D1FD
:10109000C6E700BF940F0020E40F002010B5064BF8
:1010A00093F83C2002F0FF0422B91C7603F0ECF820
:1010B000204610BD0C24FBE7940F00200A4B0B4A7E
:1010C00070B506460D461A60FFF7E8FF18B1DE213D
:1010D0002720FFF7A1F8064C012104F18A000BF04C
:1010E0005FFE6664E56470BD08050020A818000076
:1010F000940F0020024B012283F8AC20704700BF00
:10110000940F0020F0B57D4C85B002AE86E8030058
:1011100094F83C100A9F01F0FF0511B90AB103B120
:1011200027B940F26D112720FFF776F896E8030003
:1011300004F12C0C8CE8030084F8AC5084F8345093
:1011400084F8AD5084F8355084F8AE5084F8AF5030
:1011500065842585256BE3676262A76305F07EFAE7
:1011600004F03CFF95F9700005F006FB686A05F095
:101170002DFCE86905F006FB95F89C0005F028FBBE
:10118000236B93F89F310BB105F056FA95F869205F
:101190009D21012005F074FB594B186805F01CFCDB
:1011A0002B69A367574A6B69C4F8B03005F58071A5
:1011B00005F1F00353F8040B42F8040B8B42F9D10C
:1011C000D5F80021C4F869205A684F4B5A60236B48
:1011D00093F88620A2F12501012993F868100E46A4
:1011E00003D993F8870025285FD193F846322BB1B5
:1011F000012E03D0012B14BF0226012605F1300772
:10120000314638460BF00FFF31460BF026FCAB8F12
:1012100095F86910834228BF0346384684F8B430F5
:101220000BF0F1FE95F8691095F88C70B5F84460F4
:10123000042908BF03210BF010FC0FB9043080B261
:10124000B04228BF304695F88C30C6B284F8B560FD
:1012500084F84860A3B1D5F8E83095F869002366B2
:101260000127D5F8EC30636684F868700AF0B0FAAC
:1012700000220346009223493246384604F01EFEFF
:101280000120FFF707FE002323606360A360B5F829
:10129000803063802B88238095F89C302371EB6E1F
:1012A0000BB101221A6005B0F0BD203A012A0CD81A
:1012B000232893F826210AD012F0010319D19207AE
:1012C0009CD5012918BF022698E723280DD193F851
:1012D000262193F86130134013F001020BD19B07D4
:1012E0008CD5012908BF0E46ECE7032908BF042668
:1012F00084E71E4682E7164680E700BF940F002071
:1013000008050020E40F0020FD0F002008B50C4B5D
:1013100093F83C201AB9BDE80840FFF77FBD93F869
:101320003C20022A04D040F20F212720FEF774FF50
:101330001B6BD3F8B801BDE8084005F06FBB00BFD8
:10134000940F0020014B1876704700BF940F0020C7
:10135000014B93F8AE007047940F0020024B188D9C
:10136000C0F3C020704700BF940F0020014B93F8DA
:10137000AD007047940F00202DE9F3411E4D820708
:101380002C6B06460F4622D5D5F8843023B940F29F
:101390008E412720FEF740FFB5F88820296C1846BB
:1013A000033291F8018009F099FB0DF1020201A9C5
:1013B0002864D5F8B0000AF093F801980AF07AF89A
:1013C000012238604146D5F8B0000AF020F8F30752
:1013D0000ED5D4E93A32013342F10002C4E93A327F
:1013E00094F88430012B0CBF0023012384F884304F
:1013F00002B0BDE8F08100BF940F00202DE9F04F4E
:10140000AB4C002387B0CDE9043394F83C30276B14
:10141000022B81468A4604D040F211512720FEF764
:10142000FBFE238D590606D44020FFF7F1FC238DE7
:1014300043F04003238597F88C30B9F1000F00F09A
:101440002781A3B104F0E2FD88B9236C5A7872B108
:101450001B7897F88420C3F3C0039A4207D1012375
:1014600084F83530FFF7DAFC07B0BDE8F08F236C65
:101470005978A4F8881009B3D4F8B00009F09EFF99
:10148000C4F88400238D97F8832043F400732385E8
:10149000236C1B78C3F380039A4200F0BA80256B5B
:1014A00095F88230002B3DD0022B11D1A06F04A9FA
:1014B00009F025FF28B940F20541AFE7C4F88410D0
:1014C000E0E7D5E93832013342F10002C5E93832AC
:1014D00095F87E30002185F8821023B185F87E10C2
:1014E0001020FFF78DFC95F87D309BB1002685F824
:1014F0007D6001F051FC10B940F21C418EE731468D
:101500000820FFF77DFCD5E93832013342F10002B3
:10151000C5E9383295F88330012B0CBF0023012335
:1015200085F88330238D43F4006323854FF0000B4F
:10153000216C97F884200D78C5F3C0039A4240F0DF
:10154000998005F00305032D266B64D0002D6DD125
:1015500096F88430013B18BF012386F88430236C51
:101560005B7833B1D6E93A32013342F10002C6E981
:101570003A3297F88B309BB1D7F8E03097F8680093
:1015800023660026D7F8E430636684F868600AF0C2
:101590001FF9484900960346FB22304604F08EFCB2
:1015A000BAF1000F40F08880628C94F8AD301207D9
:1015B00003D5626FD278022A7ED0012B7CD8E36FEC
:1015C00001209847002877D094F83480B8F1000FB4
:1015D00072D1266B94F8483096F88C208DF80D80E7
:1015E000002A40F0B480FF2B96F8681003D196F8DB
:1015F00069308B4202D0FF2004F0F2FF96F882306F
:10160000032B00F23B81DFE813F0A500D600200198
:101610003101CB468CE7238D012043F4805386F8BB
:101620007C0023850025FFF7EBFB91E74D78002D2B
:101630008ED0238D96F88C5043F48053238504F08C
:1016400085FF042894F8B53006D1002D14BF1B2265
:101650001F22934228BF1346226C52789A420BD81D
:10166000D4F88450002D84D094F8AC3073B120208D
:10167000FFF7CEFB00257CE794F83430012043F0DF
:10168000100384F8343006F0FFF9F3E74D465FE7C6
:101690000BB104F0F7FC94F8AD30013384F8AD30B1
:1016A000238D002543F480632385AB4661E700BFAB
:1016B000940F0020E40F002005F048FA4FF0010AD3
:1016C0001DB105A90220FFF757FEBBF1000F0DD099
:1016D000B4F80720B4F805301343B7F8802013435B
:1016E0001EBFB4F809300133A4F80930B9F1000F76
:1016F00000F0CC80B4F805300133A4F805300023A5
:1017000084F8AD30644802F0DFFC049830B109F091
:10171000D1FE216B0022027202F0B2F8059B33B1B8
:10172000216B00221A720C22059802F077F8BAF1A8
:10173000000F7FF497AE238D1B063FF595AE8020FA
:10174000FFF766FB238D43F0800323858CE604338B
:10175000DBB248E794F8B430ADF80E304F48A6F845
:10176000583001F009FB50B1616F4FF48070FFF702
:1017700047FB012386F87D3084F8AF301DE0A06F71
:101780000DF10D020DF10E0109F096FD606790B1AB
:1017900096F8C7307BB99DF80D302BB90380837064
:1017A000606F01210BF0FCFABDF80E10606F0BF0BA
:1017B000A6FB0123E0E73A4B636796F88330626F3C
:1017C000DB0003F00801137803F0F3030B4396F8F2
:1017D0008410890001F004010B4323F010031370FF
:1017E000FFF7AEFB0028606F037818BF4FF01008BA
:1017F00048EA030880F8008096F88B30002B40D030
:101800004378002B3DD0E06C05F0EEF8002384F81F
:101810006830D6F8E0302366616FD6F8E430E06CCB
:10182000636604F091FB96F86910012005F06EF9EB
:10183000626F1188A4F8801091781A4A012384F805
:10184000AE30917084F83C303AE7B6F85830A06F6B
:10185000ADF80E300DF10D020DF10E0109F02CFD69
:1018600060670028A5D140F2CD21D7E50B4801F0F3
:1018700083FA00289DD140F2D721CFE540F2E5213F
:10188000CCE505F0B1F804F0A9FBCCE7B4F80730DB
:101890000133A4F8073035E7C00F002008100020FE
:1018A0001E10002014100020150F0000FD13000072
:1018B000810F0000810E00000B2808B504D940F20A
:1018C000F2310620FEF7A8FC014B33F8100008BDEA
:1018D000E43902002DE9F04F8BB00446154602931F
:1018E000894690F869B00AF02DFF064694F8A001E9
:1018F000FFF7E2FF94F887300393064485F0010375
:10190000B6B2059385BB94F8E431032B2CD1039B2D
:101910000D2B29D1B4F844324B4525D1D4F8EC3104
:10192000C4F8D831A369B4F8BC21C4F8DC31B4F8E8
:1019300032321344C4F8E031204604F0EBF9D4E924
:101940009223A262B4F84622A285D4F850222262E1
:1019500041F64B529342A3618CBF0023012384F8CC
:101960007230022384F8E431B4F83072B4F8808025
:10197000A9EB07073FB204F50073A9EB0808002F95
:1019800004930FFA88F86EDAD4E986234746C4E94F
:101990008A2301230493CC4B1B7803F0FF05002B13
:1019A00054D005F0E9FE054600284FD0B4F8D031F8
:1019B000012B6DD994F8E431022B69D094F8FA51D7
:1019C000002D65D194F8A001FFF776FF94F8E4317B
:1019D00000F5C866012BB6B2D9B24CD194F88A3062
:1019E000D4F828A0032B40D1D4F8DC51554431461B
:1019F000D4F8DC0105F084FED4F8D831C4F8D8015D
:101A0000A0EB030AD4F8E0313146284603FB0AFA7A
:101A100005F076FED4F8E851C4F8E801451B3146DC
:101A2000A06905F06DFEAA44B4F8BC51D4F8E031C9
:101A30004544ED1BDB432B44D4F8EC51451B05FB1F
:101A400003A50123C4F8EC0184F8FA3194F8E431D9
:101A5000DFF874A2032B00F28E81DFE813F01B0085
:101A600016016B003701029B94E728460BF01DF826
:101A700000EB0A05BBE7A069314605F041FEB4F86A
:101A8000BC51D4F8EC314544ED1BC31A5D43D8E793
:101A90000025DBE7012100200BF007F88046A06A53
:101AA0003146404405F02CFE3146C4F8E801A069F7
:101AB00005F026FE07A9C4F8EC0108A805F04EF8C9
:101AC000079B0093D4E98A01DDE9082308F0EAFACC
:101AD0008346204609F0A0FED4F83432A66A94F872
:101AE00069001E4405F080F9D4F8E811A6F19407C6
:101AF0007F1A00F523404FF47A734744A130B0FBBE
:101B0000F3F0A38DA7EB0B0730313F1A03EB410134
:101B100094F8690009F06CFED4F83432FB1A2230D4
:101B2000B3F5917FCAF8040058D240F2D241302078
:101B3000FEF772FBA36AD4F8DC013146184405F0C5
:101B4000DFFD3146C4F8E801A06905F0D9FDC4F80D
:101B5000EC01204609F060FEB4F8BC31A66AD4F866
:101B6000DC71002B40F08D80029B002B00F08980FF
:101B700094F8690005F038F93E44D4F8E871943ED1
:101B8000D4E98623F61BD4F8207280463E4494F8AC
:101B90006900B61A05F028F94FF47A7300F2E737B6
:101BA00008F52340B7FBF3F73744A130B0FBF3F05F
:101BB000D4F8E811D4F8D831D4F8E021303102FB60
:101BC0000311A38D3F1A03EB410194F8690009F05A
:101BD0000FFE0123CAF8040084F8E431A6696FF40B
:101BE000F4731E44D4F8EC31F61ADAF804309E424D
:101BF00028BF1E46D4E98A327F1BDF1942F100025A
:101C00004FF00008C4E98472C4F8B86184F8008217
:101C100004F130000BF0F5F9B4F8A811A4F83092F3
:101C2000D4E98423A1EB09090FFA89F9C145C4E974
:101C30008A23C8BF022384F80882C8BF84F8083208
:101C4000039B06440D2BC4F80462029B00F09680AF
:101C5000002B40F0948094F8E431002B00F0AD802C
:101C6000A169D4F8EC3104F50070C91A0AF0C4FE79
:101C700080B2002800F0A180149B03B118800120DD
:101C8000ABE0D4F8E801374492E7D4F8EC21A3693B
:101C9000D4F8E001D4F8D8119B1A5F43B4F8BC31F2
:101CA0009844C3439844D4F8E831303301FB0033FF
:101CB000A18D94F8690002FB083301EB430109F0A0
:101CC00097FDCAF8040089E74C100020A369D4F8F6
:101CD000EC219B1A5F4394F88630252B03D094F8AF
:101CE0008730252B0AD1B4F84432A9EB03031A0438
:101CF00004D494F84732002B18BF9B46049B63B36F
:101D0000B4F8BC314BBBD4E98623D4E988018242C4
:101D10008B4102D340F2265109E794F8690005F09F
:101D200063F8D4F820220646D4E98601A2F1940390
:101D30001B1A3B4494F86900049305F055F8049B82
:101D400000F2E7374FF47A7206F52340B7FBF2F75B
:101D50001F44A130B0FBF2F03F1AB4F8BC11D4F824
:101D6000EC314144594330314900584609F040FDB7
:101D70001B4B586032E740F23E51D8E6EBB1B4F865
:101D8000D01121B3B4F8D22194F8D431A4F8D221DF
:101D900002FB0333994202F101000EDD94F8083290
:101DA0005BB1002384F80832A4F8D20101F0EAFD07
:101DB00000F00700013084F8D40194F8FB0104F529
:101DC000007107F049FA20B940F28751AFE60A46A0
:101DD000DAE7059B84F8F83100200BB0BDE8F08FFE
:101DE0004C1000202DE9F04104460D46164690F8AF
:101DF000F03003F0FF071BB10C273846BDE8F08137
:101E00000146454807F0DCF820288046F4D05822E7
:101E1000394604F1C80008F0F5FD84F8C880C4F81C
:101E2000CC50FF2384F8F03035B101F0C3FD00F051
:101E30000700013085F8D40102234FF00008A4F810
:101E4000003184F8F88005F0ADFC00F19E052046D5
:101E50000BF023FDADB2014670B30AF073FC00F540
:101E6000CD6189B2304605F04BFC3044C4F8FC002B
:101E70000BF0ECFF281841F10001C4E942010120F8
:101E800084F8D000A4F826800BF0C5FDE53E361A94
:101E9000C4F8D4604FF0FF326FF00043C4E944232C
:101EA00094F8C80004F1F80107F0D6F948BB4FF4E4
:101EB000E5713020FEF7B0F920460BF012FCDFF898
:101EC0005C80E530C4F8FC00B8F8080048B1E08C4C
:101ED00038B101F06FFDB8F80830B0FBF3F202FB47
:101EE000130005440BF0B2FF2D1841F10001C4E9C5
:101EF0004251002ECED0751941F10001C4E9445180
:101F0000CEE7D4E942230021C4E93823C4E93A23C7
:101F100020460BF0DFFC70E7BFBA00004C10002039
:101F2000F0B5002385B0CDE9003301238DF80630EC
:101F30006846FEF7C1FD70B11B4E0123B372002746
:101F4000CDE9027702A8FEF7B7FD0546A8B1002348
:101F5000B37205B0F0BD009809F06BFEE8E790F8A9
:101F6000FB0107F05DFF94F8FB0184F8E45107F0F2
:101F70005BF8202384F8FB31E2E7029B002BE1D0E1
:101F800093F8FB21202ADDD018884FF6FF73984282
:101F9000DDD02946FEF756FD04460028DFD14FF478
:101FA0009A713020FEF738F94C100020054B0022C2
:101FB0000121DA7219709A7242F210721A81FFF7D7
:101FC000AFBF00BF4C100020014BD872704700BF5C
:101FD0004C10002008B504F0BFFA044BDA688242C6
:101FE0002ABF987A002080F0010008BD4C10002024
:101FF0002DE9F7430446062900F2C480DFE801F02A
:10200000047A67777E83BD00D0E98623D0E9880112
:1020100082428B4149D294F8FA31002B45D094F892
:10202000E431032B41D194F869900AF08BFB06460A
:1020300094F8A001FFF740FCD4E98623D4F820727D
:10204000D4F8B851804606444846BF1A04F0C4FE8E
:102050002D1A484604F0C8FE00F523404FF47A7369
:10206000A130B0FBF3F02B1AA3F17402B6B2520800
:10207000D43B08F5C8689D3273431FFA88F8B3FB58
:10208000F8F360335908A2EB53039F4202D30A448A
:10209000974201D905F076FBA069314605F030FB87
:1020A0000023C4F8EC0184F8FA31384B9B7A03F032
:1020B000FF0263B9B4F8AC11009201232046FFF788
:1020C00009FC38B14FF4DA613020FEF7A5F804239B
:1020D00084F8E43104F03AFC06F016FEB4F88020EF
:1020E000A4F8F6210023A4F8323284F8F93103B0C1
:1020F000BDE8F083032380F8E431F8E70BF0F6FD48
:10210000C4E98801F3E78569D0F8EC31DFF87C8019
:102110009D4288BFED1A98F80B3098BF00251BB977
:10212000036B9D4228BF1D4604F13000D4F8B871FE
:102130000AF067FF0744022007F0F6FCED1B25EAD2
:10214000E575854228BF05460221284607F040FD77
:1021500000B92F4440F2D312394620460AF09BFFC3
:10216000D4F8B831C8F80C00A069184407F09EFCF8
:102170000028BCD140F27E31A6E703B0BDE8F043B1
:1021800009F04ABB40F284719EE700BF4C1000206A
:102190002DE9F84306460C4615467ABB04F0DCF9F7
:1021A000D4E94289074684F8D05084F8F0500121E0
:1021B000D4F8CC0001F046F8D4F8CC00C0E9868908
:1021C00094F8C83080F8FB31C0E98A89C0F83472CD
:1021D00009F027FC20B14FF4E2613020FEF71CF833
:1021E00004F0B4FB06F090FD074994F8C8003246AD
:1021F00005F03AFC28B940F29771EEE740F2AE7173
:10220000EBE7BDE8F88300BF41B80000014B18813F
:10221000704700BF4C100020F0B5070CA7F5AA428C
:10222000144B543A012A03EA90231FD927F40040A3
:1022300042F6AA22801A18BF012000221621164653
:102240001F2487EA060562EA0505013510D0DD0383
:10225000ADB245EA5606E503ADB2013945EA520290
:102260004FEA53034FEA5404EBD1F0BD0020E4E7FA
:102270000020FAE7E0FF3F0010B501210020FEF743
:10228000E1FB044670B90121FEF79EFB044620B92C
:1022900040F24D313920FDF7BFFF034B93F9061093
:1022A0000BF0E7F9204610BD5C10002008B50AF0DD
:1022B00056FB00F0D3FE00F0CFFB0AF04FFE01F01A
:1022C00075F801F071FF01F089F8094B00221B211C
:1022D0004FF4A47098801A805980DA71054B064833
:1022E00018605A829A7599805A749A8208BD00BF04
:1022F0005C1000208414002003021B00044B41F6F4
:102300004C52C3E902221B221A74FFF7CFBF00BF51
:10231000841400202DE9FF41354DAB68044640F898
:10232000303F09F0BDFC064600F086FB2B7C84F8AC
:102330003830304B668710F0200F1B681DBFAA880D
:102340006988A4F85A101B2208BFA4F85A20A4F8E0
:102350005C201BB194F9701020889847AE7CEF7C0C
:10236000B5F8148041F64C53A36116B900F06AFB2E
:10237000064687BB00F066FB074676B368B303A941
:1023800020468DF80C608DF80D70ADF80E800AF0C7
:1023900088FB01236A88E385AB8869780191033360
:1023A0002978009103329BB292B204F1140104F136
:1023B0001000FEF7B9FB236913B94FF4BE6114E0B6
:1023C000636913B940F2F1510FE0002004B0BDE899
:1023D000F0810920FAE7002ED1D120880021FEF7F4
:1023E00047FB0028F5D040F2D3513920FDF714FF08
:1023F000841400200C050020F7B505460E460BF0AE
:102400006BF9002874D028460BF047FA40B1B6F8B3
:102410000130013B7F2B03D91224204603B0F0BDCD
:1024200028460BF03EFA08B90C24F6E7284609F0D6
:10243000ECFC0028F8D128460BF00CF904460028E3
:10244000F2D1284602F062FB0028E5D0B6F8017010
:10245000F17842F2107328465F430BF00BFA2846DE
:102460000BF013FA014658B93A462846FFF7BAFC72
:1024700004460028D1D041F615213920FDF7CCFEC5
:1024800021460DF10600FEF767FA064670B32146B5
:1024900000F0D8FEBDF806303380284631460BF0F8
:1024A0000AFA28460BF003FAA0B9296A28460BF06D
:1024B00000FA01463046FFF72DFF04460028ACD154
:1024C0003A4631462846FFF78DFC044620B141F6D6
:1024D0003821D2E70121EDE7064B9B68002B9CD009
:1024E000024606F58D713046984796E70D2494E72D
:1024F000422492E75C10002008B500F021FF09F0AB
:10250000B9FC014B987108BD5C100020034B5A8840
:1025100002801B7883700020704700BF8414002065
:1025200037B583781A2B054609D8042B05D9012223
:1025300002FA03F3134A134205D112241AE0292B9D
:1025400001D03B2BF9D12888B0F5706FF5D26946E0
:102550000AF045FA88B9019B93F8182102F0FF04AC
:102560006AB9AA7883F81921FF2283F818216846EE
:102570000AF0CFFC204603B030BD0224FAE70C2459
:10258000F8E700BF2000380438B504784278857831
:1025900004F0010352EA030104F0020401D1112006
:1025A00038BDBCB9002DFAD0002B08BF144601E09D
:1025B00000242546204609F067FC0028EFD0284675
:1025C00009F062FC0028EAD0054B00209C74DD7401
:1025D0009882E5E7002BEBD114461D46EAE700BFE1
:1025E0008414002013B5008869460AF0F8F918B180
:1025F0000224204602B010BD019A92F8E431DBB209
:1026000092F8A820002AF3D113F0FB0FF0D0019824
:1026100090F82A310BB13A24EBE790F8D23003F06E
:10262000FF04002BF7D190F8C9309B0706D1FF2398
:1026300080F82A3168460AF06CFCDAE70249CA30B1
:102640000AF0B4FCD5E700BF53D50000F0B5077819
:10265000EF2F85B004460D4603D91225284605B054
:10266000F0BDB0F80130ADF80C309DF90C209DF8AC
:102670000C30002AF1DB9DF80D209107EDD1DA0630
:102680003FD49E0603F0030238D5002AE5D118078F
:10269000E3D46378190711D42179E278E07942EA2A
:1026A0000122617942EA0142A17941EA0021207ABE
:1026B00041EA00418A42D0D81F2ACED9627A013A33
:1026C000062ACAD8A27A032AC7D813F0040102D175
:1026D000023A012A03D8E27A012ABED811B9A27CB3
:1026E000032ABAD813F01001227D19D0012AB4D1DF
:1026F000227E012AB1D8B1B91125AFE7032AC6D18C
:10270000ABE713F0600FA8D103F00F0203F007034B
:10271000052BBED0931E012BBBD9002A9DD1B8E753
:10272000022AE5D199E7DA071FD46378227D03F006
:10273000180108291ED1022ADED11B0709D4E2792B
:10274000A37943EA0223227A43EA0243B3F5804F96
:10275000D2D8BFB201213846FEF774F9064678B1E7
:1027600009F053FBB8B10C2578E700F027F90028F1
:10277000DBD1C1E7022AE0D0227F002ADDD0BBE70F
:1027800001213846FEF720F9064650B3164B93F95F
:1027900006100AF06EFF30460BF074F821462870E0
:1027A000E07430460AF0B9FFE37E0546002B3FF4A3
:1027B00055AF00287FF452AF316B02466846FEF7F2
:1027C00077FA306B2A46012108F052FF316B6846D8
:1027D0000422FEF76DFA306B2A46294608F048FFBE
:1027E0003CE707253AE700BF5C10002070B505798B
:1027F000042D8AB003465CD84488B4F5804F58D87D
:102800002D48465D284400214279857AC07BADF889
:10281000001042F0100242EA460242EA850242EA11
:10282000C00202F01F028DF80020BDF80020ADF8B4
:1028300009201A888DF80B208DF80E40120A240A00
:102840008DF80D108DF810108DF80C208DF80F40BC
:102850005A7B8DF811205A798DF812209A79D3F885
:1028600007008DF81320B3F80B209B7B8DF81A30EE
:102870007F238DF81B3001238DF8081005908DF80B
:102880001D10ADF818208DF81C308DF81E3002A8F0
:102890008DF81F108DF820108DF823108DF824105E
:1028A0008DF821108DF822106946FFF7CFFE0AB08F
:1028B00070BD1220FBE700BFFC390200027803461E
:1028C00072B1427862B142881A2A09D982881A2ADA
:1028D00006D9044A006810609B88938000207047E6
:1028E0001220704784140020024B02689A60002076
:1028F000704700BF841400200378A3F10A02112A54
:102900009DBF024A002013741220704784140020D7
:1029100008B502F0E3F8FFF749FBBDE808400148BD
:1029200002F0C6B86810002010B50B4C012384F8E3
:10293000023102F0DBF80BF02EF90AF00EF804F287
:1029400003112046FEF7BAFB002008F030FEBDE878
:10295000104000F049BF00BF6810002010B5064CC1
:10296000064904F5027009F0B2FE04F5037004494B
:10297000BDE8104009F0ABBE681000201005002033
:102980001805002010B5094C094904F5027009F03A
:102990009EFE04F50370074909F099FE04F50470E2
:1029A0000549BDE8104009F092BE00BF6810002044
:1029B000280500203005002020050020014B93F859
:1029C000020170476810002010B5074C00F0E8FEC7
:1029D000D4F8080209F073FEFFF790FC01F002F84A
:1029E000012384F8143210BD68100020014B93F8C5
:1029F000140270476810002010B5074CD4F80C0280
:102A000009F05DFED4F8100209F059FEFFF74EFC04
:102A1000002384F8143210BD68100020C208054954
:102A2000012300F0070003FA00F08B5C1843885480
:102A3000704700BFD0040020014BD3E9000170476C
:102A4000D0040020034B1868C0F30020400040F081
:102A500001007047D004002008B504F099FE084A30
:102A6000002332F82310814205D302EB83039B78C5
:102A7000044A137008BD01330C2BF2D10023F7E791
:102A8000103A02007D12002010B544682388A4F893
:102A9000683194F8683084F86711012B06D0022B56
:102AA00004D04FF450710620FDF7B6FB84F86A316C
:102AB00094F86930012B01D0022BF2D184F86B31EC
:102AC000044904F5AF700AF071FA002384F8243148
:102AD00010BD00BF49C70000406808490388A0F83E
:102AE0005A3190F8603080F85C3190F8613080F8AD
:102AF0005D3100F251100AF053BA00BF5FC7000009
:102B00002DE9F04F054685B008460C460AF0E0F97D
:102B1000064620460AF0D6F9804620460AF0D4F947
:102B2000834620460AF0D2F96C6894F8873094F80E
:102B300086A0232B07462FD104F18709002E49D008
:102B40000BF0070B584609F059FE78B394F868303B
:102B500098422BD094F82421012A0CBF94F8262106
:102B600094F864201BEA020F34D0BAF1210F1DD073
:102B700094F861201BEA020F18D1461EF6B2032E0C
:102B800005D8013B554ADBB2032B915D0BD940F2CE
:102B90001F210620FDF740FBBAF1210F40F09A807B
:102BA00004F18609CAE7D35C8B4213D808F0070109
:102BB000084609F023FEC0B394F86930834234D04C
:102BC00094F82431012B0CBF94F8273194F8653028
:102BD00019422AD194F82431012B15D11E212846FF
:102BE000FFF752FFBAF1210F12D16B68182283F858
:102BF0000921092283F8862093F8C230002B3AD1AC
:102C000040F2B3217E20C5E7002384F82431E9E7B0
:102C10000023284689F800300AF07FFA1821284658
:102C200005B0BDE8F04F0AF0A0BA03AB0093204610
:102C30003B465A4609F0EDFD6B68044600BB93F82D
:102C40002421012A19D101462846FFF71DFF89F8E2
:102C500000406B6803F18702914502D1002283F89E
:102C600087206B6803F1870291454FF000042ED155
:102C700028460AF052FA00202DE083F82401E8E704
:102C8000B3F88000A3F84472C0430744BFB247F6CC
:102C9000FD72974206D9282283F8A920284601F020
:102CA00007F8DEE793F887200D2A02D00A3A012AB6
:102CB00001D82A22F0E79DF80C2083F846229DF8DF
:102CC0000D2083F84722252389F80030C9E783F8CF
:102CD000C240D0E7022005B0BDE8F08F403A0200C4
:102CE000044B002283F822204FF6FF729A84DA8484
:102CF0001A8570477E120020054B9A8C824201BFD4
:102D0000002283F822204FF6FF729A84704700BF9A
:102D10007E120020014BD884704700BF7E12002035
:102D2000094A0346908C4FF6FF71884206D192F80B
:102D30002210012905D01A60012070470020186078
:102D400070470020704700BF7E120020064B93F8AA
:102D50002220012A1FBF0120DA8C83F822009A84E6
:102D600008BF0020704700BF7E120020014B18856D
:102D7000704700BF7E120020064B0246198D988CCA
:102D8000884205D193F8220018B1136001207047E2
:102D9000002070477E120020094B998C1A8D9142B9
:102DA00001D0002070474FF6FF729A8493F82220DA
:102DB000002AF6D0002283F822200120704700BFAD
:102DC0007E120020054B998C1A8D914203BF93F817
:102DD0002200B0FA80F04009012070477E120020E6
:102DE00050B90A4A1346012003F8010B0868C2F8DB
:102DF00001008A889A807047012805D1034B0A6830
:102E00009A608A88D8719A81704700BFA812002002
:102E100048B90A4B187880B1D3F80120B3F80530CF
:102E20000A608B807047012806D1044BD87920B105
:102E30009A680A609B89F4E700207047A812002076
:102E400020B9054B187800F00100704701280ABF2F
:102E5000014B0020D879F6E7A8120020F7B5002230
:102E60008B888DF80600ADF8043008680C4B8DF89F
:102E70000720019D1C78014603F5AC73D0B2844253
:102E800001D8082009E0D3E90076AE4208BF8F429E
:102E900003F1080302F10102F0D103B0F0BD00BF5D
:102EA000B812002030B5094B01465C78002203F5CA
:102EB0008173D0B2844201D8082005E013F8015B89
:102EC0008D4202F10102F4D130BD00BFB8120020E2
:102ED000F0B5254D95F8984189B0224605F2991133
:102EE000684607F0FBFD2146684609F057FD044699
:102EF000B8B300EB4001C9B202A8FDF71DFB601E8C
:102F000095F8A161C0B2012495F8982105E0731CE1
:102F1000B3FBF2F102FB1133DEB206F120030DEB3D
:102F2000030111F8203C002BF1D100EB40022032CC
:102F30006A4406EB46032B4412F8187C83F8A2710E
:102F400012F8177C12F8162C83F8A37183F8A421C9
:102F500001F8204C0138AB19C0B2FF2883F8994121
:102F6000D2D109B0F0BD00BFB812002070B506463E
:102F700088B00C46002A4FD02A4A92F8A131D018C6
:102F800090F8991121B94FF480712820FDF744F988
:102F900003EB43011144013391F8A251E57091F81C
:102FA000A35191F8A41161710021257180F8991144
:102FB00092F89811B3FBF1F001FB103382F8A131C4
:102FC00092F8C23123B9184902F5DD7009F0EBFF20
:102FD000657905F03F0545F0400565710D2200213A
:102FE000684607F00FFDE3788DF80F3023798DF8F0
:102FF0000E3004AA0423694630468DF80D5007F0C0
:10300000A3FA9DF81F3023709DF81E3063709DF861
:103010001D30A37008B070BD03216018FDF78CFA55
:10302000D6E700BFB8120020D12E0000044B5A781A
:10303000824286BF1B1893F84A010020704700BFE8
:10304000B8120020044B5A78824286BF1B1893F8AE
:1030500042010020704700BFB8120020064B00223A
:103060004FF461711A8083F8C32183F8C421A3F857
:10307000C61183F8C2217047B8120020014B83F8B3
:10308000C4017047B8120020014BB3F8C601704765
:10309000B812002030B50A4B5C7884420ED918442F
:1030A00090F802012B3003EBC004A5790D7053F8A2
:1030B00030001060A3889380012030BD0020FCE721
:1030C000B81200200246074810B590F8C34124B159
:1030D000417821B1023002F067FE204610BD0C4657
:1030E000FBE700BFB81200202DE9F74F2F4C9A469E
:1030F000637883428046894656D9231893F8425113
:1031000085F00105F9B193F84A31E3B945F00207BA
:103110000135BAF1000F18D1FA070AD5062101FBD3
:10312000084104EB0810524601F585718230FFF723
:103130001DFFBB0734D504EB081052464946023048
:10314000FFF714FF2CE02F46E3E794F8A1614FF05E
:10315000010B002DE0D0A319019393F8991199B9AF
:103160000092DAB100F00EFC06EB46012144019B0F
:1031700081F8A2014FEA102C009A81F8A3C1000C3B
:1031800081F8A40183F899B194F898310136B6FB1F
:10319000F3F103FB1166F6B2013DDAE747F00407ED
:1031A000384603B0BDE8F08F0027F9E7B8120020D9
:1031B000074B5A78824209D91A1892F842212AB943
:1031C000062202FB003000F5857070470020704732
:1031D000B8120020064B5A78824281BF1B1893F820
:1031E0003A01B0FA80F0400998BF0020704700BF54
:1031F000B812002030B50024A0F84040B0F8444098
:1032000042F210754C43B4FBF2F4A0F84440541E53
:1032100005FB0343B3FBF2F3A0F84230084BB3FBCA
:10322000F2F30133A0F84830838F05FB0344436B6E
:10323000B4FBF2F459438463B1FBF2F2426330BD54
:10324000005A620270B504460D4651BB4FF41C7221
:1032500007F0D8FB012384F88E306FF0360384F832
:10326000D930042384F8DA306FF03B0384F8DB3084
:103270006F2384F8DC306FF03C0384F8DD300623E4
:1032800084F8DF302B2384F8D830FE2384F80E3105
:103290007F2384F88530202384F8DE5084F8FB31C6
:1032A00070BD012922D10023A0F8BC3180F8B331D0
:1032B000144B82691344B3FBF2F3C0F8B03040F60C
:1032C000B833A0F8B4301146438C7830FFF792FF42
:1032D00007F052FA30B1E069FEF79EFF10B984F8AA
:1032E0009F51DDE7002384F89F31D9E70229D7D128
:1032F000B0F85232D0F84C228169BDE87040783085
:10330000FFF778BF7FC3C901034B80F870101B68BB
:103310000BB100881847704738050020074B93F918
:1033200000301844142804DC10F17F0F03DB40B296
:103330007047142070476FF07E00704780140020A3
:10334000084B1B785B4240FA83F0142804DC10F130
:103350007F0F03DB40B27047142070476FF07E0090
:10336000704700BF8014002007B57F230DF10700D0
:103370008DF8073003F0BEFB9DF9073068B10A4AAB
:103380005078404243FA80F0142808DC10F17F0F97
:1033900007DB40B203B05DF804FB1846FAE71420DF
:1033A000F8E76FF07E00F5E780140020024B002262
:1033B0001A705A70704700BF80140020054BFF221E
:1033C0001A70054A016811600179117100221A70A2
:1033D000704700BF82140020D804002007B5064BB8
:1033E000186800901B798DF804306846FFF7E6FFF7
:1033F00003B05DF804FB00BFB267020003464078EB
:1034000098B1DB783C2B05D8084AD35C1B1A58428C
:103410005841704703F11602D2B2042A04D8034A75
:10342000134413F8AD3CF1E701207047443A020021
:103430003C2908B5C17003D80B4B5B5C437008BDD9
:1034400001F11603DBB2042B04D8074B194411F821
:10345000AD3CF3E7FF2904D040F259412A20FCF7A4
:10346000DBFE0123EAE700BF443A02002DE9F04306
:1034700085B0894602A91446984609F0B0FA054677
:10348000002839D1039E34B9012486F88D402046A6
:1034900005B0BDE8F08337692146384607F0ABFE3A
:1034A000014658B3174B5B88A34229D301AA38467B
:1034B00007F0FAFF96F88D300198002B0CBF4946B3
:1034C000022109F06DFC019822464146033007F0C5
:1034D00005FB2146384607F0D3FE044618B97D2186
:1034E0002B20FCF799FE02A809F013FD039BA3F81B
:1034F000AA5186F88D50CAE70124C8E70446C6E7FA
:103500002C46C4E784140020024B987DC04300F091
:10351000010070478414002083230B70014B1B783B
:10352000CB7070479C1400202DE9F7434769814612
:1035300038460D4607F0AAFF014618B9FC211020B5
:10354000FCF76AFE01AA384607F0AEFF064610B93E
:103550004FF48071F3E7019BB9F8000003F1030811
:103560001D4B1B687BB9B9F80030AB800023019874
:103570006B72EE8009F01CFC01280ED002280CD0E2
:103580004FF48D71DBE732464146984704460028E8
:10359000E9D1204603B0BDE8F0832872384607F031
:1035A0008BFF044610B940F22311C8E7FB2E02D965
:1035B0004FF49671C3E7286810B940F22D11BEE7A9
:1035C0003246414607F08AFA384607F0BDFE002829
:1035D000DFD140F23111B2E7400500202DE9F34779
:1035E000DFF85C818246894605270025D9F810302E
:1035F00053B11B7A1BB97E211020FCF70DFED9F8C0
:103600001040B4B9002070E0D9F80440237A012BAF
:10361000F8D0EFF3108372B6D9F804201268C9F815
:10362000042003B962B6C9F81040237A0BB9A4216B
:10363000E2E7267AF6B22772731E0B2B6DD8DFE80D
:1036400003F069061C33666C3C6C6C6C6C576368E9
:1036500013B94FF4D471CFE7204651469847042060
:10366000EFF3108372B6227A052AD1B25FD12572A8
:10367000C9F81050ABB962B613E0636813B940F2F1
:10368000B111B9E75146204698470346C3F30723D3
:10369000012BADF80400C0B242D0022BE0D1C9F832
:1036A00010500028A2D020E0636813B940F2B9118D
:1036B000A2E7204698470020D2E763680BB9B32100
:1036C0009AE70B228AF8002019881869AAF80310D3
:1036D000012200248AF802208AF805208AF8064090
:1036E00007F032FEC9F81040042002B0BDE8F087B0
:1036F000606810B940F2E1117EE7D8F80030514619
:103700009847034660B1C9F810500220EDE74FF426
:10371000F97171E740F2F5116EE74FF4FC716BE758
:1037200026720028E1D1002B7FF460AF6AE711B95F
:1037300040F2192160E7002B7FF458AF62B655E7DD
:103740003C05002070B5144C1426231D3246002180
:10375000184607F057F90346012525740021043364
:10376000324604F11800C4E9013307F04BF984F83C
:1037700024500A4A04F11C03C4E906330023E3621F
:10378000236384F83430C4F83530C4F8393084F811
:103790003D30136070BD00BF9C1400204005002028
:1037A00010B5084C2378FF2B04D04FF49D711020E6
:1037B000FCF732FD06F010FF2070BDE81040FFF767
:1037C000C1BF00BFDD04002010B5034C207806F017
:1037D0001FFFFF23237010BDDD040020014B18786C
:1037E00006F026BFDD040020014B024A1A60704734
:1037F0003C0500202935000010B506490446FFF7B6
:10380000EDFE28B920460449BDE81040FFF7E6BEAA
:1038100010BD00BFB4140020A014002010B5134642
:10382000027A22B140F295211020FCF7F5FC0A46FD
:10383000BDE810400146014809F092BBA0140020E9
:10384000044890F834301BB903492C3009F0A5BB6B
:10385000704700BF9C14002053CF00000346064869
:1038600090F83E203AB190F83D2022B900F8353B5F
:10387000024909F092BB70479C14002019350000E2
:1038800010B50A46037A23B140F29D211020FCF7BF
:10389000C3FC0146BDE810400148072309F060BBA6
:1038A000B41400201346027A0AB1037270470A4624
:1038B0000146014809F054BBA01400201B234FF01F
:1038C0001B128384038482618382C260038539B9B9
:1038D0004FF4A473034AC3844384C261C382026168
:1038E000704700BF480148010346F0B4B3F85420C4
:1038F000B3F84840B3F84460DF8FB3F842509442C5
:1039000028BF14460846B3F84C20B3F85610DC879D
:103910008A4228BF0A46B3F84610A3F842209142D3
:1039200038BF1146A64238BF2646A742A3F84460D6
:10393000A3F846101FD1AA1A18BF0122B3F84A50A3
:10394000B3F85040B3F852709E8FB3F84010A542C0
:1039500028BF2546B3F84E409D87BC4228BF3C4651
:10396000AE42A3F8404002D1A14200D12AB1F0BC3E
:10397000034909F01BBB0122E0E7F0BC704700BF20
:10398000B3CF0000094AD2E90003434083EAB011F3
:1039900081EA43214FEAF3435360054B11605843DA
:1039A0004FEAF06000EB8000704700BFDC1400209D
:1039B000BB79379E094AD2E90003434083EAB0113C
:1039C00081EA43214FEAF3435360054B11605843AA
:1039D0004FEAF06000EB8000704700BFE004002079
:1039E000BB79379E10B50A4C09480821FCF7A4FDA5
:1039F000D4E900231343F7D0064CFFF7DBFF206028
:103A0000FFF7D8FF236860600343F6D010BD00BF06
:103A1000E0040020DC140020174B184A9A60184A72
:103A20005A60184A1A60184A9A62184ADA62184AA2
:103A3000DA60184A9A61184A1A63184A1A62184AD0
:103A4000DA64184A9A64184A5A62184B184A9A60FB
:103A5000184A5A62184ADA62184A1A61184A5A61B0
:103A6000184A9A61184A1A63184A9A64184ADA641A
:103A7000184A9A63704700BF4405002021D2000015
:103A800057D20000CFD2000097D30000EBD3000044
:103A9000D93D000001D400002D400000BD3E0000D3
:103AA000CFD40000EBD40000053F00004C060020FE
:103AB00043D20000A1D4000023D40000C7D30000EB
:103AC00047D400005D3E000071D5000019D500000C
:103AD0000BD5000087D40000054B064A9A65064ABC
:103AE0001A66064B064A9A65064ADA65704700BFB1
:103AF0004405002093C80000012B00004C06002064
:103B0000E3C700003BC90000252A70B505460C46F6
:103B100018D8012A19D9023A232A16D8DFE802F068
:103B20001A15252424331535152439444815154D07
:103B3000242467676D7415151515151515151515BC
:103B400015808990FF2A00F0828040F26641512062
:103B5000FCF762FB02784368012A02D193F8103126
:103B600001E093F81931237170BD4168204601F5D9
:103B7000E37109F086F96B682046D3F80411BDE8BB
:103B8000704009F080B94368E8E7BDE8704000F094
:103B900017BA0E230B7159234B7100238B71E82345
:103BA000CB7110230B72DFE7436893F80A31DAE731
:103BB000BDE87040084600F0F3B90378466873B971
:103BC00096F810315BB196F80D11204609F08FF987
:103BD00096F80C112046BDE8704009F08CB996F8B3
:103BE0000B11204609F083F996F80A11F2E74168B3
:103BF0002046BDE8704009F0C9BA436893F8262111
:103C0000227193F8273109E0436893F82421012AAF
:103C1000F4D093F864200A7193F865306371A3E7D8
:103C2000104B1B68002B9FD002462320BDE870403C
:103C300018470C4B1B68002B96D002462420F5E752
:103C4000084B1B68002B8FD002462520EEE7436807
:103C5000204693F83F22D3F84012BDE8704009F0A7
:103C6000ABB800BF540700203C2803D8064B53F8DC
:103C70002000704700F11603DBB2042B01D8AD38E9
:103C8000F4E70020704700BF440500203C2803D81B
:103C9000064B53F82000704700F11603DBB2042BEB
:103CA00001D8AD38F4E70020704700BF4C06002073
:103CB000F7B545682E6904464FF6FF770DF102010E
:103CC0000DF101023046ADF8027007F0F5FA01A9D6
:103CD000304607F014FB40B1019807F0EBFB616838
:103CE00000220272FFF7CCFDE8E7044905F1A000CD
:103CF00003B0BDE8F04009F053B900BFBDD10000EA
:103D0000F0B5044685B00D46FF2600F8896C10F822
:103D10008A3CF3B1184F3B781BB148211F20FCF7B8
:103D20007BFA0C21381DFCF707FC3E70002304F8D9
:103D3000893C2A46072302F8033BD4F80930C5F82A
:103D40000330D4F80D305360D4F81130936005B0CF
:103D5000F0BD01A80C21FCF7EFFBA4F51673039A44
:103D6000C3F8042101AB03CB44F8920C44F88E1C39
:103D700004F88A6CDAE700BFE414002010B5054CA3
:103D800023782BB90C21201DFCF7D6FBFF232370D1
:103D900010BD00BFE4140020024690F8CE31BBB93C
:103DA00090F8CF3103F0FF010BB100207047094BB1
:103DB00018780028F9D01970D968C2F804110433B2
:103DC00003CBC2F8C601C2F8CA11FF2382F8CE3174
:103DD00001207047E414002070B5426892F88730E3
:103DE00004460D463BB1132B05D0113B0B2B94BF62
:103DF0000820012070BD92F8C83013B9204609F0A0
:103E000082F96168284601F5DF7109F030F828462B
:103E1000666809F033F86168C6F800010B88A1F8FC
:103E20006132284601F2632109F019F861682846D9
:103E300001F26B2109F018F86368002583F8CE5170
:103E40006068054900F5167009F0A7F86368152247
:103E500083F887202846CDE7013D000038B5436848
:103E600093F887201C2A044604D04FF4DE711F20EB
:103E7000FCF7D2F993F8C8101D88002283F8C720F8
:103E800003F5C97069B10B4983F8C820A3F89C51A8
:103E900083F89B2109F081F86368002283F887206A
:103EA00038BD012283F89B11A3F89C51024983F885
:103EB0009E21EFE783D3000075D3000038B5456835
:103EC000AB6F13F0010417D14A680C4B896813409B
:103ED0000B4AC5F8D830C3F3076343F008030A4020
:103EE00085F8DB30C5F8DC2009F00DF9AB6F43F045
:103EF0000103AB67204638BD0120FCE72FC904F75A
:103F00006FDB000610B5406890F88630042B2BD18B
:103F10004A68174B8C681340C0F8D830154AC3F371
:103F2000076343F00803224080F8DB300023C0F829
:103F3000DC2080F8C23080F8863090F8742102F0DE
:103F4000FF049AB90388A0F8763180F875414B6870
:103F5000C0F878318B68C0F87C31074900F5B6703D
:103F600009F01BF8204610BD0124FBE71C46F9E7C9
:103F70002FC904F76FDB000665D40000406890F895
:103F8000743153B90388A0F876311A2380F875315B
:103F9000024900F5B67009F000B8704765D400001A
:103FA00010B50446FEF748FD034A044B02400B409F
:103FB0006260A36010BD00BF2FC904F76FDB00066D
:103FC00037B50C464568FEF737FD084A084B0A40EE
:103FD00095F8D8100192034000930B408DF8003003
:103FE0006B4603CB6060A16003B030BD6FDB0006A1
:103FF0002FC904F7DB0410B5144604D5037D13B1B3
:104000000023436310BD436B0133436309F091FA0E
:10401000D0E90D239A42F5D3002343630249204699
:10402000BDE8104008F0C2BFC1D4000070B54468BC
:1040300094F88630012B06460D4602D0A36F9A07EE
:104040003ED494F8C9309B0719D4284608F01DFFC8
:1040500084F8D300B5F80530A4F8D430B5F80730AB
:10406000A4F8D63094F8C93043F00202D80784F897
:10407000C9200FD5134904F1CA0008F097FF94F83E
:10408000C930D90711D4A36F9A0708D5552140200C
:10409000FCF7C2F894F82A31002BEBD1EFE743F09C
:1040A0000203A367304609F02EF894F88630012BFE
:1040B0004FF0000003D184F8860084F8C20070BD80
:1040C0000120FCE753D5000070B545680446FFF7B2
:1040D0004BF9054B85F885001B6801461BB120464E
:1040E000BDE87040184770BD5C070020024B1B689C
:1040F00003B11847704700BF58070020F0B5204EA5
:10410000054630780024147080B1431E7768DBB216
:10411000181B01280BDC07EBC40057F8346040681B
:10412000884208BFAE4212D114700120F0BD1819A8
:10413000461007EBC60E57F836C0DEF80460AC45F3
:10414000C0F347008E412CBF03460446E0E7B5426A
:1041500071EB000002D214700020E7E707EBC30008
:1041600057F833404068884208BFAC4201D1137011
:10417000DBE7A542814128BF01331370ECE700BFA4
:104180000415002010F0070208B503D06321482071
:10419000FCF742F818B1034B197258601A70C80046
:1041A00008BD00BF04150020014B00221A707047A3
:1041B00004150020014B187A704700BF0415002039
:1041C0002DE9D34309F0F6F90DF1070207460E4633
:1041D000FFF794FF98B9114C2278237A93420ED0BE
:1041E000616813466FF0604E9DF80700984209D34E
:1041F00001EBC003C3E9007601322270012002B056
:10420000BDE8D08303EB0E0001EBC000D0E90089CC
:10421000013BC0E90289DBB2E6E700BF04150020DC
:1042200037B509F0C7F90DF10702FFF767FF04463C
:10423000A0B10C4A9DF8070013785568013BDBB22A
:1042400013701A1AD2B2411CD200834238BF002226
:1042500005EBC10105EBC00006F08EFB204603B064
:1042600030BD00BF041500200A46822302F8033B3C
:1042700004480368C1F8033043685360836893605F
:10428000704700BF0D15002002481622002106F0DD
:10429000B9BB00BF0D15002082B002AB03E90300DB
:1042A0000B48437D93B1530610D50A880280D1F89C
:1042B0002022B1F880304260D1F824220549826082
:1042C000438002220C3002B0FFF7ECBA02B0704714
:1042D0000D1500206942000038B5074D044600F175
:1042E0005101286808F0D2FC94F850102868BDE805
:1042F000384008F0D9BC00BF24150020F8B50446AA
:104300000E466588407F15F00401134618BF04F17E
:104310005F013246FEF7E8FEC20705460BD50123D2
:1043200084F85030607FFEF743FF0368C4F85130D3
:104330008388A4F85530AB070CD5094E01273068A7
:1043400084F85E7004F15F0108F0A7FC306839461C
:1043500008F0B3FC85F00400C0F38000F8BD00BF96
:104360002415002038B5C38D0E4D0133C385AB7CB9
:1043700004462BB102F0B0FB01F048FD0023AB7402
:1043800000232B7194F871302BB101212046BDE838
:10439000384007F0FBBC637C13B1E28D9A42F4D243
:1043A0000021F3E72415002010B5094C2379012BD7
:1043B00002D02379022B05D1A37C1BB102F08CFB28
:1043C00001F024FDE069BDE81040FFF7CBBF00BF5E
:1043D0002415002070B5294C2379012B07D02379AF
:1043E000022B04D040F638412D20FBF715FFA0B971
:1043F0000125A37C1BB102F06FFB01F007FD002D2E
:104400003AD0E06907F03AFC002830D002F04CFACC
:10441000236ABDE870409B6818472168E26911F87B
:10442000095B02F15103E80992F8502008F098FA6C
:104430000028DDD02068002108F064FC0028D7D0D7
:104440002379E069012B05D02379022B02D040F6B5
:104450001141C9E72379226A03F180435269013B84
:1044600005F00F0152F8233098470546C1E7E0698F
:10447000BDE87040FFF776BF70BD00BF2415002077
:10448000074A0346D06903B909B9FFF76BBF13792F
:10449000126A03F180431269033B52F82330184734
:1044A000241500202DE9F043032985B005469046E8
:1044B0007BD090F870300529DBB202D14288D60754
:1044C00060D5002B5ED10127DFF8E89099F81260E3
:1044D000B6B108F07AFA082888F8000014D002AAC9
:1044E0000DF10701FEF7D6FD20B940F6A4612D209D
:1044F000FBF792FE9DF8070002A909F067F806464F
:1045000098F80030082B08D1D9F8001011F8030BE7
:10451000C0F3801009F05AF80646D9F8001095F853
:10452000572011F8030B05F15803C0F3801008F071
:1045300017FAD9F80010044611F8030BC0F38010E5
:1045400008F039FA8146FEF745FE014640B1B9F15F
:10455000080F1BD04846FEF769FD80F00101C9B283
:1045600098F80000082815D094B96B7F1C1A604297
:1045700060416B885A0706D421B996B9EB7C93B198
:10458000BB4210D0002005B0BDE8F0830021E7E772
:104590000120EEE714B181F00104E4B204F001005F
:1045A000E7E73046EFE70120EDE743889B07E9D5D1
:1045B000022789E7241500202DE9F04F85B0082354
:1045C0000DF10702052104468DF80730FFF76AFF59
:1045D000064620B90026304605B0BDE8F08F744F7E
:1045E0003968FA7C11F8030B07F11403C0F380104B
:1045F00008F0B6F980460028ECD13B68216A1846DD
:1046000091F88E2010F8035B02EA551202F00102C5
:1046100081F88E20D3F80320C1F803208288A1F806
:1046200007201946226A11F81F0BC0F38010907002
:1046300009798DF80C10D3F80F10D3F81F00D16151
:10464000597D0290187D090441EA0021D87C01437C
:104650005162B3F8191082F8728040F2E24909FB06
:1046600001F191619D7DC5EB451105EB810505EBE0
:1046700085056D009585B3F8171009FB01F191626E
:10468000B3F81B101184B3F81D10518493F8243033
:1046900003F01F015B0982F89A1082F8A031256AA5
:1046A00094F912B002A905F18E0008F047FA40F221
:1046B0000113A5F868304FF0FF0A85F86AA041465B
:1046C00005F13000FFF7FAF859462846FEF71CFEC0
:1046D000236A84F87B801A88A4F87C2084F899A047
:1046E0004FF6FF72A4F89A209A69B2FBF9F2A4F887
:1046F00092201A8CA4F894205A8CA4F8962093F84F
:10470000A02184F89820227F9DF8070004F18601FB
:104710005AB394F85020012A27D194F8562002F079
:10472000C002402A21D1D4F85120C4F88620B4F820
:1047300055208A809A7884F87F20082803F10305A1
:1047400004F18002D3F8033004F18C0127D0C4F8BF
:104750008C30AB888B8004F17F01FEF79BFC40B965
:1047600040F697312D20FBF757FD0022C4F8862034
:10477000DFE794F87F3043F0020384F87F3004F1E0
:1047800072000C4908F009FC0B4B206A1B680022E0
:104790003A71002B3FF41FAF214698471BE7C4F83E
:1047A0008030AB8893800023C4F88C308B80E6E7A0
:1047B00024150020F9D5000064070020032973B5F3
:1047C000044604D0052952D0012002B070BD082350
:1047D0000DF107028DF80730FFF764FE0028F3D0D3
:1047E000237C284D03B39DF8070094F8BE30DBB955
:1047F000237884F8BF30082804F1C10228D004F1DE
:10480000C001FEF747FC20B940F61A712D20FBF7D6
:1048100003FD94F8C03043F0020384F8C0301A4915
:1048200004F1B60008F0B9FB2B68062204265A7082
:104830001E702046FFF750FD94F84020E16B286879
:1048400008F051FA28682E7102F0CEF80020BCE77B
:104850002868034613F8031BC1F3801184F8C010C5
:10486000D0F80310C4F8C1109B889380D7E7074B9A
:104870001B6823B1984780F00100C0B2A5E7184635
:10488000A3E700BF24150020E1D500006007002049
:10489000F8B504460F4619B300F12805284609F07B
:1048A00093F8A0B963881A072ED5284609F0A3F813
:1048B0000646284609F088F8301AC0B209F0ABF86D
:1048C000444A936803442846936009F059F82846FF
:1048D00009F05BF801F07CFF2179252001F080FED2
:1048E0003C4D94F85E202868002303704370638871
:1048F000103B0D2B5ED8DFE803F0595D550C5D4091
:104900005D5D5D5D5D5D5D402046BDE8F840FFF7A3
:1049100029BD06234370202303702046FFF7DCFCEB
:10492000638823F008039BB2152B05D094F8382038
:10493000616B286808F0C8F9286802F055F803236D
:1049400021792B71002001F049FF064607B9E86084
:1049500063881B0704D509F05BF80644C4F8D860E7
:104960006388103B0D2B30D8DFE803F0322F292964
:104970002F292F2F2F2F2F2F2F290C234370212347
:10498000037042B104F15F0108F087F90121286842
:1049900008F093F9C1E704F1580108F07EF994F8A2
:1049A0005710F4E7062303704370B6E70223037041
:1049B0000623F9E740F21F612D20FBF72DFC21793A
:1049C0000120BDE8F84002F0A1B840F6AB41F3E7A2
:1049D000F8BD00BF2415002038B54388102B0446CD
:1049E00004D1BDE838400121FFF752BF0B4DAB7C2D
:1049F00023B101F0F1F9402002F062F8286801F0DB
:104A0000F3FF608810F0040002D1217902F07EF8F3
:104A1000002002F031F801232B7138BD241500204D
:104A2000024B0121D869FFF733BF00BF24150020D6
:104A300010B5134CA37C1BB102F04EF801F0E6F95F
:104A4000E06907F01BF970B12379E069012B0FD100
:104A50002379226A03F18043D268013BBDE810400C
:104A600052F823301847E069BDE81040FFF77ABCE0
:104A70002379022BECD040F63B312D20FBF7CCFB09
:104A80002415002010B50948037903F0FF0453B939
:104A900018222146043005F0B5FF02F01DF801F0A0
:104AA000B5F9204610BD0C24FBE700BF24150020FB
:104AB00010B5094C002323712060FFF7E3FF20B1FC
:104AC00040F2EA212D20FBF7A7FB236A13B940F23D
:104AD000ED21F7E710BD00BF24150020014B024A6D
:104AE0001A62704724150020C44D0000034B044A8D
:104AF0001A60044B044A1A60704700BF6007002028
:104B0000B945000064070020912100002DE9F04123
:104B1000067DB31EDBB2012B04468CBF4FF00008AC
:104B20004FF001087EB3B71E18BF0127012B36D8FE
:104B300000F1580190F8570007F03DFF082805469E
:104B40002DD0FEF77FFA58BB657784F81C8084F877
:104B50005070FEF799FA054609F078F9174BA5FB56
:104B600003351B1845EB01050022C4E9123584F812
:104B70005E2011462046FFF7C1FB70B940F2754137
:104B80002D20FBF749FB3746082504F15101002091
:104B9000FEF73EF90028D7D10020BDE8F0810825B6
:104BA000022EF2D0E37E002BF6D0D4F81530C4F8F4
:104BB0005130B4F81930A4F85530C5E740420F0021
:104BC000F0B5464E327985B0044602F0FF0312B9C3
:104BD0000278FF2A04D140F6A2112D20FBF71CFB1E
:104BE0003382B3607371B37180F871303C4B0093C2
:104BF0003C4B01933C4B0293336A68465B680393DA
:104C000001F0EAFE01F02AFD01F066FF01F0FEF876
:104C1000364801F0B7FD04F12805354801F0D6FE0D
:104C2000284608F0ADFE284608F0AFFE01F0D0FDA2
:104C30002179252001F0D4FC94F9120001F09CFDAB
:104C400004F13401206B06F030FD04F13C0107460D
:104C5000206B06F051FD054617B194F82430C3B916
:104C60000DB194F82550237F13B963885B0709D5EC
:104C7000D4E912126FF000439A4208BFB1F1FF3F2E
:104C800009D185B930680330FEF71CFAB07405B05D
:104C9000F0BD0125E7E709F0D9F8D4E912239042E5
:104CA00071EB0303EDD3012205EA02012046FFF771
:104CB00025FB68B1FEF7E8F9054609F0C7F80D4B8A
:104CC000A5FB03351B1845EB0105C4E91235D9E7EF
:104CD000002DD7D040F6D7117FE700BF2415002064
:104CE000314A0000D543000081440000D6BE898EC1
:104CF0005555550040420F00F7B50446FFF760FFD9
:104D000000212046FFF7C4FDA36E0BB101221A60FB
:104D10006388DB0721D50023114E256ACDE90033D6
:104D2000FF23F37405F10A076846FBF7C5FEA0B937
:104D3000009CA542F8D06A7A607A3B4604F10A01E9
:104D400007F00EFE0028EFD0A378F374D4F8030028
:104D50007061044BB4F807209A8003B0F0BD00BF27
:104D60002415002038150020024BD8611B6A1B68EF
:104D7000184700BF2415002043881B0710B50446C0
:104D800011D5036A0A493C2280F87B201B88A0F8D1
:104D90007C30FF2380F899304FF6FF73A0F89A30EB
:104DA000723008F0FAF8FF2384F8713010BD00BFAC
:104DB000F9D50000BD470000D949000051D60000D8
:104DC0004BD60000F94C0000A9430000214A000026
:104DD000C04D0000B84D0000B44D0000013802285D
:104DE00008B503D9C3212F20FBF716FA13290A4B64
:104DF00005D811290CD8102907D0D121F3E715299E
:104E0000FBD103EB4003D88801E033F8100008BD64
:104E100003EB40039889FAE7C03A0200F8B52F4B3C
:104E20001A88402842EA00021A8005D104219868B5
:104E3000BDE8F840FDF7DCB8802801D10521F6E790
:104E400000F00302032A04D140F60E213120FBF7C3
:104E5000E3F910F0020418BFD960C50705D5CA7878
:104E60001961062A0DD00B2A18D02CB1DA68D27835
:104E7000052A1FD00B2A2AD0820644BF08221A75A1
:104E8000F8BD9A6892F887101829EED100260027FD
:104E90000121C2E9386782F88B10E6E79A6892F838
:104EA0008710122901BF002182F88B10012182F89E
:104EB000C810DAE79A6892F887101629DCD1002426
:104EC0000025C2E93A45012182F88C10D4E79A689E
:104ED00092F887101129CFD10021F5E7481500205D
:104EE00013B5044601A8FDF71BFF20B940F60C01DD
:104EF0003120FBF791F922220021019805F082FD73
:104F00000198032107F04CFF0198037823F0100368
:104F100003702146FEF78CFA019906482246FEF7F7
:104F2000F3FDFDF713FF10B940F61601E0E702B0FC
:104F300010BD00BF4C15002070B5274CA36893F836
:104F4000466293F84752002E3FD193F86810002D27
:104F50003DD193F8692083F8681083F86920FF2217
:104F600083F86A201D4B1B680BB1A0689847A368A3
:104F700093F82431012B02D056EA050303D01848D8
:104F80000021FDF781FDA068303008F03AF80546B1
:104F9000A06800F23511FEF7A7FCA0680621FDF716
:104FA00027F8A068303008F02CF88542044610D26B
:104FB00002F07AFD0146601B322838BF322004F02F
:104FC00007FEB0FA80F0400970BD3146BFE72A46BF
:104FD000C1E70120F8E700BF481500206C0700205A
:104FE0004C150020002908BF1F21172810B50346C3
:104FF0000BD80D280DD90E3809280AD8DFE800F0A3
:105000000B0909090B090B09110BA0F12303022B52
:1050100023D9002010BDBDE810400021184608F03B
:10502000FEBC114CA36893F88620212A09D1201DCB
:10503000FDF72AFDA368002283F8862083F8C220AA
:10504000E7E72E2AE5D193F88730A3F12002062A5C
:10505000F0D92E2BEED02A21E9E7044B1B68002B58
:10506000D7D0BDE810401847481500206807002039
:10507000114B09790246986890F88630212B11D09F
:105080002E2B0FD0282B0FD0042B0FD00F2B0FD08F
:105090001D2B0FD090F88730232B14BFFE20172034
:1050A000FFF7A0BF1620FBE72320F9E70E20F7E764
:1050B0001220F5E71420F3E74815002008B50C4B43
:1050C0009B6893F80E21FE2A04D040F61B01312084
:1050D000FBF7A2F883F80E0111B9A3F8C41008BDBC
:1050E0000022A3F8BE20012283F8C220F7E700BF08
:1050F000481500200C4A117D91B938B99068B0F874
:105100005810828F91420BD8FCF764BF13881B079D
:1051100008D5936893F88800073818BF01207047B6
:1051200000207047012070474815002010B5154B2E
:10513000DB681979436893F88620092A09D193F826
:1051400009218A4205D1002283F8862083F8C220F3
:1051500010BD9A6F12F0080406D022F00802BDE8D4
:1051600010409A6707F0D9BFFF2905D1332283F891
:10517000862083F83C42EBE740F204513120FBF7F4
:105180004BF800BF4815002010B50B794268172B6B
:1051900092F8862004460CD80D2B0CD9A3F10E01F1
:1051A000092908D8DFE801F00907070709070907F7
:1051B0001009232B26D0002010BD22460121BDE876
:1051C0001040184608F02BBC212A01D02E2AF2D11B
:1051D000204607F08FFF636893F88720222AEAD0E1
:1051E00093F8D92022F0010283F8D920626892F85E
:1051F000D93023F0080382F8D9301A212046FDF770
:1052000043FCD8E7282AD6D1024B1B68002BD2D00A
:105210009847D0E770070020F7B57F4C0546002877
:1052200040F0AC8023881F0727D5A36893F80E2190
:10523000FE2A04D140F276513120FAF7EDFFFE222A
:1052400083F80E2193F887201A2A07D183F8C70024
:10525000201D07F062FFA36883F88750A36893F8C6
:105260008620202A32D0332A3ED093F88820072A7D
:1052700002BF0222627583F80E212388DE073CD428
:105280002388580700F1A980990713D5E368DE78D1
:105290000D2E00F0AA80112E00F0A980072E00F03C
:1052A000A8803046FEF7F2FC0346002800F0A380F9
:1052B0005A4898472388DA0660D5A36893F8872070
:1052C0000A2A5BD10B2283F8872057E093F88720C6
:1052D000A2F12001062901D92E2A03D12E2283F81A
:1052E0008620C2E72122FAE7012283F83D2200222C
:1052F00083F8862083F8C220B7E7A368276993F86C
:105300008730113B0B2B0BD8FB78023BDBB2092B10
:105310007DD8012202FA03F340F23332134276D0F1
:105320003846FEF76BF8FE7820B931463B4807F067
:105330001CFF45E0012E01D9162E0FD1A36893F86A
:10534000860007F0FFFE48B1A36893F88620202A64
:1053500004D0212A0ED12E2283F88620112E34D09B
:1053600026D8072E33D00D2E33D03046FEF77CFCE6
:10537000034621E0162E0CBF20250225237D1B07A6
:1053800013D5A36893F88730113B0B2B41D9002626
:1053900001A903200196FBF7EFFF019B2BB11E72C1
:1053A0000C22A1680198FEF739FA284603B0F0BD37
:1053B000142EDAD11A4B1B686BB121691748984734
:1053C00000283FF45DAF0546D8E7164BF5E7164BCE
:1053D000F3E7164BF1E7F978A8E7A26892F888207E
:1053E000062A04BF012262754EE7114B60E7114B9C
:1053F0005EE7114B5CE7FF2E06D1A268332182F8ED
:10540000861082F83C0255E740F26A5114E70825FD
:10541000B4E70825C9E700BF481500204C15002057
:10542000780700202BDB000089510000715000003C
:10543000BBDA0000D9DA00002D5100002DE9F0415F
:10544000A44CB4F800800E46A16818F4007F0ABF8F
:10545000B1F8B8200023013201F1780507461ABFE0
:10546000A1F8B83081F8B731A1F8B820284608F083
:105470004BFB28B1434601F596722846FEF7BAFD6C
:10548000238803F4C06333B1A06890F88A30002BFE
:105490004AD0032B4ED0A168238891F88A20012A94
:1054A00004D11D0544BF022281F88A20002F40F05C
:1054B000AC8058065DBFB1F8D021013292B23A46B5
:1054C000A1F8D02103F00A020A2A0DD1E268D278AD
:1054D000022A09D123F0080330462380FFF79CFEFF
:1054E00008230643F6B223803046FFF795FEA368F3
:1054F00093F80E210643FE2AF6B24ED1002E4CD16F
:1055000093F88820063A012A47D993F81831B3B1A5
:10551000A36893F81921A3F8BC6083F81021012136
:105520000220FFF7CBFD38E0012180F88A10FCF75C
:105530005FFDB0E7022380F88A300121F7E7A06819
:1055400090F88730A3F11005EDB20C2D11D8113B66
:105550000B2B00F25181DFE813F007014F014F01DF
:105560004F010A0112014F014F014F014F014F013D
:105570003D01836FD90702D531460920D1E79A074B
:1055800040F19A8031460C20FFF798FDA26892F80E
:10559000C93043F0010382F8C930A568B5F8B031CD
:1055A00095F8B4810133A5F8B031B8F1000F00F0DF
:1055B000E181FBF7D3FE10B10023A5F8B031A1685B
:1055C00091F88A80B8F1010F40F20A8291F8883090
:1055D000072B40F0E781B1F8B830022B40F200828F
:1055E000B1F8BA500135ADB2B1F880302B44A1F812
:1055F000A83191F8B531002B00F0F6810123A268A3
:10560000B2F880100B44A2F8AC312288A36855068A
:105610005BBFB3F8BC21B3F8AE1100225218A3F857
:10562000BC2193F818312BB9A36893F88830063B56
:10563000012B07D8A368B3F8BC20B3F8AE110A4415
:10564000A3F8BC20A36893F8C20030B1B3F8BE2021
:10565000B3F8AE110A44A3F8BE2093F9C61000298E
:10566000C1BFB3F8C420B3F8AE515219A3F8C42097
:1056700093F8A9205AB9002F40F04B82627D022A8C
:1056800040F0008293F81021062A18BF1622A36862
:1056900093F8A8302BB9A3680F4883F8A920FEF728
:1056A00007FBA06808F080FAA368002283F8B32102
:1056B000BDE8F041FDF770BB590702D53146132014
:1056C0002FE71A070AD590F8083180F810313146D3
:1056D000072026E7481500204C15002013F0300F56
:1056E0003CD090F81B31002B40F01982A36893F84E
:1056F0001A31E3B1A06890F88730252B00F58D7141
:1057000000F2462228D090F88630A3F1250CDCF177
:10571000000343EB0C0307F078FCA268936F23F0BF
:10572000200343F010039367002382F81A31A06826
:10573000836FDA0640F1F38100F23511FEF7D4F8F9
:10574000A368B3F85220A3F81021B3F85620A3F8A9
:10575000122100211520E4E60123DCE75B0640F17D
:10576000DE8100212420DCE600210B20D9E6FEF7B3
:1057700013FB00283FF411AF00210420D1E690F87C
:105780003832012B08D100210520FFF797FCA368D0
:10579000002283F8382200E7A36893F83832022BFE
:1057A000D8B27FF4FAAEA36893F8C85006221DB1B0
:1057B00083F810210021E8E7B048032107F0BCFC82
:1057C000A36893F8D83013F0040F294614BF1120B2
:1057D0000D20DAE700210620A3E693F82421022A0F
:1057E00002D1002117209CE693F82421012A03D13D
:1057F00093F82531002BF4D0A36893F886206AB97A
:1058000093F88720103A0C2A40F2998193F8B62039
:10581000002A00F094810121122082E6092A40F03A
:105820008A8193F8092183F81021012150E7A368A8
:1058300093F82A319BB1A36893F8C93013F003059C
:105840000DD101210C20FFF739FCA36893F8C92082
:1058500042F0010283F8C92083F82A519BE7A3682C
:1058600093F81A3153B3A36893F81B3133BBA06884
:1058700090F88730252B00F58D7100F246221BD061
:1058800090F88630A3F1250CDCF1000343EB0C0308
:1058900007F0BBFBA368002283F81A210121142022
:1058A000FFF70CFCA368B3F85220A3F81021B3F85B
:1058B0005620A3F8122170E60123E9E7A36893F8C4
:1058C0002421012A4CD193F82531002B48D1A1681D
:1058D00091F88730A3F12002062A41D92E2B3FD020
:1058E00091F86850012D06D0022D04D04FF450716C
:1058F0000620FAF791FC91F86900012801D00228EE
:10590000F4D1022D91F826210AD0012A14BF0022D9
:1059100001223AB90A3B042B12D90121162000E6D4
:10592000022AF3E7022891F8272117D0012A14BF91
:1059300000220122002AEDD050480021FDF7A4F8F2
:10594000A36893F88620002A7FF427AE93F83C32B0
:10595000002B3FF422AE0121FF20E2E5022AE6E718
:10596000474B1B68002BEBD044489847FE28E7D0F4
:105970000121D6E5FBF7ECFC08B1A5F8B081FBF7F7
:10598000F5FC00283FF41BAE95F8B7310133DBB2CC
:10599000022B85F8B73182BF0023A5F8B03185F816
:1059A000B7310CE691F8B6301BB191F886300F2B69
:1059B00016D1B1F8BA50B1F8B83001F17800ED1A4B
:1059C000033D08F0A1F868B1D1F8B030D1F8AC20AF
:1059D000033B9B1A9D42A8BF1D46012D3FF703AE16
:1059E000012501E62B46F5E7012D7FF607AE91F87C
:1059F000873013B10B2B7FF401AE91F88630002B6A
:105A00007FF4FCAD91F88830002B7FF4F7ADB8F14E
:105A1000020F7FF4F3AD91F8B731002B7FF4EEADB8
:105A20000869B1F82E8005F0A1FC00283FF4E6AD2E
:105A3000A26892F80E31FE2B7FF4E0ADB2F8AA31E5
:105A4000012B7FF6DBADB2F8B011138C9942BFF495
:105A5000D5AD5B1A9BB2013DADB2B5FBF8F59D42E9
:105A600028BF1D4618FB05F3003D03F1010318BFD5
:105A700001259BB282F8B251C1E500BF4C15002050
:105A800074070020012A09D193F88920002A7FF4A5
:105A9000FEADA0680021FCF7ABFA05E65EB1F006AA
:105AA00035D4310735D4B20635D4B30735D14FF4E8
:105AB000196131201DE738B1B3F8BE00B3F8C0203A
:105AC000904201D32222E2E5002905DDB3F8C4109B
:105AD000B3F8C0209142F5D2B3F8BC10B3F8BA20A5
