:1000000080390020512C0000F99E00003D2C00009A
:100010003D2C00003D2C00003D2C000000000000A5
:10002000000000000000000000000000AD2D0000F6
:100030003D2C000000000000592D00003D2C000068
:10004000552F0000552F0000552F0000552F0000A0
:10005000552F0000552F0000552F0000552F000090
:10006000552F0000552F0000552F0000552F000080
:10007000552F0000552F0000552F0000552F000070
:10008000552F0000552F0000552F0000552F000060
:10009000552F0000552F0000552F0000552F000050
:1000A000552F0000552F0000552F0000552F000040
:1000B000552F0000552F0000552F0000552F000030
:1000C000552F0000552F0000552F0000552F000020
:1000D000552F0000552F0000552F0000552F000010
:1000E000552F0000552F0000552F0000552F000000
:1000F000552F0000552F0000552F0000552F0000F0
:1001000053B94AB9002908BF00281CBF4FF0FF317E
:100110004FF0FF3000F00CB8ADF1080C6DE904CEE3
:1001200008F056FDDDF804E0DDE9022304B0704775
:10013000704700BF034613F8012B002AFBD1181AA1
:100140000138704710B5002001F0B8FE014628B113
:1001500010F1780F02D00E4809F0B1F900214FF4E8
:1001600080300AF0F0FB0B4809F0A9F90A4809F0C1
:10017000A6F90A4809F0A3F900242146084809F025
:100180009EF9013400214FF400400AF0DCFBF4E753
:10019000F4B200000BB3000036B3000053B300000C
:1001A0007EB300002DE9F04F91B08407009302F078
:1001B00004030293C2F3C20303F10103DDF868A054
:1001C000039205460E46059340F09D81041D0028CC
:1001D0004AD101F00706341DC6F10806009B00272E
:1001E0005A1E4FF004084FF0FF3301930497B946AD
:1001F000BB4643460DB1009921600598002800F3E5
:10020000D78090480099814203D38F488142C0F043
:10021000CF80039911F0020CA4EB050040F0D680CA
:10022000B9F10F0F00F2CF80002D00F0D68009F158
:1002300040010DEB010EC0F3870001990EF8200C70
:100240000EF8101CBCF1000F00F0C38060F07F00BE
:100250000EF8200C013709F10109C5F10801043439
:1002600006914FF6DA7E8CE00729B7D86FF01B00B5
:1002700011B0BDE8F08F7A285BD84B280FD84728FB
:1002800057D829282ED8252850D052D8202818BF32
:1002900023280CBF4FF0010B4FF0000B71E04C38DE
:1002A0002E2846D8DFE800F06D45454545454545D3
:1002B00045454545484545454545454545564548D7
:1002C000485656566D486A456D4518481845457F4D
:1002D0007C48454548457C0000204FF0000B4FF01E
:1002E000040835E02A38C0B2012101FA00F010EA12
:1002F0000E0F46D110F0625C2CD110EA010B40D0F9
:100300006046013C4444B4FBF8F408FB04F425B116
:10031000A3EB050CA444B445A8D8002870D00599D7
:10032000013905915AF8041B009163E701990139DD
:1003300001914FF0000B24E012F8010C6C2834D12D
:1003400012F8023C00206C2B8346C8D14FF00808FD
:100350004346D6E70AF1070A2AF0070A0734FAE803
:1003600002BC24F0070435B106982044B0423FF6A1
:100370007DAFC4E900BC08344FF0000B4FF0080813
:10038000434612F8010F002853D0BBF1000F7FF451
:1003900072AF2528F5D1019B013301934FF0010B7A
:1003A0004FF00408ECE7584697E700208346A8E79B
:1003B000039988077FF551AF601B4FF0010CB0F532
:1003C000007FFFF42DAF6FF0150051E74FF0000CE8
:1003D000F5E70498013004903DE7BCF1000F01D02F
:1003E000013638E70298023600287FF434AF0098CF
:1003F000CDE90632FFF79EFEDDE9063206442AE724
:10040000042B08D10AF1040015B1DAF800102160BC
:1004100004348246B5E70AF1070323F0070303F12A
:10042000080A1DB1D3E90001C4E90001083408231A
:10043000A7E7631BB3F5806FC5D23DB9A6F10804E9
:10044000E01815E70CAD0000B0C10000029A28606A
:100450009B082B709DF81030AAB1EB70AF702FB1D4
:1004600008A80022C5F1010C91450ED1C5F1010388
:100470000DF120084FF0000A01930DF1300BD1452A
:1004800012D1601BF4E66B70E8E710F8013B190627
:1004900008D50CEB040EB64503F07F033FF6E6AE3D
:1004A00004F8013B0132DFE71FB198F90020002A70
:1004B00017DB029BD3B11AF80B2004F8012B0022A2
:1004C000019B18191044B0423FF6D0AE98F80000D6
:1004D00004F8010B0099039220460AF088FB039A66
:1004E00014440AF1010A08F10108C8E798F800204D
:1004F00055F822300093029B45F822300098FFF710
:1005000019FE421CDCE76FF00D00B1E62DE9F04F5B
:1005100097B000AFC7E90A3205468A4649B9037861
:100520004678807800EB83002844564524D8A0EB19
:10053000050AD7F8803095F80280D7F8804003F09C
:100540000103FB61EB787B62B8F1000F0CBF002464
:1005500004F001041BB1D7F880309A0715D4A4B970
:10056000FB6A1BB1BA6A5146284698475646304640
:100570005C37BD46BDE8F08F441C2046FFF7DAFD2E
:10058000013020440AF1010ACFE7D7F88030C3F3E5
:10059000C0033B622B78BB619B003B616B687B6156
:1005A000BB6905EB830BFB6A002B77D15646D84419
:1005B000BCB11C461BF8013B55F82300FFF7BAFD00
:1005C000D7F88430013043B1D7F88830A34282BFD6
:1005D000D7F8843023F814000134C3450644E9D128
:1005E000D846D7F8803013F0050F0CBF4FF0020B40
:1005F0004FF0010B4FF000097B6A9945B7D298F88C
:10060000013055F823A0AE4B9A4508F10208C0F01E
:100610004B81AC4B3A6A9A452CBF002301230AB3A5
:1006200018F8021C7869FB6208F02AFFFB6AC8B15F
:10063000EA468AB06A46A44B05937B69CDE9063148
:100640004FF40073ADF82030A04B42F8103FA048A3
:1006500000234FF4125100F0D1FC023ED54609F1BF
:100660000109C9E723B1FB6933B9A6EB0B06F6E72D
:10067000D7F880309B07F2D55046FFF75BFDD7F8DF
:1006800084304BB1D7F888309C423FBFD7F88420E4
:10069000431C22F8143001340644E0E7002C69D1F1
:1006A000B8F1000F6CD0D7F8803058076BD5C14631
:1006B00007F14800424659460AF099FA0BEB080345
:1006C000FB6000220233796A8A425ED3D7F8802029
:1006D00095F801B0F969920704EB0B03DBB254BF44
:1006E0004FEA59020022002940F0A680D7F8801076
:1006F00011F0040F14BF494600216B70A970EA7015
:100700003969BA6AFB6A28469847061EFFF62FAF7A
:10071000BB692B707B6AEB704946BA6AFB6A85F845
:1007200001B085F8028007F148009847B0F1000950
:10073000C0F2B6803B697A6A786A03EB4201FB68D3
:10074000BA6A414403EB4000AAEB0101FB6A9847F7
:100750000028C0F2A780B14409EB00064FF0000B5F
:1007600007F1380AA34569D30021BA6AFB6A084633
:100770009847FCE644464FF0000907F1380099E736
:100780004446C1469AE7A14698E713F8016CDFF8A2
:1007900030C155F8260013F8021C6045C0F08A806D
:1007A000DFF820C16045386A2CBF4FF0000B4FF0D6
:1007B000010B38B17869C7E9013208F061FED7E969
:1007C0000132F0B9BBF1000F1ED0F96949B1611CCB
:1007D00004F1280007F13004041904F8206CCCB2AD
:1007E0000FE0D7F8801049070BD509F1280007F171
:1007F000300C09F1010100EB0C0909F8106C5FFAEB
:1008000081F9013202335EE7D7F880008007DED439
:1008100009F1280C07F1300EF44409F101000CF83D
:10082000101C07F1580151FA80F009F102095FFA32
:1008300089F900F8106CE4E700215EE71BF80A3044
:1008400087F8373055F82390D7F884302BB3D7F892
:1008500088309B4521D2D7F8843033F81B80BA6AA0
:10086000FB6A012107F13700984700281ADB06448C
:10087000B8F1000F06D14846FFF75CFC00F1010813
:100880001FFA88F8BA6AFB6A41464846984700282A
:1008900008DB06440BF1010B64E74FF00008DEE7CC
:1008A0004E4664E6064662E63B6A002B3FF4E0AE45
:1008B0000023B5E6386A0028A6D04FF0000B79E790
:1008C0000CAD0000B0C100008BB3000004000001BB
:1008D000E0AF0000014B1860704700BFC00400206B
:1008E0002DE9F047058B0446280717460CD501294A
:1008F0000CBF45F0100545F02005258387F31188CE
:10090000BFF36F8FBDE8F087022905F0070540F0BF
:100910009480204609F062F8052864D801A353F8B2
:1009200020F000BFFD0800003B0A0000E7090000BE
:10093000A9090000C3090000D509000001F0070360
:100940005A1F012A1FD8002221F00701062BD4F8D4
:10095000008089B2C4E9002209D1434603E0628BDA
:10096000013262831B68002BF9D141F0020121831F
:10097000204609F033F84FF0000900286DD041F00F
:100980002001218369E0042B0AD121F0070189B2FB
:100990002183204609F022F810B141F02001218383
:1009A0004FF00008C14658E02369D3F80090238B2C
:1009B00023F0070343F0060323834FF00008464665
:1009C0004BE02369D3F80490238B23F0070343F013
:1009D0000403F1E72369D3F80890238B23F007037E
:1009E00043F00503E8E74FF00008C146E7E70122BE
:1009F00043F00803238387F31188BFF36F8F002A26
:100A00003BD1B8F1000F4AD1B9F1000F02D02D4906
:100A10002046C847EFF31187202383F31288BFF3E2
:100A20006F8F238B23F008039BB22383D9063FD516
:100A300023F01002228303F007056669218B002E44
:100A4000BFF67CAF0023D4F8008021F00701C4E991
:100A5000003341F0010121839946238B03F0070AFB
:100A6000AA4502D0A268002AC1D1B8F1000F02D174
:100A7000B9F1000FDAD00022BAE7A1680029C0D08E
:100A80000D680029BDD04F68334652462046B8470E
:100A90001DB12B6829461D46F3E72B46FAE7414670
:100AA000334652462046D8F8008008F0C3FFA8E736
:100AB0009A067FF523AF23F02002228303F0070577
:100AC00027E700BF619A00002DE9F047DFF8548066
:100AD000044607464FF0010994FAA4F5B5FA85F5E6
:100AE00009FA05F32E0108EB05156FEA030A24EA5B
:100AF00003042B7B63B158F806301B696BB946447D
:100B0000042273682846196807EA0A0700F062FAA7
:100B1000002CE1D13846BDE8F087284698470028E8
:100B2000F6D1ECE750B0000010B50F490F4888B07F
:100B3000002209F0C8FF00220023CDE9062300248B
:100B40000E23CDE90334CDE90144094B0949009452
:100B50004FF44072084806F015FD0849064809F0B0
:100B600042FE204608B010BD810B0000F00B0020B3
:100B7000850E000040240020680700203FB40000DC
:100B8000014806F019BB00BFD00600202DE9F04750
:100B900080461F480F4609F040F80646002830D02E
:100BA00000252846BDE8F087237B6BB12368DB680E
:100BB0000BB12046984723681B69D3B963680422A8
:100BC0001968204600F006FA013610344C45EBD384
:100BD000B8F1000FE5D0002DE2D02846FFF774FFF2
:100BE0000546002FF7D000214FF4A47009F0ABFEAA
:100BF000F1E7204698470028E0D00AFA06F31D43A3
:100C0000E2E7044CDFF8109005464FF0010ADDE7FB
:100C1000380F002050B0000070B00000014B53F8B6
:100C2000200070479CB0000008B5034608462BB171
:100C3000044A136000F042FC002008BD6FF015006C
:100C4000FBE700BFC404002010B5044C237813B99F
:100C5000034806F0B1FA0123237010BDD023002011
:100C6000D006002010B504460B4808F0D6FF5CB152
:100C7000BFF35B8F094B53E8001F013943E80012B3
:100C8000002AF8D1BFF35B8F054809F028FF05481B
:100C9000BDE8104006F090BA300F0020340F00205D
:100CA000F00B0020D0060020064BBFF35B8F002224
:100CB00053E8000F43E800210029F9D1BFF35B8F0F
:100CC000704700BF300F002070B5FFF7EDFF084CF4
:100CD000084E0546B44200D370BD63685B792BB102
:100CE00023685B6813B12946204698471034F1E722
:100CF00050B0000070B0000010B5044C044920460C
:100D000008F0F2FC034B1C6010BD00BF040600207D
:100D100088B00000280F0020084A094808B50023C1
:100D20001370084A1360084A4FF400411360FFF73C
:100D30007BFFBDE80840FFF7DFBF00BFD1230020E5
:100D4000179C0000300F0020340F002001460022C5
:100D50000148002308F0E9BC04060020014808F01F
:100D600080BD00BF04060020024B0146186808F051
:100D7000C7BD00BF280F0020014808F0FCBD00BF20
:100D80000406002070B5284B187800284BD0FFF7D8
:100D9000E5FF054690B1BFF35B8F244B53E8001F7E
:100DA000013943E80012002AF8D1BFF35B8F204CD1
:100DB000204EB4422DD32846FFF7D6FF1E4B1F4CC2
:100DC0001B68002B19DD09F037FE4FF47A72A0FB87
:100DD000020302FB0131C30BD4E9002043EA414383
:100DE0009B1A4FEAD13140F2E93261EB00019342A4
:100DF00071F1000101D3FFF767FFD4E9003213F569
:100E00007A7342F10002C4E90032BDE87040FFF796
:100E1000B3BF63685B7923B1236829461B6820460A
:100E200098471034C5E770BDD0230020340F002050
:100E300050B0000070B00000300F0020E80B002020
:100E400070B50D4D297861B90120FFF79FFE0B4C5D
:100E50000B4EB44206D3FFF795FF0028FBD10123C8
:100E60002B7070BD63685B791BB1236820469B685B
:100E700098471034EDE700BFD123002050B00000A8
:100E800070B0000000212DE9F8430846FFF77EFE10
:100E9000044638B340F267684FF0000906F01AFEC6
:100EA000194B186030B1194B1B68092B02DD18482B
:100EB00006F082F9174F002544B12046FFF704FEE3
:100EC000044618B94FF0FF384FF0FF39FFF75AFFCB
:100ED000064628B9B5B90E4842464B4606F0A0F979
:100EE0003546E9E74FF0FF384FF0FF39D6E72B687A
:100EF0009B691BB100221146284698471035BD4218
:100F0000F5D3E8E7044DFAE72C0F0020340F00205A
:100F1000D006002070B0000050B0000013B5184893
:100F200008F07BFE174B1B7873B1EFF3118420237D
:100F300083F31288BFF36F8FFFF724FF84F31188C8
:100F4000BFF36F8F02B010BD0F4B1B68002BF9D0A1
:100F500050B900220023CDE900230C484FF4004291
:100F6000002307F081F8EDE70928EBD1074809F0E5
:100F7000B6FD074802B0BDE8104006F01DB900BF3D
:100F8000340F0020D12300202C0F0020F00B002074
:100F9000D006002010B5064B1B6804469847214632
:100FA000A060044808F03EFCBDE81040FFF7B6BF63
:100FB000C404002004060020044A054B9B1AB1EB30
:100FC000D30F34BF52F8310000207047E0AF00006B
:100FD00050B00000084BC31A10B41B114468013311
:100FE000237143689A7143681960436801225A71FA
:100FF00010BCFFF729BE00BF50B000002DE9F04F34
:101000008FB004AFC1F34A26B8600D4690467B60AE
:101010000C0D002E61D04FF000090A234FF0040B95
:1010200007F1140AFE60C7E90799C7F824900093F6
:10103000CDF808B0CDF804A007F11C03F9684A46C2
:101040004046FFF763FAB0F5006F03461CD36C46C9
:101050008AB0D8F8041004AB2448C3E9050140F273
:10106000FF71D9611A464FF400711984204B42F880
:10107000103F20484B464FF41251FFF7BFFFA546E3
:101080002C37BD46BDE8F08FC0F30A0604F1170007
:10109000184420F0070080083B60FFF757FE66F316
:1010A0005325044680B13B68134A00F11001C7E99B
:1010B0000839F961CDE901AB0A230093F96807F11A
:1010C0001C034046FFF722FA66F353257B68B96894
:1010D0002A46204608F0D7FDD2E704F1170020F099
:1010E00007008008FFF732FE0446EDE754B4000025
:1010F00004000001F0AF00005B9C00002DE9F04F00
:1011000087B0DDE9127ADDE9106B054688461446A2
:101110009946BFB11021CDF800A03B465A460020A9
:10112000CDF814A0FFF73EF8B0F5006F01460BD3E1
:10113000194A1A4840F2FF73022107B0BDE8F04F88
:1011400008F0FABD3946384604F0070305F00704F5
:10115000E40044EA831444EA402406F117000844FA
:1011600020F0070080080391FFF7F0FD44EA0654E1
:10117000054640B13FB10399CDF800A03B465A4621
:101180001030FFF70FF84B4622464146284607B07D
:10119000BDE8F04F08F077BD93B40000F0AF000059
:1011A000406820B1034BC01A40F3CF0070474FF0A6
:1011B000FF307047E0AF00000EB403B503AB01464B
:1011C00053F8042B0448019302F048F802B05DF88C
:1011D00004EB03B0704700BF9B9D0000CA0605D416
:1011E0008B064CBF02490349FFF7E6BF704700BFBB
:1011F0007CB30000CBB400002DE9F04F89B09846D5
:10120000149B0693DDE915A39DF84C90179F05925A
:1012100004460D460493B9F1000F00F0B08007F4C6
:101220008073079308F017FD07F0020B02460028B1
:1012300074D078492046FFF7BFFF0646BBF1000F88
:1012400008D017F0440F6BD173492A462046FFF7A8
:10125000B3FF064407F0010353B1704B704953F8D4
:101260002920704B2046002A08BF1A46FFF7A4FF2A
:1012700007F48073002B07F0080318BF4FF0000835
:10128000002B79D0684B694953F829202046FFF795
:1012900093FF0546059B2BB165491A462046FFF78B
:1012A0008BFF0544B8F1000F05D062494246204645
:1012B000FFF782FF054460483544069B1BB15F4938
:1012C000224608F0ACF8049B002B00F08E80DDF87D
:1012D00010803946B8F1100F204628BF4FF0100893
:1012E000FFF77CFF0026B54250DC002633461AF893
:1012F000032053492046FFF75FFF0136102E4BD0E5
:10130000710703D14F492046FFF756FF4645334644
:10131000EDD34D492046FFF74FFFEEE706468DE738
:101320004A4B1868002894D0494B4FF47A7B1B68CD
:10133000B5FBF3F54FF46163B5FBF0F100FB11551C
:101340000BFB05F54FF03C0CB1FBF3F203FB121164
:10135000B5FBF0FEB1FBFCF300FB1E550CFB1311BB
:101360000BFB05F50091B5FBF0F53A49CDE901E538
:101370002046FFF721FF6CE707F008058AE7B8F180
:10138000010F0CBF2C4834484D4696E72D492046A6
:10139000FFF712FF0136A6E7304920460026FFF787
:1013A0000BFF33461AF803202D49A2F120035F2BCF
:1013B00028BF2E222046FFF7FFFE0136102E0DD04B
:1013C000720703D11F492046FFF7F6FEB0453346AA
:1013D000E8D81C492046FFF7EFFEEEE7049BB3EB8D
:1013E0000803C24404937FF472AFB9F1000F0AD02E
:1013F000FB0704D50B4A0A492046FFF7DDFE3946B4
:101400002046FFF7EBFE204609B0BDE8F04F08F09C
:10141000B7BC00BFD3B40000D7B40000ACB000002C
:10142000FCB40000CEB40000C0B00000FFB4000067
:1014300005B5000009B500009B9D00005D3200006D
:101440000EB5000016B5000014B50000400F0020D6
:101450003C0F0020E0B40000D19D000018B5000052
:101460001AB5000073B542F20F738B4228BF0B46CA
:1014700005680F4A04460521684607F051F863687D
:101480000C495B6806460B22284608F06BFC636833
:101490003246694628465B6808F064FC6368064982
:1014A0005B681B22284608F05DFC02B070BD00BFDF
:1014B000C0BE000074C1000058C10000074A0021EE
:1014C0000123904206D8064A01B901231360054B57
:1014D0001860704740085B000121F2E740420F00AE
:1014E0003C0F0020400F0020014B01221A70704772
:1014F000D2230020014B002019607047580F0020B4
:101500000148FFF7AFBF00BFF0B0000010B5064BB9
:1015100018680C46FFF782FB21460346BDE81040E1
:1015200002480F22184700BF580F0020F0B00000FB
:10153000F8B5094D094B0A4ED5E9004701221A704A
:101540000CB92C60F8BD214630463A4600F01EF832
:10155000241A0644F4E700BF4C0F0020D3230020D8
:10156000D423002010B9074B18707047064B1B7826
:101570001BB141F2883008F0AEBFA420002109F071
:10158000E2B900BFD2230020D32300202DE9F04789
:10159000DFF88090204E80460F46042599F80040E1
:1015A000ACB908F08BFF3A4682464146204605F02A
:1015B000AFFA0446504608F089FFECB101233370BE
:1015C00099F800307BB93C462046BDE8F0873A46A2
:1015D0004146002005F09CFA0446EEE72846FFF756
:1015E000C1FF6C1E2546002005F0DCFA0028EAD079
:1015F0003378002BF2D1E6E7337833B1013D28464A
:10160000FFF7B0FF3378002BC8D13378002BDAD046
:10161000DAE700BFD3230020D2230020F8B5074F1C
:101620000D4604464618B44201D12846F8BD14F8C8
:10163000011BBB6801485B689847F4E7E4AD000014
:10164000014B03600020704734B10000F0B40C4B34
:101650000C4E5F6A0C4BB34203D36FF08500F0BCB5
:1016600070475D68BD4209D31C693CB195F802C062
:101670000579AC4502D12346F0BC18472433EAE78C
:10168000800F002065070020650700202DE9F04746
:10169000134CDFF85080DFF8509005460E46174691
:1016A000444503D36FF08500BDE8F0876268D9F840
:1016B00024309A4212D3A36983B190782979884261
:1016C00005D13A4631462846BDE8F04718475279D9
:1016D000012A03D13A463146284698472434DFE7A9
:1016E0006507002065070020800F00202DE9F041EC
:1016F0000B4CDFF8308005460E461746444502D3B2
:101700006FF0850009E063690BB92434F6E73A46C7
:101710003146284698470028F7D1BDE8F08100BF40
:101720006507002065070020024B00221A605A60FE
:10173000704700BF3B10002070B50B4B0B4CA34211
:1017400001D3002070BD196A1E7F00220439D5B272
:10175000AE4201D82433F2E7013211F8325085420B
:10176000F5D10120EEE700BF6507002065070020E6
:1017700008B5044A03460121034808F0A5FB0020F0
:1017800008BD00BF67B5000038B0000038B5054699
:1017900008F018FC10F1780F044611D10D4A0E48DC
:1017A0002B46022108F090FB284608F08FFB0B4ADD
:1017B000D2F8C43023EA0003C2F8C430002407E0A2
:1017C0000028F1D0064A04482B46012108F07CFB92
:1017D000204638BD82B5000038B00000800F0020E0
:1017E000A3B5000008B509480378C3F341130A33D1
:1017F00050F823303BB100F1080200F11001984786
:10180000C043C00F08BD1846FCE700BF800F002092
:1018100004282DE9F74FDFF89C9004460F4615D0B9
:1018200001282FD1DFF8908098F8B93053B300F039
:1018300025FE224D4D4522D22A6A4FF0000A2B7F09
:101840005FFA8AF6B34204D82435F3E7FFF76CFF5A
:10185000E8E702EBC6060192307908F0B3FB834655
:10186000307908F033FBD8F8C430019A23EA00033A
:10187000BBF1000FC8F8C4300AF1010ADFDA002317
:1018800088F8B9300D4D4D4508D30B4B1B6A6BB131
:101890003946204603B0BDE8F04F1847EB681BB14E
:1018A0003A462146284698472435ECE703B0BDE880
:1018B000F08F00BF65070020800F00206507002023
:1018C00073B5C4B263060D468DF8074007D02046B5
:1018D000FFF732FFB0B1144B93F8BA0090B1124E3B
:1018E00023468DB1114A1248032108F0EDFA9DF804
:1018F000070002F08FF9F3691BB10DF10701082011
:101900009847012002B070BD0A4A0948032108F037
:10191000DBFA9DF8070002F0AFF9F369002BF0D075
:101920000DF107010920EBE7800F0020C5B500008D
:1019300038B00000D8B5000073B5044680788DF843
:10194000000023796279294D43EA0223ADF8023081
:10195000E37803F003038DF8043008F0B7FAD5F804
:10196000C430184206460CD0A478204600F068FD2A
:101970002046FFF70BFF08F030FF10B9962006F065
:1019800065F8684602F01AF910F1780F9DF80030FA
:101990001BD1174A1748022108F096FA9DF800005B
:1019A00002F0A6F910F1780F19D19DF80030124A13
:1019B0001048022108F088FAD5F8C43001203343DA
:1019C00085F8B900C5F8C43007E00028E6D00B4A16
:1019D0000848012108F078FA002002B070BD002804
:1019E000EAD09DF80030064AF2E700BF800F0020E1
:1019F000EDB5000038B0000034B6000010B60000AD
:101A000054B600002DE9F047A84EB36904460F46CE
:101A100090466BB9237803F01F03012B00F0A180DF
:101A2000022B00F0058143B16FF01500BDE8F0878F
:101A300098470028EED10020F8E794F9002061785B
:101A4000002A2FDA062910D00829D8F8002024D03F
:101A50000029E9D101231370517096F8C3305B005F
:101A600043F00103137002231DE16288100A011F75
:101A700001290546D8D90728D6D8D1B2726A147878
:101A8000002CD1D05678AE4203D1994200F00581A6
:101A900001332244F3E7137805E196F8BA30137066
:101AA000012300E101390829BED801A353F821F030
:101AB000491B0000291A0000591B0000291A0000C8
:101AC000D51A0000291A0000291A0000291A00005E
:101AD000E11A0000A07802F031F80028ABD0A3E7AB
:101AE00063883BB1FF27756A0020B8462B786BB935
:101AF000002899D0FFF718FE638886F8BA30F3699A
:101B0000002B98D06A490320984794E76B78042B00
:101B10000DD0052B0ED0022B06D16F796388BB4206
:101B200008BF40F00100C0B22B781D44DEE795F8F5
:101B30000380F9E76388BB42F6D1B8F1000FF3D117
:101B40002846FFF7F9FEEFE76388012B7FF46CAFBF
:101B5000002386F8C3306EE76388012B7FF464AFFF
:101B6000F7E796F8BA30002B3FF45EAF756AA388AA
:101B700094F804C02A46117800293FF455AF5078F4
:101B8000022804D192F804E0E64500F293800A446A
:101B9000F1E70A704A7038604DE7154498E00B2A67
:101BA0007FF442AF00274FF0FF08C146BA4606E077
:101BB0006B78042B0FD0052B21D02B781D442B786C
:101BC000002BF5D1F36913B1514607209847002F38
:101BD0007FF431AF28E795F80280A38895F8039049
:101BE0009845EAD163889945E7D1B8F1070F1CD829
:101BF00006EB0803AA4683F8BB900127DDE7A3881C
:101C00004345DAD1A3784B450AD0AF78384600F087
:101C100017FC3846FFF7BAFDB0FA80F77F09CCE72A
:101C20002846FFF789FE0746C7E7AA460027C4E70C
:101C300094F900206378002A19DA002B7FF4F4AEBF
:101C4000247963060AD02046FFF776FD00283FF48A
:101C5000EBAE96F8BA30002B3FF4E6AED8F8005061
:101C60002046294602F028F800236B70FBE6012B82
:101C700008D0032B7FF4D8AE6388002B7FF4D4AE5A
:101C8000012103E0618800297FF4CEAEA088FFF730
:101C900017FE00287FF4CFAEC6E60228C8F8002061
:101CA0007FF4F9AE53883B60C5E600BF800F00208B
:101CB0003A10002094F9001062780029BFF66FAF47
:101CC000D8F80010002A3FF464AF0A2A7FF4ACAEC3
:101CD0002A78002A3FF4A8AE687804287FF45DAF24
:101CE000A87883427FF459AF072B96BF9B19002336
:101CF00093F8BB300B70D3E62DE9F84305460F4649
:101D00009046994604264B4642463946284602F0FC
:101D100019F810F10B0F044609D1064A06482B4664
:101D2000022108F0D1F805F00FFE013EEBD120466C
:101D3000BDE8F88375B6000038B0000013B5164C46
:101D4000237DF3B9E268A168019201AB8020FFF71F
:101D5000D3FF019AA3681344A360E3689B1AE3606E
:101D60006BB962B12369E2889A4208DD94F8C82011
:101D700093FBF2F102FB11330BB90123237502B07F
:101D800010BD00231A4619468020237502B0BDE815
:101D9000104001F0D7BF00BF800F00207FB50023A7
:101DA0000D4601930646002862D100293AD1082247
:101DB0000B460DEB020108F01EF9002804DA802022
:101DC00001F028FF04B070BD2E4C029A2260039AE5
:101DD000626004F13802A2609DF90820BDF80E305F
:101DE0002575002AC4E903550FDB802B09D9264A43
:101DF0002648012107F097FF802001F00BFF2846BD
:101E0000DEE713B1C4E90333DCE7FFF7EBFC00289E
:101E1000D5D0E28823699A42D4BFE260E360FFF73D
:101E20008DFFCFE7174CD4E90212002A01AB05DC85
:101E3000024608F0E0F80028C4DAC0E708F0DBF852
:101E4000002804DA802001F0E5FE3046B8E7019A68
:101E5000A3681344A360E3689B1AE360002BB1D12D
:101E600004F13803A360FFF7BDFC0028D7D1A6E733
:101E70008028A7D1034BDA68002AD0D11B7D002B24
:101E8000CDD19FE7800F00209CB6000038B0000045
:101E9000054B064A9A62064ADA62064A1A63064AFD
:101EA00058629A6100207047800F0020051A0000D8
:101EB0004D160000ED1600008D1600002DE9F341CF
:101EC00004464C4D4C484FF0FF334FF0FF3205F0C5
:101ED0007BF895F8B8306BB1484A4948022107F0C1
:101EE00022FF6FF07704444805F0E4F8204602B082
:101EF000BDE8F0816E6A6EB900F0D4F8FFF7C8FF54
:101F00006E6A3EB93F4A3E48012107F00CFF4FF090
:101F1000FF34E8E73C482C62E86102F053F801F036
:101F2000DFFD041EDFDB00F0CBFA041EDBDB737881
:101F3000012B01D1F3793BB9344A3148012107F033
:101F4000F2FE6FF01504CEE70026684685F8C8302B
:101F5000ADF802308DF804608DF8006001F02EFEBF
:101F6000041EC0DB802768468DF8007001F026FE55
:101F7000041EB8DB2649304602F010F8041EB2DB1E
:101F80002349384602F00AF8041EACDB214CDFF886
:101F9000888044451AD3002001F0AAFE041EA2DB6B
:101FA000D5F8C430802043F00103C5F8C43001F0F7
:101FB0009FFE041E97DBD5F8C43043F48033C5F888
:101FC000C430012385F8B83000248CE7276A002646
:101FD000227FF3B29A4201D82434DAE707EBC30236
:101FE00057F83310107901F0D9FF01360028EFD0EF
:101FF0008DE700BF800F0020AC060020B5B60000C2
:1020000038B00000D8B6000011180000FDB600007E
:102010009D1D0000650700206507002030B51F4B9F
:102020008BB005AA03F1100518685968144603C45B
:102030000833AB422246F7D11B78237001AC102243
:102040000021204608F0E1FD12220021144808F08A
:10205000DCFD1021204608F0E1F800281ADD0828F0
:10206000B8BF082009380E4A0444002114F8013F83
:102070000AA800EB131003F00F0328336B4401315F
:1020800010F8140C13F8143C10700829537002F166
:102090000202EBD102480BB030BD00BF37B70000E1
:1020A000E62300202DE9F04F884B87B093F800A07D
:1020B00000AFBAF1000F04D085481C37BD46BDE81B
:1020C000F08F834C00264FF00119FE603546B04674
:1020D00023783BB97F4B02349C42F3D17B4A0123E6
:1020E0001370E9E76378052B05D8DFE803F0AE0746
:1020F00003AE1E4FA04623781C44E9E7402307F1B6
:10210000100087F810A07B8287F814A001F028FD4A
:1021100040B1082307F110007B8201F021FD08B1D6
:10212000A7F812A07B8AE371E5E7E378002BE2D100
:10213000A37813B3FB680133DBB2FB60DBE76B68AA
:102140009C421CD02435644B9D42F8D36D4688B028
:102150006A46624BCDE90534032342F8103F6048DC
:1021600000234FF4C251FEF749FFAD465C485D4A7B
:10217000012107F0D8FD00209FE75B4DE3E7AB6846
:10218000002BD7D0F96820469847D3E7002D5AD1C5
:10219000564A5348012107F0C6FDE7E72B6AA078AD
:1021A00003EBC2010B79984247D14FF0010BE07865
:1021B00094F805C000F003003875207940EA0C203F
:1021C000788294F9020000285FFA8BF328DA0BF189
:1021D00010004FF0010C0CFA00F010EA090F27D1A3
:1021E00043F08000387407F11000C7E90031BA608D
:1021F00001F0B6FCD7E901123B68C8B93A7CA2707D
:1022000012F0800F18BF10330A7118BFDBB24FF005
:10221000010214BF9A4002FA0BF249EA02096AE786
:10222000012000FA0BF010EA090F01D11846D9E796
:102230000BF1010BBBF1100FB9D101322B7F9A4288
:10224000ACD32B4AA5E70022F8E7032E24D1FFF7F1
:10225000E5FE8346A0B1FDF76DFF034680B110286F
:1022600006D0B860234A1E48022107F05CFDBB6817
:10227000102BA8BF10231A465946A01C08F0B7FC23
:1022800023786FF002011A19091B04EB5303D142A2
:1022900009D50136F6B22EE7002EF1D1B8F1000FC4
:1022A00008D1154A75E702F801AC13F8010902F8E4
:1022B000020DECE7A4EB080388F80230C3F3072310
:1022C00088F80330FB6888F80430E2E7E523002053
:1022D000F0060020650700206507002048B70000D1
:1022E00030B000002EB800006507002068B700007D
:1022F000A9B70000C6B7000011B8000010B5094B1F
:1023000000211A461C78844204D15C6814B102EBA7
:10231000811010BD0131042903F14003F2D10020E6
:10232000F7E700BF4C1000202DE9FF4150F8283C92
:1023300010F82C6C103304460AD1036950F8202C95
:1023400098073DD5D2B9590715D5002344F8283C44
:1023500054F8283C10330BD054E9077554F8148C0A
:1023600008F03BFA002857D03248214608F025FAF9
:1023700004B0BDE8F08143F00403236103AB54F8DB
:10238000241C3046FFF7B8FC034640B12A4A2B48CC
:102390000096012107F0DAFC6FF01503D6E7039AE7
:1023A00054F8243C134444F8243C54F8203C9B1A31
:1023B00044F8203C54F81C3C134444F81C3CC7E748
:1023C00003AB54F8241C304601F044FD03460028BA
:1023D000DCD1039D54F8243C2B4444F8243C54F8AD
:1023E000203C5B1B44F8203C54F81C3C2B4444F834
:1023F0001C3C002DA9D0304601F0EAFDB5FBF0F3FE
:1024000003FB1055002DA0D154F8203C002B9CD08C
:10241000304601F075FD9BE744F8180CA4F110005C
:1024200004F0CAFE002DA3D0424639463046A847E4
:102430009EE700BFE80D00205CB8000048B0000037
:1024400010B5EFF31184202383F31288BFF36F8F4D
:10245000FFF754FF50B14368103307D16FF08B037F
:10246000436000F12C01044808F0A7F984F31188B7
:10247000BFF36F8F10BD00BFE80D0020F8B50E4C04
:1024800004252027EFF3118687F31288BFF36F8F9F
:102490006368103307D16FF08B030848636004F161
:1024A0002C0108F08AF986F31188BFF36F8F013D84
:1024B00004F14004E6D1F8BD4C100020E80D0020E6
:1024C00038B5094C00250949204608F05AF901227F
:1024D000A4F110001146013508F035F9042D04F17E
:1024E0004004F0D1002038BD7810002029230000DE
:1024F00008B5044806F0E3FFBDE80840024806F0CE
:10250000DEBF00BF86B80000BBB80000014805F080
:102510005FBE00BF34B1000038B5044618B90F4B98
:102520000F485B6898476168B1F5683F10D0B1F516
:10253000680F0DD00B4DA9420AD011F468612068D4
:1025400007D00146084808F022F8002323606560A0
:1025500038BD142208F059FBF9E700BF98050020A8
:10256000E9B800002C5F5CA94C16002008B520B328
:102570004368B3F5683F10D101220368BFF35B8F56
:1025800053E8001F002903D143E800200028F7D1B9
:10259000BFF35B8F0DD1002008BD094A93420AD0DA
:1025A00000684FF0FF324FF0FF3304F00DFD0028BC
:1025B000F1D00448F0E70448EEE76FF4E040EBE7C1
:1025C0002C5F5CA9E98FFFFFEA8FFFFF08B5D8B148
:1025D0004368B3F5683F10D100220368BFF35B8FF7
:1025E00053E8001F012903D143E800200028F7D158
:1025F000BFF35B8F0BD1002008BD074A934208D080
:10260000006804F057FDF6E76FF4E040F4E7034894
:10261000F2E70348F0E700BF2C5F5CA9E98FFFFFFA
:10262000EA8FFFFF10B5044618B91D4B1D485B68C3
:1026300098476368B3F5683F2FD0B3F5680F2CD087
:10264000194A934219D1236803BB18484FF0FF324F
:102650004FF0FF33214604F089FC08B923681BB909
:102660000F4B13485B68984720681422002108F03C
:10267000CCFA4FF46863636008E0B3F5680F0DD8D7
:102680003A2B03D040F6BA629342DED1206807F0BD
:10269000C8FF636843F03A03636010BD054AF3E77F
:1026A00098050020E9B800002C5F5CA94C160020BA
:1026B0000FB900003A00003A08B506490648402321
:1026C000142207F057FFBDE808400449044805F00C
:1026D000F1BD00BF4C1100204C1600203CB10000A1
:1026E00050B100002DE9F047064600AF0C46002926
:1026F00036D0E9468AB0D1E90012A3686D46214878
:10270000E8464FF0050ACDE90501CDE9072348F871
:1027100010AF1D48424600234FF42151FEF76EFCD6
:10272000CD46D4E903126369AD461848C5F810A038
:10273000C5E90501C5E907231348002342464FF4C4
:102740002151FEF75BFCCD46E369114A0E48012199
:1027500007F0F2FAA3690F4A0B48012107F0ECFADF
:10276000012E07D1EFF305830B4A0748103B314692
:1027700007F0E2FA2146304604F044FABD46BDE8CF
:10278000F08700BF3CB9000018B000006BB9000032
:102790009AB90000A9B90000D7B9000030BFFFF70F
:1027A000FDBF00BF074A936893F90E10002907DBAD
:1027B000526993421FBF044A536843F080535360E9
:1027C000704700BFC021002000ED00E010B5204C94
:1027D0002049214807F097FBA36A990136D51E4886
:1027E0001E4907F090FB1E20A36ADA0104D51A489F
:1027F0001B4907F088FB1F20154CA36A1B0304D557
:102800001548184907F07FFB2120A36A590304D516
:102810001148154907F077FB22200D4CA36A9A0353
:1028200004D50D48114907F06EFB2320A36ADB0392
:1028300004D509480E4907F066FB2420044A936A30
:102840006FEA03436FEA1343936210BD1D20CBE789
:1028500000ED00E0EAB9000018B0000002BA000084
:1028600015BA00002FBA00004DBA000072BA00007D
:102870008CBA000070B5294C06460D4628482949F7
:1028800007F041FBA36AD9043CD52548264907F047
:102890003AFB1720A36A1A0504D52148234907F0FB
:1028A00032FB18201D4CA36A9B0512D51C482049F9
:1028B00007F029FBA36BA26A100409D51D4A18482A
:1028C000012107F039FA1EB1A36A23F40043A36281
:1028D0001920124CA36A590504D51148164907F06E
:1028E00012FB1A20A36ADA050ED50D48134907F02A
:1028F0000AFB1B20094A936A43F47F439362002337
:102900002B7070BD1620C5E7A36A9B04F2D504485E
:102910000B4907F0F8FA1C20ECE700BF00ED00E0DF
:1029200018B00000B7BA0000CDBA0000DEBA00004F
:10293000F1BA00000ABB00001FBB00003ABB000058
:1029400052BB00002DE9F843364D80468946364893
:102950003649174607F0D7FAAB6ADE0627D5344961
:10296000314807F0D0FA1124AB6A1D0704D531496C
:102970002D4807F0C8FA12242A4DAB6A980718D5DB
:102980002D49294807F0BFFA6E6BAB6A190646D588
:102990002A4A25483346012107F0CEF9B9F1000F44
:1029A00003D0AB6A23F08003AB62132403E010244E
:1029B000DAE76FF015061B4DAB6ADA0704D520493C
:1029C000194807F0A0FA1424AB6A9B0604D51D49E8
:1029D000154807F098FA1524124B9A6AD50602D4C6
:1029E0009A6A90070AD55B68190507D541463046B3
:1029F00000F06EFA10B180F309880224094B9A6A3C
:102A0000920642BF5A6A22F400525A629A6A42F00F
:102A1000FF029A6200233B702046BDE8F8836FF006
:102A20001506C2E700ED00E018B0000081BB000011
:102A300097BB0000DEBA0000CABB0000E2BB00008A
:102A4000F8BB000052BB00002DE9F041684B8AB092
:102A5000D3F8048000AF0446C8F30806002585F3C8
:102A60001188BFF36F8F02F07F43B3F17F4F07D11F
:102A700002F00C03082B12D15E495F4807F043FABD
:102A800000252C460023FB71F31E092B00F28F80DA
:102A9000DFE803F00A8588818D8D8D8D8D8B100781
:102AA0004CBF0C460125EDE754495348504E07F002
:102AB0002AFA0023FB71F36A9A0705D550494E485C
:102AC00007F021FA00232DE0F36A002B01DA4D49CB
:102AD000F5E7F36A5B00F5D54B49474807F013FA71
:102AE0007369A26943F480737361BFF34F8FBFF3BF
:102AF0006F8F32F8023C726922F480727261BFF308
:102B00004F8FBFF36F8F03F47F42B2F55F4F2BD12E
:102B1000DBB2022B28D123683C4A3748012107F059
:102B20000BF92368FA79DAB907F1080604F1200CE9
:102B300020686168324603C2083464451646F7D1FE
:102B40007A6A002D50D0C2F3080121B96FEA5222EF
:102B50006FEA42227A6207F108011846FFF7C2FDC8
:102B60002837BD46BDE8F081214B9A6AD2B22AB11E
:102B7000FA1D01212046FFF7E5FE0EE09A6A12F4E5
:102B80007F4F04D0F91D0120FFF774FE05E09B6A1A
:102B9000B3F5803F96D3FFF719FE0346C2E7FA1D4F
:102BA0000021E7E7F91D0020EEE7194987E7194AF8
:102BB000194B18F4F87FE8468AB008BF13466A46F6
:102BC0001649CDE905134FF40073ADF82030103EDF
:102BD000134B079642F8103F074800234FF411515A
:102BE000FEF70CFAC5466DE76FF30802B2E700BFC7
:102BF00000ED00E045BC000018B0000070BC000013
:102C000087BC0000A8BC0000B6BC0000D5BC00001A
:102C1000F1BC000017BC00002CBC000015BD00007A
:102C200004000001044B5A6942F010025A615A69CB
:102C300022F008025A61704700ED00E0EFF30880CF
:102C4000EFF3098101B57246FFF7FEFE01BD00BF3B
:102C5000002080F31488BFF36F8F0F4880F308883B
:102C600003F076F800200D490860BFF34F8F00F0A5
:102C70002BF8202080F3118809484FF40461401894
:102C800080F30988EFF314800221084380F314884D
:102C9000BFF36F8F00F0E4F88039002094ED00E07E
:102CA000C02B00200749D1F890200023C2F307224F
:102CB0001846934200DB7047C1F89830C1F8A00075
:102CC0000133F6E700ED00E008B572B6002383F3A8
:102CD0001388FFF7E7FF144B4FF0FF32C3F8802053
:102CE000C3F88420C3F88820C3F88C20C3F8902050
:102CF000C3F89420C3F89820C3F89C20C3F880211F
:102D0000C3F88421C3F88821C3F88C21C3F890212B
:102D1000C3F89421C3F89821C3F89C2162B6BFF38D
:102D20004F8FBFF36F8F08BD00E100E0084B9B6839
:102D300083420BD1EFF3058343B1064B5A6842F04F
:102D400080525A605A6A22F400425A6204F0C8BEA5
:102D5000C021002000ED00E012498A684FF03000E9
:102D60001044EFF3098C80E8F01F202080F31288D4
:102D7000BFF36F8F0C4F4FF000664A698A603E6068
:102D8000506F0023536780F3118804B5104600F09C
:102D9000FFF8BDE8044002F1300090E8F01F8CF32A
:102DA00009887047C021002004ED00E01EF0040FE8
:102DB0000CBFEFF30880EFF30980816911F8021C62
:102DC0000229FFD001B5724607F092F801BD00BF9D
:102DD00040B2002807DB044A4109012300F01F002C
:102DE000834042F82130704700E100E040B2002803
:102DF0000CDB4309064900F01F002033012282400A
:102E000041F82320BFF34F8FBFF36F8F704700BF90
:102E100000E100E0054B420900F01F0053F82220BA
:102E2000012303FA00F01040704700BF00E100E00A
:102E300040B20028A8BF00F1604001F10101B8BF15
:102E4000064B4FEA4111ACBF00F5614000F00F00A6
:102E5000C9B2B4BF195480F80013704714ED00E0F4
:102E60000B4A08B50B4B22F07F029A60BFF34F8FDD
:102E7000BFF36F8FD3F8882022F47002C3F8882044
:102E800003F0AEFF04F04CFF00F058F803F0ECFF45
:102E90000000000000ED00E042F8203C009B42F8FA
:102EA0001C3C0A49019B42F8183C029B42F8143C26
:102EB00021F001014FF0807342F8043C42F8081CF5
:102EC0000023203A02654367704700BFD994000091
:102ED000094A0346906870B113F1160F406E05D091
:102EE000A0F140029A4205D8834203D2814228BF12
:102EF0000020704700207047C021002008B5094B12
:102F00000E461546986000F043F82C4686F3098873
:102F10000020054B98472046002100220023034C47
:102F2000204700BFC0210020179F0000D994000057
:102F3000014B10221A61704700ED00E004480023A5
:102F40002021C2180133302B82F80013F9D17047C9
:102F500000E100E008B5EFF30583064A103B02EB01
:102F6000C30152F8330049688847BDE80840FFF7BD
:102F700019BC00BFF8AD0000024B034A0348012111
:102F800000F08AB8000004200000002060B10000BA
:102F9000436E054A403B1360044B4021C2E90113D4
:102FA0001046012100F082B86816002000000B15C1
:102FB00008B503461048D0F89020C2F30722013A22
:102FC000934207D90D480E4A012106F0B5FE6FF075
:102FD000150008BDC0F898300A6822F01F021A4395
:102FE00042F01002C0F89C208A6842F00102C0F84A
:102FF000A0201846EDE700BF00ED00E008B000009B
:103000002CBD0000F0B50E4685B01F4604460025D5
:10301000B5420DDA606810B397B1431E18420AD06A
:10302000104A11482B46012106F086FE6FF015026A
:10303000104605B0F0BD1F28F2D921680B42EFD130
:103040002368019306F08AFFA36801A90343D0B265
:103050000393FFF7ADFF10F1160FE7D0421C0135C7
:103060000C34D5E752BD000008B00000044B052227
:10307000C3F89420BFF34F8FBFF36F8F704700BF2B
:1030800000ED00E0BFF35F8F024B0022C3F89420F5
:10309000704700BF00ED00E010B5034C012322781B
:1030A000FFF7B0FF207010BDF823002008B50B4AD1
:1030B00000231278FFF7A6FF10F1160F07D0084A79
:1030C0000021D2F89030C3F30723984200DB08BDFB
:1030D000C2F89800C2F8A0100130F2E7F8230020EF
:1030E00000ED00E02DE9F04356485749D0F8903004
:1030F0000C68C3F307239C4285B000F29F80FFF762
:10310000C1FF49680022944201F10C0119D14F4FCF
:103110004F4D3C706846FEF793FA4E4C4E4E81463A
:103120004FF00008C1451FD13B7846490020D1F837
:103130009020C2F3072293427ADBFFF797FF00202B
:103140004DE0C0F8982051F80C3C23F01F031343C6
:1031500043F01003C0F89C3051F8043C43F00103E5
:10316000C0F8A0300132CEE7009800EB08114FEA1A
:10317000081CCB682340B3F5000F43D00BD8B3F540
:10318000001F2FD0B3F5800F34D0B3F5801F11D0BE
:1031900008F10108C6E7B3F1807F3CD0B3F1007FAE
:1031A000F6D150F80C3088684A6806F0D7FE40F433
:1031B000802009E050F80C3088684A6806F0CEFE9E
:1031C00040F0885040F43020039001A93878CDE9D0
:1031D0000123FFF7EDFE002826DA6FF0150005B099
:1031E000BDE8F08350F80C3088684A6806F0B6FEF7
:1031F0002843E9E750F80C3088684A6806F0AEFECC
:103200003043E1E750F80C3088684A6806F0A6FEC3
:1032100040F08270D8E750F80C3088684A6806F0B1
:103220009DFE40F08870CFE73B7801333B70AFE7FD
:10323000C1F89830C1F8A000013378E74FF0FF30B3
:10324000CDE700BF00ED00E06CB10000F8230020E6
:10325000000008110000F0FF00000207F0B587B081
:1032600007460E4614460021102268461D4607F008
:10327000CCFC02238DF802302A46054B01932146EF
:103280006846CDE9047605F007FA07B0F0BD00BF47
:103290007D9F000008B5024B1B689847002008BDC1
:1032A00074160020034B044A1860937843F002031D
:1032B0009370704774160020F004002008B506498A
:1032C000064821F00701C1F1005202F5802206F004
:1032D00054F8002008BD00BF874000207816002069
:1032E0000C4B0122C3F840254FF080434FF0805132
:1032F000C3F87825D1F83001082805D1D1F8341168
:10330000022908BFC3F838260122C3F8802500200F
:10331000704700BF00E0014020B1034B800143F043
:1033200001031847704700BF80B0000000F07F0322
:10333000082B42B204D010F0780F01D00020704763
:10334000002A00F00F0300F0080004DA30B9054845
:1033500000EB4310704718B90348F9E7034870477A
:1033600003487047D0160020F0170020D017002027
:10337000F01800200149024807F01FBAAC160020DF
:10338000280C00200146014807F0D2B9E0060020D1
:1033900002480022002303F0DDBE00BFE00600204B
:1033A00013B5124800F08AFF114B98421AD1114808
:1033B00003F0DEFA0024104803F01AFB0F4910480E
:1033C00000944FF0FF334FF4806204F05FF80D4932
:1033D0000B4807F008FA0C480C4907F0D2F92046D0
:1033E00002B010BD6FF00400FAE700BF953900008D
:1033F0000000AD0B83C100008CB1000080270020CD
:10340000280C002088BD0000AC1600208935000083
:1034100010B50E49BFF35B8F002351E8002F012A3E
:1034200003D141E800300028F7D1BFF35B8F0CD106
:1034300051F8044C1439204606F0A1FB783004D131
:103440002046BDE8104006F076BB10BDA416002053
:1034500038B5002464F07F00C0B2FFF767FF013485
:1034600006F097FD082CF5D10E4D0024E0B2FFF7D1
:103470005DFF036903B90561013406F08AFD082C7C
:1034800005F14005F2D1084806F083FD074BD3F85B
:103490007C2212B9064AC3F87C22BDE838400548B0
:1034A00006F077BD141D0020D017002084160020E0
:1034B00014190020F018002008B5FFF769FF20B1AB
:1034C0004168024807F063F8F7E708BD40060020AE
:1034D00007B500231448002201A903F047FDE8B115
:1034E000124A1348012106F067FDFFF7E5FF0E4879
:1034F0000022002301A903F039FD30B10D4A0C4828
:10350000012106F059FD00200AE0019804234060E3
:103510000374FFF737FFFFF72DFFF4E701984060D2
:1035200003B05DF804FB00BF4006002093BD00001F
:1035300040B00000B1BD00000346024A024801212C
:1035400006F0FABBCDBD000040B00000022810B567
:1035500011D80B4A145CFFF7BBFF80B10022027444
:103560000472FFF70FFF074B93F824303BB1BDE81F
:103570001040FFF7FFBEBDE81040FFF7DDBF10BDF4
:1035800080C10000841600202DE9FF41A14C804637
:10359000FFF7FEFE074610B904B0BDE8F08194F8CD
:1035A00025203B7C3AB9002B00F0988079689A4836
:1035B00006F0EDFFECE7042B00F27681DFE813F074
:1035C0008E00050013013E015F0118F8043C33B979
:1035D000BB685B7A914A9248012106F0ADFB3B7BC8
:1035E000BD68032BE2D8DFE803F0023B61666E6939
:1035F0008C4B002232607260D3F880143170D3F8A3
:1036000084147170D3F88814D3F88C0441EA002133
:103610007180D3F89014D3F8940441EA0021B1806A
:10362000D3F89814D3F89C3441EA0323F380082399
:10363000EB60306871687C4B03C311462B68687A75
:10364000984796F90030002B06DBF38823B1A4F8E5
:103650008C3201F089F9A9E70023A4F88C32A5E7A0
:103660006B7F002BA2D02B7F002B9FD000264FF02A
:10367000FF326E486E774FF0FF332E7706F09EFCD8
:103680006B6901936B68CDE9023601A9687A00F095
:103690006BFE674A9042034604D0664A60480121A7
:1036A00006F04AFB614806F08BFC7FE72B6801219E
:1036B000687A98477AE7AB7A6BB9EB7F5BB95B487E
:1036C0004FF0FF324FF0FF3306F078FC01F052F973
:1036D000564806F075FC2B680221E9E73B7A042B7B
:1036E0003FF664AFDFE803F05B032569750000F087
:1036F000A5FD054600287FF459AF00F0DFFCBFF3BD
:103700005B8F4D49012351E8002F002A03D141E886
:1037100000300028F7D1BFF35B8F7FF447AF41F84B
:10372000085C41F8105CE0696361143906F0B8F98F
:103730003CE7002565F07F00C0B2FFF7F7FD037A94
:1037400013B1407A01F078FA0135082DF2D194F8DE
:1037500054311BB194F8550101F06EFA0025E8B21E
:10376000FFF7E4FD037A13B1407A01F065FA013501
:10377000082DF4D194F874321BB194F8750201F05D
:103780005BFA002000F03EFD012384F82530236819
:10379000002B3FF40BAF00210220984706E70025DD
:1037A00084F8255001F0AEF9FFF732FE2368002BB4
:1037B0003FF4FCAE29460420EFE7002A3FF4F6AEC2
:1037C00000F046FD2368002B3FF4F0AE00210520F9
:1037D000E3E72368002B3FF4E9AE002A3FF4E6AEAE
:1037E00000210620D9E708F110054FF0FF334FF014
:1037F000FF32284606F0E2FBFFF72AFE284606F0D5
:10380000DFFB58F8283C002B3FF4D0AE002101200C
:10381000C3E700BF8416002040060020E8BD00007A
:1038200040B000000070024088160020BC16002046
:103830000000AD0B0EBE0000A416002094F87432F8
:1038400063B1012584F8895284F88852FFF740FE5D
:1038500060B9184A1848294606F0AEFB58F8283CCB
:10386000002B3FF4A3AE00210A2096E7134A05740B
:1038700005738260FFF786FDFFF77CFDEEE7104AD7
:103880000D48012106F098FB06F005FE01F03AF91B
:1038900000F00AFCFFF710FEFFF7DAFD06F0F4FD7A
:1038A000084800F00BFD81E6074A0348012106F0B5
:1038B00043FA7BE634BE000040B00000F018002060
:1038C00048BE0000953900005FBE000073B58178E6
:1038D00006460846FFF72AFD0B06F47805461DD577
:1038E00054B1032C06D0284A0091284823460121D0
:1038F00006F02CFA02B070BDFFF7EAFD034600287F
:10390000F8D00122AC770274032202739D60FFF7A6
:1039100039FD02B0BDE87040FFF72CBD54B1012C59
:10392000E1D1FFF7D5FD03460028E3D06C7704749E
:103930000473EBE7FFF7CCFD0028DBD0B278144B23
:1039400012F0800F02F0080111D041B1D3F8A8366F
:10395000EB6001230374022303738560D7E702F051
:103960000F02142101FB0233D3F80836F0E711B13E
:10397000D3F8A837ECE702F00F02142101FB023361
:10398000D3F80837E4E700BF77BE000040B000007E
:1039900000700240F0B514228BB0064600210DEBFA
:1039A000020007F032F93378013B052B21D8DFE81C
:1039B00003F08B0314147B1603238DF81C300024B2
:1039C000FFF786FD0346A0B1047400F10802DDE9AB
:1039D000070182E80300184626E00423EDE7B178EA
:1039E0000846FFF7A3FC837A054623B1013B022B6F
:1039F00054D90BB0F0BD0B06F4781CD54CB1032C98
:103A0000F7D0324A009132482346012106F09EF950
:103A1000EFE7FFF75DFD03460028EAD00122AC770F
:103A20000274032202739D60FFF7ACFC0BB0BDE88B
:103A3000F040FFF79FBC54B1012CE2D1FFF748FDE5
:103A400003460028D5D06C7704740473EBE7FFF7C6
:103A50003FFD04460028CCD00223012703730774DE
:103A60008560B07805F10C0106F0EFFA034620B14D
:103A7000184A1748394606F05FF9174AE968B2F85C
:103A80008C328B4206D95B1AA2F88C3200F06CFFA4
:103A90002046C9E70023A2F88C32F9E730460BB084
:103AA000BDE8F040FFF712BF03A800F03BFF9DF810
:103AB0000D30052B04D19DF80C3013F0600F98D019
:103AC000064B079301247BE7022479E777BE0000C9
:103AD00040B00000A3BE000084160020F0170020B4
:103AE00038B5144C94F824500DBB04F1380006F09E
:103AF00098FD284601F0F0F92A460121E0612720CF
:103B0000FFF796F906F0C0FCFFF7A2FC012384F84A
:103B10002430094B1B680BB1FFF72CFC4FF080439E
:103B2000D3F83834DB0702D50020FFF70FFD002063
:103B300038BD00BF84160020E0060020074B93F834
:103B400024203AB193F82530002B0CBF6FF01200FF
:103B5000002070476FF01200704700BF84160020ED
:103B600008B502460378127903F00F0042B930B16C
:103B70000D4A01210D4806F01FFA4FF0FF3008BD35
:103B8000082801D90A4AF4E7012A03F0080303D1FF
:103B900043B9084A0221EDE703F0FF00002BEED005
:103BA000054AF7E70020EAE7C3BE000040B0000086
:103BB000E2BE000001BF000017BF000010B5124BAD
:103BC00093F824300146E3B104782046FFF7AEFBBA
:103BD00080B144720B7983724B88436008784988BE
:103BE00003070AD44B1E0B4207D0084A084801219C
:103BF00006F0E2F96FF0150010BD06F021FA002082
:103C0000FAE76FF01200F7E78416002034BF0000D7
:103C100040B0000038B5154B93F8242005460AB390
:103C200093F82530F3B1FFF781FB044610B96FF02C
:103C3000150038BD817A01290FD007D90239012931
:103C400007D96369A3610020E060F2E700F098FE05
:103C5000F7E7284600F03AFEF3E7054A054806F084
:103C6000ABF9E4E76FF01200E3E700BF8416002031
:103C70005CBF000040B0000038B50E4B93F8242024
:103C8000054682B193F825306BB1FFF74FFB68B161
:103C900015F008040AD1284600F03AFE284601F043
:103CA00003F8204638BD6FF01200FBE76FF01500F7
:103CB000F8E700BF8416002038B50C4B93F8242099
:103CC00005460C4662B193F825304BB1FFF72EFB49
:103CD00048B141B1284600F001FE2070002038BDF7
:103CE0006FF01200FBE76FF01500F8E78416002074
:103CF00070B5134E96F824300446C3B1FFF716FB97
:103D00000546B8B1230705D4204600F001FE204641
:103D100000F0CAFF2B7A83B901232B7296F8253065
:103D20000BB9002070BD204600F086FFF9E76FF068
:103D30001200F7E76FF01500F4E76FF07700F1E796
:103D4000841600202DE9F043DFF8F0801E4698F835
:103D5000243085B0074689461546002B6AD098F86E
:103D60002530002B66D003060BD5FFF7DFFA04469B
:103D700038B1037A5BB9324A32483B46012105F03B
:103D8000DBFF6FF01504204605B0BDE8F0834FF06F
:103D9000FF334FF0FF3208F1380006F00FF9A37F30
:103DA00033B108F1380006F00BF96FF00A04EAE7C6
:103DB00015B9E37F03B1E577A37ABBB95DB1B8F874
:103DC0000A309D4207D26268B5FBF2F302FB13533F
:103DD0000BB90123E37700F0D9FD874206D000F04C
:103DE000C9FD194806F0ECF80024CCE70123A377BD
:103DF0004FF0000801A93846CDE90195CDF80C80B7
:103E000000F0B2FA114A904203460FD084F81E80A7
:103E10000EB1C6F800800E4A0A48012105F08CFF59
:103E20006FF00404084806F0CBF8ACE706B1356043
:103E30000024F7E76FF01204A5E700BF8416002006
:103E40007EBF000040B00000BC1600200000AD0B9B
:103E50009DBF00002DE9F0411D46254B174693F804
:103E6000242080460E46002A3FD093F82530002BB0
:103E70003BD010F0800F0ED101B967B94046FFF773
:103E800055FA044638B1037A43B91A4A1A484346E8
:103E9000012105F051FF6FF0150013E04FF0FF33E3
:103EA00016484FF0FF3206F089F8E3689F42B846A3
:103EB00028BF984646B93FB905B12B600F4806F0B8
:103EC0007FF80020BDE8F081A1694246304606F047
:103ED0008EFEA3694344A361E368A3EB0803E36098
:103EE000002DEBD0C5F80080E8E76FF01200E9E79D
:103EF000841600207EBF000040B00000BC160020E9
:103F000070B5224D95F824300146002B3AD095F833
:103F10002530002B36D003060BD4FFF707FA0446F2
:103F200038B1037A43B91A4A1A480B46012105F001
:103F300003FF6FF0150070BD4FF0FF334FF0FF32FD
:103F400005F1380006F03AF8E368B3B90126636971
:103F50002677A361637F83B1FFF7BAFA30B905F121
:103F6000380006F02DF86FF00B00E4E7067484606B
:103F70000673FFF707FAFFF7FDF9074806F020F888
:103F80000020D8E76FF01200D5E700BF84160020AC
:103F90007EBF000040B00000BC16002008B5084BF2
:103FA00093F824302BB1FFF7C1F928B1016000204C
:103FB00008BD6FF01200FBE76FF01500F8E700BFD7
:103FC00084160020014B1860704700BF8416002043
:103FD00008B5074B93F8243023B1FFF7A7F920B1B8
:103FE000406808BD6FF01200FBE76FF01500F8E7BE
:103FF00084160020064B10F0800F03F1D80218BF82
:10400000134600F00F00182202FB0030704700BF7B
:10401000541F0020EFF31180202383F31288BFF395
:104020006F8F0A4BD3F8001C032261B949F2753136
:10403000C3F8001CC3F8142DC3F8001C80F31188CA
:10404000BFF36F8F7047C3F8142DF7E700E0064009
:10405000EFF31180202383F31288BFF36F8F0A4B95
:10406000D3F8001C61B949F27532C3F8002CC3F8CB
:10407000141DC3F8002C80F31188BFF36F8F7047B5
:104080000022C3F8142DF6E700E006404FF08053FD
:10409000D3F83031082B02BF024B0022C3F81C2C8E
:1040A000704700BF00700240024A00231360024ABA
:1040B000137070470C210020FD23002008B54A4BE7
:1040C0004FF40062C3F8002405F0A4FF08B1FFF725
:1040D000A1FF4FF08053D3F83031082B18D1EFF304
:1040E0001180202383F31288BFF36F8F3F4BD3F8E7
:1040F000001CC02200296ED149F27531C3F8001CA2
:10410000C3F8142CC3F8001C80F31188BFF36F8F21
:10411000354B0122C3F80025D3F800241205FBD546
:104120004FF40062C3F800244FF08053D3F83031CD
:10413000082B17D1EFF31180202383F31288BFF3EC
:104140006F8F2A4BD3F8001C002947D149F27532F2
:10415000C3F8002CC3F8141CC3F8002C80F311889A
:10416000BFF36F8F05F056FF30B1FFF771FF05F019
:1041700051FF08B1FFF74EFF4FF08053D3F83031B5
:10418000082B194B0AD140F2E372C3F800284022F1
:10419000C3F80428BFF36F8FBFF34F8F8022C3F89B
:1041A0001C250122C3F83025114B40F2FF121A6082
:1041B000104B00211960104B1970FFF767FF0F4B70
:1041C00019700F4B02221A7005F024FF50B1BDE8A0
:1041D0000840FFF73DBFC3F8142C95E70022C3F851
:1041E000142CBBE708BD00BF0070024000E0064091
:1041F0000821002004210020F9230020FB230020B7
:10420000FD230020094B002210B51A70084A094B03
:10421000094C002808BF1346C4F800332720FEF7D6
:10422000D7FD0123C4F8043510BD00BFFC230020D6
:10423000FDFFDF01FDFFFF0100700240034B187816
:10424000012894BF00200120704700BFFD230020FB
:1042500010B54FF0FF324FF0FF33154802F0E0FF8A
:10426000EFF31181202383F31288BFF36F8F114B7B
:104270001B7803F0FF0483B10F4BD3F8002412F432
:1042800000720AD10120C3F82C05D3F82C05D3F80D
:104290000004800502D5C3F82C25002481F3118881
:1042A000BFF36F8F024802F087FF204610BD00BFAA
:1042B000C0060020FC23002000700240F8B51C4B13
:1042C0001C7894BB1B4A106001221A7040F2FF1741
:1042D000264664F07F0514F0080FEDB214BF39468E
:1042E0004021284605F0ACFE2846FFF783FE013446
:1042F000092C867506730661EBD1002440F2FF1786
:10430000254614F0080FE6B214BF39464021304666
:1043100005F096FE3046FFF76DFE0134092C8575D9
:1043200005730561EDD10448F8BD0448FCE700BF02
:10433000FD2300200C2100200000AD0B0500AD0B7B
:10434000084B10F0800F14BFD3F81035D3F8143594
:1043500000F00F02012090401840003818BF0120E3
:10436000704700BF007002402DE9F8430246EFF3AA
:104370001187202383F31288BFF36F8F030703D1C4
:10438000184B1B78834229D1174B184E1C6835688F
:10439000104605F04DFEE443A4B24FF001092C4352
:1043A00009FA00F814EA08041AD11046FFF722FEB1
:1043B00080F80C90034607C91C6183E807009C75D0
:1043C0000B4B0C4845EA080580223560C3F80421F0
:1043D00087F31188BFF36F8FBDE8F8830648F7E7CE
:1043E0000648F5E7FB2300200821002004210020D7
:1043F00000E100E00000AD0B0A00AD0B0B00AD0BBF
:1044000010F0080F074B06D0D3F8C00410F4803F1B
:1044100018BF0020704700F00F0000F5947053F8AB
:1044200020007047007002402DE9F74F594BDFF82C
:104430006881D3F85421EAB10022C3F85421D3F89B
:104440000413890216D58DF80420D3F82025ADF881
:104450000620D3F8C034002BD8F8003014BF4FF03A
:1044600001224FF480721343C8F800304B4B01A86F
:104470001B689847474BD3F8604134B10022C3F81A
:104480006021D3F86C44C3F86C44D3F828214AB1B6
:104490000022C3F82821424B187805F0C9FD0123FA
:1044A00083401C43DFF8FCA09AF800509AF90060A2
:1044B00015F0080005F00F0238D1002EB4BF3A4BBA
:1044C0003A4B91000B441968DFF8E49051B3002196
:1044D0001960304B88BB8E424FF0140101FB023350
:1044E000B4BFD3F80836D3F80837324A117803F04E
:1044F00001034B401370FFF7C9FD2F4802F05CFE2B
:104500002846FFF777FD837D032B1DD1284605F054
:104510008FFD012303FA00F0D9F8003023EA0003ED
:10452000C9F800301D4F0125062672E0234B2449AF
:1045300033EA260328BF0B46C5E7002EB4BFD3F8E5
:10454000A836D3F8A837D0E7037BE3B9284605F0AF
:104550006FFD012303FA00F0D9F80030002E23EAA2
:104560000003C9F8003001DA882DDBD106238DF86D
:10457000043000238DF80730084B8DF806501B6877
:1045800001A89847CEE7002DCCD1024B0122DA6476
:10459000C8E700BF00700240082100200C21002065
:1045A000FB230020FA2300200871024030710240F2
:1045B00004210020F9230020C00600205071024091
:1045C0002C71024094FAA4F3B3FA83F30F2BD8F8BA
:1045D00000201946C8BFA3F1100105FA03F342EA0F
:1045E0000302C8F80020D9F80020CCBFC9B241F0BE
:1045F000800124EA030413400A0640F1938043B982
:104600008DF804608DF806108DF807303B6801A81E
:104610009847002CD6D1A74BD3F800215AB1C3F844
:104620000041A54B1C70A54B1C7001230193A44BAA
:1046300001A81B6898479F4BD3F85821002A2ED019
:104640000022C3F85821D3F80044C3F80044E6051B
:1046500008D5994B01221A7002230193984B01A8A7
:104660001B689847A50508D5934B00221A700323B1
:104670000193934B01A81B68984764050FD58E4B97
:104680001A7862B100221A708A4B0122C3F80825F9
:104690009A65042301938A4B01A81B689847854BB0
:1046A000D3F85C3123B3874B9B681BB99AF8003071
:1046B00058061DD07F4B0022C3F85C21D3F880340C
:1046C0007E4A23F07F031370D9F8003023F00113E2
:1046D000C9F80030D8F8003023F4803343F00103E8
:1046E000C8F8003005230193754B01A81B68984753
:1046F000D9F80020D8F800301A4200F0C88071487C
:104700000022002302F08CFD002840F0C080694B9D
:10471000D3F82C35002B44D06A4803B0BDE8F04FE5
:1047200002F04ABD002B7FF474AF8DF804608DF861
:1047300006108DF8075069E70B4661E0003A69E022
:104740002046FFF75DFED5E90032B5F814C090426F
:104750009FBF121A1F182F606A6094BF0746002778
:1047600060450CBF4FF0010C4FF0000C002A08BF51
:104770004FF0000C002B53D0874251D20123B3409D
:1047800021EA0303C9F8003006238DF804304C4BAE
:104790008DF8064002221B68AA758DF8072001A833
:1047A0009847D9F80010D8F800600E40B4D016F041
:1047B000012314BF93FAA3F696FAA6F6B6FA86F684
:1047C000F4B20F2EC6BF103CE4B244F08004204681
:1047D000FFF710FC4FFA84FBBBF1000F0546AFDA80
:1047E0004368878A01689F4228BF1F4601F06043E3
:1047F000B3F1005FA0D034483A4606F0F8F9324BE6
:1048000029686A6839442960A968D21BC9076A60A7
:1048100094D53A1E18BF01222AB900222A7302E059
:10482000BCF1000FF9D04FF080520120D2F83021B6
:10483000082A02BF1F4A8221C2F81C1CD8F8002097
:104840008AF8004000FA06F622EA0602C8F80020BC
:104850002A6914F0080F3A442A61164A1AD1BBF1AA
:10486000000F04F00F044FF0140101FB0421A9BF55
:104870000A3402EB8402C1F80037C1F80477AFBFF5
:1048800042F82400C1F80036C1F80476506003B045
:10489000BDE8F08FBBF1000FB5BFC2F8A036C2F87B
:1048A000A037C2F8A476C2F8A477B4BF506290646F
:1048B000EDE700BF00700240FC230020FB23002036
:1048C0000C210020C0060020141F0020024B40F4E1
:1048D0008070C3F81805704700700240030713D4B6
:1048E00000F00F0310F0800F084A0BBF03F5887328
:1048F00003F5847302EB830252F8230008BF50686B
:10490000003818BF01207047002070470070024037
:10491000034BC3F80C0540F48070C3F80C057047D6
:10492000007002400023036043600E4BD3F88024E4
:104930000270D3F884244270D3F88824D3F88C14FE
:1049400042EA01224280D3F89024D3F8941442EA38
:1049500001228280D3F89824D3F89C3442EA0323BE
:10496000C380704700700240014B0122DA64704737
:1049700000700240014B01221A657047007002402E
:10498000014B01225A65704700700240014B1878B4
:10499000704700BFFB23002010B50246EFF31184DF
:1049A000202383F31288BFF36F8F05F041FB0B497F
:1049B000012303FA00F00B6823EA00030B6012F0F6
:1049C000080101BF02F00F02054B02F5947243F893
:1049D000221084F31188BFF36F8F10BD08210020CF
:1049E00000700240F7B50146EFF31185202383F3F1
:1049F0001288BFF36F8FFFF7FDFA0646084605F0F1
:104A000017FB012211F0800F02FA00F22D4818D195
:104A1000036832EA03040AD00846FFF7BDFF032308
:104A2000B37585F31188BFF36F8F03B0F0BD2649CE
:104A3000347323EA020303600B6823EA02030B606A
:104A4000EDE70B0715D48029204B2FD001F00F0480
:104A500004F2DA346400C3F80048D3F80448D3F809
:104A60000478E4B244F002043C43C3F80448D3F8A9
:104A70000438154F04683B6864EA030C1CEA020F13
:104A8000CFD013433B60002333730323B3758DF8FA
:104A900007300F4B8DF8061024EA0204062204604A
:104AA0001B688DF8042001A89847BAE740F2B47457
:104AB000C3F80048D3F80448D3F80478E4B244F0CB
:104AC0000404D1E7042100200821002000700240E6
:104AD0000C21002010B504464FF0FF324FF0FF3399
:104AE000064802F09DFB2046FFF77CFF034802F0DA
:104AF00063FB034B8022C3F8042110BDC0060020D5
:104B000000E100E0F8B54FF0FF324FF0FF332B48E3
:104B100002F086FB2A4B8022C3F884212720FEF76F
:104B200079F998B1274E284B34681B686FF30F044E
:104B30001C43012764BB254D40F2FF13336027203F
:104B4000C5F80445FEF752F9C5F80043204A13782A
:104B50008BB11E4B0021C3F808110121C3F80026B8
:104B6000C3F804165960D3F808110029FBD00021BE
:104B7000C3F808111170154B0022C3F80025FFF788
:104B800085FA0E4802F018FB124B01221A70F8BD8C
:104B900094FAA4F5B5FA85F50F2D2846C6BFA5F100
:104BA0001000C0B240F08000030701D4FFF71AFFE5
:104BB00007FA05F524EA0504BCE700BFC00600209B
:104BC00000E100E0082100200421002000700240E4
:104BD000F9230020FD23002010B504464FF0FF32DA
:104BE0004FF0FF33114802F01BFB2046FFF7FAFE9F
:104BF00004F00F02012393400D4A14F0800F14BFFC
:104C0000D2F81015D2F814156FEA030315BF0B4044
:104C10000B40C2F81035C2F81435044802F0CCFA43
:104C2000044B8022C3F8042110BD00BFC006002041
:104C30000070024000E100E070B50446FFF780FB21
:104C400068B904F00F02012514F0800F144B05FA27
:104C500002F205D0D3F810150A43C3F8102570BD31
:104C6000D3F814150A43C3F81425631E062BF6D88F
:104C7000EFF31186202383F31288BFF36F8F204652
:104C8000FFF78AFE204605F0D3F9064A13688540EF
:104C900023EA0503136086F31188BFF36F8FDEE705
:104CA0000070024004210020030610B5044605D41C
:104CB000FFF714FE10B12046FFF76EFE014BC3F85C
:104CC000184510BD00700240084B70B5C31A0D4660
:104CD00007499B10044659430648402205F0D4F981
:104CE0002B4601462046BDE870401847242100208D
:104CF000B76DDBB694AD000073B50C4C0C4A402385
:104D0000041B00930D460B460A49A4106143064656
:104D1000094805F0E5F9014628B130462B4602B0B6
:104D2000BDE87040184702B070BD00BF24210020CC
:104D30004DA10000B76DDBB694AD0000002270B548
:104D4000012104461046FEF773F80F4801F070F990
:104D50000E4B984215D101F07BF926690C4930467B
:104D600004F08BFE00280BDB01253564246908491B
:104D700004F11C0004F081FE002801DBE564002042
:104D800070BD6FF00400FBE7BD4E00000000AD0BEE
:104D900090B100001FB500220123CDE902236C462B
:104DA000074A6B46CDE9004405F0C9F928B94FF42C
:104DB00080420023684602F033FA04B010BD00BF01
:104DC0006BA1000010B5EFF31184202383F3128848
:104DD000BFF36F8F074A136823F00201DB071160EE
:104DE00002D4012005F0C3FA84F31188BFF36F8F5A
:104DF00010BD00BF7421002030B4104B0C2202FB08
:104E0000003301460020D3E90E529863EFF311807E
:104E1000202484F31288BFF36F8F1C6C04F0C0044D
:104E200044F002041C6480F31188BFF36F8F1DB13E
:104E30002B46034830BC184730BC70472421002063
:104E400094AD000010B4EFF31180202282F3128899
:104E5000BFF36F8F17490B6843F0020413F001038F
:104E60000C601AD04FF08043D3F80C14D3F80C34F4
:104E700013F0010311D0EFF3118182F31288BFF315
:104E80006F8F0D4A136C03F0C00343F002031364E9
:104E900081F31188BFF36F8F012380F31188BFF373
:104EA0006F8F1BB110BC0020FFF7A6BF10BC012004
:104EB00001F0E6B8742100202421002010B101285F
:104EC00004D07047034B1B6C5B0701D1FFF794BF05
:104ED000704700BF24210020024AC3B21C2000FBFF
:104EE00003207047242100202DE9F0413849BFF309
:104EF0005B8F8046012251E8003F41E800200028F6
:104F0000F9D1BFF35B8F33B9324933484B60CB6083
:104F10008A6004F0C5FD08F1FF33012B56D8B8F1C3
:104F2000010F07D14FF08043D3F81C3403F0030383
:104F3000012B4BD005F051FC054610B9274B1B78CF
:104F40005BB9EFF31186202383F31288BFF36F8FD1
:104F50000125234F4FF0804423E04FF0804302228D
:104F6000C3F808230646F4E70021212005F0EBFCF6
:104F700007E0B8F1010F1ED0002DF5D0304604F047
:104F8000DEFFD4F8183563B9D4F804214AB1C4F867
:104F90000431D4F804310123C4F81835C7F880313E
:104FA000A360D4F81824D4F81834D203E4D503F05D
:104FB0000303012BDDD12DB94FF080430222C3F84A
:104FC000042303E086F31188BFF36F8FBDE8F081FF
:104FD0002021002010210020402100200224002058
:104FE00000E100E008B5074805F07AFA38B1064854
:104FF000FEF758F90448FBF76DFC002008BD6FF080
:105000001200FBE7E4AD00000D5000000A2838B59F
:10501000074D044604D1AB680D215B6828469847CC
:10502000AB6803485B68E1B29847204638BD00BFD3
:10503000E4AD000038B545682B69B3B1103528469A
:1050400001F056FB044680B90146284601F01CFBDE
:10505000084B98420BD108492246284601F0F4FA41
:10506000224605210620FDF7E3FE002038BD6FF043
:105070000400FBE70000AD0B0D5200002DE9F043EA
:10508000466840F20635D006337B87B002EA050554
:1050900054BFC2F34010032001F01F07B5F5837F12
:1050A000144647EA43178DF8030044D00DD8062D67
:1050B00016D005D8A5B1022D3FD06FF0150037E00E
:1050C000B5F5807FF9D101250AE040F20222954230
:1050D00035D0B5F5407F34D0B5F5007FEDD1022550
:1050E000220330D5726801238B40C2F8083532693B
:1050F000A2BB07F01F037F092DD0012F7CD1414AAD
:1051000002EB8302C4F30043D2F8001783F00103DB
:10511000C4F3404444EA430421F4E16144EA8004D6
:1051200021F0070144EA05230B43C2F800370020B1
:1051300007B0BDE8F0830725D2E70425D0E70525B1
:10514000CEE70325CCE7630341BF012372688B40A0
:10515000C2F80C35CBE74FF0A042D1E710360DF185
:1051600002023946304601F075FA14F4403F804699
:105170000CD13946304605F077F9234B9845D6D106
:105180009DF80210304601F0BDFAD0E701AB4FF0B8
:10519000000903AA39463046CDE90439CDE9019921
:1051A000CDF80C9001F01CF9174B984285D114F4FE
:1051B000003316D09DF803308DF80E30C4F3004450
:1051C00084F001044B4603AA394630468DF80C5052
:1051D0008DF80D4001F0BAF90B4B98427FF46DAF9A
:1051E000CBE7CDE9043303AA0DF10303394630467A
:1051F000039301F0F5F8EFE703F5E07352F823307D
:10520000FFDE00BF000300500000AD0B420970B587
:10521000034602D0012A17D070BD0D4E3269516885
:105220000029F9D003F01F0301250C689D400029D7
:10523000F2D08A682A4002D04B68304698472CB199
:10524000236821461C46F2E7024EE7E72346F8E7CB
:10525000BCAD0000A8AD0000F0B54068057B01F0D2
:105260001F0444EA4514056987B0002D64D0B2F5E7
:10527000001F00F1100506D12146284605F0F6F87A
:10528000002007B0F0BD01AE0027B2F5800F0197F6
:10529000776039D1B3F1007F14BF052304238DF863
:1052A00004300023CDE904630393836823FA01F1FA
:1052B00011F001011AD1B2F1A07F17D104F01F0340
:1052C000620903F5E0732AD0012A3BD11F4A52F844
:1052D0002330DB070AD40DF1030632462146284667
:1052E00001F0B8F91A4B98421CD0029603AA214645
:1052F000284601F075F8174B984220D1012221462B
:10530000284601F00BFABBE7B3F1C06F05D0B3F14B
:10531000007F14BF01230223C1E70323BFE74FF03F
:10532000A042D4E73146284601F0F2F9094B9842F1
:10533000DBD06FF00B00A4E76FF08500A1E76FF002
:1053400015009EE751F82330FFDE00BF0003005038
:105350000400AD0B0000AD0B036803F01F025B09F6
:10536000026004D0012B034818BF002070474FF0A3
:10537000A0407047000300502DE9F04FDFF86C812A
:1053800085B01546824600EB81010127514503D1C6
:10539000002005B0BDE8F08FDAF80030C3F3C72B6A
:1053A0001BF0080BC3F3C322C3F3080440F097803B
:1053B00018F802601B0E40F2FF12944208BF4FF033
:1053C000FF34222B00F28E80DFE803F012222764E4
:1053D0002A5F648C8C8C8C67728C8C8C8C8C8C8C03
:1053E0008C8C8C8C8C8C8C8C8C757A7D80838600DC
:1053F000C5F80C45601C45D003A80394FFF7ACFF2B
:10540000039B07FA03F3C0F808354FF0010916E0D3
:10541000C5F814454FF0000946E0C5F80845E9E72E
:10542000C5F808454FF00009631C2BD003A803946E
:10543000FFF792FF039B07FA03F3C0F80C35012234
:10544000DAF80030019303F40040002803A80CBFF1
:1054500093464FF001090394FFF77EFF039A019BE7
:1054600000EB8200C3F341243302D0F8002743EA63
:1054700084031F4C43EA0B031440234343EA4903CC
:10548000C0F800370AF1040A80E7C5F80C454FF070
:105490000109C9E7C5F81045BCE7C5F80845002E65
:1054A000B8D14FF000090626621CEBD00022C7E7F6
:1054B000C5F80C45F3E7C5F824454FF00109F3E7BB
:1054C000C5F8284596E7C5F83045F6E7C5F83445F0
:1054D000F3E7C5F83845F0E7C5F83C458AE76FF0D3
:1054E000150056E76FF0850053E700BF84C1000048
:1054F000F0F8FCFF074BD3F8082142B10020C3F8B5
:105500000801D3F80821D3F818350B7070474FF015
:10551000FF30704700200040024BD3F88004C3F8EE
:105520008004704700200040F8B50E4605F055F99C
:105530001A4D78BB64240127BFF35B8F55E8003F09
:10554000002B03D145E80072002AF7D1BFF35B8F2F
:1055500007D021200021013C05F0F5F914F0FF04EB
:10556000EAD10F4C0023C4F81C31D4F81C310123BC
:10557000A360C4F81C6542F21076D4F81C3123B93C
:10558000012004F0E6FE013EF7D10123E360002391
:105590002B60F8BD01232B60E3E700BF90210020C2
:1055A00000200040F7B55C4A436805690024C2F852
:1055B00000451F68064601AA2146384604F042FE0F
:1055C00000280FDB019B3A6819791868FFF7D4FEB1
:1055D000002807DB6B793669012B06D0032B03D03B
:1055E0006FF0850003B0F0BD1024AB79032BF7D129
:1055F000EB79002BF4D1297911B10229F0D10E21D8
:105600002B68B3F5164F68D02BD8B3F5165F66D06C
:1056100014D8B3F5966F64D008D8B3F5967F63D0ED
:10562000B3F5167FDCD14FF41C3341E0B3F5166FB0
:105630005DD0B3F5965FD3D1384B39E0B3F5E14F88
:1056400058D007D8B3F5615F56D0B3F5964FC7D1A0
:10565000334B2DE047F612229342C1D14FF40003A1
:1056600026E0B3F5613F4AD011D8B3F5963F48D054
:1056700008D84DF6C022934245D0B3F5614FAFD163
:10568000284B15E0B3F5E13FAAD1274B10E0B3F565
:10569000612F3BD007D8254A934239D0B3F5E12F8B
:1056A0009ED1234B04E0234A934299D14FF080537B
:1056B000194A0C43C2F82435C2F86C4595E803003A
:1056C00086E8030004230020C2F80035C2F8080170
:1056D000D2F808310123136084E7174BE8E7174B32
:1056E000E6E74FF49E23E3E74FF4A033E0E74FF4FF
:1056F0001D23DDE7124BDBE74FF46C13D8E7114BAA
:10570000D6E7114BD4E74FF46503D1E70F4BCFE752
:105710004FF08063CCE700BF0020004000B01300D2
:1057200000A04E0000F0EB0000E0D70190D0030095
:1057300000705F0740420F0000509D00005027009E
:1057400000F0750000B0AF0300903A0100D0BE0E2B
:105750002DE9F041044647680D4605F03EF84FF04C
:105760002008B0B9264B1B789BB16426606804F012
:1057700096FDF0B9012004F0ECFD013EF6D10021C8
:10578000212005F0E0F8F0E786F31188BFF36F8F72
:10579000F5E7EFF31186314688F31288BFF36F8F78
:1057A000606804F07CFD80B986F31188BFF36F8FC9
:1057B000EFE7EFF31186314688F31288BFF36F8F5E
:1057C000606804F06CFD0028DED0BB691D70636862
:1057D000BA691B680020C3F844250122C3F8482594
:1057E000C3F82001D3F82041C3F85801D3F8580179
:1057F0009A6081F31188BFF36F8FBDE8F08100BF1D
:1058000002240020F7B50646002201212820FDF7DA
:105810000FFB2820FDF7DCFA726811681369C1F8E4
:105820002435137D507D927D03431343C1F86C35BD
:105830007768D7E9004313F001051DD0356905F1FC
:10584000080004F092FD2E4B984208D02D482E4AB5
:10585000012104F068FA6FF0040003B0F0BD287A6B
:1058600004F10C0204F5907104F075FD287A01250D
:1058700005FA00F000F086FB0823C4F80035BB6988
:10588000C4F8443501220023C4F84835A2606DB93C
:10589000D4F82021002AFBD0C4F82031D4F82031DC
:1058A0000123E3604FF48073C4F80433D4F8583113
:1058B000002BFBD00021C4F800157368DC6801AA36
:1058C000204604F0BFFC002805DB019B2268197903
:1058D0001868FFF751FD726813680821C3F80015B6
:1058E000117A51B9D269C3F834250122C3F8382599
:1058F000C3F81011D3F810111A600020ADE700BFF3
:105900000000AD0B28B0000022C0000070B50123DC
:1059100083400F4ABFF35B8FDC4352E8001F01EA6C
:10592000040542E80056002EF7D1BFF35B8F4FF419
:10593000803282400748C0F80823BFF35F8FBFF36F
:105940006F8F03EA0100003818BF012070BD00BF4F
:10595000A42100200010014070B40E49D1E90034A8
:10596000D01AC31844F1000422F07F46C1E9003484
:10597000A6F50013B3F5400F09D2074B1B681A0AAE
:105980001B069C19054B42F10005C3E9004570BC9C
:1059900002F086BAD80C0020A8210020E00C0020DC
:1059A00011B3BFF35B8F0123104A834052E800CF4D
:1059B0004CEA030C42E800C10029F7D1BFF35B8F2A
:1059C0000B4A4FF480338340C2F80433094BBFF3D2
:1059D0005B8F1B68BFF35B8FC340DB0742BF064B87
:1059E0004FF40032C3F80021704700BFA42100200B
:1059F00000100140A021002000E100E00D4B1868DC
:105A0000010A0006BFF35F8F0B4BD3F8043518185B
:105A100041F10001B3F5801F0AD2084BD3E90023FE
:105A2000904271EB030303D210F1807041F1000149
:105A3000704700BFA821002000100140E00C0020AA
:105A40002DE9F04F85B016461F469DF840A004464C
:105A5000FFF75CFF0190FFF7D1FFB04271EB070346
:105A60005ED23E4B301A67EB0101984271F10001A2
:105A700009D36FF0150520460199FFF791FF2846DD
:105A800005B0BDE8F08F364B03EB0413D3E90223D6
:105A90009F4208BF964254D032494FF4803804F1F7
:105AA000500508FA04F8AD00C1F848832046ADB2AD
:105AB00004F026FC26F07F4B05F1804504F5A87321
:105AC00005F58835DC464FF003090293029A2CF065
:105AD0007F4341F82230C1F84483D1F80435224A8B
