:020000022000DC
:1060000000000420459C0200859C0200879C020041
:10601000899C02008B9C02008D9C02000000000005
:10602000000000000000000000000000C19B020012
:10603000919C020000000000E19B0200959C020080
:106040008DF60200979C02004D790200E56F020078
:10605000979C0200979C020009F60200979C0200A0
:10606000979C0200979C0200979C0200979C02005C
:10607000979C0200979C0200979C0200979C02004C
:10608000979C02001D990200979C0200979C0200B9
:10609000979C0200979C0200979C0200979C02002C
:1060A000979C0200979C0200979C0200979C02001C
:1060B000979C0200979C0200000000000000000076
:1060C000979C0200979C0200979C0200E9FA02004C
:1060D000979C0200979C0200979C02004DA9020029
:1060E000979C0200979C0200979C02000000000011
:1060F00000000000979C02000000000069FB020005
:10610000000000000000000000000000000000008F
:10611000000000000000000000000000000000007F
:10612000000000000000000000000000000000006F
:10613000000000000000000000000000000000005F
:10614000000000000000000000000000000000004F
:10615000000000000000000000000000000000003F
:10616000000000000000000000000000000000002F
:10617000000000000000000000000000000000001F
:10618000000000000000000000000000000000000F
:1061900000000000000000000000000000000000FF
:1061A00000000000000000000000000000000000EF
:1061B00000000000000000000000000000000000DF
:1061C00000000000000000000000000000000000CF
:1061D00000000000000000000000000000000000BF
:1061E00000000000000000000000000000000000AF
:1061F000000000000000000000000000000000009F
:10620000F1EE103A43F08073E1EE103A704700BFB0
:106210000348044B834202D0034B03B11847704735
:10622000EC610020EC610020000000000548064BF6
:106230001B1AD90F01EBA301491002D0034B03B184
:1062400018477047EC610020EC610020000000005E
:1062500010B5064C237843B9FFF7DAFF044B13B1AE
:106260000448AFF300800123237010BDEC610020CF
:10627000000000007C3B030008B5054B1BB105493D
:106280000548AFF30080BDE80840FFF7CFBF00BF6F
:1062900000000000F06100207C3B0300A3F5803A81
:1062A000704700BF174B002B08BF134B9D46FFF7ED
:1062B000F5FF00218B460F461348144A121A0AF0C4
:1062C000B8FC0E4B002B00D098470D4B002B00D094
:1062D00098470020002104000D000D48002802D03E
:1062E0000C48AFF300800AF007FD2000290003F0FE
:1062F000F1FC09F045FE00BF0000080000000000AE
:106300000000000000000420EC610020D085002087
:106310000000000000000000072870B58CBF1325A6
:10632000122504460E4688BFA0F108044FF0200154
:106330001A4888BFE4B200F0E7FD2946174800F08C
:10634000B3FC164800F04AFE14480122202100F058
:10635000D5FD124800F0A4FCD0B9FF200123A340D2
:106360009EB140EA0304E4B20C48202100F0CCFDC9
:1063700029460A4800F098FC2146084800F094FCA1
:10638000BDE87040054800F029BE20EA0304EBE7B1
:10639000024800F09DFCC0B2E0E700BF08620020A8
:1063A0002DE9F04FB249B34885B000F021FFB24962
:1063B000B04800F01DFFB148202100F0A5FD1221DA
:1063C000AE4800F071FCAD4800F008FEAB48012279
:1063D000202100F093FDA94800F062FC002840F065
:1063E0000181A648202100F08FFD1321A34800F071
:1063F0005BFCA24800F0F2FDA0480122202100F041
:106400007DFD9E4800F04CFC002840F0C0809C4977
:10641000984800F09FFE08231021CDE902314FF08B
:10642000FF344FF0FF08022340264FF0200A0427D4
:1064300001934FF0010BA1464546102241468D487D
:1064400000F06AFF8F498B4800F084FE8B482021C2
:1064500000F05AFD1221894800F026FC874800F020
:10646000BDFD86480122202100F048FD834800F050
:1064700017FC002800F0A680804800F029FCC00727
:1064800000F1A08080497B4800F064FE7F49794894
:1064900000F0AEFE7E49774800F05CFE0F2D40F222
:1064A000DB8010222946734800F036FF7949714895
:1064B00000F09EFE77496F4800F09AFE76496D48DD
:1064C00000F096FE75496B4800F044FEB9F1000FEC
:1064D000B4BF73497349674800F08AFE7249654842
:1064E00000F038FE002E73D06D49624800F080FE47
:1064F0006E49604800F02EFEBAF1000F66D0684980
:106500005C4800F075FE6A495A4800F023FE039B80
:10651000002B65D06249574800F06AFE654955482E
:1065200000F018FE029B002B58D05D49514800F046
:106530005FFE61494F4800F00DFE002F4CD05849D6
:106540004C4800F055FE5D494A4800F003FE019BAF
:10655000002B3FD05249474800F04AFE5849454871
:1065600000F0F8FDBBF1000F2ED04D49414800F07E
:106570003FFE54493F4800F0EDFD002CB4BF4849B0
:1065800048493C4805B0BDE8F04F00F031BE3B48FB
:1065900000F09EFB3A490446364800F0DBFD082334
:1065A0001022CDE902320223E5B204F0010B4026AD
:1065B00064B24FF0200A042701934FF0FF394FF0E7
:1065C000FF083AE740495EE73649CFE7354997E7A4
:1065D00034498AE73349BEE73249B1E73149A5E793
:1065E000304998E7254800F073FB20218146234875
:1065F00000F08AFC1321214800F056FB1F4800F0F0
:10660000EDFC012220211D4800F078FC1B485FFAB8
:1066100089F800F045FB08F00803029308F0020334
:106620004FFA89F908F004070193D0B1134800F03C
:106630004FFBC5B200F0010B44B211490D4800F008
:1066400089FDB8F10F0F43D800262049094800F012
:1066500081FDB2460396F0E61C49064800F07AFD3B
:106660001FE74FF0FF344FF0010BFF25E5E700BFB8
:10667000DC33030044640020083403000862002077
:106680001C3403002C340300D833030034340300DB
:1066900038340300F034030044340300543403005E
:1066A000B4350300C4350300683403007C340300B0
:1066B00090340300A4340300B8340300CC34030046
:1066C000E0340300F4340300D03303002834030023
:1066D00008F0100308F0400608F0200A0393ACE627
:1066E00010B510226F480F2101F024F94FF4E13169
:1066F0006C4800F02BFF642001F090F94FF47A70A1
:1067000001F08CF9674800F053FD6749654800F0D7
:106710006FFD6649634800F01DFD6549614800F062
:1067200067FD61495F4800F063FD0E220D2161485D
:1067300000F0DAFB5F4800F05BFB5F495D4800F06A
:10674000B5FB5E49574800F053FD5A48202100F040
:10675000DBFB0021574800F0A7FA5648012100F062
:10676000A3FA544800F03AFCC0B155494D4800F036
:10677000F1FC54494B4800F0EDFC5349494800F006
:10678000E9FC5249474800F033FD5149454800F0C3
:106790002FFD4FF47A7001F041F9FAE70446202109
:1067A000444800F0B1FB0121424800F07DFA414825
:1067B000214600F079FA3F4800F010FC0028D4D1BF
:1067C0003C48202100F0A0FB0C213A4800F06CFA74
:1067D0000121384800F068FA364800F0FFFB044613
:1067E0000028C2D13348202100F08EFB122131480D
:1067F00000F05AFA21462F4800F056FA2D4800F0D2
:10680000EDFB04460028B0D12A48202100F07CFB93
:106810001321284800F048FA2648214600F044FA9F
:10682000244800F0DBFB00289FD125491D4800F0DB
:1068300091FC24491B4800F08DFC2349194800F0C5
:1068400089FC2449174800F0D3FCFFF7A9FD224931
:10685000144800F0CDFC2149124800F0C9FC204941
:10686000104800F0C5FC1F490E4800F0C1FC1E494D
:106870000C4800F0BDFC1D490A4800F0B9FC1C4959
:10688000084800F0B5FC1B49064800F0B1FC1A4965
:10689000044800F0ADFCBDE810400F49014800F08D
:1068A000A7BC00BF44640020DC33030004350300B0
:1068B0000C35030008620020A0860100203503008B
:1068C0003C35030040350300083503005435030010
:1068D0005C35030050350300F0340300343303000B
:1068E0004033030054330300683303007C33030058
:1068F00090330300A8330300C033030010B5C84829
:1069000000F0A8FD002804DCBDE810400A2001F0DA
:1069100085B8C34800F0A6FDC0B231384228F3D88C
:1069200001A353F820F000BF9F6B02000969020029
:106930000969020009690200096902000969020087
:106940000969020009690200096902000969020077
:106950000969020009690200096902000969020067
:106960000969020009690200596B0200196B0200F3
:106970000969020009690200096902000969020047
:1069800009690200BF6A0200096902000969020080
:1069900009690200816A02000969020009690200AE
:1069A0003B6A0200096902000969020009690200E4
:1069B000356A0200096902000969020009690200DA
:1069C00009690200096902000969020009690200F7
:1069D00009690200096902000969020009690200E7
:1069E0000969020009690200596B0200196B020073
:1069F00009690200096902000969020009690200C7
:106A000009690200BF6A02000969020009690200FF
:106A100009690200816A020009690200096902002D
:106A20003B6A020009690200096902000969020063
:106A3000356A0200FFF7B4FC66E77A48202100F0CF
:106A400063FA1221774800F02FF90021754800F011
:106A50002BF9744800F0C2FA7248202100F054FA71
:106A60001321704800F020F900216E4800F01CF955
:106A70006C4800F0B3FA6C49694800F0B9FB43E791
:106A80006848202100F040FA1321664800F00CF914
:106A9000644800F0A3FA63480122202100F02EFA96
:106AA000604800F0FDF8002840F0A88001460F2063
:106AB000FFF732FC5D495A4800F04CFB4AE05C4964
:106AC000574800F095FB5B49554800F091FB5A4947
:106AD000534800F08DFB5949514800F089FB584953
:106AE0004F4800F085FB57494D4800F081FB56495F
:106AF0004B4800F07DFB5549494800F079FB54496B
:106B0000474800F075FB4A49454800F071FBBDE875
:106B100010400A2000F082BF4248202100F0F4F922
:106B20001321404800F0C0F83E4800F057FA2021F9
:106B300001223C4800F0E2F93A4800F0B1F8014681
:106B4000002840F091800820FFF7E6FB41493448D7
:106B500000F000FB4049D7E73248202100F0D4F98B
:106B60001221304800F0A0F8FE212E4800F09CF8D9
:106B70002C4800F033FA2B48202100F0C5F91321EE
:106B8000284800F091F88121264800F08DF825482A
:106B900000F024FA3149224800F02AFBB4E62148EB
:106BA000202100F0B1F912211E4800F07DF81D48A7
:106BB00000F014FA1B480122202100F09FF9194827
:106BC00000F06EF840B901460720FFF7A5FB244905
:106BD000134800F0BFFABDE7124800F079F8C0F39F
:106BE000C01484F001010720FFF796FB1C490C48F4
:106BF00000F0B0FA002CADD11A4985E7094800F041
:106C000067F8C0F3C01484F001010F20FFF784FB84
:106C10000649034800F09EFA002CEDD09AE700BF29
:106C20004464002008620020B83503009435030056
:106C3000F0340300343303004033030054330300C3
:106C4000683303007C33030090330300A833030050
:106C5000C03303009C350300C4350300A83503008E
:106C600088350300B4350300084800F031F800F01F
:106C7000010484F001010820FFF74EFB0449054898
:106C800000F068FA002CB7D064E700BF086200206B
:106C90009C3503004464002000207047704700BF0B
:106CA000203000F06FBB00BF38B5437F0BB9002028
:106CB00038BD00F5947420460D4600F073FB0028A3
:106CC000F5D12046294600F03BFB012038BD00BF2E
:106CD000203000F049BB00BF203000F05BBB00BF9C
:106CE0002DE9F843054600F1200948468846174635
:106CF0001E4600F035FB2C690123C4F88885236209
:106D0000C4F83495C4F838752360D4F84C213AB3EC
:106D10000023C4F84C31D4F85C21E2B10023C4F85C
:106D20005C3116B9D4F82431FBB101236361D4F886
:106D30000431002BFBD00023C4F80431D4F82431F3
:106D400013B10023C4F82431D4F83C05C5F8200160
:106D5000C0B2BDE8F883D4F82421002ADBD0DDE7F7
:106D6000D4F82421002AD0D0D2E70123E361D4F85B
:106D70004831002BFBD00023C4F84831DEE700BFC8
:106D80002DE9F04F83B001926AB34C1EDFF85C80AE
:106D9000054604EB020AC1F1010600F594792B685F
:106DA0001B68434506EB040714F801BF15D16B7F40
:106DB00048461BB9384603B0BDE8F08F00F0F2FA40
:106DC0000028F7D15946484600F0BAFA5445E6D1B2
:106DD000019F384603B0BDE8F08F594628469847D2
:106DE0000028F3D1E6E71746E4E700BFA96C0200EC
:106DF00010B4837E1F2B4FF0010288BF03F01F03E6
:106E0000C27603F5E0738CBF254A4FF0A04240F2F2
:106E10000C6142F82310437E02691F2B86BF03F0EA
:106E20001F031F494FF0A04103F5E07340F20C64CB
:106E300041F823404FF0CC710623C2F82415C2F864
:106E40000035837EC2F8083590F91830417EC2F8CB
:106E50000C15002B1CDB03F01F0401215A09A14073
:106E6000104C6032234444F82210602283F800233F
:106E700090F91830002B08DB0A495809012203F069
:106E80001F0302FA03F341F820305DF8044B70470A
:106E9000054A03F00F031A4460231376E8E700BFA6
:106EA0000003005000E100E0FCEC00E0C37E9BB179
:106EB0000B4A036991424FF00000C3F800050CD95A
:106EC000084A91428CBF4FF0C8614FF080610622A2
:106ED000C3F82415C3F8002570474FF0CC71F6E7CE
:106EE000A086010090D00300034B53F82110417697
:106EF00053F8223083767047343603000AB91046BF
:106F000070470123FFF7ECBE10B5044680F830123D
:106F100000F5947000F024FA0123637710BD00BFE0
:106F2000F8B503690446002290F83002627704F550
:106F300094760127C3F88805C3F8042130461F6200
:106F4000C3F844650D4600F01DFA2269C2F84805F1
:106F50009760D2F850318BB30023C2F850313046DD
:106F600000F010FA236900BB0022C3F8602115B9B4
:106F7000D3F824213AB301225A61D3F80421002A1C
:106F8000FBD00022C3F80421D3F8240160B1002211
:106F9000C3F82421D3F8C404C3F8C404022803D0DE
:106FA000042814BF04200320F8BDD3F86021002A70
:106FB000DAD1D3F82421002AF7D0D5E7D2F824314A
:106FC000002BC6D0C8E70122DA61D3F84821002A95
:106FD000FBD00022C3F84821D6E700BF0121FFF70C
:106FE0009FBF00BF70B52B4C6369D3F86421002AA2
:106FF0003DD1D3F86821FAB9D3F8042122B1227F18
:107000000021C3F8041162B9D3F8242142B100224F
:10701000C3F82421D3F8D014C3F8D01401225A6144
:1070200070BDD4F83822D3F83C05C4F82001002AFA
:10703000EAD090476369E7E700214FF48072C3F814
:1070400068111548A28300F08BF9D4F8343203B1EB
:10705000984762691048C2F844050023637700F03E
:1070600091F963690122C3F848055A63C4E7002215
:1070700004F12006C3F8642101253046257700F08D
:107080006FF963694FF48072C3F83465C3F838252B
:107090001D63AEE70862002030630020000000009E
:1070A00038B5114C114B2046002540F8203B4FF4D9
:1070B0007A73C4E9015300F037F904F5947000F0D5
:1070C00033F907A1D1E90001C4E90401084B657750
:1070D000D3E9162303216276A376217638BD00BF5B
:1070E00000300040003000400862002018360300E5
:1070F0003436030008B50121032003F0C5F803204E
:1071000003F062F90121042003F0BEF8042003F02B
:107110005BF90121222003F0B7F8BDE80840012106
:10712000222003F035B900BFF8B517467AB10546FD
:107130000E46002402E00134A74208D02B6816F85E
:10714000011B1B68284698470028F4D1274638467B
:10715000F8BD00BF2DE9F0410D46D9B106680746DC
:10716000084609F053FE7468104B9C42804615D1C6
:1071700068B1002403E00134A04508D03E683368BC
:1071800015F8011B384698470028F4D1A046404620
:10719000BDE8F08188464046BDE8F08102462946B8
:1071A00038462346BDE8F041184700BF2971020068
:1071B00003680D4A70B55D6895420ED11B680D21BC
:1071C0000446984740B123680A211B682046984727
:1071D000002814BF0220012070BD2B460349BDE8E2
:1071E00070400222184700BF29710200C835030011
:1071F0002DE9F84306460F46002934D00468DFF82D
:107200008C906568084609F001FE4D4580462FD1F7
:10721000002836D0002502E00135A84508D02368B3
:1072200017F8011B30469847346823460028F3D1ED
:107230001C465B684B450ED123680D2130469847AC
:1072400030B133680A211B6830469847B8B102351F
:107250002846BDE8F8830C49022230469847054489
:107260002846BDE8F8830368DFF820900D46DFE785
:10727000024639463046A84733680546D8E7013507
:10728000E6E70546D8E700BFC835030029710200CC
:107290002DE9F0418AB00023012A05468DF82430FB
:1072A00098BF0A2209ACB1FBF2FC02FB1C10C3B26E
:1072B00009288E4603F130008ABF3733C3B2DBB2F0
:1072C000724504F8013D6146EDD92F68204609F06A
:1072D0009DFD7E680F4B9E42804612D168B100260C
:1072E00003E00136B04508D02F683B6814F8011B55
:1072F000284698470028F4D1B04640460AB0BDE879
:10730000F081024621462846B047804640460AB0F2
:10731000BDE8F0812971020012B903681B681847A3
:10732000D2B2FFF7B5BF00BF10B54FF48072002195
:10733000044609F07EFC0023C4E94033204610BD1A
:10734000D0F8002110B4531CD0F80441DBB29C42A9
:107350001CBF8154C0F800315DF8044B704700BF7A
:107360000023C0E940337047D0E940138B42024606
:1073700005D0C05C0133DBB2C2F8043170474FF076
:10738000FF307047D0E94030181A48BF00F58070D0
:10739000704700BFD0E94023934214BFC05C4FF058
:1073A000FF307047D0E940300133DBB2181AB0FA31
:1073B00080F04009704700BF90F82302704700BF7B
:1073C00038B590F91D32002B04460DDB5A092048D0
:1073D0000121203203F01F0301FA03F340F82230A9
:1073E000BFF34F8FBFF36F8F2369002101224FF44A
:1073F0008870C3F80803C3F84411C3F858115A60E1
:10740000DA6002E002F08AFD2369D3F85821002AED
:10741000F8D0D3F84421002AF4D04FF0FF320025F1
:10742000C3F8005504F11400C3F80C25C3F8142563
:10743000C3F80825C3F81025FFF792FFD4F82402FB
:1074400001F0D6F8C4F8245284F8235238BD00BFA6
:1074500000E100E01430FFF795BF00BF1430FFF7E4
:1074600099BF00BF1430FFF77FBF00BF08B5D0F849
:10747000240201F0B3F8003818BF0120000208BD53
:1074800090F8233203B9704710B54FF0FF3104462E
:10749000D0F8240200F032FF0023D4F824021A4668
:1074A000BDE81040194600F03DBB00BF10B50368B1
:1074B0000F4A5B6882B093428DF8071012D10446E0
:1074C0004FF0FF31D0F8240200F018FF01232269A9
:1074D0009DF8071084F81D111846C2F848359360CE
:1074E00002B010BD01220DF10701984702B010BD96
:1074F000F57402002DE9F04716461AB30746884690
:10750000002500F21D1A4FF00109741BB4F5807FAD
:1075100028BF4FF480744FF0FF31D7F8240200F0F9
:10752000EDFE08EB05012246504609F061FC2544BA
:107530003B69AE42C3F84845C3F80890E5D82846F1
:10754000BDE8F08715462846BDE8F087036870B5AA
:107550001B6A744DAB4240F0AE800A4690F823128D
:107560000446002940F09F80036990F81F02C3F889
:107570000C0594F81E02C3F8140594F822020128A1
:1075800000F09D80C3F86C15B2F5966F45D9B2F541
:10759000166F40F29F80B2F5965F40F29E80B2F582
:1075A000165F40F29C80B2F5615F40F29A80B2F5BE
:1075B000964F40F29880B2F5E14F40F2968047F640
:1075C00012218A4240F29380B2F5164F40F2928027
:1075D0004DF6C0218A4240F29080B2F5614F40F2F0
:1075E0008F80B2F5963F40F28E80B2F5E13F40F2D7
:1075F0008C80B2F5613F40F28B804B498A4240F269
:107600008D80B2F5E12F40F28680B2F5612F8CBFFC
:107610004FF080504FF0706001E04FF49E2094F9DD
:107620001D12C3F82405082504F21D10C3F80055E7
:10763000C3F844050020C3F8200104F58E70C3F898
:10764000340501224FF488700029C3F838251A60E8
:10765000C3F8040328DB354D480901F01F036030EF
:107660009A406B1845F82020602283F8002394F993
:107670001D32002B08DB2D495809012203F01F039E
:1076800002FA03F341F8203003220021012000F028
:1076900011FA00231A461946C4F8240200F042FAEF
:1076A000012384F8233270BD214A01F00F031A44EC
:1076B00060231376DBE7BDE870400022184794F89A
:1076C0002012C3F8101594F82112C3F80815C3F856
:1076D0006C0559E74FF41D20A1E716489FE71648AF
:1076E0009DE716489BE7164899E7164897E74FF439
:1076F000000094E74FF41D0091E74FF465008EE71A
:107700004FF46B008BE7104889E74FF0EB7086E78A
:107710004FF06C7083E74FF0E86080E74FF08060D7
:107720007DE700BF4D77020090D0030000E100E04C
:10773000FCEC00E000B013000050270000F03A001D
:1077400000A04E0000C0750000903A0138B590F8D6
:107750002332002B40F0A0800369044690F81F02FA
:10776000C3F80C0594F81E02C3F8140594F822021D
:10777000012800F09280C3F86C25B1F5966F45D9C9
:10778000B1F5166F40F29D80B1F5965F40F29C8096
:10779000B1F5165F40F29A80B1F5615F40F29880D2
:1077A000B1F5964F40F29680B1F5E14F40F29480EA
:1077B00047F61222914240F29180B1F5164F40F205
:1077C00090804DF6C022914240F28E80B1F5614F1B
:1077D00040F28D80B1F5963F40F28C80B1F5E13FEB
:1077E00040F28A80B1F5613F40F28980484A914277
:1077F00040F28B80B1F5E12F40F28480B1F5612F2A
:107800008CBF4FF080504FF0706001E04FF49E202D
:1078100094F91D12C3F82405082504F21D10C3F8BD
:107820000055C3F844050020C3F8200104F58E700C
:10783000C3F8340501224FF488700029C3F83825B5
:107840001A60C3F8040335DB324D480901F01F0309
:1078500060309A406B1845F82020602283F800239E
:1078600094F91D32002B08DB2A495809012203F044
:107870001F0302FA03F341F8203003220021012004
:1078800000F018F900231A461946C4F8240200F043
:1078900049F9012384F8233238BD94F82002C3F853
:1078A000100594F82102C3F8080542F00102C3F85C
:1078B0006C2562E7184A01F00F031A44602313761F
:1078C000CEE74FF41D20A3E71448A1E714489FE733
:1078D00014489DE714489BE7144899E74FF40000CB
:1078E00096E74FF41D0093E74FF4650090E74FF4DF
:1078F0006B008DE70E488BE74FF0EB7088E74FF099
:107900006C7085E74FF0E86082E74FF080607FE7BA
:1079100090D0030000E100E0FCEC00E000B01300B8
:107920000050270000F03A0000A04E0000C0750093
:1079300000903A01044B53F8211080F81E1253F8BE
:10794000223080F81F3270473436030010B5114CD6
:107950002369D3F810213AB10022C3F81021D3F8DB
:107960003C2572B901221A60D3F8202102B910BD5A
:107970000021D4F82402C3F82011BDE8104000F023
:1079800039BB94F81C1104F11400FFF7D9FC2369EA
:10799000E8E700BF4464002038B50E4C0E4B20468B
:1079A000002540F8143B4FF47A73C4E90153FFF704
:1079B000BBFC0A4B0A4AD3E90031022084F81E12AC
:1079C00084F81F32A4F8225284F81D022261C4F800
:1079D000245238BD44640020C83603003436030006
:1079E0000020004008B5094B1BB1094802F03AFEDF
:1079F00048B9084B1BB10848FFF7C4FC00B908BDE3
:107A0000AFF3008008BDAFF30080F2E70000000094
:107A1000707000200000000058640020014638B556
:107A20004FF47A7200238002890D08F0E1F80446D1
:107A300001F030F90546AFF3008001F02BF9431B4C
:107A40009C4200D838BD2C44201ABDE8384001F0D3
:107A50005BBA00BF38B51C469DF8105043B30029EF
:107A600008BF1A46D8631A601964012384F84630A7
:107A700001F03CFFD4E90F23216803FB02F2D31A83
:107A80000A44626000220B44A263FF2284F844206F
:107A9000C4E9021384F8452004F1100002F0AAFCA6
:107AA00004F1240002F0A6FC01F02AFF84F84C50F7
:107AB000204638BDF8B5074600FB01F050300D46B2
:107AC000164602F011FD044640B3002380F846300C
:107AD00035B300F150032360C4E90F7501F006FFD0
:107AE000D4E90F13226803FB01F1CB1A1144616042
:107AF00000211344A163FF2184F84410C4E9022348
:107B000084F8451004F1100002F074FC04F1240024
:107B100002F070FC01F0F4FE84F84C602046F8BDE1
:107B20000346D8E72DE9F047044684B09846019211
:107B3000894601F0DBFEA26BE36B9A427ED3B8F17B
:107B4000020F00F0F380A04E002204F12407019BF5
:107B5000002B00F0078102AD002A00F0E38001F065
:107B6000CFFE01F08FF801F0C1FE94F84430FF2BF6
:107B700004BF002384F8443094F84530FF2B04BF41
:107B8000002384F8453001F0BBFE01A9284601F02E
:107B9000BDFB002840F0EC8001F0A8FEA26BE36B77
:107BA0009A426CD001F0ACFE01F0A0FE94F84520A2
:107BB00055B2002D04DC11E06A1ED3B255B26BB190
:107BC000636A384653B101F047FB0028F4D001F056
:107BD000CDFB6A1ED3B255B2002BF1D1FF2384F83E
:107BE000453001F08DFE01F081FE94F8442055B23D
:107BF000002D14DD04F1100A03E06A1ED3B255B261
:107C00006BB12369504653B101F026FB0028F4D034
:107C100001F0ACFB6A1ED3B255B2002BF1D1FF23A9
:107C200084F8443001F06CFE01F0DCF801F05EFEF7
:107C3000A36BE16B99424FF0010288D9226CA56BCE
:107C4000002A77D0B8F1000F40F0FE804946A068C6
:107C500009F0CEF8A368216C62680B449342A360DC
:107C600005F101056AD3A563636A2268A260002B4F
:107C700068D101F045FE012004B0BDE8F08704F1B1
:107C8000100A01F03DFE0199504601F069FA01F039
:107C90002DFE94F845305DB2002D04DC11E06B1E22
:107CA000DAB25DB26AB1636A384653B101F0D4FA10
:107CB0000028F4D001F05AFB6B1EDAB25DB2002A44
:107CC000F1D1FF2384F8453001F01AFE01F00EFED9
:107CD00094F844305DB2002D04DC11E06B1EDAB282
:107CE0005DB26AB12369504653B101F0B5FA00287C
:107CF000F4D001F03BFB6B1EDAB25DB2002AF1D189
:107D0000FF2384F8443001F0FBFD01F06BF80028FC
:107D10008CD14FF08053736040BFBFF34F8FBFF3E0
:107D20006F8F83E7284601F0E5FA18E7226CA56B10
:107D3000002A65D126680135002E7AD0A563636AD2
:107D4000002B96D004F1240001F086FA002890D090
:107D50001D4B4FF080525A6040BFBFF34F8FBFF3AF
:107D60006F8F86E701F0CCFD002004B0BDE8F087FE
:107D700001F0BCFD94F845305DB2002D14DD04F136
:107D8000240603E06B1EDAB25DB26AB1636A304664
:107D900053B101F061FA0028F4D001F0E7FA6B1E4C
:107DA000DAB25DB2002AF1D1FF2384F8453001F048
:107DB000A7FD01F09BFD94F844305DB2002D17DD66
:107DC00004F1100606E000BF00ED00E06B1EDAB221
:107DD0005DB26AB12369304653B101F03DFA002823
:107DE000F4D001F0C3FA6B1EDAB25DB2002AF1D111
:107DF000FF2384F8443001F083FD00F0F3FFB3E784
:107E00004946E06808F0F4FF226CE36821689B1A99
:107E10008B42E360C2F1000202D263681344E36064
:107E2000002D8BD10123A363636A002B3FF421AFA4
:107E300088E7606801F00CFBA563626A6660002A4F
:107E400080D1002884D114E74946E06808F0D0FFCB
:107E5000226CE36851429B1A2268E360934209D383
:107E6000B8F1020FDCD00135A563636A002B3FF443
:107E700000AF67E763680B44E360F1E770B50C4659
:107E800079B30025012381F846302160C1E90F351F
:107E9000064601F02BFD216CE36B2268A26001FB1A
:107EA00003F3591A134463600A44FF23E260A56395
:107EB00004F1100084F8443084F8453002F09AFA56
:107EC00004F1240002F096FA01F01AFDC4E900550D
:107ED00084F84C60E5602B462A4629462046FFF789
:107EE00021FE204670BD00BF2DE9F041044682B05E
:107EF0009046EFF31187402080F31188A56BE06B6B
:107F000085421ED3022B05D0002087F3118802B0D2
:107F1000BDE8F08194F84550226CA66B6DB242BB6F
:107F200023680136002B47D06B1CA66334D0013583
:107F30006DB284F84550012087F3118802B0BDE886
:107F4000F08194F84550226CA66B6DB2002AE7D000
:107F5000002B38D1A06808F04BFFA368226C1344B3
:107F60006268A360934206F10106DDD32368A36033
:107F7000DAE7E06808F03CFF226CE36821689B1AAE
:107F80008B42E360C2F1000202D263681344E360F3
:107F9000012E38BF0126C7E7636A002BCBD004F15E
:107FA000240001F059F90028C5D0B8F1000FC2D063
:107FB0000123C8F80030BEE76068019301F048FA79
:107FC000019B6360B0E7E068019308F011FF216C4A
:107FD000E2682068019B521A8242E260C1F100010E
:107FE00003D3022BD4D001369EE762680A44E260D4
:107FF000F7E700BF10B582B0EFF31184402383F39D
:108000001188836BC26B9A420FD990F845200133D7
:10801000FF2A836353B20DD001335BB280F8453041
:10802000012084F3118802B010BD002084F3118870
:1080300002B010BD436A002BF2D02430019101F050
:108040000BF90028ECD001990029E9D001230B603D
:10805000E6E700BF2DE9F043044685B0884601926B
:1080600001F044FCA56B002D40F01E81019B002B0C
:1080700000F0CD8002A801F03DF92F4604F124065E
:1080800001F03EFC00F0FEFD01F030FC94F84430BD
:10809000FF2B08BF84F8447094F84530FF2B08BFCD
:1080A00084F8457001F02CFC01A902A801F02EF91A
:1080B00000285BD101F01AFCA36B002B40F0AD80CF
:1080C00004F1240901F01CFC0199484601F048F82C
:1080D00001F00CFC94F845305DB2002D04DC11E099
:1080E0006B1EDAB25DB26AB1636A484653B101F001
:1080F000B3F80028F4D001F039F96B1EDAB25DB2A2
:10810000002AF1D1FF2384F8453001F0F9FB01F09A
:10811000EDFB94F844305DB2002D14DD04F110093C
:1081200003E06B1EDAB25DB26AB12369484653B10F
:1081300001F092F80028F4D001F018F96B1EDAB2C1
:108140005DB2002AF1D1FF2384F8443001F0D8FB5E
:1081500000F048FE002851D1674B4FF080525A6022
:1081600040BFBFF34F8FBFF36F8F47E001F0BEFBFF
:1081700094F845305DB2002D04DC11E06B1EDAB2DC
:108180005DB26AB1636A304653B101F065F8002808
:10819000F4D001F0EBF86B1EDAB25DB2002AF1D137
:1081A000FF2384F8453001F0ABFB01F09FFB94F80E
:1081B00044305DB2002D14DD04F1100903E06B1EA4
:1081C000DAB25DB26AB12369484653B101F044F8AE
:1081D0000028F4D001F0CAF86B1EDAB25DB2002AB2
:1081E000F1D1FF2384F8443001F08AFB00F0FAFD5E
:1081F00001F07CFBA36B53B101F082FB01F076FB35
:10820000A56B002D50D1019B002B7FF439AF01F0FD
:1082100077FB002005B0BDE8F08301F071FB01F0B1
:1082200065FB94F845305DB2002D14DD04F124099E
:1082300003E06B1EDAB25DB26AB1636A484653B1BD
:1082400001F00AF80028F4D001F090F86B1EDAB2C1
:108250005DB2002AF1D1FF2384F8453001F050FBD4
:1082600001F044FB94F844305DB2002D14DD04F1BC
:10827000100903E06B1EDAB25DB26AB123694846A9
:1082800053B100F0E9FF0028F4D001F06FF86B1E45
:10829000DAB25DB2002AF1D1FF2384F8443001F054
:1082A0002FFB00F09FFDA9E7226C52B1E1686368E3
:1082B00011449942E16024BF2168E160404608F022
:1082C00097FD013DA56323692BB901F019FB01203E
:1082D00005B0BDE8F08304F1100000F0BDFF0028F8
:1082E000F3D0054B4FF080525A6040BFBFF34F8F21
:1082F000BFF36F8FE9E700BF00ED00E02DE9F04329
:10830000044685B0019101F0F1FAA56B002D40F013
:108310004281019B002B00F0818002A800F0EAFF5F
:108320002F46A84604F1240601F0EAFA00F0AAFC60
:1083300001F0DCFA94F84430FF2B08BF84F8448045
:1083400094F84530FF2B08BF84F8458001F0D8FA37
:1083500001A902A800F0DAFF002862D101F0C6FAF4
:10836000A36B002B40F0AC8001F0CAFA2368002B0D
:1083700000F0088104F124090199484600F0F0FE5C
:1083800001F0B4FA94F845305DB2002D04DC11E040
:108390006B1EDAB25DB26AB1636A484653B100F04F
:1083A0005BFF0028F4D000F0E1FF6B1EDAB25DB293
:1083B000002AF1D1FF2384F8453001F0A1FA01F041
:1083C00095FA94F844305DB2002D14DD04F11009E3
:1083D00003E06B1EDAB25DB26AB12369484653B15D
:1083E00000F03AFF0028F4D000F0C0FF6B1EDAB2B4
:1083F0005DB2002AF1D1FF2384F8443001F080FA05
:1084000000F0F0FC002800F0A58001F06FFAA56BE9
:10841000002D40F0C080019B002B85D101F070FA47
:108420004AE001F063FA94F845305DB2002D04DCB7
:1084300011E06B1EDAB25DB26AB1636A304653B1C5
:1084400000F00AFF0028F4D000F090FF6B1EDAB2B3
:108450005DB2002AF1D1FF2384F8453001F050FAD3
:1084600001F044FA94F844305DB2002D14DD04F1BB
:10847000100903E06B1EDAB25DB26AB123694846A7
:1084800053B100F0E9FE0028F4D000F06FFF6B1E3E
:10849000DAB25DB2002AF1D1FF2384F8443001F052
:1084A0002FFA00F09FFC01F021FAA36B002B4ED1B4
:1084B00001F026FA002F57D1002005B0BDE8F08367
:1084C00001F01EFA01F012FA94F845305DB2002D69
:1084D00014DD04F1240903E06B1EDAB25DB26AB167
:1084E000636A484653B100F0B7FE0028F4D000F0AC
:1084F0003DFF6B1EDAB25DB2002AF1D1FF2384F892
:10850000453001F0FDF901F0F1F994F844305DB225
:10851000002D14DD04F1100903E06B1EDAB25DB228
:108520006AB12369484653B100F096FE0028F4D0A2
:1085300000F01CFF6B1EDAB25DB2002AF1D1FF23FE
:1085400084F8443001F0DCF900F04CFC5DE701F008
:10855000D7F95AE7204B4FF080525A6040BFBFF323
:108560004F8FBFF36F8F50E701F0C0F9616A19B107
:10857000236B1968C1F10501606800F095FF01F0F7
:10858000BFF999E701F0B2F9606800F021FF0746F2
:1085900001F0B6F9EEE62368013DA563BBB123699E
:1085A0002BB901F0ADF9012005B0BDE8F08304F16D
:1085B000100000F051FE0028F3D0074B4FF080521E
:1085C0005A6040BFBFF34F8FBFF36F8FE9E700F0F2
:1085D000A1FF6060E3E700BF00ED00E010B50446D6
:1085E00001F084F9A46B01F08BF9204610BD00BFA7
:1085F0000D4B5A6890420AD0DA68904208BF0122B7
:1086000006D090F8463003B1704701F07FBF0022DA
:108610009FED037B03EBC20383ED007BF1E700BF1B
:10862000000000000000000070660020064B1A6881
:108630001AB19A6802B17047012203EBC20C43F8E9
:108640003210CCF80400F6E77066002070B50546DD
:108650000E46144601F04AF995F84430FF2B04BF4A
:10866000002385F8443095F84530FF2B04BF0023E4
:1086700085F8453001F044F9AB6B002B43D001F095
:1086800035F995F845305CB2002C14DD05F124066F
:1086900003E0631EDAB25CB26AB16B6A304653B172
:1086A00000F0DAFD0028F4D000F060FE631EDAB2BC
:1086B0005CB2002AF1D1FF2385F8453001F020F9A2
:1086C00001F014F995F844305CB2002C14DD05F18A
:1086D000100603E0631EDAB25CB26AB12B69304661
:1086E00053B100F0B9FD0028F4D000F03FFE631E46
:1086F000DAB25CB2002AF1D1FF2385F84430BDE83C
:10870000704001F0FDB82246314605F1240000F02A
:1087100063FDB4E72DE9F041044601F0E7F8324A81
:10872000324D1368013313602B68002B30D0304E6C
:10873000E06A33682BB32F4F2F4A30491368013357
:108740001360E3630B68834238BF086000EB80006E
:1087500007EB8000211D01F05DFE01F0D1F83368C8
:108760006BB12A68E36AD26A9A4208D2244B4FF06E
:1087700080525A6040BFBFF34F8FBFF36F8FBDE889
:10878000F0812B681B4FDB6A834298BF2C60D3E7D4
:108790002C601368012B03D0E06A164F144ECBE710
:1087A000144F3E4607F164083046143601F022FEAD
:1087B000B045F9D1DFF86480124E404601F01AFE50
:1087C000304601F017FE104801F014FE0F4801F08A
:1087D00011FE0F4801F00EFE0E4BE06AC3F8008058
:1087E0000D4B1E60024EA7E7A866002080670020A0
:1087F0009C6600201C6700208C660020A06600207C
:1088000000ED00E0F4660020D8660020C466002079
:10881000AC660020F0660020EC66002008670020AF
:108820002DE9F8430746DDE90904002C51D0002862
:108830004DD09500984602230E4684F851302A46C2
:108840002063A52108F0F5F9236B2A1F134423F0B8
:108850000709337884F83430B3B1737884F835304D
:1088600093B1B37884F8363073B1F37884F8373045
:1088700053B1337984F8383033B1737984F83930AF
:1088800013B1B37984F83A30089D042D28BF04252C
:108890000026E5626564201D84F83B60A66401F053
:1088A000B5FDC5F1050504F1180001F0AFFDE66462
:1088B00042463946A5612461646284F850604846A6
:1088C00000F0DCFF20602046FFF724FF2046BDE8D3
:1088D000F8832046BDE8F8832DE9F8439500074664
:1088E00028468946984601F0FFFD002864D00646D8
:1088F000542001F0F9FD044600285AD000230663F5
:108900002A46304684F85130A52108F092F9266BAA
:1089100099F8003084F83430043D2E4426F00706E0
:10892000E3B199F8013084F83530BBB199F80230E1
:1089300084F8363093B199F8033084F837306BB14E
:1089400099F8043084F8383043B199F8053084F848
:1089500039301BB199F8063084F83A30089D042D5F
:1089600028BF04254FF00009E5626564201D84F8E6
:108970003B90C4F8489001F049FDC5F1050504F1AC
:10898000180001F043FDC4F84C90A56124616462B5
:1089900084F8509042463946304600F06FFF099BFC
:1089A000206003B11C602046FFF7B4FE0120BDE843
:1089B000F883304601F0AAFD4FF0FF30BDE8F883A0
:1089C00070B504464D4E00F091FF002C77D0251D68
:1089D000284601F045FDA36A1BB104F1180001F01F
:1089E0003FFD29464648474D01F014FD94F85030AC
:1089F000012B04BF002384F8503000F081FF2B6866
:108A0000002B4DD13368A34200D070BD2B68002BE2
:108A10005CD13B493C4A09681268914260D03B4BAB
:108A20001B68002B5ED13A4A1360326833681268C3
:108A30001B6B9A425AD9374C374A206800EB8003A7
:108A40009B008100D358002B56D1431E03EB8301BA
:108A50008900555899009DB9831E03EB8301890055
:108A60005558990065B9C31E03EB83018900555819
:108A700099002DB9031F03EB830080009900105863
:108A8000194402EB8100024641684968416008329E
:108A9000914204BF49684160CA683260236070BD7A
:108AA00000F024FF1D4B1A68126852B11A681C4B63
:108AB000D268D26852681A6000F022FFA2E73468D8
:108AC00085E7174B4FF0FF321A60F5E7154B4FF073
:108AD00080525A6040BFBFF34F8FBFF36F8F70BD9E
:108AE000336070BD0A4B01221A6070BD3068316876
:108AF000343101F023FA9EE70346C1E78067002086
:108B0000AC6600209C660020A866002080660020DD
:108B100094660020A06600201C670020F0660020FC
:108B20008866002000ED00E080B170B51B4D2B6819
:108B30008342044609D000F0D9FE194B62699A427B
:108B400005D0BDE8704000F0DBBE70BD7047A36A81
:108B5000144A9342F5D0002BF3D1261D304601F084
:108B60007FFC114AE36A116810488B4288BF13608A
:108B700003EB830300EB8300314601F04BFC2B68D1
:108B8000E26ADB6A9A42DCD3094B4FF080525A60AA
:108B900040BFBFF34F8FBFF36F8FD2E780670020D6
:108BA000AC660020D8660020A06600201C6700206C
:108BB00000ED00E070B584B0002503AA02A901A869
:108BC000CDE9015501F0BEF9019C002C39D0029885
:108BD000002836D0039E206302239E403246A52102
:108BE00084F8513008F025F8206B204B6363043E75
:108BF0000644C4E91155201D84F8385084F83B50D0
:108C0000E56201F003FC04F1180001F0FFFB26F01F
:108C1000070605231649A3612A46E56424616462B8
:108C200084F85050304600F029FE20602046FFF7BF
:108C300071FD104B1C6000F0C7FD012806D004B088
:108C400070BD0C4B00221A6004B070BD402383F34A
:108C500011880949094A0A4B4FF0FF340C60106033
:108C60001D6004B0BDE8704000F01ABE49444C4598
:108C70008D8F020084660020886600209C6600209C
:108C8000A4660020024A136801331360704700BFD6
:108C900080660020014B1868704700BFA466002062
:108CA000024A136803441360704700BFA4660020A3
:108CB0002DE9F04F404B1B6883B0002B49D13F4B4F
:108CC0001E6801361E60002E52D03D4B01931B687A
:108CD000B34242D83B4F3B681D68002D66D0DFF899
:108CE000F890DFF8F880DFF8F8A0002525E001F023
:108CF000B7FBA36A04F118000BB101F0B1FBE36A02
:108D0000D9F8002003EB830093428446594608EBD0
:108D100080009ABF594608EB8C00C9F8003001F07A
:108D200079FBDAF80030E26ADB6A9A4228BF45F044
:108D300001053B681B68002B38D03B68DB68DC68AA
:108D4000636804F1040B9E425846D0D2019A136026
:108D500004E01D4A13680133136000251B4B1B6898
:108D6000002B0CBF284645F0010003B0BDE8F08F92
:108D7000144B174A186811681960164910600A6880
:108D800001320A601A6812683AB90D4B01931A460B
:108D90004FF0FF331360134699E71B68084ADB68FE
:108DA0000192DB685B681360134690E7019A4FF00D
:108DB000FF331360D2E700BF80660020A466002066
:108DC00088660020F06600209866002094660020E7
:108DD000EC66002090660020A06600201C67002042
:108DE000806700202DE9F84F00F080FD3B4B1A68AA
:108DF000013A1A601B68002B59D1394B1B68002BB4
:108E000055D0384D2B68002B64D0374EDFF8F080FA
:108E1000364FDFF8F0904FF0010AEB68DC6804F1A0
:108E2000040B04F1180001F01BFB584601F018FB7D
:108E3000E36A326803EB83009342594608EB8000F3
:108E400088BF336001F0E6FA3B68E26ADB6A9A4267
:108E500033D3C9F800A02B68002BDED1244B1A684D
:108E60001268002A31D01A68224BD268D268526840
:108E70001A60214E346844B10125FFF719FF08B18B
:108E8000C9F80050013CF8D13460D9F8003073B112
:108E90001A4B4FF080525A6040BFBFF34F8FBFF361
:108EA0006F8F012400F02CFD2046BDE8F88F0024D0
:108EB00000F026FD2046BDE8F88F2B68002BACD1D2
:108EC0000B4B1A681268002ACDD10A4B4FF0FF32C3
:108ED0001A60CEE7DFF82C90CBE700BF8066002059
:108EE000A8660020D8660020A066002080670020C9
:108EF000F0660020886600209866002000ED00E003
:108F00001C6700209466002070B548B9184B4FF0DC
:108F100080525A6040BFBFF34F8FBFF36F8F70BD59
:108F2000144A15491368154D013313600E68044641
:108F30002868043001F094FA2B68A4195C600FD201
:108F40000F4B18682968043101F072FA0D4B1A684A
:108F5000944238BF1C60FFF745FF0028D6D070BD93
:108F6000094B18682968043101F062FAF3E700BF81
:108F700000ED00E080660020A466002080670020ED
:108F8000F066002088660020EC6600202DE9F84F8E
:108F90003D4C3E4E3E4DDFF80C81DFF80CA1DFF872
:108FA0000C914FF0805B2368D3B100F09FFCF36815
:108FB000DF68381D01F054FA2B68013B2B602368F1
:108FC000013B236000F09CFC97F85130002B38D017
:108FD000012BE8D1384601F099FA2368002BE4D13F
:108FE000D8F80030012B07D92A4BC3F804B040BF92
:108FF000BFF34F8FBFF36F8F00F022FEDAF800301F
:1090000033BBD9F80030DB6A002BCCD1D8F8003064
:10901000012BC8D8204B214A1B6812689B1A012BD0
:10902000C1D91F4A136801331360DAF80030BBB1AD
:10903000D9F80030DB6A0BB9D8F80030FFF7D2FE60
:10904000B1E7386B01F062FA384601F05FFAAAE73F
:10905000D9F80030DB6A002BA5D1D8F80030A2E7A0
:10906000D9F80030DB6A002BE8D1D8F80030012BAA
:10907000E4D8094B1868094B1B68C01A0128DDD9D0
:1090800000F0AAFCDAE700BFC0660020C46600203A
:10909000A866002000ED00E088660020A46600209D
:1090A000806600201C670020A066002080670020EA
:1090B000264B1B681BB1264B01221A607047244ABD
:1090C00070B5244C13602268236812681B6B9A42A7
:1090D00033D9214D214A286800EB80039B00810091
:1090E000D35883BB431E03EB830189005658990074
:1090F0009EB9831E03EB830189005658990066B917
:10910000C31E03EB83018900565899002EB9031F33
:1091100003EB8300800099001058194402EB810092
:1091200002464168496841600832914204BF49687B
:109130004160CA6822602B6070BD206821683431AC
:1091400000F0FCFEC5E70346E7E700BF80660020AD
:109150009466002080670020A06600201C67002025
:1091600070B5174D2B680C4603F1180101F060F93A
:10917000144B1E682868043001F072F9631C17D084
:109180002B68A4195C6007D30F4B18682968BDE8E9
:109190007040043101F04CB90C4B18682968043157
:1091A00001F046F90A4B1A68944238BF1C6070BD42
:1091B00029680848BDE87040043101F02BB900BFB0
:1091C00080670020A4660020EC660020F066002086
:1091D00088660020AC66002070B5194D0C462968E1
:1091E0001646183101F016F9164B5EB11B68286857
:1091F000043001F035F929681348BDE870400431A6
:1092000001F008B91E682868043001F029F92B68BC
:10921000A4195C6007D30D4B18682968BDE870403D
:10922000043101F005B90A4B18682968043101F0CE
:10923000FFF8084B1A68944238BF1C6070BD00BF2D
:1092400080670020A4660020AC660020EC66002049
:10925000F06600208866002038B5C368DC6804F139
:109260001805284601F0FCF81A4B1B68002B2CD17E
:10927000251D284601F0F4F8174AE36A11681748DB
:109280008B4288BF136003EB8303294600EB830006
:1092900001F0C0F8124BE26A1B68DB6A9A4282BF97
:1092A000104B01201860104B1A68126898BF0020FC
:1092B00022B90E4B4FF0FF321A6038BD1A680B4BC3
:1092C000D268D26852681A6038BD0948294601F050
:1092D000A1F8DFE780660020A06600201C67002060
:1092E0008067002094660020F066002088660020D9
:1092F000D8660020034A044B12681B68C0E90023AB
:10930000704700BF90660020A4660020F8B50D46A7
:10931000044600F0EBFA2B68124A581C116819D069
:10932000DFF844C0D4E90060DCF80070BE4206D02B
:10933000884204D8012400F0E3FA2046F8BD0F1A51
:10934000BB420CD95B1ADCF80010126803442B6096
:10935000C4E90012002400F0D3FA2046F8BD00232F
:109360002B60E7E7A466002090660020014B0122F5
:109370001A60704794660020094B186818B9094BA9
:109380001B6813B1704700207047074A074B1068ED
:109390001B68013B98420CBF02200120704700BFB0
:1093A000D866002094660020AC660020A8660020E5
:1093B000054B1B6833B1054B1868B0FA80F04009C3
:1093C00040007047012070479C66002080660020A6
:1093D000F8B50446C8B11B4DC36A2A68D26A9342E5
:1093E00014D28269002A04DB2A68D26AC2F105021B
:1093F0008261154E626903EB830306EB83039A4295
:109400000CD02B68DB6AE3620120F8BD2B68406C4E
:10941000DB6A98422CBF00200120F8BD271D38468A
:1094200001F01EF82A68094BD06A1A68E06290427F
:1094300000D9186000EB8000394606EB800000F090
:10944000E9FFE1E7806700201C670020A06600209C
:1094500058B138B5C16A836C426C013B91420446F5
:10946000836400D01BB1002038BD00207047051D6B
:10947000284600F0F5FF636C094A0A48E362C3F12D
:109480000501A16111688B4288BF136003EB830360
:1094900000EB8300294600F0BDFF012038BD00BF6E
:1094A000A06600201C67002060B1426CC36A914234
:1094B00038BF11468B4270B5044602D0826C012A37
:1094C00001D070BD70478269104DC162002A03EB64
:1094D00083034269A8BFC1F1050105EB8303A8BF5F
:1094E00081619A42EDD1061D304600F0B9FF084B6C
:1094F000E06A1A68904288BF186000EB800031462D
:1095000005EB8000BDE8704000F084BF1C670020C0
:10951000A0660020044B1A681AB119688A6C0132DF
:109520008A641868704700BF80670020F0B51B4E42
:1095300085B00CE0DB68DC681F68251D284600F05C
:109540008FFF636A20469847E369012B09D033688F
:109550001A68002AEED1124A11683160136005B012
:10956000F0BDA3693B449F42294610D30D4D2B68A3
:10957000002BECD00023CDE900370294FFF718FF51
:10958000002328681A466946FEF7CCFADFE7306800
:109590006360246100F04CFFD9E700BFE46900205C
:1095A000E0690020DC6900202DE9F04F814F824DF9
:1095B000DFF81082814C8BB04FF080593A68166802
:1095C000002E40F09980FFF75DFBFFF763FB2A68F0
:1095D00090428346C0F09F80D8F80020286012682F
:1095E000B2FA82F252092068A6EB0B01FFF72EF8BF
:1095F000FFF7F8FB38B9724BC3F8049040BFBFF3D4
:109600004F8FBFF36F8F2068002202A9FEF722FD63
:109610000028D3D0029B0498002B66DB049E73695C
:1096200013B1301D00F01CFFFFF734FB2B6898428C
:10963000834677D3029BC5F800B0092BE3D801A27B
:1096400052F823F06D9602006D9602006D960200AE
:1096500007960200BB960200DB9602006D960200A0
:109660006D96020007960200BB960200039BB2694A
:10967000366199182CBF012000205945716054D8DB
:10968000ABEB03039A4222D8736A30469847F369DA
:10969000012BB8D12368002BB5D00023B269069303
:1096A000039B089613440793FFF782FE002320686C
:1096B0001A4606A9FEF736FAA5E7039BB36103EB4A
:1096C0000B025A457260366133D8002B9BD0D8F814
:1096D0000000311D00F0ACFE95E796F82C30002B11
:1096E00091D1304600F012FF8DE7039B0599984712
:1096F000029B002B87DB91E7D3681E68FFF7C2FA55
:10970000FFF7C8FA2A689042834604D3864228604D
:1097100014D9002267E7FFF709FFC5F800B0FFF78B
:1097200061FB70E7FFF702FF84E75B4501D9002882
:10973000AAD03868311D00F07BFE64E7FFF752FBCA
:109740003A68D268D2F80CA00AF1040108460191E7
:1097500000F086FEDAF81C200199012A04D0DAF81C
:109760002430504698474EE7DAF81820CAF810A07F
:10977000B0188345CAF8040003D2386800F058FED8
:10978000EDE7ABEB060B5A450FD82268002AE6D06E
:10979000CDE9076A00260696FFF70AFE20683346E1
:1097A000324606A9FEF7BEF9D9E7D8F8000000F066
:1097B0003FFED4E7E4690020D4690020DC69002082
:1097C00000ED00E0E0690020F0B51F4C89B000F02A
:1097D0008DF82568F5B100F093F82068C0B1002439
:1097E00007AA06A905A8CDE9054400F0B9FBDDE903
:1097F00005020223CDE9012000931449079A144879
:109800002346FFF70DF8134B1860001B18BF01200B
:1098100009B0F0BD104F114E384600F0EBFD304658
:1098200000F0E8FD0E4A009517600E4A0E4B1660D8
:1098300010210E4A2020FEF70DF920600028CAD022
:109840000B49FEF7F3FEC6E7DC690020D4350300C0
:10985000A9950200D8690020FC690020E869002071
:10986000E4690020E069002084670020D4670020BC
:10987000CC350300402383F31188FEE710B44FF08A
:109880008073064C40F8043C6FF0020340E903414A
:1098900040E909325DF8044B44387047759802007E
:1098A0000F4C08B5E02384F8223000F079F80D4B16
:1098B00000221A60D4F888300B4A43F47003C4F8CD
:1098C0008830536B43F040435363236943F01003E4
:1098D000236100F063F9402383F31188FEE700BFA2
:1098E00000ED00E0106A002000EF00E0402383F369
:1098F0001188024A1368013313607047106A002010
:10990000034A1368013B13600BB983F31188704756
:10991000106A002041DF704712DF704770B51E4BA0
:10992000002282B0C3F84021D3F84011019101997F
:10993000EFF31186402181F31188D3F80445C3F871
:109940000021D3F800310093009BFFF7A3F9201A00
:1099500020F07F4323F0010320F07F459BB96C1E6C
:109960006DB10025FFF7A4F923460543013C002B08
:10997000F8D125B1094B4FF080525A6040BF86F3B1
:10998000118802B070BDFFF713FD0228E7D0FFF782
:109990008FF90546EDE700BF0010014000ED00E043
:1099A0000B4B0C4910B401221F24C3F808450220B8
:1099B000C3F804239A601A60E022C3F8440381F8D4
:1099C00011234FF400330B605DF8044B704700BF68
:1099D0000010014000E100E02DE9F041064684B0AE
:1099E000EFF3108272B6654DAB6883B9644B65487E
:1099F0000121A960D3F8801001402960C3F88000DC
:109A0000D3F8841069604FF0FF31C3F8841002B9B5
:109A100062B65D4CD4F80475FFF7AEFC88B35B4BBF
:109A2000B34228BF33469846FB1823F07F430122F8
:109A30000021C4F80823C4F84035C4F84011D4F814
:109A400040310193019B4FF48033C4F80433BFF3DA
:109A50004F8F3EBBC4F80833C4F84061D4F840319E
:109A60000393039BC4F80061D4F800310293444B84
:109A70000299C4F804234FF40031D4F80425C3F844
:109A80008011AB685BB1EFF3108272B63C4B296872
:109A90001960686858600021A96002B962B604B014
:109AA000BDE8F081F1EE103A23F09F03E1EE103AA9
:109AB000F1EE103A324C4023C4F884314FF4806305
:109AC000C4F8843103A88DF80C10FFF725FF9DF82A
:109AD0000C30002B4ED120BFD4F80031D4F8042133
:109AE0001343F8D0284B4FF48032C3F808230022E8
:109AF000C3F84021D3F8401103910399C3F8002122
:109B0000D3F80021029201220299C3F80423D3F86A
:109B100004451B4BE41B24F07F44444528BF4446C6
:109B20004FF40032012CC3F8802121D9601EFFF7C9
:109B3000B7F8174BD3F8FC30D9010FD5154B1A687D
:109B4000D2070BD514495A6801FB04F4A4F5742418
:109B5000A4F51074A40A02EB84125A60FFF7A8F867
:109B600000288ED00A4B4FF080525A6040BF88E7E1
:109B7000F4D086E7FFF7CEFEB4E700BF64700020A4
:109B800000E100E0FC06FFBD00100140FDFFFF000A
:109B900000ED00E0001000E040420F0007480068C0
:109BA00080F3088862B661B6BFF34F8FBFF36F8F43
:109BB0004FF0E00080F3118800DF00BF006002007A
:109BC000064B19680868B0E8F04F80F30988BFF3C6
:109BD0006F8F4FF0000080F311887047806700207E
:109BE000EFF30980BFF36F8F144B1A681EF0100F4C
:109BF00008BF20ED108A20E9F04F10604DF8043DB9
:109C00004FF0400080F31188BFF34F8FBFF36F8F89
:109C1000FFF74EFA4FF0000080F3118808BC196876
:109C20000868B0E8F04F1EF0100F08BFB0EC108AC3
:109C300080F30988BFF36F8F704700BF80670020F3
:109C4000704700BF0A490B4A0B4B9B1A03DD043BCC
:109C5000C858D050FBDC094809494FF0AD320260CA
:109C600004300439FBD100F075F8FCF71BFB000051
:109C7000883B030000600020EC61002000F8032016
:109C800000080000FEE7FEE7FEE7FEE7FEE7FEE76E
:109C9000FEE7FEE7FEE7FEE708B50020AFF3008031
:109CA000FCF71EFD094C0A4DFCF728FE00F036F9C2
:109CB000002CF9D0002DF7D0FDF794FEFCF71EFE26
:109CC00000F02CF9002CF5D1EEE700BF00000000F9
:109CD000E579020000B583B000F090FAFDF70AFACA
:109CE0000E4A0F490F480123CDE9003200234FF4FB
:109CF0008062FEF7F1FD4FF4407000F033FAFEF79A
:109D000059FFBFF34F8F0849084BCA6802F4E0625D
:109D10001343CB60BFF34F8F00BFFDE7146A0020F1
:109D2000DC350300999C020000ED00E00400FA0518
:109D300038B507480C46154600F0D2FD00B938BDCD
:109D40002A4621460248BDE8384000F0D5BC00BF95
:109D5000707000204FF0805210B4D2F83031591C8E
:109D600000F09C80082B21D04FF08053D3F8303185
:109D7000013310D0614AD2F8883043F47003C2F83E
:109D80008830BFF34F8FBFF36F8F5D4B5D4A5DF837
:109D9000044B1A6070474FF07042D2F8E83F92F8D7
:109DA000E02F082AC3F30313E4D169E0D2F8343179
:109DB000032B12D84FF080504FF08043D0F8301171
:109DC00000224C1CC3F80C21C3F81021C3F838251D
:109DD00071D0D0F83431082948D1032B46D84FF040
:109DE0008052494BD2F80414C3F82015D2F8081455
:109DF000C3F82415D2F80C14C3F82815D2F810149F
:109E0000C3F82C15D2F81414C3F83015D2F818146E
:109E1000C3F83415D2F81C14C3F84015D2F8201436
:109E2000C3F84415D2F82414C3F84815D2F82814FE
:109E3000C3F84C15D2F82C14C3F85015D2F83014CE
:109E4000C3F85415D2F83414C3F86015D2F8381496
:109E5000C3F86415D2F83C14C3F86815D2F840145E
:109E6000C3F86C15D2F84424C3F870254FF0805223
:109E7000D2F83031082B7FF47BAFD2F834311BB3EA
:109E8000032B3FF677AF4FF08043D3F80024D2077F
:109E900044BF6FF00102C3F800246BE74FF070433A
:109EA00093F8E02F082A7FF45FAFD3F8E83F13F070
:109EB000C00F3FF47FAF4FF07042D2F8E83F92F806
:109EC000E01FC3F3031386E710481149114CC0F893
:109ED0008C46FB20C1F81805002BD1D14FF08041F2
:109EE000D2F85802D1F8E43E0B4A60F303034FF472
:109EF0000070C1F8E43EC2F84006C4E700ED00E09F
:109F0000006000200090D00300C0004000500040DE
:109F100000F00040488103000090024008B5AFF314
:109F20000080054B4FF080525A6040BFBFF34F8F07
:109F3000BFF36F8F08BD00BF00ED00E0704700BFAA
:109F4000704700BF044B10B40360044C0C606423E2
:109F50005DF8044B13607047FC6F00206C6E0020AE
:109F6000054B10B40360054C0C604FF480735DF832
:109F7000044B1360704700BF186E0020186A002061
:109F800070B51F4C84B020684FF0FF3203A9FEF774
:109F900061F80028F7D00398037A4568052B0DD89F
:109FA000DFE803F0272A221C1503D0E90361D0E97A
:109FB0000523C06900903046A847039803681BB189
:109FC000184600F07BFA039800F078FADBE7D0E956
:109FD0000523D0E90301A8470398EFE7D0E904126D
:109FE000C068A8470398E9E7D0E90301A8470398A8
:109FF000E4E7A8470398E1E7C068A8470398DDE7CE
:10A00000587000202DE9F043314B324D5B682968D0
:10A0100085B0C3F30803019001AF53B10023084694
:10A020001A463946FDF760FF012809D105B0BDE8A1
:10A03000F083084664223946FDF774FD0128F5D007
:10A04000DFF89480D8F80000002240000421FDF7DA
:10A0500031FD06460028E9D0DFF88090D9F80000ED
:10A06000FEF7AEFCFFF742FC01E0FDF75BFD0022CE
:10A0700003A92868FDF7EEFF04460023642203A924
:10A080003046002CF1D12868FEF7B2FA2E60FFF7B7
:10A0900037FCD9F80000FEF747FDD8F800302868F3
:10A0A0005B00C8F800300A4B5B68C3F308033BB1A0
:10A0B000234622463946FDF717FF05B0BDE8F08379
:10A0C00064223946FDF72EFD05B0BDE8F08300BFE0
:10A0D00000ED00E058700020547000205070002007
:10A0E0002DE9F8439DF8206005460F4690469946B5
:10A0F0008EB3B0000C3000F0C7F9044680B30023E3
:10A10000C0F804800672036005B137B9E6B920468D
:10A11000FFF778FF0120BDE8F883384600F0B4F976
:10A1200080462060C8B13A46294606F061FE002EFE
:10A13000EDD04A4609EB860152F8043BAB4208BF1A
:10A1400042F8048C8A42F7D1B200494604F10C006F
:10A1500006F04EFEDBE71020CDE7204600F0AEF91A
:10A160000020D8E770B540230B4D82B00446002292
:10A17000042118462B60FDF79DFC084D084A09494B
:10A1800006460223CDE9003207482E600023A2B222
:10A19000FEF7A2FB02B070BD547000205870002082
:10A1A00050700020E4350300819F020011DF7047EA
:10A1B00008B50446FFF7FAFF0D4B4FF080414FF012
:10A1C000FF32C3F88020C3F88021C3F88420C3F88D
:10A1D0008421C1F81C45BFF34F8F0649064BCA685E
:10A1E00002F4E0621343CB60BFF34F8F00BFFDE783
:10A1F00000E100E000ED00E00400FA054FF08043CC
:10A200001A4AD3F800141A4810B41160D3F8001495
:10A21000D3F80024174C0A43C3F80024D4F840456F
:10A22000154904600122C3F818259A604FF40033E1
:10A23000C1F88030BFF34F8FBFF36F8F03F18043BE
:10A24000A3F570434FF480310C48C3F848134FF026
:10A25000A04CC3F808134FF0FF315A605DF8044B6F
:10A260009A60CCF80815C0F8081570475C7000209B
:10A270006070002000A0004000E100E000030050FA
:10A2800008B54E20FFF794FF22281BD83C4B53F80B
:10A2900020301F2B86BF3B4A03F01F034FF0A04224
:10A2A0000E290FD8DFE801F0655F59534D4740395B
:10A2B000322B241D160F080003F5E07340F20371E2
:10A2C00042F82310704703F5E07340F2036142F84F
:10A2D0002310704703F5E07340F2035142F8231056
:10A2E000704703F5E07340F2034142F823107047D2
:10A2F00003F5E07340F2033142F82310704703F591
:10A30000E07340F2032142F82310704703F5E07335
:10A3100040F2031142F82310704703F5E0734FF445
:10A32000403142F82310704703F5E0734FF40031D9
:10A3300042F82310704703F5E073134942F82310E5
:10A34000704703F5E073114942F82310704703F595
:10A35000E073042142F82310704703F5E0730C21E9
:10A3600042F82310704703F5E073032142F82310ED
:10A37000704703F5E073002142F82310704700BFD7
:10A380003436030000030050040002000C000300F8
:10A39000222810D80A4B53F820201F2A88BF02F029
:10A3A0001F024FF001038CBF06484FF0A0409340BE
:10A3B00011B1C0F808357047C0F80C35704700BFC0
:10A3C000343603000003005022280DD8074B53F801
:10A3D00020201F2A86BF064902F01F024FF0A0412D
:10A3E00001239340C1F80C35704700BF3436030099
:10A3F0000003005000F108034FF0FF310022C0E9D4
:10A400000131C0E903330260704700BF00230361DC
:10A41000704700BF4268036810B494680133C1E913
:10A420000124616091605DF8044B0861036070472E
:10A4300030B40D686B1C10D000F108031C465B683B
:10A440001A68AA42FAD902684B60013299608C609E
:10A450006160086130BC0260704704696368F2E7BC
:10A46000036910B4D0E901125C688A6084425160CB
:10A4700008BF5A601A685DF8044B0021013A016177
:10A480001A601868704700BF10B50446FEF790FFC9
:10A49000022804D02046BDE8104005F083BDFEF739
:10A4A000F1FB204605F07EFD0446FEF79BFC0CB157
:10A4B000204610BDFFF744FDFAE700BF10B5044683
:10A4C000FEF776FF02280AD144B1FEF7DBFB2046F7
:10A4D00005F070FDBDE81040FEF784BC10BD2046BD
:10A4E000BDE8104005F066BD10B50446FEF7CAFB96
:10A4F000204605F057FD0446FEF774FC0CB12046DB
:10A5000010BDFFF71DFD204610BD00BF50B110B5B6
:10A510000446FEF7B7FB204605F04CFDBDE81040B1
:10A52000FEF760BC704700BF002A00F093802DE961
:10A53000F043494991F81C4191F81D9191F81E6131
:10A540001F46A31C93B081F81C3109F1020381F866
:10A550001D31731C81F81E318046154600214222B0
:10A5600001A806F066FB412F70D998F814308DF8D9
:10A57000143005238DF8153024238DF81630374B11
:10A58000069301238DF81C3004238DF81F308DF8BD
:10A59000303040F60223ADF8333069F07F038DF898
:10A5A0002A302846402309F101058DF83C3065F03A
:10A5B0007F032B4D089540F60835ADF8045008226E
:10A5C00040F202258DF806408DF80E408DF82640A9
:10A5D0008DF82C20ADF8085040F6011240F20945E4
:10A5E0000134E4B2ADF82E20ADF80C50022240F256
:10A5F00001258DF81E408DF827408DF831408DF8EB
:10A6000007208DF812208DF83B20ADF8105040F255
:10A610000752032440F224658DF82B40ADF8282022
:10A62000ADF838208DF83A6001A944F20204ADF883
:10A630002450ADF83F2042228DF84130ADF8424021
:10A6400006F0D6FB422013B0BDE8F083002013B023
:10A65000BDE8F08342207047887000202001052467
:10A6600024020605407DFF280AD010B500F0E8F965
:10A67000044608B1204610BDFFF750FC204610BD2F
:10A6800000207047407DFF280ED000B583B00DF14B
:10A69000070100F02DFA20B19DF8070003B05DF826
:10A6A00004FB4FF0FF30F9E74FF0FF30704700BF79
:10A6B000407DFF280FD000B583B001220DF10701C6
:10A6C00000F0CAF920B19DF8070003B05DF804FB63
:10A6D0004FF0FF30F9E74FF0FF307047407DFF2823
:10A6E00001D000F00FBA7047407DFF2801D000F084
:10A6F0006FBA0020704700BFF8B50646407DFF28BE
:10A700001AD017465AB10D46144600F075F980B1BB
:10A710002246707D294600F03BFA241A01D13846C2
:10A72000F8BD0544FFF7FAFB707D00F065F90028DD
:10A73000EED13F1B3846F3E70020F8BD70B5036843
:10A74000174A5B6882B093428DF807101FD1054607
:10A75000407DFF2821D00DF10706012400F04CF9BF
:10A7600088B12246687D314600F012FA241A02D1DF
:10A77000012002B070BD0644FFF7D0FB687D00F0F9
:10A780003BF90028EDD1C4F1010002B070BD0122F7
:10A790000DF10701984702B070BD002002B070BDF6
:10A7A000F9A60200002A00F093802DE9F043494900
:10A7B00091F81C4191F81D9191F81E611F46A31C50
:10A7C00093B081F81C3109F1020381F81D31731C2B
:10A7D00081F81E31804615460021422201A806F06C
:10A7E00028FA412F70D998F804308DF814300523D9
:10A7F0008DF8153024238DF81630374B069301233E
:10A800008DF81C3004238DF81F308DF8303040F661
:10A810000223ADF8333069F07F038DF82A302846E3
:10A82000402309F101058DF83C3065F07F032B4D85
:10A83000089540F60835ADF80450082240F202258C
:10A840008DF806408DF80E408DF826408DF82C20AE
:10A85000ADF8085040F6011240F209450134E4B267
:10A86000ADF82E20ADF80C50022240F201258DF8F3
:10A870001E408DF827408DF831408DF807208DF867
:10A8800012208DF83B20ADF8105040F207520324FF
:10A8900040F224658DF82B40ADF82820ADF8382023
:10A8A0008DF83A6001A944F20204ADF82450ADF8E5
:10A8B0003F2042228DF84130ADF8424006F098FA30
:10A8C000422013B0BDE8F083002013B0BDE8F08350
:10A8D00042207047887000202001052424020605CC
:10A8E000407DFF2808D008B500F086F800B108BD0B
:10A8F000FFF714FB002008BD0020704701B900B12C
:10A90000704700B583B0694600F08CF8009BB3F542
:10A91000966F02D003B05DF804FB00F01BF8F9E776
:10A92000084B094A10B44FF47A710024C3E901417D
:10A930004FF47F4102F1280099825DF8044B1A60C0
:10A940001861704770700020FC360300002001F091
:10A95000A3BB00BFFFF794BC2DE9F047044600F00D
:10A9600009FD08B9BDE8F08700F00CFD0546002898
:10A97000F8D1DFF868804FF4367604FB06F608EB72
:10A98000060999F80330002BECD006F11007474474
:10A99000384600F037FB3F28E4D999F8031018F83F
:10A9A000060000F01DFF0028DCD0384600F02AFB2E
:10A9B0003F2899F8031008D9074A284602EBC41229
:10A9C0004023BDE8F04700F02BBF18F80600BDE8B3
:10A9D000F04700F015BF00BF1C720020A0720020DD
:10A9E000704700BF704700BF704700BF704700BF8F
:10A9F000704700BF704700BF10B5044600F0BAFCB6
:10AA000008B9002010BD00F0BDFC0028F9D1044BAE
:10AA10004FF4367202FB0433587900F0010010BD88
:10AA2000A0720020054B4FF4367202FB0033986889
:10AA300008609A899B7B8B718A807047A072002086
:10AA400008B5044B4FF4367202FB003000F0C0FA38
:10AA500008BD00BFB07200202DE9F0474FF43674F6
:10AA60004FF6FF7300FB04F4DFF880809A4204F194
:10AA7000100528BF1A464544064692B2284600F003
:10AA8000D3FA074600F076FC10B93846BDE8F087E7
:10AA900000F078FC81460028F7D108EB040A9AF808
:10AAA0000330002BF1D0284600F0ACFA3F28ECD957
:10AAB0009AF8031018F8040000F092FE0028E4D081
:10AAC000284600F09FFA3F289AF8031007D9064A53
:10AAD000484602EBC612402300F0A2FED5E718F864
:10AAE000040000F08DFED0E71C720020A072002050
:10AAF000034B4FF4367202FB003000F005BB00BF81
:10AB0000B07200202DE9F041044600F033FC10B98A
:10AB10000020BDE8F08100F035FC0028F8D14FF4AA
:10AB20003675194F04FB05F505F124063E44304601
:10AB300000F04EFA0028EBD007EB0508785D98F896
:10AB4000021000F04DFE0028E2D030460F4E06EB1A
:10AB5000C4163146402200F067FA044698F8021005
:10AB6000785D64B12346324600F05AFE50B94FF08A
:10AB7000E023D3F8F03DDB07CAD500BEC8E700F0FC
:10AB80003FFEC5E72046C4E7A07200205C720020AB
:10AB900070B50E4C4FF4367303FB00444FF6FF7351
:10ABA0009A4228BF1A4692B20546204600F0E6FABD
:10ABB0000646204600F00CFA3F2801D8304670BD0A
:10ABC0002846FFF79FFF304670BD00BFC4720020CB
:10ABD00008B5044B4FF4367202FB003000F012FA55
:10ABE00008BD00BFC472002070B54FF4367282B049
:10ABF0000021214806F01DF81F48FF224FF4E133E1
:10AC00000821002504460095827183608173012329
:10AC100000F138014FF48072103000F0A5F9174AA6
:10AC20001178C1F3800101234FF48072009104F187
:10AC3000240004F59C7100F097F904F50E710120D1
:10AC4000FDF71CF9264606F5227104460120FDF7A2
:10AC500015F904B140B94FF0E023D3F8F03DDB071C
:10AC600000D500BE02B070BD034BC3E90754C3E971
:10AC70000C0502B070BD00BFA0720020046000206F
:10AC800038B5094C206A256B20B1FDF7B1FC0023D3
:10AC9000C4E9073335B12846FDF7AAFC002200239A
:10ACA000C4E90C23012038BDA072002010B50E4C61
:10ACB0000E482378002202608280DA0709D59B07BC
:10ACC0000DD521780A48BDE81040C1F3800100F09D
:10ACD00027BB103000F004FB23789B07F1D4044815
:10ACE00000F0FEFAEDE700BF04600020A072002033
:10ACF000C4720020F0B54B79022B83B002D18B795E
:10AD0000022B03D00025284603B0F0BD284FBB78A6
:10AD10003BB14FF0E023D3F8F03DDB07F2D500BEA6
:10AD2000F0E78B787B7038700B78CC18064661782A
:10AD3000242908BF092507D036E023781C442B447A
:10AD4000617824299DB207D1AA42F6D20020FFF7EC
:10AD500003FE284603B0F0BD0B46052916D0042B90
:10AD6000F4D163790A2BF1D1124B27780193013387
:10AD7000009302233046E1191A4600F081FC0028B6
:10AD8000C7D00E3517FA85F5ADB2DFE7214630465C
:10AD900000F002FD0028BCD0A3783B7123781C444E
:10ADA0005A1995B26378DAE70B460925D5E700BF53
:10ADB000A0720020A272002038B5137803F060035F
:10ADC000202B07D19446274ABCF8043092F801E0C2
:10ADD0009E4501D0002038BD9CF80130203B032B5C
:10ADE000F8D8DFE803F02B270C0201292FD0032924
:10ADF00022D1BCF802100020FFF7FCFD1CE0012965
:10AE000025D0032918D11849BCF802300978174811
:10AE1000537103F0010511F00401C3F3400418BF9E
:10AE200085F0010100F07CFA224629460020FFF758
:10AE300065FD01E001290ED0012038BD01290AD0AD
:10AE40000329F9D10A490020FFF7D2FDF4E7614652
:10AE500000F07AFDF0E7064A0723614600F08CFD1A
:10AE6000EAE700BFA072002004600020C472002046
:10AE7000A87200202DE9F843374DEA788A420C4643
:10AE800080461F4642D0AB788B4213D02B798B4241
:10AE900010D04FF0E023D3F8F03DDB0713D40020AF
:10AEA000BDE8F8832D4800F0A3F8002851D0002019
:10AEB000FFF752FDAB78A34207D02B79A34244D0D1
:10AEC0000120BDE8F88300BEE9E70020FFF78CFD14
:10AED0000020FFF717FE0028EFD1214800F078F896
:10AEE0000028EAD1002FE8D017F03F07E5D1A97874
:10AEF000404600F075FC0028DFD0A9783B463A4672
:10AF0000404600F08DFC0028D7D1C2E79AB215491F
:10AF100005F1100000F032F9AB79FF2BC2D0002F01
:10AF2000C0D0104E06EB070902E0B145BAD0AB79AC
:10AF300016F8012B9A42F8D1084800F059F8002879
:10AF4000F3D1A979FFF74EFDEFE70020FFF74EFDA3
:10AF5000B6E7FFF745FDAAE7A0720020B072002017
:10AF6000C47200201C7200202DE9F041B2F5004FA0
:10AF70009DF8188029D80446C06816460F461D461D
:10AF800018B14FF0FF31FDF7B9F9206918B14FF052
:10AF9000FF31FDF7B3F9C5F30E05E0682760002324
:10AFA00045EAC8356381A680E580238118B11A4639
:10AFB0001946FCF7B7FD206920B100231A4619464F
:10AFC000FCF7B0FD0120BDE8F0810020BDE8F08174
:10AFD00003894289808892B29BB2934236BFC2EB0A
:10AFE00040029B1A9B189BB2984228BF1846704794
:10AFF0000289438990B29BB2C01AB0FA80F040092E
:10B00000704700BF03894289808892B29BB2934205
:10B0100036BFC2EB40029B1A9B189BB2984286BF78
:10B02000C01A80B2002070472DE9F047064600693B
:10B030008846914618B14FF0FF31FDF75FF933892B
:10B040007489B5889BB2A4B2A34236BFC4EB45074E
:10B050001F1BFF18BFB2002F4DD0BD4243D3B945CF
:10B0600028BFB946A5421FFA89F703D8641BA4B2CA
:10B07000A542FBD9B6F806A031682B1B9BB2CAF3D8
:10B080000E029F42924602FB041126D913FB02F3E3
:10B090001FFA83F94A4640467D1B05F0A9FE621956
:10B0A00012FB0AF2316808EB090092B205F0A0FE2B
:10B0B0007289B58892B2D3199BB29A421DD96A009F
:10B0C0009B1A9BB23069738120B100231A4619463E
:10B0D000FCF728FD3846BDE8F08707FB02F2404642
:10B0E00005F086FEE4E7AB422CBF5B1B5B199CB20C
:10B0F00074812F46B3E773899BB2B3EB450F4FEAD8
:10B100004502DFDBDCE700BF38B5044600690D46C9
:10B1100018B14FF0FF31FDF7F1F821896389A2885A
:10B1200089B29BB2994236BFC3EB4200C81A40189D
:10B1300080B200B3824209D291422CBF891A891889
:10B140008BB29A42638103D89B1A9BB29A42FBD975
:10B15000E2882168C2F30E02284602FB031105F0C3
:10B1600047FE0125206920B100231A461946FCF745
:10B17000D9FC284638BD0546F4E700BF2DE9F04F5D
:10B18000174683B0002A75D00646C068894618B1B4
:10B190004FF0FF31FDF7B2F8F379B6F80880728905
:10B1A000B588DB091FFA88F892B23CD1904536BFCA
:10B1B000C2EB4502A8EB0202424492B2AA425ED21E
:10B1C000AA1A92B2BA4228BF3A4697B2B6F806B067
:10B1D0007B1B08EB070ACBF30E0B9BB21FFA8AFA14
:10B1E000A845444603D3641BA4B2AC42FBD22D1B3A
:10B1F0003068ADB2BD420BFB04005AD30BFB07F223
:10B20000494605F0F5FDB288D0454FEA420302D821
:10B21000BAEB420F03DBAAEB03031FFA83FAA6F88B
:10B2200008A03D462CE0B6F806B0AF42CBF30E0BBB
:10B2300032D2904536BFC2EB4501A8EB0201414432
:10B2400089B2680039447B1B81429BB20DDB02EB63
:10B25000050A1FFA8AFAAAEB07081FFA88F842457E
:10B260003AD9A8EB00001FFA80F807EB080A1FFA8A
:10B270008AFAB5E71546284603B0BDE8F08F0025E9
:10B28000F0680028F7D000231A461946FCF74AFC5C
:10B29000284603B0BDE8F08F002DF1D07F1B02EBF4
:10B2A000050A0BFB07991FFA8AFA90462F460023DE
:10B2B00096E715FB0BF5ADB22A464946019305F01A
:10B2C00097FD019B30681C4414FB0BF409EB05014E
:10B2D000A2B205F08DFD96E7404581DCC1E700BFD5
:10B2E00010B50446C06818B14FF0FF31FDF706F8FD
:10B2F000206918B14FF0FF31FDF700F8E068002336
:10B300006381238118B11A461946FCF70BFC2069AA
:10B3100020B100231A461946FCF704FC012010BD99
:10B3200038B5C379B1EBD31F1FD00446C0680D46B2
:10B3300018B14FF0FF31FCF7E1FF206918B14FF071
:10B34000FF31FCF7DBFFE379E06865F3C713E371D6
:10B3500020B100231A461946FCF7E4FB206920B10E
:10B3600000231A461946FCF7DDFB012038BD00BF5B
:10B37000704700BF024B5878003818BF0120704753
:10B380008C750020024B1878C0F38000704700BF16
:10B390008C7500202DE9F0434378023B85B00446CC
:10B3A0000D46052B16D8DFE813F006004A0073009F
:10B3B000BD00C7007C00AB4B1A7822F001021A7066
:10B3C0001A78002122F002021A7059701A7861F37B
:10B3D00082021A70A44B18688DB92B464FF0FF32C9
:10B3E0002146FCF79FFB003818BF0120E8B16178C7
:10B3F00020782A46FFF7BCFF05B0BDE8F0830023A4
:10B4000001AA21460193FCF76FFD019B43B1974BC5
:10B410004FF080525A6040BFBFF34F8FBFF36F8F22
:10B42000003818BF01200028E1D14FF0E023D3F805
:10B43000F03DDB07E0D500BE05B0BDE8F0838C4EE3
:10B440003278FA2A00F083804FF00009DFF8288272
:10B45000884F494611E0386810EB830005D0036A35
:10B460001BB1616820789847327809F10109931D72
:10B47000DBB25FFA89F18B4269D98A4209EBC903D1
:10B48000E9D8A9EB020000EBC00008EB8000E6E77A
:10B49000744B1A78D607AFD51A7842F004021A70A6
:10B4A00098E7017911F07F0294D0714B6D4E1F78AF
:10B4B00006EB420303EBD113C8091B7DBB424FEAE5
:10B4C0004202C0F0BE8007F1060C5FFA8CFC6345B7
:10B4D00080D2DB1B684F03EBC30307EB8303DF69F9
:10B4E000002F3FF477AF32441618627996F8263071
:10B4F00023F0010386F8263096F8263023F0040363
:10B5000086F826302078A3682036B84700287FF4D4
:10B5100073AFB37943F00103B371B37943F004031C
:10B52000B37157E74F4B1A78D0077FF565AF1A789C
:10B5300022F004021A704DE7504A13780133DBB24F
:10B540001370494B1868002D7FF459AF45E7454EFD
:10B5500033785F0730D5337823F004033370424BE0
:10B56000227818688DF8042000230522ADF80E30EB
:10B57000CDF80630CDF80A308DF80520002D56D0D4
:10B580006A4601A90093FCF7AFFC009B43B1374B1F
:10B590004FF080525A6040BFBFF34F8FBFF36F8FA1
:10B5A000003818BF0120002854D14FF0E023D3F811
:10B5B000F03DD90700D500BEF378DA077FF51CAF60
:10B5C000294A217810688DF8041000236268CDF8AC
:10B5D00006300321CDF80A30ADF80E308DF8051095
:10B5E000029285B92B464FF0FF3201A9FCF79AFA77
:10B5F00000283FF41AAF9DF805109DF804002A4674
:10B60000FFF7B6FEF8E66A4601A90093FCF76CFC6A
:10B61000009B43B1154B4FF080525A6040BFBFF3BF
:10B620004F8FBFF36F8F00283FF4FFAEE3E72B4649
:10B630004FF0FF3201A9FCF775FA003818BF01205E
:10B64000B1E70C4F3F6803EBC30317EB83037FF4B1
:10B6500046AFBFE69DF805109DF804002A46FFF7A7
:10B6600087FEA9E78C7500207C75002000ED00E0C6
:10B67000807500208475002028370300887500201D
:10B680002DE9F84F0A9F002A43D0DFF88CA0DFF89D
:10B690008C900C461E4615464FF0000B17E099F8AB
:10B6A00002109AF8008001F0B9F800B32146404634
:10B6B00000F0D8FA10B3A278D10916BF0B9B3A70EC
:10B6C0001A7022780BF1010BAB45144421D061783C
:10B6D00005294FF00002204610D1E17801F0030166
:10B6E000B1420BD1A17801F07F010829D7D94FF0E1
:10B6F000E023D3F8F03DDA0700D500BE4FF0E02399
:10B70000D3F8F03DDB0702D40020BDE8F88F00BE7F
:10B71000FAE70120BDE8F88F056000208C75002055
:10B7200030B51B4D85B003464FF40064CDE90143AD
:10B730002868039114467AB9134601A94FF0FF32E5
:10B74000FCF7F0F9D8B19DF805109DF804002246E9
:10B75000FFF70EFE05B030BD00236A4601A9009335
:10B76000FCF7C2FB009B43B10A4B4FF080525A607A
:10B7700040BFBFF34F8FBFF36F8F0028E3D14FF06F
:10B78000E023D3F8F03DDB07E4D500BE05B030BDC3
:10B790007C75002000ED00E038B58B7803F07F0366
:10B7A000082B08D94FF0E023D3F8F03DDB0700D594
:10B7B00000BE002038BD084A084B0C462046917850
:10B7C0001D78002201F02AF80028EBD021462846F7
:10B7D000BDE8384000F046BA8C75002005600020B6
:10B7E000CB09054A054801F07F01263303EB4103ED
:10B7F0001844116800F0C8BF787500208C750020CF
:10B80000CB09054A054801F07F01263303EB4103CC
:10B810001844116800F0E4BF787500208C75002092
:10B8200010B5184C01F07F0C04EB4C0404EBD11460
:10B830002034A079C00708D54FF0E023D3F8F03DBD
:10B84000DA0700D500BE002010BD94F806C00E48EF
:10B850004CF0010C007884F806C000F0F7FA0028DC
:10B86000F2D1A27960F30002A271A2794FF0E02137
:10B8700060F38202A271D1F8F03DDB07E3D500BE90
:10B88000E1E700BF8C75002005600020054B01F04A
:10B890007F0203EB420303EBD11191F8260000F085
:10B8A000010070478C75002010B50C4B18780C46C1
:10B8B00000F0CEFB0A4904F07F0301EB430101EBEA
:10B8C000D41191F8263043F0020381F8263091F824
:10B8D000263043F0010381F8263010BD05600020BA
:10B8E0008C750020054B01F07F0203EB420303EB54
:10B8F000D11191F82600C0F3400070478C750020EC
:10B9000010B50F4B18780C4600F03CFA0D4904F0C6
:10B910007F0301EB430101EBD41191F8263023F0B2
:10B92000020381F8263091F8263023F0010381F8D4
:10B93000263091F8263023F0040381F8263010BD1C
:10B94000056000208C75002010B40A4C0A4684461D
:10B9500008684968234603C311780023C943C4E932
:10B96000023360465DF8044B01F080011A46FFF790
:10B9700057BF00BF04760020F8B5274E8C46054619
:10B9800008684968B260B646AEE803000021F1815C
:10B99000BCF80600834228BF0346B38190B11C4621
:10B9A0002BB31746D2B196F90030402C28BF402463
:10B9B000002B28DB194A23462846FFF731FF68B1E0
:10B9C0000120F8BD9CF80010C9430346024601F06F
:10B9D00080012846FFF724FF0028F1D14FF0E02333
:10B9E000D3F8F03DDB0700D500BE0020F8BD31786C
:10B9F0001A4601F0800123462846FFF711FF002870
:10BA0000ECD00120DDE722463946044805F0F0F984
:10BA1000024A8021EFE700BF04760020C4750020B1
:10BA200030B5344ABFF35B8F01460120D2E84F3F67
:10BA3000C2E8440F002CF9D1BFF35B8FDBB2002BBF
:10BA40003CD108292ED02C4C01F59473A2F5907EA0
:10BA500054F823304D011FFA83FC0EEB41135EF8BE
:10BA60000550B3F806E09B88A3EB0E039BB2634539
:10BA700028BF634601EB810C04EB8C0CCCF800571B
:10BA8000CCF804371D4B43F8210003EB8103BFF3CF
:10BA90006F8FBFF34F8F1A498B4208D004398B4206
:10BAA00005D030BD144BD3F8C014CC0312D5BFF36E
:10BAB0005B8F00231370BFF35B8F30BD114B1248B7
:10BAC0005A68C2F30802003ABDE8304018BF0122AC
:10BAD000FFF726BE12F8155C002DE8D052F8202C96
